{
	"polygon/Collection.sol": {
		"Collection": {
			"abi": [
				{
					"inputs": [],
					"stateMutability": "nonpayable",
					"type": "constructor"
				},
				{
					"anonymous": false,
					"inputs": [
						{
							"indexed": true,
							"internalType": "address",
							"name": "owner",
							"type": "address"
						},
						{
							"indexed": true,
							"internalType": "address",
							"name": "approved",
							"type": "address"
						},
						{
							"indexed": true,
							"internalType": "uint256",
							"name": "tokenId",
							"type": "uint256"
						}
					],
					"name": "Approval",
					"type": "event"
				},
				{
					"anonymous": false,
					"inputs": [
						{
							"indexed": true,
							"internalType": "address",
							"name": "owner",
							"type": "address"
						},
						{
							"indexed": true,
							"internalType": "address",
							"name": "operator",
							"type": "address"
						},
						{
							"indexed": false,
							"internalType": "bool",
							"name": "approved",
							"type": "bool"
						}
					],
					"name": "ApprovalForAll",
					"type": "event"
				},
				{
					"anonymous": false,
					"inputs": [
						{
							"indexed": true,
							"internalType": "address",
							"name": "previousOwner",
							"type": "address"
						},
						{
							"indexed": true,
							"internalType": "address",
							"name": "newOwner",
							"type": "address"
						}
					],
					"name": "OwnershipTransferred",
					"type": "event"
				},
				{
					"anonymous": false,
					"inputs": [
						{
							"indexed": true,
							"internalType": "address",
							"name": "from",
							"type": "address"
						},
						{
							"indexed": true,
							"internalType": "address",
							"name": "to",
							"type": "address"
						},
						{
							"indexed": true,
							"internalType": "uint256",
							"name": "tokenId",
							"type": "uint256"
						}
					],
					"name": "Transfer",
					"type": "event"
				},
				{
					"inputs": [
						{
							"internalType": "uint256",
							"name": "",
							"type": "uint256"
						}
					],
					"name": "AllowedCrypto",
					"outputs": [
						{
							"internalType": "contract IERC20",
							"name": "paytoken",
							"type": "address"
						},
						{
							"internalType": "uint256",
							"name": "costvalue",
							"type": "uint256"
						}
					],
					"stateMutability": "view",
					"type": "function"
				},
				{
					"inputs": [
						{
							"internalType": "contract IERC20",
							"name": "_paytoken",
							"type": "address"
						},
						{
							"internalType": "uint256",
							"name": "_costvalue",
							"type": "uint256"
						}
					],
					"name": "addCurrency",
					"outputs": [],
					"stateMutability": "nonpayable",
					"type": "function"
				},
				{
					"inputs": [
						{
							"internalType": "address",
							"name": "to",
							"type": "address"
						},
						{
							"internalType": "uint256",
							"name": "tokenId",
							"type": "uint256"
						}
					],
					"name": "approve",
					"outputs": [],
					"stateMutability": "nonpayable",
					"type": "function"
				},
				{
					"inputs": [
						{
							"internalType": "address",
							"name": "owner",
							"type": "address"
						}
					],
					"name": "balanceOf",
					"outputs": [
						{
							"internalType": "uint256",
							"name": "",
							"type": "uint256"
						}
					],
					"stateMutability": "view",
					"type": "function"
				},
				{
					"inputs": [],
					"name": "baseExtension",
					"outputs": [
						{
							"internalType": "string",
							"name": "",
							"type": "string"
						}
					],
					"stateMutability": "view",
					"type": "function"
				},
				{
					"inputs": [],
					"name": "baseURI",
					"outputs": [
						{
							"internalType": "string",
							"name": "",
							"type": "string"
						}
					],
					"stateMutability": "view",
					"type": "function"
				},
				{
					"inputs": [],
					"name": "cost",
					"outputs": [
						{
							"internalType": "uint256",
							"name": "",
							"type": "uint256"
						}
					],
					"stateMutability": "view",
					"type": "function"
				},
				{
					"inputs": [
						{
							"internalType": "uint256",
							"name": "tokenId",
							"type": "uint256"
						}
					],
					"name": "getApproved",
					"outputs": [
						{
							"internalType": "address",
							"name": "",
							"type": "address"
						}
					],
					"stateMutability": "view",
					"type": "function"
				},
				{
					"inputs": [
						{
							"internalType": "uint256",
							"name": "_pid",
							"type": "uint256"
						}
					],
					"name": "getCryptotoken",
					"outputs": [
						{
							"internalType": "contract IERC20",
							"name": "",
							"type": "address"
						}
					],
					"stateMutability": "view",
					"type": "function"
				},
				{
					"inputs": [
						{
							"internalType": "uint256",
							"name": "_pid",
							"type": "uint256"
						}
					],
					"name": "getNFTCost",
					"outputs": [
						{
							"internalType": "uint256",
							"name": "",
							"type": "uint256"
						}
					],
					"stateMutability": "view",
					"type": "function"
				},
				{
					"inputs": [
						{
							"internalType": "address",
							"name": "owner",
							"type": "address"
						},
						{
							"internalType": "address",
							"name": "operator",
							"type": "address"
						}
					],
					"name": "isApprovedForAll",
					"outputs": [
						{
							"internalType": "bool",
							"name": "",
							"type": "bool"
						}
					],
					"stateMutability": "view",
					"type": "function"
				},
				{
					"inputs": [],
					"name": "maxMintAmount",
					"outputs": [
						{
							"internalType": "uint256",
							"name": "",
							"type": "uint256"
						}
					],
					"stateMutability": "view",
					"type": "function"
				},
				{
					"inputs": [],
					"name": "maxSupply",
					"outputs": [
						{
							"internalType": "uint256",
							"name": "",
							"type": "uint256"
						}
					],
					"stateMutability": "view",
					"type": "function"
				},
				{
					"inputs": [
						{
							"internalType": "address",
							"name": "_to",
							"type": "address"
						},
						{
							"internalType": "uint256",
							"name": "_mintAmount",
							"type": "uint256"
						}
					],
					"name": "mint",
					"outputs": [],
					"stateMutability": "payable",
					"type": "function"
				},
				{
					"inputs": [
						{
							"internalType": "address",
							"name": "_to",
							"type": "address"
						},
						{
							"internalType": "uint256",
							"name": "_mintAmount",
							"type": "uint256"
						},
						{
							"internalType": "uint256",
							"name": "_pid",
							"type": "uint256"
						}
					],
					"name": "mintpid",
					"outputs": [],
					"stateMutability": "payable",
					"type": "function"
				},
				{
					"inputs": [],
					"name": "name",
					"outputs": [
						{
							"internalType": "string",
							"name": "",
							"type": "string"
						}
					],
					"stateMutability": "view",
					"type": "function"
				},
				{
					"inputs": [],
					"name": "owner",
					"outputs": [
						{
							"internalType": "address",
							"name": "",
							"type": "address"
						}
					],
					"stateMutability": "view",
					"type": "function"
				},
				{
					"inputs": [
						{
							"internalType": "uint256",
							"name": "tokenId",
							"type": "uint256"
						}
					],
					"name": "ownerOf",
					"outputs": [
						{
							"internalType": "address",
							"name": "",
							"type": "address"
						}
					],
					"stateMutability": "view",
					"type": "function"
				},
				{
					"inputs": [
						{
							"internalType": "bool",
							"name": "_state",
							"type": "bool"
						}
					],
					"name": "pause",
					"outputs": [],
					"stateMutability": "nonpayable",
					"type": "function"
				},
				{
					"inputs": [],
					"name": "paused",
					"outputs": [
						{
							"internalType": "bool",
							"name": "",
							"type": "bool"
						}
					],
					"stateMutability": "view",
					"type": "function"
				},
				{
					"inputs": [],
					"name": "renounceOwnership",
					"outputs": [],
					"stateMutability": "nonpayable",
					"type": "function"
				},
				{
					"inputs": [
						{
							"internalType": "address",
							"name": "from",
							"type": "address"
						},
						{
							"internalType": "address",
							"name": "to",
							"type": "address"
						},
						{
							"internalType": "uint256",
							"name": "tokenId",
							"type": "uint256"
						}
					],
					"name": "safeTransferFrom",
					"outputs": [],
					"stateMutability": "nonpayable",
					"type": "function"
				},
				{
					"inputs": [
						{
							"internalType": "address",
							"name": "from",
							"type": "address"
						},
						{
							"internalType": "address",
							"name": "to",
							"type": "address"
						},
						{
							"internalType": "uint256",
							"name": "tokenId",
							"type": "uint256"
						},
						{
							"internalType": "bytes",
							"name": "data",
							"type": "bytes"
						}
					],
					"name": "safeTransferFrom",
					"outputs": [],
					"stateMutability": "nonpayable",
					"type": "function"
				},
				{
					"inputs": [
						{
							"internalType": "address",
							"name": "operator",
							"type": "address"
						},
						{
							"internalType": "bool",
							"name": "approved",
							"type": "bool"
						}
					],
					"name": "setApprovalForAll",
					"outputs": [],
					"stateMutability": "nonpayable",
					"type": "function"
				},
				{
					"inputs": [
						{
							"internalType": "string",
							"name": "_newBaseExtension",
							"type": "string"
						}
					],
					"name": "setBaseExtension",
					"outputs": [],
					"stateMutability": "nonpayable",
					"type": "function"
				},
				{
					"inputs": [
						{
							"internalType": "string",
							"name": "_newBaseURI",
							"type": "string"
						}
					],
					"name": "setBaseURI",
					"outputs": [],
					"stateMutability": "nonpayable",
					"type": "function"
				},
				{
					"inputs": [
						{
							"internalType": "uint256",
							"name": "_newmaxMintAmount",
							"type": "uint256"
						}
					],
					"name": "setmaxMintAmount",
					"outputs": [],
					"stateMutability": "nonpayable",
					"type": "function"
				},
				{
					"inputs": [
						{
							"internalType": "bytes4",
							"name": "interfaceId",
							"type": "bytes4"
						}
					],
					"name": "supportsInterface",
					"outputs": [
						{
							"internalType": "bool",
							"name": "",
							"type": "bool"
						}
					],
					"stateMutability": "view",
					"type": "function"
				},
				{
					"inputs": [],
					"name": "symbol",
					"outputs": [
						{
							"internalType": "string",
							"name": "",
							"type": "string"
						}
					],
					"stateMutability": "view",
					"type": "function"
				},
				{
					"inputs": [
						{
							"internalType": "uint256",
							"name": "index",
							"type": "uint256"
						}
					],
					"name": "tokenByIndex",
					"outputs": [
						{
							"internalType": "uint256",
							"name": "",
							"type": "uint256"
						}
					],
					"stateMutability": "view",
					"type": "function"
				},
				{
					"inputs": [
						{
							"internalType": "address",
							"name": "owner",
							"type": "address"
						},
						{
							"internalType": "uint256",
							"name": "index",
							"type": "uint256"
						}
					],
					"name": "tokenOfOwnerByIndex",
					"outputs": [
						{
							"internalType": "uint256",
							"name": "",
							"type": "uint256"
						}
					],
					"stateMutability": "view",
					"type": "function"
				},
				{
					"inputs": [
						{
							"internalType": "uint256",
							"name": "tokenId",
							"type": "uint256"
						}
					],
					"name": "tokenURI",
					"outputs": [
						{
							"internalType": "string",
							"name": "",
							"type": "string"
						}
					],
					"stateMutability": "view",
					"type": "function"
				},
				{
					"inputs": [],
					"name": "totalSupply",
					"outputs": [
						{
							"internalType": "uint256",
							"name": "",
							"type": "uint256"
						}
					],
					"stateMutability": "view",
					"type": "function"
				},
				{
					"inputs": [
						{
							"internalType": "address",
							"name": "from",
							"type": "address"
						},
						{
							"internalType": "address",
							"name": "to",
							"type": "address"
						},
						{
							"internalType": "uint256",
							"name": "tokenId",
							"type": "uint256"
						}
					],
					"name": "transferFrom",
					"outputs": [],
					"stateMutability": "nonpayable",
					"type": "function"
				},
				{
					"inputs": [
						{
							"internalType": "address",
							"name": "newOwner",
							"type": "address"
						}
					],
					"name": "transferOwnership",
					"outputs": [],
					"stateMutability": "nonpayable",
					"type": "function"
				},
				{
					"inputs": [
						{
							"internalType": "address",
							"name": "_owner",
							"type": "address"
						}
					],
					"name": "walletOfOwner",
					"outputs": [
						{
							"internalType": "uint256[]",
							"name": "",
							"type": "uint256[]"
						}
					],
					"stateMutability": "view",
					"type": "function"
				},
				{
					"inputs": [],
					"name": "withdraw",
					"outputs": [],
					"stateMutability": "payable",
					"type": "function"
				},
				{
					"inputs": [
						{
							"internalType": "uint256",
							"name": "_pid",
							"type": "uint256"
						}
					],
					"name": "withdrawcustom",
					"outputs": [],
					"stateMutability": "payable",
					"type": "function"
				}
			],
			"devdoc": {
				"kind": "dev",
				"methods": {
					"approve(address,uint256)": {
						"details": "See {IERC721-approve}."
					},
					"balanceOf(address)": {
						"details": "See {IERC721-balanceOf}."
					},
					"getApproved(uint256)": {
						"details": "See {IERC721-getApproved}."
					},
					"isApprovedForAll(address,address)": {
						"details": "See {IERC721-isApprovedForAll}."
					},
					"name()": {
						"details": "See {IERC721Metadata-name}."
					},
					"owner()": {
						"details": "Returns the address of the current owner."
					},
					"ownerOf(uint256)": {
						"details": "See {IERC721-ownerOf}."
					},
					"renounceOwnership()": {
						"details": "Leaves the contract without owner. It will not be possible to call `onlyOwner` functions anymore. Can only be called by the current owner. NOTE: Renouncing ownership will leave the contract without an owner, thereby removing any functionality that is only available to the owner."
					},
					"safeTransferFrom(address,address,uint256)": {
						"details": "See {IERC721-safeTransferFrom}."
					},
					"safeTransferFrom(address,address,uint256,bytes)": {
						"details": "See {IERC721-safeTransferFrom}."
					},
					"setApprovalForAll(address,bool)": {
						"details": "See {IERC721-setApprovalForAll}."
					},
					"supportsInterface(bytes4)": {
						"details": "See {IERC165-supportsInterface}."
					},
					"symbol()": {
						"details": "See {IERC721Metadata-symbol}."
					},
					"tokenByIndex(uint256)": {
						"details": "See {IERC721Enumerable-tokenByIndex}."
					},
					"tokenOfOwnerByIndex(address,uint256)": {
						"details": "See {IERC721Enumerable-tokenOfOwnerByIndex}."
					},
					"tokenURI(uint256)": {
						"details": "See {IERC721Metadata-tokenURI}."
					},
					"totalSupply()": {
						"details": "See {IERC721Enumerable-totalSupply}."
					},
					"transferFrom(address,address,uint256)": {
						"details": "See {IERC721-transferFrom}."
					},
					"transferOwnership(address)": {
						"details": "Transfers ownership of the contract to a new account (`newOwner`). Can only be called by the current owner."
					}
				},
				"version": 1
			},
			"evm": {
				"assembly": "    /* \"polygon/Collection.sol\":516:553  string public baseExtension = \".json\" */\n  0xc0\n    /* \"polygon/Collection.sol\":272:4892  contract Collection is ERC721Enumerable, Ownable {\r... */\n  0x40\n    /* \"polygon/Collection.sol\":516:553  string public baseExtension = \".json\" */\n  mstore\n  0x05\n    /* \"polygon/Collection.sol\":272:4892  contract Collection is ERC721Enumerable, Ownable {\r... */\n  0x80\n    /* \"polygon/Collection.sol\":516:553  string public baseExtension = \".json\" */\n  dup2\n  swap1\n  mstore\n  shl(0xd9, 0x173539b7b7)\n  0xa0\n  swap1\n  dup2\n  mstore\n  tag_1\n  swap2\n  0x0d\n  swap2\n  swap1\n  tag_2\n  jump\t// in\ntag_1:\n  pop\n    /* \"polygon/Collection.sol\":582:591  100 ether */\n  0x056bc75e2d63100000\n    /* \"polygon/Collection.sol\":560:591  uint256 public cost = 100 ether */\n  0x0e\n  sstore\n    /* \"polygon/Collection.sol\":625:630  10000 */\n  0x2710\n    /* \"polygon/Collection.sol\":598:630  uint256 public maxSupply = 10000 */\n  0x0f\n  sstore\n    /* \"polygon/Collection.sol\":668:671  500 */\n  0x01f4\n    /* \"polygon/Collection.sol\":637:671  uint256 public maxMintAmount = 500 */\n  0x10\n  sstore\n    /* \"polygon/Collection.sol\":678:704  bool public paused = false */\n  0x11\n  dup1\n  sload\n  not(0xff)\n  and\n  swap1\n  sstore\n    /* \"polygon/Collection.sol\":713:768  constructor() ERC721(\"Fantasy_Collections\", \"f-nft\") {} */\n  callvalue\n  dup1\n  iszero\n  tag_3\n  jumpi\n  0x00\n  dup1\n  revert\ntag_3:\n  pop\n    /* \"@openzeppelin/contracts/token/ERC721/ERC721.sol\":1390:1503  constructor(string memory name_, string memory symbol_) {... */\n  0x40\n  dup1\n  mload\n  dup1\n  dup3\n  add\n  dup3\n  mstore\n  0x13\n  dup2\n  mstore\n  0x46616e746173795f436f6c6c656374696f6e7300000000000000000000000000\n  0x20\n  dup1\n  dup4\n  add\n  swap2\n  dup3\n  mstore\n  dup4\n  mload\n  dup1\n  dup6\n  add\n  swap1\n  swap5\n  mstore\n  0x05\n  dup5\n  mstore\n  shl(0xda, 0x198b5b999d)\n  swap1\n  dup5\n  add\n  mstore\n    /* \"@openzeppelin/contracts/token/ERC721/ERC721.sol\":1456:1469  _name = name_ */\n  dup2\n  mload\n    /* \"@openzeppelin/contracts/token/ERC721/ERC721.sol\":1390:1503  constructor(string memory name_, string memory symbol_) {... */\n  swap2\n  swap3\n  swap2\n    /* \"@openzeppelin/contracts/token/ERC721/ERC721.sol\":1456:1469  _name = name_ */\n  tag_8\n  swap2\n  0x00\n  swap2\n  tag_2\n  jump\t// in\ntag_8:\n  pop\n    /* \"@openzeppelin/contracts/token/ERC721/ERC721.sol\":1479:1496  _symbol = symbol_ */\n  dup1\n  mload\n  tag_9\n  swap1\n    /* \"@openzeppelin/contracts/token/ERC721/ERC721.sol\":1479:1486  _symbol */\n  0x01\n  swap1\n    /* \"@openzeppelin/contracts/token/ERC721/ERC721.sol\":1479:1496  _symbol = symbol_ */\n  0x20\n  dup5\n  add\n  swap1\n  tag_2\n  jump\t// in\ntag_9:\n  pop\n    /* \"@openzeppelin/contracts/token/ERC721/ERC721.sol\":1390:1503  constructor(string memory name_, string memory symbol_) {... */\n  pop\n  pop\n    /* \"@openzeppelin/contracts/access/Ownable.sol\":936:968  _transferOwnership(_msgSender()) */\n  tag_11\n    /* \"@openzeppelin/contracts/access/Ownable.sol\":955:967  _msgSender() */\n  tag_12\n    /* \"@openzeppelin/contracts/access/Ownable.sol\":955:965  _msgSender */\n  shl(0x20, tag_13)\n    /* \"@openzeppelin/contracts/access/Ownable.sol\":955:967  _msgSender() */\n  0x20\n  shr\n  jump\t// in\ntag_12:\n    /* \"@openzeppelin/contracts/access/Ownable.sol\":936:954  _transferOwnership */\n  tag_14\n    /* \"@openzeppelin/contracts/access/Ownable.sol\":936:968  _transferOwnership(_msgSender()) */\n  jump\t// in\ntag_11:\n    /* \"polygon/Collection.sol\":272:4892  contract Collection is ERC721Enumerable, Ownable {\r... */\n  jump(tag_30)\n    /* \"@openzeppelin/contracts/utils/Context.sol\":640:736  function _msgSender() internal view virtual returns (address) {... */\ntag_13:\n    /* \"@openzeppelin/contracts/utils/Context.sol\":719:729  msg.sender */\n  caller\n  swap1\n    /* \"@openzeppelin/contracts/utils/Context.sol\":640:736  function _msgSender() internal view virtual returns (address) {... */\n  jump\t// out\n    /* \"@openzeppelin/contracts/access/Ownable.sol\":2433:2620  function _transferOwnership(address newOwner) internal virtual {... */\ntag_14:\n    /* \"@openzeppelin/contracts/access/Ownable.sol\":2525:2531  _owner */\n  0x0a\n  dup1\n  sload\n  sub(shl(0xa0, 0x01), 0x01)\n    /* \"@openzeppelin/contracts/access/Ownable.sol\":2541:2558  _owner = newOwner */\n  dup4\n  dup2\n  and\n  not(sub(shl(0xa0, 0x01), 0x01))\n  dup4\n  and\n  dup2\n  or\n  swap1\n  swap4\n  sstore\n    /* \"@openzeppelin/contracts/access/Ownable.sol\":2573:2613  OwnershipTransferred(oldOwner, newOwner) */\n  mload(0x40)\n    /* \"@openzeppelin/contracts/access/Ownable.sol\":2525:2531  _owner */\n  swap2\n  and\n  swap2\n    /* \"@openzeppelin/contracts/access/Ownable.sol\":2541:2558  _owner = newOwner */\n  swap1\n    /* \"@openzeppelin/contracts/access/Ownable.sol\":2525:2531  _owner */\n  dup3\n  swap1\n    /* \"@openzeppelin/contracts/access/Ownable.sol\":2573:2613  OwnershipTransferred(oldOwner, newOwner) */\n  0x8be0079c531659141344cd1fd0a4f28419497f9722a3daafe3b4186f6b6457e0\n  swap1\n    /* \"@openzeppelin/contracts/access/Ownable.sol\":2506:2522  address oldOwner */\n  0x00\n  swap1\n    /* \"@openzeppelin/contracts/access/Ownable.sol\":2573:2613  OwnershipTransferred(oldOwner, newOwner) */\n  log3\n    /* \"@openzeppelin/contracts/access/Ownable.sol\":2433:2620  function _transferOwnership(address newOwner) internal virtual {... */\n  pop\n  pop\n  jump\t// out\n    /* \"polygon/Collection.sol\":272:4892  contract Collection is ERC721Enumerable, Ownable {\r... */\ntag_2:\n  dup3\n  dup1\n  sload\n  tag_19\n  swap1\n  tag_20\n  jump\t// in\ntag_19:\n  swap1\n  0x00\n  mstore\n  keccak256(0x00, 0x20)\n  swap1\n  0x1f\n  add\n  0x20\n  swap1\n  div\n  dup2\n  add\n  swap3\n  dup3\n  tag_22\n  jumpi\n  0x00\n  dup6\n  sstore\n  jump(tag_25)\ntag_22:\n  dup3\n  0x1f\n  lt\n  tag_23\n  jumpi\n  dup1\n  mload\n  not(0xff)\n  and\n  dup4\n  dup1\n  add\n  or\n  dup6\n  sstore\n  jump(tag_25)\ntag_23:\n  dup3\n  dup1\n  add\n  0x01\n  add\n  dup6\n  sstore\n  dup3\n  iszero\n  tag_25\n  jumpi\n  swap2\n  dup3\n  add\ntag_24:\n  dup3\n  dup2\n  gt\n  iszero\n  tag_25\n  jumpi\n  dup3\n  mload\n  dup3\n  sstore\n  swap2\n  0x20\n  add\n  swap2\n  swap1\n  0x01\n  add\n  swap1\n  jump(tag_24)\ntag_25:\n  pop\n  tag_26\n  swap3\n  swap2\n  pop\n  tag_27\n  jump\t// in\ntag_26:\n  pop\n  swap1\n  jump\t// out\ntag_27:\ntag_28:\n  dup1\n  dup3\n  gt\n  iszero\n  tag_26\n  jumpi\n  0x00\n  dup2\n  sstore\n  0x01\n  add\n  jump(tag_28)\n    /* \"#utility.yul\":14:394   */\ntag_20:\n    /* \"#utility.yul\":93:94   */\n  0x01\n    /* \"#utility.yul\":89:101   */\n  dup2\n  dup2\n  shr\n  swap1\n    /* \"#utility.yul\":136:148   */\n  dup3\n  and\n  dup1\n    /* \"#utility.yul\":157:159   */\n  tag_32\n  jumpi\n    /* \"#utility.yul\":211:215   */\n  0x7f\n    /* \"#utility.yul\":203:209   */\n  dup3\n    /* \"#utility.yul\":199:216   */\n  and\n    /* \"#utility.yul\":189:216   */\n  swap2\n  pop\n    /* \"#utility.yul\":157:159   */\ntag_32:\n    /* \"#utility.yul\":264:266   */\n  0x20\n    /* \"#utility.yul\":256:262   */\n  dup3\n    /* \"#utility.yul\":253:267   */\n  lt\n    /* \"#utility.yul\":233:251   */\n  dup2\n    /* \"#utility.yul\":230:268   */\n  eq\n    /* \"#utility.yul\":227:229   */\n  iszero\n  tag_33\n  jumpi\n    /* \"#utility.yul\":310:320   */\n  0x4e487b71\n    /* \"#utility.yul\":305:308   */\n  0xe0\n    /* \"#utility.yul\":301:321   */\n  shl\n    /* \"#utility.yul\":298:299   */\n  0x00\n    /* \"#utility.yul\":291:322   */\n  mstore\n    /* \"#utility.yul\":345:349   */\n  0x22\n    /* \"#utility.yul\":342:343   */\n  0x04\n    /* \"#utility.yul\":335:350   */\n  mstore\n    /* \"#utility.yul\":373:377   */\n  0x24\n    /* \"#utility.yul\":370:371   */\n  0x00\n    /* \"#utility.yul\":363:378   */\n  revert\n    /* \"#utility.yul\":227:229   */\ntag_33:\n  pop\n    /* \"#utility.yul\":69:394   */\n  swap2\n  swap1\n  pop\n  jump\t// out\ntag_30:\n    /* \"polygon/Collection.sol\":272:4892  contract Collection is ERC721Enumerable, Ownable {\r... */\n  dataSize(sub_0)\n  dup1\n  dataOffset(sub_0)\n  0x00\n  codecopy\n  0x00\n  return\nstop\n\nsub_0: assembly {\n        /* \"polygon/Collection.sol\":272:4892  contract Collection is ERC721Enumerable, Ownable {\r... */\n      mstore(0x40, 0x80)\n      jumpi(tag_1, lt(calldatasize, 0x04))\n      shr(0xe0, calldataload(0x00))\n      dup1\n      0x4f6ccce7\n      gt\n      tag_40\n      jumpi\n      dup1\n      0x8da5cb5b\n      gt\n      tag_41\n      jumpi\n      dup1\n      0xc87b56dd\n      gt\n      tag_42\n      jumpi\n      dup1\n      0xc87b56dd\n      eq\n      tag_35\n      jumpi\n      dup1\n      0xd5abeb01\n      eq\n      tag_36\n      jumpi\n      dup1\n      0xda3ef23f\n      eq\n      tag_37\n      jumpi\n      dup1\n      0xe985e9c5\n      eq\n      tag_38\n      jumpi\n      dup1\n      0xf2fde38b\n      eq\n      tag_39\n      jumpi\n      0x00\n      dup1\n      revert\n    tag_42:\n      dup1\n      0x8da5cb5b\n      eq\n      tag_30\n      jumpi\n      dup1\n      0x95d89b41\n      eq\n      tag_31\n      jumpi\n      dup1\n      0xa22cb465\n      eq\n      tag_32\n      jumpi\n      dup1\n      0xb88d4fde\n      eq\n      tag_33\n      jumpi\n      dup1\n      0xc6682862\n      eq\n      tag_34\n      jumpi\n      0x00\n      dup1\n      revert\n    tag_41:\n      dup1\n      0x690e4fc3\n      gt\n      tag_43\n      jumpi\n      dup1\n      0x690e4fc3\n      eq\n      tag_25\n      jumpi\n      dup1\n      0x6c0360eb\n      eq\n      tag_26\n      jumpi\n      dup1\n      0x70a08231\n      eq\n      tag_27\n      jumpi\n      dup1\n      0x715018a6\n      eq\n      tag_28\n      jumpi\n      dup1\n      0x7f00c7a6\n      eq\n      tag_29\n      jumpi\n      0x00\n      dup1\n      revert\n    tag_43:\n      dup1\n      0x4f6ccce7\n      eq\n      tag_21\n      jumpi\n      dup1\n      0x55f804b3\n      eq\n      tag_22\n      jumpi\n      dup1\n      0x5c975abb\n      eq\n      tag_23\n      jumpi\n      dup1\n      0x6352211e\n      eq\n      tag_24\n      jumpi\n      0x00\n      dup1\n      revert\n    tag_40:\n      dup1\n      0x23b872dd\n      gt\n      tag_44\n      jumpi\n      dup1\n      0x3ccfd60b\n      gt\n      tag_45\n      jumpi\n      dup1\n      0x3ccfd60b\n      eq\n      tag_16\n      jumpi\n      dup1\n      0x3d3d5508\n      eq\n      tag_17\n      jumpi\n      dup1\n      0x40c10f19\n      eq\n      tag_18\n      jumpi\n      dup1\n      0x42842e0e\n      eq\n      tag_19\n      jumpi\n      dup1\n      0x438b6300\n      eq\n      tag_20\n      jumpi\n      0x00\n      dup1\n      revert\n    tag_45:\n      dup1\n      0x23b872dd\n      eq\n      tag_11\n      jumpi\n      dup1\n      0x26c91cad\n      eq\n      tag_12\n      jumpi\n      dup1\n      0x2f745c59\n      eq\n      tag_13\n      jumpi\n      dup1\n      0x34cc5dca\n      eq\n      tag_14\n      jumpi\n      dup1\n      0x356911b4\n      eq\n      tag_15\n      jumpi\n      0x00\n      dup1\n      revert\n    tag_44:\n      dup1\n      0x095ea7b3\n      gt\n      tag_46\n      jumpi\n      dup1\n      0x095ea7b3\n      eq\n      tag_6\n      jumpi\n      dup1\n      0x0c75afab\n      eq\n      tag_7\n      jumpi\n      dup1\n      0x13faede6\n      eq\n      tag_8\n      jumpi\n      dup1\n      0x18160ddd\n      eq\n      tag_9\n      jumpi\n      dup1\n      0x239c70ae\n      eq\n      tag_10\n      jumpi\n      0x00\n      dup1\n      revert\n    tag_46:\n      dup1\n      0x01ffc9a7\n      eq\n      tag_2\n      jumpi\n      dup1\n      0x02329a29\n      eq\n      tag_3\n      jumpi\n      dup1\n      0x06fdde03\n      eq\n      tag_4\n      jumpi\n      dup1\n      0x081812fc\n      eq\n      tag_5\n      jumpi\n    tag_1:\n      0x00\n      dup1\n      revert\n        /* \"@openzeppelin/contracts/token/ERC721/extensions/ERC721Enumerable.sol\":990:1212  function supportsInterface(bytes4 interfaceId) public view virtual override(IERC165, ERC721) returns (bool) {... */\n    tag_2:\n      callvalue\n      dup1\n      iszero\n      tag_47\n      jumpi\n      0x00\n      dup1\n      revert\n    tag_47:\n      pop\n      tag_48\n      tag_49\n      calldatasize\n      0x04\n      tag_50\n      jump\t// in\n    tag_49:\n      tag_51\n      jump\t// in\n    tag_48:\n      mload(0x40)\n        /* \"#utility.yul\":9966:9980   */\n      swap1\n      iszero\n        /* \"#utility.yul\":9959:9981   */\n      iszero\n        /* \"#utility.yul\":9941:9982   */\n      dup2\n      mstore\n        /* \"#utility.yul\":9929:9931   */\n      0x20\n        /* \"#utility.yul\":9914:9932   */\n      add\n        /* \"@openzeppelin/contracts/token/ERC721/extensions/ERC721Enumerable.sol\":990:1212  function supportsInterface(bytes4 interfaceId) public view virtual override(IERC165, ERC721) returns (bool) {... */\n    tag_52:\n      mload(0x40)\n      dup1\n      swap2\n      sub\n      swap1\n      return\n        /* \"polygon/Collection.sol\":3938:4017  function pause(bool _state) public onlyOwner {\r... */\n    tag_3:\n      callvalue\n      dup1\n      iszero\n      tag_54\n      jumpi\n      0x00\n      dup1\n      revert\n    tag_54:\n      pop\n      tag_55\n      tag_56\n      calldatasize\n      0x04\n      tag_57\n      jump\t// in\n    tag_56:\n      tag_58\n      jump\t// in\n    tag_55:\n      stop\n        /* \"@openzeppelin/contracts/token/ERC721/ERC721.sol\":2470:2568  function name() public view virtual override returns (string memory) {... */\n    tag_4:\n      callvalue\n      dup1\n      iszero\n      tag_59\n      jumpi\n      0x00\n      dup1\n      revert\n    tag_59:\n      pop\n      tag_60\n      tag_61\n      jump\t// in\n    tag_60:\n      mload(0x40)\n      tag_52\n      swap2\n      swap1\n      tag_63\n      jump\t// in\n        /* \"@openzeppelin/contracts/token/ERC721/ERC721.sol\":3935:4102  function getApproved(uint256 tokenId) public view virtual override returns (address) {... */\n    tag_5:\n      callvalue\n      dup1\n      iszero\n      tag_64\n      jumpi\n      0x00\n      dup1\n      revert\n    tag_64:\n      pop\n      tag_65\n      tag_66\n      calldatasize\n      0x04\n      tag_67\n      jump\t// in\n    tag_66:\n      tag_68\n      jump\t// in\n    tag_65:\n      mload(0x40)\n      sub(shl(0xa0, 0x01), 0x01)\n        /* \"#utility.yul\":7965:7997   */\n      swap1\n      swap2\n      and\n        /* \"#utility.yul\":7947:7998   */\n      dup2\n      mstore\n        /* \"#utility.yul\":7935:7937   */\n      0x20\n        /* \"#utility.yul\":7920:7938   */\n      add\n        /* \"@openzeppelin/contracts/token/ERC721/ERC721.sol\":3935:4102  function getApproved(uint256 tokenId) public view virtual override returns (address) {... */\n      tag_52\n        /* \"#utility.yul\":7902:8004   */\n      jump\n        /* \"@openzeppelin/contracts/token/ERC721/ERC721.sol\":3467:3874  function approve(address to, uint256 tokenId) public virtual override {... */\n    tag_6:\n      callvalue\n      dup1\n      iszero\n      tag_71\n      jumpi\n      0x00\n      dup1\n      revert\n    tag_71:\n      pop\n      tag_55\n      tag_73\n      calldatasize\n      0x04\n      tag_74\n      jump\t// in\n    tag_73:\n      tag_75\n      jump\t// in\n        /* \"polygon/Collection.sol\":4258:4487  function getCryptotoken(uint256 _pid) public view virtual returns (IERC20) {\r... */\n    tag_7:\n      callvalue\n      dup1\n      iszero\n      tag_76\n      jumpi\n      0x00\n      dup1\n      revert\n    tag_76:\n      pop\n      tag_65\n      tag_78\n      calldatasize\n      0x04\n      tag_67\n      jump\t// in\n    tag_78:\n      tag_79\n      jump\t// in\n        /* \"polygon/Collection.sol\":560:591  uint256 public cost = 100 ether */\n    tag_8:\n      callvalue\n      dup1\n      iszero\n      tag_82\n      jumpi\n      0x00\n      dup1\n      revert\n    tag_82:\n      pop\n      tag_83\n      sload(0x0e)\n      dup2\n      jump\n    tag_83:\n      mload(0x40)\n        /* \"#utility.yul\":17612:17637   */\n      swap1\n      dup2\n      mstore\n        /* \"#utility.yul\":17600:17602   */\n      0x20\n        /* \"#utility.yul\":17585:17603   */\n      add\n        /* \"polygon/Collection.sol\":560:591  uint256 public cost = 100 ether */\n      tag_52\n        /* \"#utility.yul\":17567:17643   */\n      jump\n        /* \"@openzeppelin/contracts/token/ERC721/extensions/ERC721Enumerable.sol\":1615:1726  function totalSupply() public view virtual override returns (uint256) {... */\n    tag_9:\n      callvalue\n      dup1\n      iszero\n      tag_87\n      jumpi\n      0x00\n      dup1\n      revert\n    tag_87:\n      pop\n        /* \"@openzeppelin/contracts/token/ERC721/extensions/ERC721Enumerable.sol\":1702:1712  _allTokens */\n      0x08\n        /* \"@openzeppelin/contracts/token/ERC721/extensions/ERC721Enumerable.sol\":1702:1719  _allTokens.length */\n      sload\n        /* \"@openzeppelin/contracts/token/ERC721/extensions/ERC721Enumerable.sol\":1615:1726  function totalSupply() public view virtual override returns (uint256) {... */\n      jump(tag_83)\n        /* \"polygon/Collection.sol\":637:671  uint256 public maxMintAmount = 500 */\n    tag_10:\n      callvalue\n      dup1\n      iszero\n      tag_91\n      jumpi\n      0x00\n      dup1\n      revert\n    tag_91:\n      pop\n      tag_83\n      sload(0x10)\n      dup2\n      jump\n        /* \"@openzeppelin/contracts/token/ERC721/ERC721.sol\":4612:4939  function transferFrom(... */\n    tag_11:\n      callvalue\n      dup1\n      iszero\n      tag_95\n      jumpi\n      0x00\n      dup1\n      revert\n    tag_95:\n      pop\n      tag_55\n      tag_97\n      calldatasize\n      0x04\n      tag_98\n      jump\t// in\n    tag_97:\n      tag_99\n      jump\t// in\n        /* \"polygon/Collection.sol\":415:447  TokenInfo[] public AllowedCrypto */\n    tag_12:\n      callvalue\n      dup1\n      iszero\n      tag_100\n      jumpi\n      0x00\n      dup1\n      revert\n    tag_100:\n      pop\n      tag_101\n      tag_102\n      calldatasize\n      0x04\n      tag_67\n      jump\t// in\n    tag_102:\n      tag_103\n      jump\t// in\n    tag_101:\n      0x40\n      dup1\n      mload\n      sub(shl(0xa0, 0x01), 0x01)\n        /* \"#utility.yul\":9074:9106   */\n      swap1\n      swap4\n      and\n        /* \"#utility.yul\":9056:9107   */\n      dup4\n      mstore\n        /* \"#utility.yul\":9138:9140   */\n      0x20\n        /* \"#utility.yul\":9123:9141   */\n      dup4\n      add\n        /* \"#utility.yul\":9116:9150   */\n      swap2\n      swap1\n      swap2\n      mstore\n        /* \"#utility.yul\":9029:9047   */\n      add\n        /* \"polygon/Collection.sol\":415:447  TokenInfo[] public AllowedCrypto */\n      tag_52\n        /* \"#utility.yul\":9011:9156   */\n      jump\n        /* \"@openzeppelin/contracts/token/ERC721/extensions/ERC721Enumerable.sol\":1291:1544  function tokenOfOwnerByIndex(address owner, uint256 index) public view virtual override returns (uint256) {... */\n    tag_13:\n      callvalue\n      dup1\n      iszero\n      tag_106\n      jumpi\n      0x00\n      dup1\n      revert\n    tag_106:\n      pop\n      tag_83\n      tag_108\n      calldatasize\n      0x04\n      tag_74\n      jump\t// in\n    tag_108:\n      tag_109\n      jump\t// in\n        /* \"polygon/Collection.sol\":4495:4761  function withdrawcustom(uint256 _pid) public payable onlyOwner {\r... */\n    tag_14:\n      tag_55\n      tag_112\n      calldatasize\n      0x04\n      tag_67\n      jump\t// in\n    tag_112:\n      tag_113\n      jump\t// in\n        /* \"polygon/Collection.sol\":1807:2505  function mintpid(\r... */\n    tag_15:\n      tag_55\n      tag_115\n      calldatasize\n      0x04\n      tag_116\n      jump\t// in\n    tag_115:\n      tag_117\n      jump\t// in\n        /* \"polygon/Collection.sol\":4769:4889  function withdraw() public payable onlyOwner {\r... */\n    tag_16:\n      tag_55\n      tag_119\n      jump\t// in\n        /* \"polygon/Collection.sol\":4025:4250  function getNFTCost(uint256 _pid) public view virtual returns (uint256) {\r... */\n    tag_17:\n      callvalue\n      dup1\n      iszero\n      tag_120\n      jumpi\n      0x00\n      dup1\n      revert\n    tag_120:\n      pop\n      tag_83\n      tag_122\n      calldatasize\n      0x04\n      tag_67\n      jump\t// in\n    tag_122:\n      tag_123\n      jump\t// in\n        /* \"polygon/Collection.sol\":1214:1799  function mint(address _to, uint256 _mintAmount) public payable {\r... */\n    tag_18:\n      tag_55\n      tag_126\n      calldatasize\n      0x04\n      tag_74\n      jump\t// in\n    tag_126:\n      tag_127\n      jump\t// in\n        /* \"@openzeppelin/contracts/token/ERC721/ERC721.sol\":5005:5184  function safeTransferFrom(... */\n    tag_19:\n      callvalue\n      dup1\n      iszero\n      tag_128\n      jumpi\n      0x00\n      dup1\n      revert\n    tag_128:\n      pop\n      tag_55\n      tag_130\n      calldatasize\n      0x04\n      tag_98\n      jump\t// in\n    tag_130:\n      tag_131\n      jump\t// in\n        /* \"polygon/Collection.sol\":2513:2903  function walletOfOwner(address _owner)\r... */\n    tag_20:\n      callvalue\n      dup1\n      iszero\n      tag_132\n      jumpi\n      0x00\n      dup1\n      revert\n    tag_132:\n      pop\n      tag_133\n      tag_134\n      calldatasize\n      0x04\n      tag_135\n      jump\t// in\n    tag_134:\n      tag_136\n      jump\t// in\n    tag_133:\n      mload(0x40)\n      tag_52\n      swap2\n      swap1\n      tag_138\n      jump\t// in\n        /* \"@openzeppelin/contracts/token/ERC721/extensions/ERC721Enumerable.sol\":1798:2028  function tokenByIndex(uint256 index) public view virtual override returns (uint256) {... */\n    tag_21:\n      callvalue\n      dup1\n      iszero\n      tag_139\n      jumpi\n      0x00\n      dup1\n      revert\n    tag_139:\n      pop\n      tag_83\n      tag_141\n      calldatasize\n      0x04\n      tag_67\n      jump\t// in\n    tag_141:\n      tag_142\n      jump\t// in\n        /* \"polygon/Collection.sol\":3667:3771  function setBaseURI(string memory _newBaseURI) public onlyOwner {\r... */\n    tag_22:\n      callvalue\n      dup1\n      iszero\n      tag_144\n      jumpi\n      0x00\n      dup1\n      revert\n    tag_144:\n      pop\n      tag_55\n      tag_146\n      calldatasize\n      0x04\n      tag_147\n      jump\t// in\n    tag_146:\n      tag_148\n      jump\t// in\n        /* \"polygon/Collection.sol\":678:704  bool public paused = false */\n    tag_23:\n      callvalue\n      dup1\n      iszero\n      tag_149\n      jumpi\n      0x00\n      dup1\n      revert\n    tag_149:\n      pop\n      sload(0x11)\n      tag_48\n      swap1\n      0xff\n      and\n      dup2\n      jump\n        /* \"@openzeppelin/contracts/token/ERC721/ERC721.sol\":2190:2408  function ownerOf(uint256 tokenId) public view virtual override returns (address) {... */\n    tag_24:\n      callvalue\n      dup1\n      iszero\n      tag_153\n      jumpi\n      0x00\n      dup1\n      revert\n    tag_153:\n      pop\n      tag_65\n      tag_155\n      calldatasize\n      0x04\n      tag_67\n      jump\t// in\n    tag_155:\n      tag_156\n      jump\t// in\n        /* \"polygon/Collection.sol\":776:993  function addCurrency(IERC20 _paytoken, uint256 _costvalue)\r... */\n    tag_25:\n      callvalue\n      dup1\n      iszero\n      tag_158\n      jumpi\n      0x00\n      dup1\n      revert\n    tag_158:\n      pop\n      tag_55\n      tag_160\n      calldatasize\n      0x04\n      tag_74\n      jump\t// in\n    tag_160:\n      tag_162\n      jump\t// in\n        /* \"polygon/Collection.sol\":488:509  string public baseURI */\n    tag_26:\n      callvalue\n      dup1\n      iszero\n      tag_163\n      jumpi\n      0x00\n      dup1\n      revert\n    tag_163:\n      pop\n      tag_60\n      tag_165\n      jump\t// in\n        /* \"@openzeppelin/contracts/token/ERC721/ERC721.sol\":1929:2133  function balanceOf(address owner) public view virtual override returns (uint256) {... */\n    tag_27:\n      callvalue\n      dup1\n      iszero\n      tag_167\n      jumpi\n      0x00\n      dup1\n      revert\n    tag_167:\n      pop\n      tag_83\n      tag_169\n      calldatasize\n      0x04\n      tag_135\n      jump\t// in\n    tag_169:\n      tag_170\n      jump\t// in\n        /* \"@openzeppelin/contracts/access/Ownable.sol\":1831:1932  function renounceOwnership() public virtual onlyOwner {... */\n    tag_28:\n      callvalue\n      dup1\n      iszero\n      tag_172\n      jumpi\n      0x00\n      dup1\n      revert\n    tag_172:\n      pop\n      tag_55\n      tag_174\n      jump\t// in\n        /* \"polygon/Collection.sol\":3537:3659  function setmaxMintAmount(uint256 _newmaxMintAmount) public onlyOwner {\r... */\n    tag_29:\n      callvalue\n      dup1\n      iszero\n      tag_175\n      jumpi\n      0x00\n      dup1\n      revert\n    tag_175:\n      pop\n      tag_55\n      tag_177\n      calldatasize\n      0x04\n      tag_67\n      jump\t// in\n    tag_177:\n      tag_178\n      jump\t// in\n        /* \"@openzeppelin/contracts/access/Ownable.sol\":1201:1286  function owner() public view virtual returns (address) {... */\n    tag_30:\n      callvalue\n      dup1\n      iszero\n      tag_179\n      jumpi\n      0x00\n      dup1\n      revert\n    tag_179:\n      pop\n        /* \"@openzeppelin/contracts/access/Ownable.sol\":1273:1279  _owner */\n      and(sub(shl(0xa0, 0x01), 0x01), sload(0x0a))\n        /* \"@openzeppelin/contracts/access/Ownable.sol\":1201:1286  function owner() public view virtual returns (address) {... */\n      jump(tag_65)\n        /* \"@openzeppelin/contracts/token/ERC721/ERC721.sol\":2632:2734  function symbol() public view virtual override returns (string memory) {... */\n    tag_31:\n      callvalue\n      dup1\n      iszero\n      tag_183\n      jumpi\n      0x00\n      dup1\n      revert\n    tag_183:\n      pop\n      tag_60\n      tag_185\n      jump\t// in\n        /* \"@openzeppelin/contracts/token/ERC721/ERC721.sol\":4169:4322  function setApprovalForAll(address operator, bool approved) public virtual override {... */\n    tag_32:\n      callvalue\n      dup1\n      iszero\n      tag_187\n      jumpi\n      0x00\n      dup1\n      revert\n    tag_187:\n      pop\n      tag_55\n      tag_189\n      calldatasize\n      0x04\n      tag_190\n      jump\t// in\n    tag_189:\n      tag_191\n      jump\t// in\n        /* \"@openzeppelin/contracts/token/ERC721/ERC721.sol\":5250:5565  function safeTransferFrom(... */\n    tag_33:\n      callvalue\n      dup1\n      iszero\n      tag_192\n      jumpi\n      0x00\n      dup1\n      revert\n    tag_192:\n      pop\n      tag_55\n      tag_194\n      calldatasize\n      0x04\n      tag_195\n      jump\t// in\n    tag_194:\n      tag_196\n      jump\t// in\n        /* \"polygon/Collection.sol\":516:553  string public baseExtension = \".json\" */\n    tag_34:\n      callvalue\n      dup1\n      iszero\n      tag_197\n      jumpi\n      0x00\n      dup1\n      revert\n    tag_197:\n      pop\n      tag_60\n      tag_199\n      jump\t// in\n        /* \"polygon/Collection.sol\":2911:3508  function tokenURI(uint256 tokenId) public view virtual override returns (string memory)\r... */\n    tag_35:\n      callvalue\n      dup1\n      iszero\n      tag_201\n      jumpi\n      0x00\n      dup1\n      revert\n    tag_201:\n      pop\n      tag_60\n      tag_203\n      calldatasize\n      0x04\n      tag_67\n      jump\t// in\n    tag_203:\n      tag_204\n      jump\t// in\n        /* \"polygon/Collection.sol\":598:630  uint256 public maxSupply = 10000 */\n    tag_36:\n      callvalue\n      dup1\n      iszero\n      tag_206\n      jumpi\n      0x00\n      dup1\n      revert\n    tag_206:\n      pop\n      tag_83\n      sload(0x0f)\n      dup2\n      jump\n        /* \"polygon/Collection.sol\":3779:3930  function setBaseExtension(string memory _newBaseExtension)\r... */\n    tag_37:\n      callvalue\n      dup1\n      iszero\n      tag_210\n      jumpi\n      0x00\n      dup1\n      revert\n    tag_210:\n      pop\n      tag_55\n      tag_212\n      calldatasize\n      0x04\n      tag_147\n      jump\t// in\n    tag_212:\n      tag_213\n      jump\t// in\n        /* \"@openzeppelin/contracts/token/ERC721/ERC721.sol\":4388:4550  function isApprovedForAll(address owner, address operator) public view virtual override returns (bool) {... */\n    tag_38:\n      callvalue\n      dup1\n      iszero\n      tag_214\n      jumpi\n      0x00\n      dup1\n      revert\n    tag_214:\n      pop\n      tag_48\n      tag_216\n      calldatasize\n      0x04\n      tag_217\n      jump\t// in\n    tag_216:\n      sub(shl(0xa0, 0x01), 0x01)\n        /* \"@openzeppelin/contracts/token/ERC721/ERC721.sol\":4508:4533  _operatorApprovals[owner] */\n      swap2\n      dup3\n      and\n        /* \"@openzeppelin/contracts/token/ERC721/ERC721.sol\":4485:4489  bool */\n      0x00\n        /* \"@openzeppelin/contracts/token/ERC721/ERC721.sol\":4508:4533  _operatorApprovals[owner] */\n      swap1\n      dup2\n      mstore\n        /* \"@openzeppelin/contracts/token/ERC721/ERC721.sol\":4508:4526  _operatorApprovals */\n      0x05\n        /* \"@openzeppelin/contracts/token/ERC721/ERC721.sol\":4508:4533  _operatorApprovals[owner] */\n      0x20\n      swap1\n      dup2\n      mstore\n      0x40\n      dup1\n      dup4\n      keccak256\n        /* \"@openzeppelin/contracts/token/ERC721/ERC721.sol\":4508:4543  _operatorApprovals[owner][operator] */\n      swap4\n      swap1\n      swap5\n      and\n      dup3\n      mstore\n      swap2\n      swap1\n      swap2\n      mstore\n      keccak256\n      sload\n      0xff\n      and\n      swap1\n        /* \"@openzeppelin/contracts/token/ERC721/ERC721.sol\":4388:4550  function isApprovedForAll(address owner, address operator) public view virtual override returns (bool) {... */\n      jump\n        /* \"@openzeppelin/contracts/access/Ownable.sol\":2081:2279  function transferOwnership(address newOwner) public virtual onlyOwner {... */\n    tag_39:\n      callvalue\n      dup1\n      iszero\n      tag_220\n      jumpi\n      0x00\n      dup1\n      revert\n    tag_220:\n      pop\n      tag_55\n      tag_222\n      calldatasize\n      0x04\n      tag_135\n      jump\t// in\n    tag_222:\n      tag_223\n      jump\t// in\n        /* \"@openzeppelin/contracts/token/ERC721/extensions/ERC721Enumerable.sol\":990:1212  function supportsInterface(bytes4 interfaceId) public view virtual override(IERC165, ERC721) returns (bool) {... */\n    tag_51:\n        /* \"@openzeppelin/contracts/token/ERC721/extensions/ERC721Enumerable.sol\":1092:1096  bool */\n      0x00\n      not(sub(shl(0xe0, 0x01), 0x01))\n        /* \"@openzeppelin/contracts/token/ERC721/extensions/ERC721Enumerable.sol\":1115:1165  interfaceId == type(IERC721Enumerable).interfaceId */\n      dup3\n      and\n      shl(0xe0, 0x780e9d63)\n      eq\n      dup1\n        /* \"@openzeppelin/contracts/token/ERC721/extensions/ERC721Enumerable.sol\":1115:1205  interfaceId == type(IERC721Enumerable).interfaceId || super.supportsInterface(interfaceId) */\n      tag_226\n      jumpi\n      pop\n        /* \"@openzeppelin/contracts/token/ERC721/extensions/ERC721Enumerable.sol\":1169:1205  super.supportsInterface(interfaceId) */\n      tag_226\n        /* \"@openzeppelin/contracts/token/ERC721/extensions/ERC721Enumerable.sol\":1193:1204  interfaceId */\n      dup3\n        /* \"@openzeppelin/contracts/token/ERC721/extensions/ERC721Enumerable.sol\":1169:1192  super.supportsInterface */\n      tag_227\n        /* \"@openzeppelin/contracts/token/ERC721/extensions/ERC721Enumerable.sol\":1169:1205  super.supportsInterface(interfaceId) */\n      jump\t// in\n    tag_226:\n        /* \"@openzeppelin/contracts/token/ERC721/extensions/ERC721Enumerable.sol\":1108:1205  return interfaceId == type(IERC721Enumerable).interfaceId || super.supportsInterface(interfaceId) */\n      swap3\n        /* \"@openzeppelin/contracts/token/ERC721/extensions/ERC721Enumerable.sol\":990:1212  function supportsInterface(bytes4 interfaceId) public view virtual override(IERC165, ERC721) returns (bool) {... */\n      swap2\n      pop\n      pop\n      jump\t// out\n        /* \"polygon/Collection.sol\":3938:4017  function pause(bool _state) public onlyOwner {\r... */\n    tag_58:\n        /* \"@openzeppelin/contracts/access/Ownable.sol\":1094:1107  _checkOwner() */\n      tag_229\n        /* \"@openzeppelin/contracts/access/Ownable.sol\":1094:1105  _checkOwner */\n      tag_230\n        /* \"@openzeppelin/contracts/access/Ownable.sol\":1094:1107  _checkOwner() */\n      jump\t// in\n    tag_229:\n        /* \"polygon/Collection.sol\":3994:4000  paused */\n      0x11\n        /* \"polygon/Collection.sol\":3994:4009  paused = _state */\n      dup1\n      sload\n      not(0xff)\n      and\n      swap2\n      iszero\n      iszero\n      swap2\n      swap1\n      swap2\n      or\n      swap1\n      sstore\n        /* \"polygon/Collection.sol\":3938:4017  function pause(bool _state) public onlyOwner {\r... */\n      jump\t// out\n        /* \"@openzeppelin/contracts/token/ERC721/ERC721.sol\":2470:2568  function name() public view virtual override returns (string memory) {... */\n    tag_61:\n        /* \"@openzeppelin/contracts/token/ERC721/ERC721.sol\":2524:2537  string memory */\n      0x60\n        /* \"@openzeppelin/contracts/token/ERC721/ERC721.sol\":2556:2561  _name */\n      0x00\n        /* \"@openzeppelin/contracts/token/ERC721/ERC721.sol\":2549:2561  return _name */\n      dup1\n      sload\n      tag_233\n      swap1\n      tag_234\n      jump\t// in\n    tag_233:\n      dup1\n      0x1f\n      add\n      0x20\n      dup1\n      swap2\n      div\n      mul\n      0x20\n      add\n      mload(0x40)\n      swap1\n      dup2\n      add\n      0x40\n      mstore\n      dup1\n      swap3\n      swap2\n      swap1\n      dup2\n      dup2\n      mstore\n      0x20\n      add\n      dup3\n      dup1\n      sload\n      tag_235\n      swap1\n      tag_234\n      jump\t// in\n    tag_235:\n      dup1\n      iszero\n      tag_236\n      jumpi\n      dup1\n      0x1f\n      lt\n      tag_237\n      jumpi\n      0x0100\n      dup1\n      dup4\n      sload\n      div\n      mul\n      dup4\n      mstore\n      swap2\n      0x20\n      add\n      swap2\n      jump(tag_236)\n    tag_237:\n      dup3\n      add\n      swap2\n      swap1\n      0x00\n      mstore\n      keccak256(0x00, 0x20)\n      swap1\n    tag_238:\n      dup2\n      sload\n      dup2\n      mstore\n      swap1\n      0x01\n      add\n      swap1\n      0x20\n      add\n      dup1\n      dup4\n      gt\n      tag_238\n      jumpi\n      dup3\n      swap1\n      sub\n      0x1f\n      and\n      dup3\n      add\n      swap2\n    tag_236:\n      pop\n      pop\n      pop\n      pop\n      pop\n      swap1\n      pop\n        /* \"@openzeppelin/contracts/token/ERC721/ERC721.sol\":2470:2568  function name() public view virtual override returns (string memory) {... */\n      swap1\n      jump\t// out\n        /* \"@openzeppelin/contracts/token/ERC721/ERC721.sol\":3935:4102  function getApproved(uint256 tokenId) public view virtual override returns (address) {... */\n    tag_68:\n        /* \"@openzeppelin/contracts/token/ERC721/ERC721.sol\":4011:4018  address */\n      0x00\n        /* \"@openzeppelin/contracts/token/ERC721/ERC721.sol\":4030:4053  _requireMinted(tokenId) */\n      tag_240\n        /* \"@openzeppelin/contracts/token/ERC721/ERC721.sol\":4045:4052  tokenId */\n      dup3\n        /* \"@openzeppelin/contracts/token/ERC721/ERC721.sol\":4030:4044  _requireMinted */\n      tag_241\n        /* \"@openzeppelin/contracts/token/ERC721/ERC721.sol\":4030:4053  _requireMinted(tokenId) */\n      jump\t// in\n    tag_240:\n      pop\n        /* \"@openzeppelin/contracts/token/ERC721/ERC721.sol\":4071:4095  _tokenApprovals[tokenId] */\n      0x00\n      swap1\n      dup2\n      mstore\n        /* \"@openzeppelin/contracts/token/ERC721/ERC721.sol\":4071:4086  _tokenApprovals */\n      0x04\n        /* \"@openzeppelin/contracts/token/ERC721/ERC721.sol\":4071:4095  _tokenApprovals[tokenId] */\n      0x20\n      mstore\n      0x40\n      swap1\n      keccak256\n      sload\n      sub(shl(0xa0, 0x01), 0x01)\n      and\n      swap1\n        /* \"@openzeppelin/contracts/token/ERC721/ERC721.sol\":3935:4102  function getApproved(uint256 tokenId) public view virtual override returns (address) {... */\n      jump\t// out\n        /* \"@openzeppelin/contracts/token/ERC721/ERC721.sol\":3467:3874  function approve(address to, uint256 tokenId) public virtual override {... */\n    tag_75:\n        /* \"@openzeppelin/contracts/token/ERC721/ERC721.sol\":3547:3560  address owner */\n      0x00\n        /* \"@openzeppelin/contracts/token/ERC721/ERC721.sol\":3563:3586  ERC721.ownerOf(tokenId) */\n      tag_243\n        /* \"@openzeppelin/contracts/token/ERC721/ERC721.sol\":3578:3585  tokenId */\n      dup3\n        /* \"@openzeppelin/contracts/token/ERC721/ERC721.sol\":3563:3577  ERC721.ownerOf */\n      tag_156\n        /* \"@openzeppelin/contracts/token/ERC721/ERC721.sol\":3563:3586  ERC721.ownerOf(tokenId) */\n      jump\t// in\n    tag_243:\n        /* \"@openzeppelin/contracts/token/ERC721/ERC721.sol\":3547:3586  address owner = ERC721.ownerOf(tokenId) */\n      swap1\n      pop\n        /* \"@openzeppelin/contracts/token/ERC721/ERC721.sol\":3610:3615  owner */\n      dup1\n      sub(shl(0xa0, 0x01), 0x01)\n        /* \"@openzeppelin/contracts/token/ERC721/ERC721.sol\":3604:3615  to != owner */\n      and\n        /* \"@openzeppelin/contracts/token/ERC721/ERC721.sol\":3604:3606  to */\n      dup4\n      sub(shl(0xa0, 0x01), 0x01)\n        /* \"@openzeppelin/contracts/token/ERC721/ERC721.sol\":3604:3615  to != owner */\n      and\n      eq\n      iszero\n        /* \"@openzeppelin/contracts/token/ERC721/ERC721.sol\":3596:3653  require(to != owner, \"ERC721: approval to current owner\") */\n      tag_244\n      jumpi\n      mload(0x40)\n      shl(0xe5, 0x461bcd)\n      dup2\n      mstore\n        /* \"#utility.yul\":16438:16440   */\n      0x20\n        /* \"@openzeppelin/contracts/token/ERC721/ERC721.sol\":3596:3653  require(to != owner, \"ERC721: approval to current owner\") */\n      0x04\n      dup3\n      add\n        /* \"#utility.yul\":16420:16441   */\n      mstore\n        /* \"#utility.yul\":16477:16479   */\n      0x21\n        /* \"#utility.yul\":16457:16475   */\n      0x24\n      dup3\n      add\n        /* \"#utility.yul\":16450:16480   */\n      mstore\n        /* \"#utility.yul\":16516:16550   */\n      0x4552433732313a20617070726f76616c20746f2063757272656e74206f776e65\n        /* \"#utility.yul\":16496:16514   */\n      0x44\n      dup3\n      add\n        /* \"#utility.yul\":16489:16551   */\n      mstore\n      shl(0xf9, 0x39)\n        /* \"#utility.yul\":16567:16585   */\n      0x64\n      dup3\n      add\n        /* \"#utility.yul\":16560:16591   */\n      mstore\n        /* \"#utility.yul\":16608:16627   */\n      0x84\n      add\n        /* \"@openzeppelin/contracts/token/ERC721/ERC721.sol\":3596:3653  require(to != owner, \"ERC721: approval to current owner\") */\n    tag_245:\n      mload(0x40)\n      dup1\n      swap2\n      sub\n      swap1\n      revert\n    tag_244:\n        /* \"@openzeppelin/contracts/utils/Context.sol\":719:729  msg.sender */\n      caller\n      sub(shl(0xa0, 0x01), 0x01)\n        /* \"@openzeppelin/contracts/token/ERC721/ERC721.sol\":3685:3706  _msgSender() == owner */\n      dup3\n      and\n      eq\n      dup1\n        /* \"@openzeppelin/contracts/token/ERC721/ERC721.sol\":3685:3747  _msgSender() == owner || isApprovedForAll(owner, _msgSender()) */\n      tag_250\n      jumpi\n      pop\n        /* \"@openzeppelin/contracts/token/ERC721/ERC721.sol\":3710:3747  isApprovedForAll(owner, _msgSender()) */\n      tag_250\n        /* \"@openzeppelin/contracts/token/ERC721/ERC721.sol\":3727:3732  owner */\n      dup2\n        /* \"@openzeppelin/contracts/utils/Context.sol\":719:729  msg.sender */\n      caller\n        /* \"@openzeppelin/contracts/token/ERC721/ERC721.sol\":4388:4550  function isApprovedForAll(address owner, address operator) public view virtual override returns (bool) {... */\n      tag_216\n      jump\t// in\n        /* \"@openzeppelin/contracts/token/ERC721/ERC721.sol\":3710:3747  isApprovedForAll(owner, _msgSender()) */\n    tag_250:\n        /* \"@openzeppelin/contracts/token/ERC721/ERC721.sol\":3664:3835  require(... */\n      tag_252\n      jumpi\n      mload(0x40)\n      shl(0xe5, 0x461bcd)\n      dup2\n      mstore\n        /* \"#utility.yul\":14104:14106   */\n      0x20\n        /* \"@openzeppelin/contracts/token/ERC721/ERC721.sol\":3664:3835  require(... */\n      0x04\n      dup3\n      add\n        /* \"#utility.yul\":14086:14107   */\n      mstore\n        /* \"#utility.yul\":14143:14145   */\n      0x3e\n        /* \"#utility.yul\":14123:14141   */\n      0x24\n      dup3\n      add\n        /* \"#utility.yul\":14116:14146   */\n      mstore\n        /* \"#utility.yul\":14182:14216   */\n      0x4552433732313a20617070726f76652063616c6c6572206973206e6f7420746f\n        /* \"#utility.yul\":14162:14180   */\n      0x44\n      dup3\n      add\n        /* \"#utility.yul\":14155:14217   */\n      mstore\n        /* \"#utility.yul\":14253:14285   */\n      0x6b656e206f776e6572206e6f7220617070726f76656420666f7220616c6c0000\n        /* \"#utility.yul\":14233:14251   */\n      0x64\n      dup3\n      add\n        /* \"#utility.yul\":14226:14286   */\n      mstore\n        /* \"#utility.yul\":14303:14322   */\n      0x84\n      add\n        /* \"@openzeppelin/contracts/token/ERC721/ERC721.sol\":3664:3835  require(... */\n      tag_245\n        /* \"#utility.yul\":14076:14328   */\n      jump\n        /* \"@openzeppelin/contracts/token/ERC721/ERC721.sol\":3664:3835  require(... */\n    tag_252:\n        /* \"@openzeppelin/contracts/token/ERC721/ERC721.sol\":3846:3867  _approve(to, tokenId) */\n      tag_255\n        /* \"@openzeppelin/contracts/token/ERC721/ERC721.sol\":3855:3857  to */\n      dup4\n        /* \"@openzeppelin/contracts/token/ERC721/ERC721.sol\":3859:3866  tokenId */\n      dup4\n        /* \"@openzeppelin/contracts/token/ERC721/ERC721.sol\":3846:3854  _approve */\n      tag_256\n        /* \"@openzeppelin/contracts/token/ERC721/ERC721.sol\":3846:3867  _approve(to, tokenId) */\n      jump\t// in\n    tag_255:\n        /* \"@openzeppelin/contracts/token/ERC721/ERC721.sol\":3467:3874  function approve(address to, uint256 tokenId) public virtual override {... */\n      pop\n      pop\n      pop\n      jump\t// out\n        /* \"polygon/Collection.sol\":4258:4487  function getCryptotoken(uint256 _pid) public view virtual returns (IERC20) {\r... */\n    tag_79:\n        /* \"polygon/Collection.sol\":4325:4331  IERC20 */\n      0x00\n        /* \"polygon/Collection.sol\":4344:4368  TokenInfo storage tokens */\n      dup1\n        /* \"polygon/Collection.sol\":4371:4384  AllowedCrypto */\n      0x0b\n        /* \"polygon/Collection.sol\":4385:4389  _pid */\n      dup4\n        /* \"polygon/Collection.sol\":4371:4390  AllowedCrypto[_pid] */\n      dup2\n      sload\n      dup2\n      lt\n      tag_258\n      jumpi\n      mstore(0x00, shl(0xe0, 0x4e487b71))\n      mstore(0x04, 0x32)\n      revert(0x00, 0x24)\n    tag_258:\n      0x00\n      swap2\n      dup3\n      mstore\n      0x20\n      swap1\n      swap2\n      keccak256\n      0x02\n      swap1\n      swap2\n      mul\n      add\n        /* \"polygon/Collection.sol\":4438:4453  tokens.paytoken */\n      sload\n      sub(shl(0xa0, 0x01), 0x01)\n      and\n      swap4\n        /* \"polygon/Collection.sol\":4258:4487  function getCryptotoken(uint256 _pid) public view virtual returns (IERC20) {\r... */\n      swap3\n      pop\n      pop\n      pop\n      jump\t// out\n        /* \"@openzeppelin/contracts/token/ERC721/ERC721.sol\":4612:4939  function transferFrom(... */\n    tag_99:\n        /* \"@openzeppelin/contracts/token/ERC721/ERC721.sol\":4801:4842  _isApprovedOrOwner(_msgSender(), tokenId) */\n      tag_262\n        /* \"@openzeppelin/contracts/utils/Context.sol\":719:729  msg.sender */\n      caller\n        /* \"@openzeppelin/contracts/token/ERC721/ERC721.sol\":4834:4841  tokenId */\n      dup3\n        /* \"@openzeppelin/contracts/token/ERC721/ERC721.sol\":4801:4819  _isApprovedOrOwner */\n      tag_264\n        /* \"@openzeppelin/contracts/token/ERC721/ERC721.sol\":4801:4842  _isApprovedOrOwner(_msgSender(), tokenId) */\n      jump\t// in\n    tag_262:\n        /* \"@openzeppelin/contracts/token/ERC721/ERC721.sol\":4793:4893  require(_isApprovedOrOwner(_msgSender(), tokenId), \"ERC721: caller is not token owner nor approved\") */\n      tag_265\n      jumpi\n      mload(0x40)\n      shl(0xe5, 0x461bcd)\n      dup2\n      mstore\n      0x04\n      add\n      tag_245\n      swap1\n      tag_267\n      jump\t// in\n    tag_265:\n        /* \"@openzeppelin/contracts/token/ERC721/ERC721.sol\":4904:4932  _transfer(from, to, tokenId) */\n      tag_255\n        /* \"@openzeppelin/contracts/token/ERC721/ERC721.sol\":4914:4918  from */\n      dup4\n        /* \"@openzeppelin/contracts/token/ERC721/ERC721.sol\":4920:4922  to */\n      dup4\n        /* \"@openzeppelin/contracts/token/ERC721/ERC721.sol\":4924:4931  tokenId */\n      dup4\n        /* \"@openzeppelin/contracts/token/ERC721/ERC721.sol\":4904:4913  _transfer */\n      tag_269\n        /* \"@openzeppelin/contracts/token/ERC721/ERC721.sol\":4904:4932  _transfer(from, to, tokenId) */\n      jump\t// in\n        /* \"polygon/Collection.sol\":415:447  TokenInfo[] public AllowedCrypto */\n    tag_103:\n      0x0b\n      dup2\n      dup2\n      sload\n      dup2\n      lt\n      tag_270\n      jumpi\n      0x00\n      dup1\n      revert\n    tag_270:\n      0x00\n      swap2\n      dup3\n      mstore\n      0x20\n      swap1\n      swap2\n      keccak256\n      0x02\n      swap1\n      swap2\n      mul\n      add\n      dup1\n      sload\n      0x01\n      swap1\n      swap2\n      add\n      sload\n      sub(shl(0xa0, 0x01), 0x01)\n      swap1\n      swap2\n      and\n      swap2\n      pop\n      dup3\n      jump\t// out\n        /* \"@openzeppelin/contracts/token/ERC721/extensions/ERC721Enumerable.sol\":1291:1544  function tokenOfOwnerByIndex(address owner, uint256 index) public view virtual override returns (uint256) {... */\n    tag_109:\n        /* \"@openzeppelin/contracts/token/ERC721/extensions/ERC721Enumerable.sol\":1388:1395  uint256 */\n      0x00\n        /* \"@openzeppelin/contracts/token/ERC721/extensions/ERC721Enumerable.sol\":1423:1446  ERC721.balanceOf(owner) */\n      tag_273\n        /* \"@openzeppelin/contracts/token/ERC721/extensions/ERC721Enumerable.sol\":1440:1445  owner */\n      dup4\n        /* \"@openzeppelin/contracts/token/ERC721/extensions/ERC721Enumerable.sol\":1423:1439  ERC721.balanceOf */\n      tag_170\n        /* \"@openzeppelin/contracts/token/ERC721/extensions/ERC721Enumerable.sol\":1423:1446  ERC721.balanceOf(owner) */\n      jump\t// in\n    tag_273:\n        /* \"@openzeppelin/contracts/token/ERC721/extensions/ERC721Enumerable.sol\":1415:1420  index */\n      dup3\n        /* \"@openzeppelin/contracts/token/ERC721/extensions/ERC721Enumerable.sol\":1415:1446  index < ERC721.balanceOf(owner) */\n      lt\n        /* \"@openzeppelin/contracts/token/ERC721/extensions/ERC721Enumerable.sol\":1407:1494  require(index < ERC721.balanceOf(owner), \"ERC721Enumerable: owner index out of bounds\") */\n      tag_274\n      jumpi\n      mload(0x40)\n      shl(0xe5, 0x461bcd)\n      dup2\n      mstore\n        /* \"#utility.yul\":10934:10936   */\n      0x20\n        /* \"@openzeppelin/contracts/token/ERC721/extensions/ERC721Enumerable.sol\":1407:1494  require(index < ERC721.balanceOf(owner), \"ERC721Enumerable: owner index out of bounds\") */\n      0x04\n      dup3\n      add\n        /* \"#utility.yul\":10916:10937   */\n      mstore\n        /* \"#utility.yul\":10973:10975   */\n      0x2b\n        /* \"#utility.yul\":10953:10971   */\n      0x24\n      dup3\n      add\n        /* \"#utility.yul\":10946:10976   */\n      mstore\n        /* \"#utility.yul\":11012:11046   */\n      0x455243373231456e756d657261626c653a206f776e657220696e646578206f75\n        /* \"#utility.yul\":10992:11010   */\n      0x44\n      dup3\n      add\n        /* \"#utility.yul\":10985:11047   */\n      mstore\n      shl(0xa8, 0x74206f6620626f756e6473)\n        /* \"#utility.yul\":11063:11081   */\n      0x64\n      dup3\n      add\n        /* \"#utility.yul\":11056:11097   */\n      mstore\n        /* \"#utility.yul\":11114:11133   */\n      0x84\n      add\n        /* \"@openzeppelin/contracts/token/ERC721/extensions/ERC721Enumerable.sol\":1407:1494  require(index < ERC721.balanceOf(owner), \"ERC721Enumerable: owner index out of bounds\") */\n      tag_245\n        /* \"#utility.yul\":10906:11139   */\n      jump\n        /* \"@openzeppelin/contracts/token/ERC721/extensions/ERC721Enumerable.sol\":1407:1494  require(index < ERC721.balanceOf(owner), \"ERC721Enumerable: owner index out of bounds\") */\n    tag_274:\n      pop\n      sub(shl(0xa0, 0x01), 0x01)\n        /* \"@openzeppelin/contracts/token/ERC721/extensions/ERC721Enumerable.sol\":1511:1530  _ownedTokens[owner] */\n      swap2\n      swap1\n      swap2\n      and\n      0x00\n      swap1\n      dup2\n      mstore\n        /* \"@openzeppelin/contracts/token/ERC721/extensions/ERC721Enumerable.sol\":1511:1523  _ownedTokens */\n      0x06\n        /* \"@openzeppelin/contracts/token/ERC721/extensions/ERC721Enumerable.sol\":1511:1530  _ownedTokens[owner] */\n      0x20\n      swap1\n      dup2\n      mstore\n      0x40\n      dup1\n      dup4\n      keccak256\n        /* \"@openzeppelin/contracts/token/ERC721/extensions/ERC721Enumerable.sol\":1511:1537  _ownedTokens[owner][index] */\n      swap4\n      dup4\n      mstore\n      swap3\n      swap1\n      mstore\n      keccak256\n      sload\n      swap1\n        /* \"@openzeppelin/contracts/token/ERC721/extensions/ERC721Enumerable.sol\":1291:1544  function tokenOfOwnerByIndex(address owner, uint256 index) public view virtual override returns (uint256) {... */\n      jump\t// out\n        /* \"polygon/Collection.sol\":4495:4761  function withdrawcustom(uint256 _pid) public payable onlyOwner {\r... */\n    tag_113:\n        /* \"@openzeppelin/contracts/access/Ownable.sol\":1094:1107  _checkOwner() */\n      tag_278\n        /* \"@openzeppelin/contracts/access/Ownable.sol\":1094:1105  _checkOwner */\n      tag_230\n        /* \"@openzeppelin/contracts/access/Ownable.sol\":1094:1107  _checkOwner() */\n      jump\t// in\n    tag_278:\n        /* \"polygon/Collection.sol\":4569:4593  TokenInfo storage tokens */\n      0x00\n        /* \"polygon/Collection.sol\":4596:4609  AllowedCrypto */\n      0x0b\n        /* \"polygon/Collection.sol\":4610:4614  _pid */\n      dup3\n        /* \"polygon/Collection.sol\":4596:4615  AllowedCrypto[_pid] */\n      dup2\n      sload\n      dup2\n      lt\n      tag_280\n      jumpi\n      mstore(0x00, shl(0xe0, 0x4e487b71))\n      mstore(0x04, 0x32)\n      revert(0x00, 0x24)\n    tag_280:\n      0x00\n      swap2\n      dup3\n      mstore\n      0x20\n      swap1\n      swap2\n      keccak256\n      0x02\n      swap1\n      swap2\n      mul\n      add\n        /* \"polygon/Collection.sol\":4663:4678  tokens.paytoken */\n      dup1\n      sload\n        /* \"polygon/Collection.sol\":4719:4752  paytoken.balanceOf(address(this)) */\n      mload(0x40)\n      shl(0xe0, 0x70a08231)\n      dup2\n      mstore\n        /* \"polygon/Collection.sol\":4746:4750  this */\n      address\n        /* \"polygon/Collection.sol\":4719:4752  paytoken.balanceOf(address(this)) */\n      0x04\n      dup3\n      add\n        /* \"#utility.yul\":7947:7998   */\n      mstore\n        /* \"polygon/Collection.sol\":4596:4615  AllowedCrypto[_pid] */\n      swap2\n      swap3\n      pop\n      sub(shl(0xa0, 0x01), 0x01)\n        /* \"polygon/Collection.sol\":4663:4678  tokens.paytoken */\n      and\n      swap1\n      dup2\n      swap1\n        /* \"polygon/Collection.sol\":4689:4706  paytoken.transfer */\n      0xa9059cbb\n      swap1\n        /* \"polygon/Collection.sol\":4707:4717  msg.sender */\n      caller\n      swap1\n        /* \"polygon/Collection.sol\":4663:4678  tokens.paytoken */\n      dup4\n      swap1\n        /* \"polygon/Collection.sol\":4719:4737  paytoken.balanceOf */\n      0x70a08231\n      swap1\n        /* \"#utility.yul\":7920:7938   */\n      0x24\n      add\n        /* \"polygon/Collection.sol\":4719:4752  paytoken.balanceOf(address(this)) */\n      0x20\n      mload(0x40)\n      dup1\n      dup4\n      sub\n      dup2\n      dup7\n      dup1\n      extcodesize\n      iszero\n      dup1\n      iszero\n      tag_283\n      jumpi\n      0x00\n      dup1\n      revert\n    tag_283:\n      pop\n      gas\n      staticcall\n      iszero\n      dup1\n      iszero\n      tag_285\n      jumpi\n      returndatasize\n      0x00\n      dup1\n      returndatacopy\n      revert(0x00, returndatasize)\n    tag_285:\n      pop\n      pop\n      pop\n      pop\n      mload(0x40)\n      returndatasize\n      not(0x1f)\n      0x1f\n      dup3\n      add\n      and\n      dup3\n      add\n      dup1\n      0x40\n      mstore\n      pop\n      dup2\n      add\n      swap1\n      tag_286\n      swap2\n      swap1\n      tag_287\n      jump\t// in\n    tag_286:\n        /* \"polygon/Collection.sol\":4689:4753  paytoken.transfer(msg.sender, paytoken.balanceOf(address(this))) */\n      mload(0x40)\n      not(sub(shl(0xe0, 0x01), 0x01))\n      0xe0\n      dup6\n      swap1\n      shl\n      and\n      dup2\n      mstore\n      sub(shl(0xa0, 0x01), 0x01)\n        /* \"#utility.yul\":9074:9106   */\n      swap1\n      swap3\n      and\n        /* \"polygon/Collection.sol\":4689:4753  paytoken.transfer(msg.sender, paytoken.balanceOf(address(this))) */\n      0x04\n      dup4\n      add\n        /* \"#utility.yul\":9056:9107   */\n      mstore\n        /* \"#utility.yul\":9123:9141   */\n      0x24\n      dup3\n      add\n        /* \"#utility.yul\":9116:9150   */\n      mstore\n        /* \"#utility.yul\":9029:9047   */\n      0x44\n      add\n        /* \"polygon/Collection.sol\":4689:4753  paytoken.transfer(msg.sender, paytoken.balanceOf(address(this))) */\n      0x20\n      mload(0x40)\n      dup1\n      dup4\n      sub\n      dup2\n      0x00\n      dup8\n      dup1\n      extcodesize\n      iszero\n      dup1\n      iszero\n      tag_290\n      jumpi\n      0x00\n      dup1\n      revert\n    tag_290:\n      pop\n      gas\n      call\n      iszero\n      dup1\n      iszero\n      tag_292\n      jumpi\n      returndatasize\n      0x00\n      dup1\n      returndatacopy\n      revert(0x00, returndatasize)\n    tag_292:\n      pop\n      pop\n      pop\n      pop\n      mload(0x40)\n      returndatasize\n      not(0x1f)\n      0x1f\n      dup3\n      add\n      and\n      dup3\n      add\n      dup1\n      0x40\n      mstore\n      pop\n      dup2\n      add\n      swap1\n      tag_293\n      swap2\n      swap1\n      tag_294\n      jump\t// in\n    tag_293:\n      pop\n        /* \"@openzeppelin/contracts/access/Ownable.sol\":1117:1118  _ */\n      pop\n      pop\n        /* \"polygon/Collection.sol\":4495:4761  function withdrawcustom(uint256 _pid) public payable onlyOwner {\r... */\n      pop\n      jump\t// out\n        /* \"polygon/Collection.sol\":1807:2505  function mintpid(\r... */\n    tag_117:\n        /* \"polygon/Collection.sol\":1932:1956  TokenInfo storage tokens */\n      0x00\n        /* \"polygon/Collection.sol\":1959:1972  AllowedCrypto */\n      0x0b\n        /* \"polygon/Collection.sol\":1973:1977  _pid */\n      dup3\n        /* \"polygon/Collection.sol\":1959:1978  AllowedCrypto[_pid] */\n      dup2\n      sload\n      dup2\n      lt\n      tag_296\n      jumpi\n      mstore(0x00, shl(0xe0, 0x4e487b71))\n      mstore(0x04, 0x32)\n      revert(0x00, 0x24)\n    tag_296:\n      0x00\n      swap2\n      dup3\n      mstore\n      0x20\n      dup3\n      keccak256\n      0x02\n      swap1\n      swap2\n      mul\n      add\n        /* \"polygon/Collection.sol\":2026:2041  tokens.paytoken */\n      dup1\n      sload\n      0x01\n        /* \"polygon/Collection.sol\":2088:2104  tokens.costvalue */\n      dup3\n      add\n      sload\n        /* \"polygon/Collection.sol\":1959:1978  AllowedCrypto[_pid] */\n      swap2\n      swap4\n      pop\n      sub(shl(0xa0, 0x01), 0x01)\n        /* \"polygon/Collection.sol\":2026:2041  tokens.paytoken */\n      and\n      swap2\n        /* \"polygon/Collection.sol\":2132:2145  totalSupply() */\n      tag_298\n        /* \"@openzeppelin/contracts/token/ERC721/extensions/ERC721Enumerable.sol\":1702:1712  _allTokens */\n      0x08\n        /* \"@openzeppelin/contracts/token/ERC721/extensions/ERC721Enumerable.sol\":1702:1719  _allTokens.length */\n      sload\n      swap1\n        /* \"@openzeppelin/contracts/token/ERC721/extensions/ERC721Enumerable.sol\":1615:1726  function totalSupply() public view virtual override returns (uint256) {... */\n      jump\n        /* \"polygon/Collection.sol\":2132:2145  totalSupply() */\n    tag_298:\n        /* \"polygon/Collection.sol\":2165:2171  paused */\n      sload(0x11)\n        /* \"polygon/Collection.sol\":2115:2145  uint256 supply = totalSupply() */\n      swap1\n      swap2\n      pop\n        /* \"polygon/Collection.sol\":2165:2171  paused */\n      0xff\n      and\n        /* \"polygon/Collection.sol\":2164:2171  !paused */\n      iszero\n        /* \"polygon/Collection.sol\":2156:2172  require(!paused) */\n      tag_299\n      jumpi\n      0x00\n      dup1\n      revert\n    tag_299:\n        /* \"polygon/Collection.sol\":2205:2206  0 */\n      0x00\n        /* \"polygon/Collection.sol\":2191:2202  _mintAmount */\n      dup7\n        /* \"polygon/Collection.sol\":2191:2206  _mintAmount > 0 */\n      gt\n        /* \"polygon/Collection.sol\":2183:2207  require(_mintAmount > 0) */\n      tag_300\n      jumpi\n      0x00\n      dup1\n      revert\n    tag_300:\n        /* \"polygon/Collection.sol\":2241:2254  maxMintAmount */\n      sload(0x10)\n        /* \"polygon/Collection.sol\":2226:2237  _mintAmount */\n      dup7\n        /* \"polygon/Collection.sol\":2226:2254  _mintAmount <= maxMintAmount */\n      gt\n      iszero\n        /* \"polygon/Collection.sol\":2218:2255  require(_mintAmount <= maxMintAmount) */\n      tag_301\n      jumpi\n      0x00\n      dup1\n      revert\n    tag_301:\n        /* \"polygon/Collection.sol\":2298:2307  maxSupply */\n      sload(0x0f)\n        /* \"polygon/Collection.sol\":2274:2294  supply + _mintAmount */\n      tag_302\n        /* \"polygon/Collection.sol\":2283:2294  _mintAmount */\n      dup8\n        /* \"polygon/Collection.sol\":2274:2280  supply */\n      dup4\n        /* \"polygon/Collection.sol\":2274:2294  supply + _mintAmount */\n      tag_303\n      jump\t// in\n    tag_302:\n        /* \"polygon/Collection.sol\":2274:2307  supply + _mintAmount <= maxSupply */\n      gt\n      iszero\n        /* \"polygon/Collection.sol\":2266:2308  require(supply + _mintAmount <= maxSupply) */\n      tag_304\n      jumpi\n      0x00\n      dup1\n      revert\n    tag_304:\n        /* \"polygon/Collection.sol\":2338:2339  1 */\n      0x01\n        /* \"polygon/Collection.sol\":2321:2498  for (uint256 i = 1; i <= _mintAmount; i++) {\r... */\n    tag_305:\n        /* \"polygon/Collection.sol\":2346:2357  _mintAmount */\n      dup7\n        /* \"polygon/Collection.sol\":2341:2342  i */\n      dup2\n        /* \"polygon/Collection.sol\":2341:2357  i <= _mintAmount */\n      gt\n        /* \"polygon/Collection.sol\":2321:2498  for (uint256 i = 1; i <= _mintAmount; i++) {\r... */\n      tag_306\n      jumpi\n        /* \"polygon/Collection.sol\":2387:2444  paytoken.transferFrom(msg.sender, address(this), costval) */\n      mload(0x40)\n      shl(0xe0, 0x23b872dd)\n      dup2\n      mstore\n        /* \"polygon/Collection.sol\":2409:2419  msg.sender */\n      caller\n        /* \"polygon/Collection.sol\":2387:2444  paytoken.transferFrom(msg.sender, address(this), costval) */\n      0x04\n      dup3\n      add\n        /* \"#utility.yul\":8249:8283   */\n      mstore\n        /* \"polygon/Collection.sol\":2429:2433  this */\n      address\n        /* \"#utility.yul\":8299:8317   */\n      0x24\n      dup3\n      add\n        /* \"#utility.yul\":8292:8335   */\n      mstore\n        /* \"#utility.yul\":8351:8369   */\n      0x44\n      dup2\n      add\n        /* \"#utility.yul\":8344:8378   */\n      dup5\n      swap1\n      mstore\n      sub(shl(0xa0, 0x01), 0x01)\n        /* \"polygon/Collection.sol\":2387:2408  paytoken.transferFrom */\n      dup6\n      and\n      swap1\n      0x23b872dd\n      swap1\n        /* \"#utility.yul\":8184:8202   */\n      0x64\n      add\n        /* \"polygon/Collection.sol\":2387:2444  paytoken.transferFrom(msg.sender, address(this), costval) */\n      0x20\n      mload(0x40)\n      dup1\n      dup4\n      sub\n      dup2\n      0x00\n      dup8\n      dup1\n      extcodesize\n      iszero\n      dup1\n      iszero\n      tag_310\n      jumpi\n      0x00\n      dup1\n      revert\n    tag_310:\n      pop\n      gas\n      call\n      iszero\n      dup1\n      iszero\n      tag_312\n      jumpi\n      returndatasize\n      0x00\n      dup1\n      returndatacopy\n      revert(0x00, returndatasize)\n    tag_312:\n      pop\n      pop\n      pop\n      pop\n      mload(0x40)\n      returndatasize\n      not(0x1f)\n      0x1f\n      dup3\n      add\n      and\n      dup3\n      add\n      dup1\n      0x40\n      mstore\n      pop\n      dup2\n      add\n      swap1\n      tag_313\n      swap2\n      swap1\n      tag_294\n      jump\t// in\n    tag_313:\n        /* \"polygon/Collection.sol\":2379:2445  require(paytoken.transferFrom(msg.sender, address(this), costval)) */\n      tag_314\n      jumpi\n      0x00\n      dup1\n      revert\n    tag_314:\n        /* \"polygon/Collection.sol\":2460:2486  _safeMint(_to, supply + i) */\n      tag_315\n        /* \"polygon/Collection.sol\":2470:2473  _to */\n      dup9\n        /* \"polygon/Collection.sol\":2475:2485  supply + i */\n      tag_316\n        /* \"polygon/Collection.sol\":2484:2485  i */\n      dup4\n        /* \"polygon/Collection.sol\":2475:2481  supply */\n      dup6\n        /* \"polygon/Collection.sol\":2475:2485  supply + i */\n      tag_303\n      jump\t// in\n    tag_316:\n        /* \"polygon/Collection.sol\":2460:2469  _safeMint */\n      tag_317\n        /* \"polygon/Collection.sol\":2460:2486  _safeMint(_to, supply + i) */\n      jump\t// in\n    tag_315:\n        /* \"polygon/Collection.sol\":2359:2362  i++ */\n      dup1\n      tag_318\n      dup2\n      tag_319\n      jump\t// in\n    tag_318:\n      swap2\n      pop\n      pop\n        /* \"polygon/Collection.sol\":2321:2498  for (uint256 i = 1; i <= _mintAmount; i++) {\r... */\n      jump(tag_305)\n    tag_306:\n      pop\n        /* \"polygon/Collection.sol\":1807:2505  function mintpid(\r... */\n      pop\n      pop\n      pop\n      pop\n      pop\n      pop\n      pop\n      jump\t// out\n        /* \"polygon/Collection.sol\":4769:4889  function withdraw() public payable onlyOwner {\r... */\n    tag_119:\n        /* \"@openzeppelin/contracts/access/Ownable.sol\":1094:1107  _checkOwner() */\n      tag_321\n        /* \"@openzeppelin/contracts/access/Ownable.sol\":1094:1105  _checkOwner */\n      tag_230\n        /* \"@openzeppelin/contracts/access/Ownable.sol\":1094:1107  _checkOwner() */\n      jump\t// in\n    tag_321:\n        /* \"polygon/Collection.sol\":4833:4880  payable(msg.sender).send(address(this).balance) */\n      mload(0x40)\n        /* \"polygon/Collection.sol\":4841:4851  msg.sender */\n      caller\n      swap1\n        /* \"polygon/Collection.sol\":4858:4879  address(this).balance */\n      selfbalance\n        /* \"polygon/Collection.sol\":4833:4880  payable(msg.sender).send(address(this).balance) */\n      dup1\n      iszero\n      0x08fc\n      mul\n      swap2\n      0x00\n      dup2\n      dup2\n      dup2\n        /* \"polygon/Collection.sol\":4858:4879  address(this).balance */\n      dup6\n        /* \"polygon/Collection.sol\":4841:4851  msg.sender */\n      dup9\n        /* \"polygon/Collection.sol\":4833:4880  payable(msg.sender).send(address(this).balance) */\n      dup9\n      call\n      swap4\n      pop\n      pop\n      pop\n      pop\n        /* \"polygon/Collection.sol\":4825:4881  require(payable(msg.sender).send(address(this).balance)) */\n      tag_324\n      jumpi\n      0x00\n      dup1\n      revert\n    tag_324:\n        /* \"polygon/Collection.sol\":4769:4889  function withdraw() public payable onlyOwner {\r... */\n      jump\t// out\n        /* \"polygon/Collection.sol\":4025:4250  function getNFTCost(uint256 _pid) public view virtual returns (uint256) {\r... */\n    tag_123:\n        /* \"polygon/Collection.sol\":4088:4095  uint256 */\n      0x00\n        /* \"polygon/Collection.sol\":4108:4132  TokenInfo storage tokens */\n      dup1\n        /* \"polygon/Collection.sol\":4135:4148  AllowedCrypto */\n      0x0b\n        /* \"polygon/Collection.sol\":4149:4153  _pid */\n      dup4\n        /* \"polygon/Collection.sol\":4135:4154  AllowedCrypto[_pid] */\n      dup2\n      sload\n      dup2\n      lt\n      tag_326\n      jumpi\n      mstore(0x00, shl(0xe0, 0x4e487b71))\n      mstore(0x04, 0x32)\n      revert(0x00, 0x24)\n    tag_326:\n      0x00\n      swap2\n      dup3\n      mstore\n      0x20\n      swap1\n      swap2\n      keccak256\n        /* \"polygon/Collection.sol\":4201:4217  tokens.costvalue */\n      0x01\n        /* \"polygon/Collection.sol\":4135:4154  AllowedCrypto[_pid] */\n      0x02\n      swap1\n      swap3\n      mul\n      add\n        /* \"polygon/Collection.sol\":4201:4217  tokens.costvalue */\n      add\n      sload\n      swap4\n        /* \"polygon/Collection.sol\":4025:4250  function getNFTCost(uint256 _pid) public view virtual returns (uint256) {\r... */\n      swap3\n      pop\n      pop\n      pop\n      jump\t// out\n        /* \"polygon/Collection.sol\":1214:1799  function mint(address _to, uint256 _mintAmount) public payable {\r... */\n    tag_127:\n        /* \"polygon/Collection.sol\":1288:1302  uint256 supply */\n      0x00\n        /* \"polygon/Collection.sol\":1305:1318  totalSupply() */\n      tag_329\n        /* \"@openzeppelin/contracts/token/ERC721/extensions/ERC721Enumerable.sol\":1702:1712  _allTokens */\n      0x08\n        /* \"@openzeppelin/contracts/token/ERC721/extensions/ERC721Enumerable.sol\":1702:1719  _allTokens.length */\n      sload\n      swap1\n        /* \"@openzeppelin/contracts/token/ERC721/extensions/ERC721Enumerable.sol\":1615:1726  function totalSupply() public view virtual override returns (uint256) {... */\n      jump\n        /* \"polygon/Collection.sol\":1305:1318  totalSupply() */\n    tag_329:\n        /* \"polygon/Collection.sol\":1338:1344  paused */\n      sload(0x11)\n        /* \"polygon/Collection.sol\":1288:1318  uint256 supply = totalSupply() */\n      swap1\n      swap2\n      pop\n        /* \"polygon/Collection.sol\":1338:1344  paused */\n      0xff\n      and\n        /* \"polygon/Collection.sol\":1337:1344  !paused */\n      iszero\n        /* \"polygon/Collection.sol\":1329:1345  require(!paused) */\n      tag_330\n      jumpi\n      0x00\n      dup1\n      revert\n    tag_330:\n        /* \"polygon/Collection.sol\":1378:1379  0 */\n      0x00\n        /* \"polygon/Collection.sol\":1364:1375  _mintAmount */\n      dup3\n        /* \"polygon/Collection.sol\":1364:1379  _mintAmount > 0 */\n      gt\n        /* \"polygon/Collection.sol\":1356:1380  require(_mintAmount > 0) */\n      tag_331\n      jumpi\n      0x00\n      dup1\n      revert\n    tag_331:\n        /* \"polygon/Collection.sol\":1414:1427  maxMintAmount */\n      sload(0x10)\n        /* \"polygon/Collection.sol\":1399:1410  _mintAmount */\n      dup3\n        /* \"polygon/Collection.sol\":1399:1427  _mintAmount <= maxMintAmount */\n      gt\n      iszero\n        /* \"polygon/Collection.sol\":1391:1428  require(_mintAmount <= maxMintAmount) */\n      tag_332\n      jumpi\n      0x00\n      dup1\n      revert\n    tag_332:\n        /* \"polygon/Collection.sol\":1471:1480  maxSupply */\n      sload(0x0f)\n        /* \"polygon/Collection.sol\":1447:1467  supply + _mintAmount */\n      tag_333\n        /* \"polygon/Collection.sol\":1456:1467  _mintAmount */\n      dup4\n        /* \"polygon/Collection.sol\":1447:1453  supply */\n      dup4\n        /* \"polygon/Collection.sol\":1447:1467  supply + _mintAmount */\n      tag_303\n      jump\t// in\n    tag_333:\n        /* \"polygon/Collection.sol\":1447:1480  supply + _mintAmount <= maxSupply */\n      gt\n      iszero\n        /* \"polygon/Collection.sol\":1439:1481  require(supply + _mintAmount <= maxSupply) */\n      tag_334\n      jumpi\n      0x00\n      dup1\n      revert\n    tag_334:\n        /* \"@openzeppelin/contracts/access/Ownable.sol\":1273:1279  _owner */\n      and(sub(shl(0xa0, 0x01), 0x01), sload(0x0a))\n        /* \"polygon/Collection.sol\":1498:1508  msg.sender */\n      caller\n        /* \"polygon/Collection.sol\":1498:1519  msg.sender != owner() */\n      eq\n        /* \"polygon/Collection.sol\":1494:1684  if (msg.sender != owner()) {\r... */\n      tag_339\n      jumpi\n        /* \"polygon/Collection.sol\":1582:1593  _mintAmount */\n      dup2\n        /* \"polygon/Collection.sol\":1575:1579  cost */\n      sload(0x0e)\n        /* \"polygon/Collection.sol\":1575:1593  cost * _mintAmount */\n      tag_337\n      swap2\n      swap1\n      tag_338\n      jump\t// in\n    tag_337:\n        /* \"polygon/Collection.sol\":1562:1571  msg.value */\n      callvalue\n        /* \"polygon/Collection.sol\":1562:1593  msg.value == cost * _mintAmount */\n      eq\n        /* \"polygon/Collection.sol\":1536:1672  require(\r... */\n      tag_339\n      jumpi\n      mload(0x40)\n      shl(0xe5, 0x461bcd)\n      dup2\n      mstore\n        /* \"#utility.yul\":15673:15675   */\n      0x20\n        /* \"polygon/Collection.sol\":1536:1672  require(\r... */\n      0x04\n      dup3\n      add\n        /* \"#utility.yul\":15655:15676   */\n      mstore\n        /* \"#utility.yul\":15712:15714   */\n      0x2b\n        /* \"#utility.yul\":15692:15710   */\n      0x24\n      dup3\n      add\n        /* \"#utility.yul\":15685:15715   */\n      mstore\n        /* \"#utility.yul\":15751:15785   */\n      0x4e6f7420656e6f7567682062616c616e636520746f20636f6d706c6574652074\n        /* \"#utility.yul\":15731:15749   */\n      0x44\n      dup3\n      add\n        /* \"#utility.yul\":15724:15786   */\n      mstore\n      shl(0xa9, 0x3930b739b0b1ba34b7b717)\n        /* \"#utility.yul\":15802:15820   */\n      0x64\n      dup3\n      add\n        /* \"#utility.yul\":15795:15836   */\n      mstore\n        /* \"#utility.yul\":15853:15872   */\n      0x84\n      add\n        /* \"polygon/Collection.sol\":1536:1672  require(\r... */\n      tag_245\n        /* \"#utility.yul\":15645:15878   */\n      jump\n        /* \"polygon/Collection.sol\":1536:1672  require(\r... */\n    tag_339:\n        /* \"polygon/Collection.sol\":1713:1714  1 */\n      0x01\n        /* \"polygon/Collection.sol\":1696:1792  for (uint256 i = 1; i <= _mintAmount; i++) {\r... */\n    tag_342:\n        /* \"polygon/Collection.sol\":1721:1732  _mintAmount */\n      dup3\n        /* \"polygon/Collection.sol\":1716:1717  i */\n      dup2\n        /* \"polygon/Collection.sol\":1716:1732  i <= _mintAmount */\n      gt\n        /* \"polygon/Collection.sol\":1696:1792  for (uint256 i = 1; i <= _mintAmount; i++) {\r... */\n      tag_293\n      jumpi\n        /* \"polygon/Collection.sol\":1754:1780  _safeMint(_to, supply + i) */\n      tag_345\n        /* \"polygon/Collection.sol\":1764:1767  _to */\n      dup5\n        /* \"polygon/Collection.sol\":1769:1779  supply + i */\n      tag_316\n        /* \"polygon/Collection.sol\":1778:1779  i */\n      dup4\n        /* \"polygon/Collection.sol\":1769:1775  supply */\n      dup6\n        /* \"polygon/Collection.sol\":1769:1779  supply + i */\n      tag_303\n      jump\t// in\n        /* \"polygon/Collection.sol\":1754:1780  _safeMint(_to, supply + i) */\n    tag_345:\n        /* \"polygon/Collection.sol\":1734:1737  i++ */\n      dup1\n      tag_347\n      dup2\n      tag_319\n      jump\t// in\n    tag_347:\n      swap2\n      pop\n      pop\n        /* \"polygon/Collection.sol\":1696:1792  for (uint256 i = 1; i <= _mintAmount; i++) {\r... */\n      jump(tag_342)\n        /* \"@openzeppelin/contracts/token/ERC721/ERC721.sol\":5005:5184  function safeTransferFrom(... */\n    tag_131:\n        /* \"@openzeppelin/contracts/token/ERC721/ERC721.sol\":5138:5177  safeTransferFrom(from, to, tokenId, \"\") */\n      tag_255\n        /* \"@openzeppelin/contracts/token/ERC721/ERC721.sol\":5155:5159  from */\n      dup4\n        /* \"@openzeppelin/contracts/token/ERC721/ERC721.sol\":5161:5163  to */\n      dup4\n        /* \"@openzeppelin/contracts/token/ERC721/ERC721.sol\":5165:5172  tokenId */\n      dup4\n        /* \"@openzeppelin/contracts/token/ERC721/ERC721.sol\":5138:5177  safeTransferFrom(from, to, tokenId, \"\") */\n      mload(0x40)\n      dup1\n      0x20\n      add\n      0x40\n      mstore\n      dup1\n      0x00\n      dup2\n      mstore\n      pop\n        /* \"@openzeppelin/contracts/token/ERC721/ERC721.sol\":5138:5154  safeTransferFrom */\n      tag_196\n        /* \"@openzeppelin/contracts/token/ERC721/ERC721.sol\":5138:5177  safeTransferFrom(from, to, tokenId, \"\") */\n      jump\t// in\n        /* \"polygon/Collection.sol\":2513:2903  function walletOfOwner(address _owner)\r... */\n    tag_136:\n        /* \"polygon/Collection.sol\":2600:2616  uint256[] memory */\n      0x60\n        /* \"polygon/Collection.sol\":2634:2657  uint256 ownerTokenCount */\n      0x00\n        /* \"polygon/Collection.sol\":2660:2677  balanceOf(_owner) */\n      tag_351\n        /* \"polygon/Collection.sol\":2670:2676  _owner */\n      dup4\n        /* \"polygon/Collection.sol\":2660:2669  balanceOf */\n      tag_170\n        /* \"polygon/Collection.sol\":2660:2677  balanceOf(_owner) */\n      jump\t// in\n    tag_351:\n        /* \"polygon/Collection.sol\":2634:2677  uint256 ownerTokenCount = balanceOf(_owner) */\n      swap1\n      pop\n        /* \"polygon/Collection.sol\":2688:2713  uint256[] memory tokenIds */\n      0x00\n        /* \"polygon/Collection.sol\":2730:2745  ownerTokenCount */\n      dup2\n        /* \"polygon/Collection.sol\":2716:2746  new uint256[](ownerTokenCount) */\n      0xffffffffffffffff\n      dup2\n      gt\n      iszero\n      tag_352\n      jumpi\n      mstore(0x00, shl(0xe0, 0x4e487b71))\n      mstore(0x04, 0x41)\n      revert(0x00, 0x24)\n    tag_352:\n      mload(0x40)\n      swap1\n      dup1\n      dup3\n      mstore\n      dup1\n      0x20\n      mul\n      0x20\n      add\n      dup3\n      add\n      0x40\n      mstore\n      dup1\n      iszero\n      tag_353\n      jumpi\n      dup2\n      0x20\n      add\n      0x20\n      dup3\n      mul\n      dup1\n      calldatasize\n      dup4\n      calldatacopy\n      add\n      swap1\n      pop\n    tag_353:\n      pop\n        /* \"polygon/Collection.sol\":2688:2746  uint256[] memory tokenIds = new uint256[](ownerTokenCount) */\n      swap1\n      pop\n        /* \"polygon/Collection.sol\":2762:2771  uint256 i */\n      0x00\n        /* \"polygon/Collection.sol\":2757:2870  for (uint256 i; i < ownerTokenCount; i++) {\r... */\n    tag_354:\n        /* \"polygon/Collection.sol\":2777:2792  ownerTokenCount */\n      dup3\n        /* \"polygon/Collection.sol\":2773:2774  i */\n      dup2\n        /* \"polygon/Collection.sol\":2773:2792  i < ownerTokenCount */\n      lt\n        /* \"polygon/Collection.sol\":2757:2870  for (uint256 i; i < ownerTokenCount; i++) {\r... */\n      iszero\n      tag_355\n      jumpi\n        /* \"polygon/Collection.sol\":2828:2858  tokenOfOwnerByIndex(_owner, i) */\n      tag_357\n        /* \"polygon/Collection.sol\":2848:2854  _owner */\n      dup6\n        /* \"polygon/Collection.sol\":2856:2857  i */\n      dup3\n        /* \"polygon/Collection.sol\":2828:2847  tokenOfOwnerByIndex */\n      tag_109\n        /* \"polygon/Collection.sol\":2828:2858  tokenOfOwnerByIndex(_owner, i) */\n      jump\t// in\n    tag_357:\n        /* \"polygon/Collection.sol\":2814:2822  tokenIds */\n      dup3\n        /* \"polygon/Collection.sol\":2823:2824  i */\n      dup3\n        /* \"polygon/Collection.sol\":2814:2825  tokenIds[i] */\n      dup2\n      mload\n      dup2\n      lt\n      tag_358\n      jumpi\n      mstore(0x00, shl(0xe0, 0x4e487b71))\n      mstore(0x04, 0x32)\n      revert(0x00, 0x24)\n    tag_358:\n      0x20\n      swap1\n      dup2\n      mul\n      swap2\n      swap1\n      swap2\n      add\n      add\n        /* \"polygon/Collection.sol\":2814:2858  tokenIds[i] = tokenOfOwnerByIndex(_owner, i) */\n      mstore\n        /* \"polygon/Collection.sol\":2794:2797  i++ */\n      dup1\n      tag_359\n      dup2\n      tag_319\n      jump\t// in\n    tag_359:\n      swap2\n      pop\n      pop\n        /* \"polygon/Collection.sol\":2757:2870  for (uint256 i; i < ownerTokenCount; i++) {\r... */\n      jump(tag_354)\n    tag_355:\n      pop\n        /* \"polygon/Collection.sol\":2887:2895  tokenIds */\n      swap4\n        /* \"polygon/Collection.sol\":2513:2903  function walletOfOwner(address _owner)\r... */\n      swap3\n      pop\n      pop\n      pop\n      jump\t// out\n        /* \"@openzeppelin/contracts/token/ERC721/extensions/ERC721Enumerable.sol\":1798:2028  function tokenByIndex(uint256 index) public view virtual override returns (uint256) {... */\n    tag_142:\n        /* \"@openzeppelin/contracts/token/ERC721/extensions/ERC721Enumerable.sol\":1873:1880  uint256 */\n      0x00\n        /* \"@openzeppelin/contracts/token/ERC721/extensions/ERC721Enumerable.sol\":1908:1938  ERC721Enumerable.totalSupply() */\n      tag_361\n        /* \"@openzeppelin/contracts/token/ERC721/extensions/ERC721Enumerable.sol\":1702:1712  _allTokens */\n      0x08\n        /* \"@openzeppelin/contracts/token/ERC721/extensions/ERC721Enumerable.sol\":1702:1719  _allTokens.length */\n      sload\n      swap1\n        /* \"@openzeppelin/contracts/token/ERC721/extensions/ERC721Enumerable.sol\":1615:1726  function totalSupply() public view virtual override returns (uint256) {... */\n      jump\n        /* \"@openzeppelin/contracts/token/ERC721/extensions/ERC721Enumerable.sol\":1908:1938  ERC721Enumerable.totalSupply() */\n    tag_361:\n        /* \"@openzeppelin/contracts/token/ERC721/extensions/ERC721Enumerable.sol\":1900:1905  index */\n      dup3\n        /* \"@openzeppelin/contracts/token/ERC721/extensions/ERC721Enumerable.sol\":1900:1938  index < ERC721Enumerable.totalSupply() */\n      lt\n        /* \"@openzeppelin/contracts/token/ERC721/extensions/ERC721Enumerable.sol\":1892:1987  require(index < ERC721Enumerable.totalSupply(), \"ERC721Enumerable: global index out of bounds\") */\n      tag_362\n      jumpi\n      mload(0x40)\n      shl(0xe5, 0x461bcd)\n      dup2\n      mstore\n        /* \"#utility.yul\":16840:16842   */\n      0x20\n        /* \"@openzeppelin/contracts/token/ERC721/extensions/ERC721Enumerable.sol\":1892:1987  require(index < ERC721Enumerable.totalSupply(), \"ERC721Enumerable: global index out of bounds\") */\n      0x04\n      dup3\n      add\n        /* \"#utility.yul\":16822:16843   */\n      mstore\n        /* \"#utility.yul\":16879:16881   */\n      0x2c\n        /* \"#utility.yul\":16859:16877   */\n      0x24\n      dup3\n      add\n        /* \"#utility.yul\":16852:16882   */\n      mstore\n        /* \"#utility.yul\":16918:16952   */\n      0x455243373231456e756d657261626c653a20676c6f62616c20696e646578206f\n        /* \"#utility.yul\":16898:16916   */\n      0x44\n      dup3\n      add\n        /* \"#utility.yul\":16891:16953   */\n      mstore\n      shl(0xa0, 0x7574206f6620626f756e6473)\n        /* \"#utility.yul\":16969:16987   */\n      0x64\n      dup3\n      add\n        /* \"#utility.yul\":16962:17004   */\n      mstore\n        /* \"#utility.yul\":17021:17040   */\n      0x84\n      add\n        /* \"@openzeppelin/contracts/token/ERC721/extensions/ERC721Enumerable.sol\":1892:1987  require(index < ERC721Enumerable.totalSupply(), \"ERC721Enumerable: global index out of bounds\") */\n      tag_245\n        /* \"#utility.yul\":16812:17046   */\n      jump\n        /* \"@openzeppelin/contracts/token/ERC721/extensions/ERC721Enumerable.sol\":1892:1987  require(index < ERC721Enumerable.totalSupply(), \"ERC721Enumerable: global index out of bounds\") */\n    tag_362:\n        /* \"@openzeppelin/contracts/token/ERC721/extensions/ERC721Enumerable.sol\":2004:2014  _allTokens */\n      0x08\n        /* \"@openzeppelin/contracts/token/ERC721/extensions/ERC721Enumerable.sol\":2015:2020  index */\n      dup3\n        /* \"@openzeppelin/contracts/token/ERC721/extensions/ERC721Enumerable.sol\":2004:2021  _allTokens[index] */\n      dup2\n      sload\n      dup2\n      lt\n      tag_365\n      jumpi\n      mstore(0x00, shl(0xe0, 0x4e487b71))\n      mstore(0x04, 0x32)\n      revert(0x00, 0x24)\n    tag_365:\n      swap1\n      0x00\n      mstore\n      keccak256(0x00, 0x20)\n      add\n      sload\n        /* \"@openzeppelin/contracts/token/ERC721/extensions/ERC721Enumerable.sol\":1997:2021  return _allTokens[index] */\n      swap1\n      pop\n        /* \"@openzeppelin/contracts/token/ERC721/extensions/ERC721Enumerable.sol\":1798:2028  function tokenByIndex(uint256 index) public view virtual override returns (uint256) {... */\n      swap2\n      swap1\n      pop\n      jump\t// out\n        /* \"polygon/Collection.sol\":3667:3771  function setBaseURI(string memory _newBaseURI) public onlyOwner {\r... */\n    tag_148:\n        /* \"@openzeppelin/contracts/access/Ownable.sol\":1094:1107  _checkOwner() */\n      tag_368\n        /* \"@openzeppelin/contracts/access/Ownable.sol\":1094:1105  _checkOwner */\n      tag_230\n        /* \"@openzeppelin/contracts/access/Ownable.sol\":1094:1107  _checkOwner() */\n      jump\t// in\n    tag_368:\n        /* \"polygon/Collection.sol\":3742:3763  baseURI = _newBaseURI */\n      dup1\n      mload\n      tag_370\n      swap1\n        /* \"polygon/Collection.sol\":3742:3749  baseURI */\n      0x0c\n      swap1\n        /* \"polygon/Collection.sol\":3742:3763  baseURI = _newBaseURI */\n      0x20\n      dup5\n      add\n      swap1\n      tag_371\n      jump\t// in\n    tag_370:\n      pop\n        /* \"polygon/Collection.sol\":3667:3771  function setBaseURI(string memory _newBaseURI) public onlyOwner {\r... */\n      pop\n      jump\t// out\n        /* \"@openzeppelin/contracts/token/ERC721/ERC721.sol\":2190:2408  function ownerOf(uint256 tokenId) public view virtual override returns (address) {... */\n    tag_156:\n        /* \"@openzeppelin/contracts/token/ERC721/ERC721.sol\":2262:2269  address */\n      0x00\n        /* \"@openzeppelin/contracts/token/ERC721/ERC721.sol\":2297:2313  _owners[tokenId] */\n      dup2\n      dup2\n      mstore\n        /* \"@openzeppelin/contracts/token/ERC721/ERC721.sol\":2297:2304  _owners */\n      0x02\n        /* \"@openzeppelin/contracts/token/ERC721/ERC721.sol\":2297:2313  _owners[tokenId] */\n      0x20\n      mstore\n      0x40\n      dup2\n      keccak256\n      sload\n      sub(shl(0xa0, 0x01), 0x01)\n      and\n        /* \"@openzeppelin/contracts/token/ERC721/ERC721.sol\":2331:2350  owner != address(0) */\n      dup1\n        /* \"@openzeppelin/contracts/token/ERC721/ERC721.sol\":2323:2379  require(owner != address(0), \"ERC721: invalid token ID\") */\n      tag_226\n      jumpi\n      mload(0x40)\n      shl(0xe5, 0x461bcd)\n      dup2\n      mstore\n        /* \"#utility.yul\":16085:16087   */\n      0x20\n        /* \"@openzeppelin/contracts/token/ERC721/ERC721.sol\":2323:2379  require(owner != address(0), \"ERC721: invalid token ID\") */\n      0x04\n      dup3\n      add\n        /* \"#utility.yul\":16067:16088   */\n      mstore\n        /* \"#utility.yul\":16124:16126   */\n      0x18\n        /* \"#utility.yul\":16104:16122   */\n      0x24\n      dup3\n      add\n        /* \"#utility.yul\":16097:16127   */\n      mstore\n      shl(0x42, 0x115490cdcc8c4e881a5b9d985b1a59081d1bdad95b881251)\n        /* \"#utility.yul\":16143:16161   */\n      0x44\n      dup3\n      add\n        /* \"#utility.yul\":16136:16190   */\n      mstore\n        /* \"#utility.yul\":16207:16225   */\n      0x64\n      add\n        /* \"@openzeppelin/contracts/token/ERC721/ERC721.sol\":2323:2379  require(owner != address(0), \"ERC721: invalid token ID\") */\n      tag_245\n        /* \"#utility.yul\":16057:16231   */\n      jump\n        /* \"polygon/Collection.sol\":776:993  function addCurrency(IERC20 _paytoken, uint256 _costvalue)\r... */\n    tag_162:\n        /* \"@openzeppelin/contracts/access/Ownable.sol\":1094:1107  _checkOwner() */\n      tag_377\n        /* \"@openzeppelin/contracts/access/Ownable.sol\":1094:1105  _checkOwner */\n      tag_230\n        /* \"@openzeppelin/contracts/access/Ownable.sol\":1094:1107  _checkOwner() */\n      jump\t// in\n    tag_377:\n        /* \"polygon/Collection.sol\":919:974  TokenInfo({paytoken: _paytoken, costvalue: _costvalue}) */\n      0x40\n      dup1\n      mload\n      dup1\n      dup3\n      add\n      swap1\n      swap2\n      mstore\n      sub(shl(0xa0, 0x01), 0x01)\n      swap3\n      dup4\n      and\n      dup2\n      mstore\n      0x20\n      dup2\n      add\n      swap2\n      dup3\n      mstore\n        /* \"polygon/Collection.sol\":886:899  AllowedCrypto */\n      0x0b\n        /* \"polygon/Collection.sol\":886:985  AllowedCrypto.push(\r... */\n      dup1\n      sload\n      0x01\n      dup2\n      add\n      dup3\n      sstore\n      0x00\n      swap2\n      swap1\n      swap2\n      mstore\n      swap1\n      mload\n      0x0175b7a638427703f0dbe7bb9bbf987a2551717b34e79f33b5b1008d1fa01db9\n      0x02\n      swap1\n      swap3\n      mul\n      swap2\n      dup3\n      add\n      dup1\n      sload\n      not(sub(shl(0xa0, 0x01), 0x01))\n      and\n      swap2\n      swap1\n      swap5\n      and\n      or\n      swap1\n      swap3\n      sstore\n      mload\n      0x0175b7a638427703f0dbe7bb9bbf987a2551717b34e79f33b5b1008d1fa01dba\n      swap1\n      swap2\n      add\n      sstore\n        /* \"polygon/Collection.sol\":776:993  function addCurrency(IERC20 _paytoken, uint256 _costvalue)\r... */\n      jump\t// out\n        /* \"polygon/Collection.sol\":488:509  string public baseURI */\n    tag_165:\n      0x0c\n      dup1\n      sload\n      tag_380\n      swap1\n      tag_234\n      jump\t// in\n    tag_380:\n      dup1\n      0x1f\n      add\n      0x20\n      dup1\n      swap2\n      div\n      mul\n      0x20\n      add\n      mload(0x40)\n      swap1\n      dup2\n      add\n      0x40\n      mstore\n      dup1\n      swap3\n      swap2\n      swap1\n      dup2\n      dup2\n      mstore\n      0x20\n      add\n      dup3\n      dup1\n      sload\n      tag_381\n      swap1\n      tag_234\n      jump\t// in\n    tag_381:\n      dup1\n      iszero\n      tag_382\n      jumpi\n      dup1\n      0x1f\n      lt\n      tag_383\n      jumpi\n      0x0100\n      dup1\n      dup4\n      sload\n      div\n      mul\n      dup4\n      mstore\n      swap2\n      0x20\n      add\n      swap2\n      jump(tag_382)\n    tag_383:\n      dup3\n      add\n      swap2\n      swap1\n      0x00\n      mstore\n      keccak256(0x00, 0x20)\n      swap1\n    tag_384:\n      dup2\n      sload\n      dup2\n      mstore\n      swap1\n      0x01\n      add\n      swap1\n      0x20\n      add\n      dup1\n      dup4\n      gt\n      tag_384\n      jumpi\n      dup3\n      swap1\n      sub\n      0x1f\n      and\n      dup3\n      add\n      swap2\n    tag_382:\n      pop\n      pop\n      pop\n      pop\n      pop\n      dup2\n      jump\t// out\n        /* \"@openzeppelin/contracts/token/ERC721/ERC721.sol\":1929:2133  function balanceOf(address owner) public view virtual override returns (uint256) {... */\n    tag_170:\n        /* \"@openzeppelin/contracts/token/ERC721/ERC721.sol\":2001:2008  uint256 */\n      0x00\n      sub(shl(0xa0, 0x01), 0x01)\n        /* \"@openzeppelin/contracts/token/ERC721/ERC721.sol\":2028:2047  owner != address(0) */\n      dup3\n      and\n        /* \"@openzeppelin/contracts/token/ERC721/ERC721.sol\":2020:2093  require(owner != address(0), \"ERC721: address zero is not a valid owner\") */\n      tag_386\n      jumpi\n      mload(0x40)\n      shl(0xe5, 0x461bcd)\n      dup2\n      mstore\n        /* \"#utility.yul\":13694:13696   */\n      0x20\n        /* \"@openzeppelin/contracts/token/ERC721/ERC721.sol\":2020:2093  require(owner != address(0), \"ERC721: address zero is not a valid owner\") */\n      0x04\n      dup3\n      add\n        /* \"#utility.yul\":13676:13697   */\n      mstore\n        /* \"#utility.yul\":13733:13735   */\n      0x29\n        /* \"#utility.yul\":13713:13731   */\n      0x24\n      dup3\n      add\n        /* \"#utility.yul\":13706:13736   */\n      mstore\n        /* \"#utility.yul\":13772:13806   */\n      0x4552433732313a2061646472657373207a65726f206973206e6f742061207661\n        /* \"#utility.yul\":13752:13770   */\n      0x44\n      dup3\n      add\n        /* \"#utility.yul\":13745:13807   */\n      mstore\n      shl(0xb9, 0x3634b21037bbb732b9)\n        /* \"#utility.yul\":13823:13841   */\n      0x64\n      dup3\n      add\n        /* \"#utility.yul\":13816:13855   */\n      mstore\n        /* \"#utility.yul\":13872:13891   */\n      0x84\n      add\n        /* \"@openzeppelin/contracts/token/ERC721/ERC721.sol\":2020:2093  require(owner != address(0), \"ERC721: address zero is not a valid owner\") */\n      tag_245\n        /* \"#utility.yul\":13666:13897   */\n      jump\n        /* \"@openzeppelin/contracts/token/ERC721/ERC721.sol\":2020:2093  require(owner != address(0), \"ERC721: address zero is not a valid owner\") */\n    tag_386:\n      pop\n      sub(shl(0xa0, 0x01), 0x01)\n        /* \"@openzeppelin/contracts/token/ERC721/ERC721.sol\":2110:2126  _balances[owner] */\n      and\n      0x00\n      swap1\n      dup2\n      mstore\n        /* \"@openzeppelin/contracts/token/ERC721/ERC721.sol\":2110:2119  _balances */\n      0x03\n        /* \"@openzeppelin/contracts/token/ERC721/ERC721.sol\":2110:2126  _balances[owner] */\n      0x20\n      mstore\n      0x40\n      swap1\n      keccak256\n      sload\n      swap1\n        /* \"@openzeppelin/contracts/token/ERC721/ERC721.sol\":1929:2133  function balanceOf(address owner) public view virtual override returns (uint256) {... */\n      jump\t// out\n        /* \"@openzeppelin/contracts/access/Ownable.sol\":1831:1932  function renounceOwnership() public virtual onlyOwner {... */\n    tag_174:\n        /* \"@openzeppelin/contracts/access/Ownable.sol\":1094:1107  _checkOwner() */\n      tag_390\n        /* \"@openzeppelin/contracts/access/Ownable.sol\":1094:1105  _checkOwner */\n      tag_230\n        /* \"@openzeppelin/contracts/access/Ownable.sol\":1094:1107  _checkOwner() */\n      jump\t// in\n    tag_390:\n        /* \"@openzeppelin/contracts/access/Ownable.sol\":1895:1925  _transferOwnership(address(0)) */\n      tag_324\n        /* \"@openzeppelin/contracts/access/Ownable.sol\":1922:1923  0 */\n      0x00\n        /* \"@openzeppelin/contracts/access/Ownable.sol\":1895:1913  _transferOwnership */\n      tag_393\n        /* \"@openzeppelin/contracts/access/Ownable.sol\":1895:1925  _transferOwnership(address(0)) */\n      jump\t// in\n        /* \"polygon/Collection.sol\":3537:3659  function setmaxMintAmount(uint256 _newmaxMintAmount) public onlyOwner {\r... */\n    tag_178:\n        /* \"@openzeppelin/contracts/access/Ownable.sol\":1094:1107  _checkOwner() */\n      tag_395\n        /* \"@openzeppelin/contracts/access/Ownable.sol\":1094:1105  _checkOwner */\n      tag_230\n        /* \"@openzeppelin/contracts/access/Ownable.sol\":1094:1107  _checkOwner() */\n      jump\t// in\n    tag_395:\n        /* \"polygon/Collection.sol\":3618:3631  maxMintAmount */\n      0x10\n        /* \"polygon/Collection.sol\":3618:3651  maxMintAmount = _newmaxMintAmount */\n      sstore\n        /* \"polygon/Collection.sol\":3537:3659  function setmaxMintAmount(uint256 _newmaxMintAmount) public onlyOwner {\r... */\n      jump\t// out\n        /* \"@openzeppelin/contracts/token/ERC721/ERC721.sol\":2632:2734  function symbol() public view virtual override returns (string memory) {... */\n    tag_185:\n        /* \"@openzeppelin/contracts/token/ERC721/ERC721.sol\":2688:2701  string memory */\n      0x60\n        /* \"@openzeppelin/contracts/token/ERC721/ERC721.sol\":2720:2727  _symbol */\n      0x01\n        /* \"@openzeppelin/contracts/token/ERC721/ERC721.sol\":2713:2727  return _symbol */\n      dup1\n      sload\n      tag_233\n      swap1\n      tag_234\n      jump\t// in\n        /* \"@openzeppelin/contracts/token/ERC721/ERC721.sol\":4169:4322  function setApprovalForAll(address operator, bool approved) public virtual override {... */\n    tag_191:\n        /* \"@openzeppelin/contracts/token/ERC721/ERC721.sol\":4263:4315  _setApprovalForAll(_msgSender(), operator, approved) */\n      tag_370\n        /* \"@openzeppelin/contracts/utils/Context.sol\":719:729  msg.sender */\n      caller\n        /* \"@openzeppelin/contracts/token/ERC721/ERC721.sol\":4296:4304  operator */\n      dup4\n        /* \"@openzeppelin/contracts/token/ERC721/ERC721.sol\":4306:4314  approved */\n      dup4\n        /* \"@openzeppelin/contracts/token/ERC721/ERC721.sol\":4263:4281  _setApprovalForAll */\n      tag_407\n        /* \"@openzeppelin/contracts/token/ERC721/ERC721.sol\":4263:4315  _setApprovalForAll(_msgSender(), operator, approved) */\n      jump\t// in\n        /* \"@openzeppelin/contracts/token/ERC721/ERC721.sol\":5250:5565  function safeTransferFrom(... */\n    tag_196:\n        /* \"@openzeppelin/contracts/token/ERC721/ERC721.sol\":5418:5459  _isApprovedOrOwner(_msgSender(), tokenId) */\n      tag_409\n        /* \"@openzeppelin/contracts/utils/Context.sol\":719:729  msg.sender */\n      caller\n        /* \"@openzeppelin/contracts/token/ERC721/ERC721.sol\":5451:5458  tokenId */\n      dup4\n        /* \"@openzeppelin/contracts/token/ERC721/ERC721.sol\":5418:5436  _isApprovedOrOwner */\n      tag_264\n        /* \"@openzeppelin/contracts/token/ERC721/ERC721.sol\":5418:5459  _isApprovedOrOwner(_msgSender(), tokenId) */\n      jump\t// in\n    tag_409:\n        /* \"@openzeppelin/contracts/token/ERC721/ERC721.sol\":5410:5510  require(_isApprovedOrOwner(_msgSender(), tokenId), \"ERC721: caller is not token owner nor approved\") */\n      tag_411\n      jumpi\n      mload(0x40)\n      shl(0xe5, 0x461bcd)\n      dup2\n      mstore\n      0x04\n      add\n      tag_245\n      swap1\n      tag_267\n      jump\t// in\n    tag_411:\n        /* \"@openzeppelin/contracts/token/ERC721/ERC721.sol\":5520:5558  _safeTransfer(from, to, tokenId, data) */\n      tag_293\n        /* \"@openzeppelin/contracts/token/ERC721/ERC721.sol\":5534:5538  from */\n      dup5\n        /* \"@openzeppelin/contracts/token/ERC721/ERC721.sol\":5540:5542  to */\n      dup5\n        /* \"@openzeppelin/contracts/token/ERC721/ERC721.sol\":5544:5551  tokenId */\n      dup5\n        /* \"@openzeppelin/contracts/token/ERC721/ERC721.sol\":5553:5557  data */\n      dup5\n        /* \"@openzeppelin/contracts/token/ERC721/ERC721.sol\":5520:5533  _safeTransfer */\n      tag_414\n        /* \"@openzeppelin/contracts/token/ERC721/ERC721.sol\":5520:5558  _safeTransfer(from, to, tokenId, data) */\n      jump\t// in\n        /* \"polygon/Collection.sol\":516:553  string public baseExtension = \".json\" */\n    tag_199:\n      0x0d\n      dup1\n      sload\n      tag_380\n      swap1\n      tag_234\n      jump\t// in\n        /* \"polygon/Collection.sol\":2911:3508  function tokenURI(uint256 tokenId) public view virtual override returns (string memory)\r... */\n    tag_204:\n        /* \"@openzeppelin/contracts/token/ERC721/ERC721.sol\":7099:7103  bool */\n      0x00\n        /* \"@openzeppelin/contracts/token/ERC721/ERC721.sol\":7122:7138  _owners[tokenId] */\n      dup2\n      dup2\n      mstore\n        /* \"@openzeppelin/contracts/token/ERC721/ERC721.sol\":7122:7129  _owners */\n      0x02\n        /* \"@openzeppelin/contracts/token/ERC721/ERC721.sol\":7122:7138  _owners[tokenId] */\n      0x20\n      mstore\n      0x40\n      swap1\n      keccak256\n      sload\n        /* \"polygon/Collection.sol\":2984:2997  string memory */\n      0x60\n      swap1\n      sub(shl(0xa0, 0x01), 0x01)\n        /* \"@openzeppelin/contracts/token/ERC721/ERC721.sol\":7122:7138  _owners[tokenId] */\n      and\n        /* \"polygon/Collection.sol\":3015:3128  require(\r... */\n      tag_423\n      jumpi\n      mload(0x40)\n      shl(0xe5, 0x461bcd)\n      dup2\n      mstore\n        /* \"#utility.yul\":15257:15259   */\n      0x20\n        /* \"polygon/Collection.sol\":3015:3128  require(\r... */\n      0x04\n      dup3\n      add\n        /* \"#utility.yul\":15239:15260   */\n      mstore\n        /* \"#utility.yul\":15296:15298   */\n      0x2f\n        /* \"#utility.yul\":15276:15294   */\n      0x24\n      dup3\n      add\n        /* \"#utility.yul\":15269:15299   */\n      mstore\n        /* \"#utility.yul\":15335:15369   */\n      0x4552433732314d657461646174613a2055524920717565727920666f72206e6f\n        /* \"#utility.yul\":15315:15333   */\n      0x44\n      dup3\n      add\n        /* \"#utility.yul\":15308:15370   */\n      mstore\n      shl(0x89, 0x3732bc34b9ba32b73a103a37b5b2b7)\n        /* \"#utility.yul\":15386:15404   */\n      0x64\n      dup3\n      add\n        /* \"#utility.yul\":15379:15424   */\n      mstore\n        /* \"#utility.yul\":15441:15460   */\n      0x84\n      add\n        /* \"polygon/Collection.sol\":3015:3128  require(\r... */\n      tag_245\n        /* \"#utility.yul\":15229:15466   */\n      jump\n        /* \"polygon/Collection.sol\":3015:3128  require(\r... */\n    tag_423:\n        /* \"polygon/Collection.sol\":3141:3169  string memory currentBaseURI */\n      0x00\n        /* \"polygon/Collection.sol\":3172:3182  _baseURI() */\n      tag_426\n        /* \"polygon/Collection.sol\":3172:3180  _baseURI */\n      tag_427\n        /* \"polygon/Collection.sol\":3172:3182  _baseURI() */\n      jump\t// in\n    tag_426:\n        /* \"polygon/Collection.sol\":3141:3182  string memory currentBaseURI = _baseURI() */\n      swap1\n      pop\n        /* \"polygon/Collection.sol\":3244:3245  0 */\n      0x00\n        /* \"polygon/Collection.sol\":3219:3233  currentBaseURI */\n      dup2\n        /* \"polygon/Collection.sol\":3213:3241  bytes(currentBaseURI).length */\n      mload\n        /* \"polygon/Collection.sol\":3213:3245  bytes(currentBaseURI).length > 0 */\n      gt\n        /* \"polygon/Collection.sol\":3213:3500  bytes(currentBaseURI).length > 0\r... */\n      tag_428\n      jumpi\n      mload(0x40)\n      dup1\n      0x20\n      add\n      0x40\n      mstore\n      dup1\n      0x00\n      dup2\n      mstore\n      pop\n      jump(tag_429)\n    tag_428:\n        /* \"polygon/Collection.sol\":3337:3351  currentBaseURI */\n      dup1\n        /* \"polygon/Collection.sol\":3378:3396  tokenId.toString() */\n      tag_430\n        /* \"polygon/Collection.sol\":3378:3385  tokenId */\n      dup5\n        /* \"polygon/Collection.sol\":3378:3394  tokenId.toString */\n      tag_431\n        /* \"polygon/Collection.sol\":3378:3396  tokenId.toString() */\n      jump\t// in\n    tag_430:\n        /* \"polygon/Collection.sol\":3423:3436  baseExtension */\n      0x0d\n        /* \"polygon/Collection.sol\":3294:3459  abi.encodePacked(\r... */\n      add(0x20, mload(0x40))\n      tag_432\n      swap4\n      swap3\n      swap2\n      swap1\n      tag_433\n      jump\t// in\n    tag_432:\n      mload(0x40)\n      0x20\n      dup2\n      dup4\n      sub\n      sub\n      dup2\n      mstore\n      swap1\n      0x40\n      mstore\n        /* \"polygon/Collection.sol\":3213:3500  bytes(currentBaseURI).length > 0\r... */\n    tag_429:\n        /* \"polygon/Collection.sol\":3193:3500  return\r... */\n      swap4\n        /* \"polygon/Collection.sol\":2911:3508  function tokenURI(uint256 tokenId) public view virtual override returns (string memory)\r... */\n      swap3\n      pop\n      pop\n      pop\n      jump\t// out\n        /* \"polygon/Collection.sol\":3779:3930  function setBaseExtension(string memory _newBaseExtension)\r... */\n    tag_213:\n        /* \"@openzeppelin/contracts/access/Ownable.sol\":1094:1107  _checkOwner() */\n      tag_435\n        /* \"@openzeppelin/contracts/access/Ownable.sol\":1094:1105  _checkOwner */\n      tag_230\n        /* \"@openzeppelin/contracts/access/Ownable.sol\":1094:1107  _checkOwner() */\n      jump\t// in\n    tag_435:\n        /* \"polygon/Collection.sol\":3889:3922  baseExtension = _newBaseExtension */\n      dup1\n      mload\n      tag_370\n      swap1\n        /* \"polygon/Collection.sol\":3889:3902  baseExtension */\n      0x0d\n      swap1\n        /* \"polygon/Collection.sol\":3889:3922  baseExtension = _newBaseExtension */\n      0x20\n      dup5\n      add\n      swap1\n      tag_371\n      jump\t// in\n        /* \"@openzeppelin/contracts/access/Ownable.sol\":2081:2279  function transferOwnership(address newOwner) public virtual onlyOwner {... */\n    tag_223:\n        /* \"@openzeppelin/contracts/access/Ownable.sol\":1094:1107  _checkOwner() */\n      tag_440\n        /* \"@openzeppelin/contracts/access/Ownable.sol\":1094:1105  _checkOwner */\n      tag_230\n        /* \"@openzeppelin/contracts/access/Ownable.sol\":1094:1107  _checkOwner() */\n      jump\t// in\n    tag_440:\n      sub(shl(0xa0, 0x01), 0x01)\n        /* \"@openzeppelin/contracts/access/Ownable.sol\":2169:2191  newOwner != address(0) */\n      dup2\n      and\n        /* \"@openzeppelin/contracts/access/Ownable.sol\":2161:2234  require(newOwner != address(0), \"Ownable: new owner is the zero address\") */\n      tag_442\n      jumpi\n      mload(0x40)\n      shl(0xe5, 0x461bcd)\n      dup2\n      mstore\n        /* \"#utility.yul\":11765:11767   */\n      0x20\n        /* \"@openzeppelin/contracts/access/Ownable.sol\":2161:2234  require(newOwner != address(0), \"Ownable: new owner is the zero address\") */\n      0x04\n      dup3\n      add\n        /* \"#utility.yul\":11747:11768   */\n      mstore\n        /* \"#utility.yul\":11804:11806   */\n      0x26\n        /* \"#utility.yul\":11784:11802   */\n      0x24\n      dup3\n      add\n        /* \"#utility.yul\":11777:11807   */\n      mstore\n        /* \"#utility.yul\":11843:11877   */\n      0x4f776e61626c653a206e6577206f776e657220697320746865207a65726f2061\n        /* \"#utility.yul\":11823:11841   */\n      0x44\n      dup3\n      add\n        /* \"#utility.yul\":11816:11878   */\n      mstore\n      shl(0xd0, 0x646472657373)\n        /* \"#utility.yul\":11894:11912   */\n      0x64\n      dup3\n      add\n        /* \"#utility.yul\":11887:11923   */\n      mstore\n        /* \"#utility.yul\":11940:11959   */\n      0x84\n      add\n        /* \"@openzeppelin/contracts/access/Ownable.sol\":2161:2234  require(newOwner != address(0), \"Ownable: new owner is the zero address\") */\n      tag_245\n        /* \"#utility.yul\":11737:11965   */\n      jump\n        /* \"@openzeppelin/contracts/access/Ownable.sol\":2161:2234  require(newOwner != address(0), \"Ownable: new owner is the zero address\") */\n    tag_442:\n        /* \"@openzeppelin/contracts/access/Ownable.sol\":2244:2272  _transferOwnership(newOwner) */\n      tag_445\n        /* \"@openzeppelin/contracts/access/Ownable.sol\":2263:2271  newOwner */\n      dup2\n        /* \"@openzeppelin/contracts/access/Ownable.sol\":2244:2262  _transferOwnership */\n      tag_393\n        /* \"@openzeppelin/contracts/access/Ownable.sol\":2244:2272  _transferOwnership(newOwner) */\n      jump\t// in\n    tag_445:\n        /* \"@openzeppelin/contracts/access/Ownable.sol\":2081:2279  function transferOwnership(address newOwner) public virtual onlyOwner {... */\n      pop\n      jump\t// out\n        /* \"@openzeppelin/contracts/token/ERC721/ERC721.sol\":1570:1870  function supportsInterface(bytes4 interfaceId) public view virtual override(ERC165, IERC165) returns (bool) {... */\n    tag_227:\n        /* \"@openzeppelin/contracts/token/ERC721/ERC721.sol\":1672:1676  bool */\n      0x00\n      not(sub(shl(0xe0, 0x01), 0x01))\n        /* \"@openzeppelin/contracts/token/ERC721/ERC721.sol\":1707:1747  interfaceId == type(IERC721).interfaceId */\n      dup3\n      and\n      shl(0xe0, 0x80ac58cd)\n      eq\n      dup1\n        /* \"@openzeppelin/contracts/token/ERC721/ERC721.sol\":1707:1811  interfaceId == type(IERC721).interfaceId ||... */\n      tag_447\n      jumpi\n      pop\n      not(sub(shl(0xe0, 0x01), 0x01))\n        /* \"@openzeppelin/contracts/token/ERC721/ERC721.sol\":1763:1811  interfaceId == type(IERC721Metadata).interfaceId */\n      dup3\n      and\n      shl(0xe0, 0x5b5e139f)\n      eq\n        /* \"@openzeppelin/contracts/token/ERC721/ERC721.sol\":1707:1811  interfaceId == type(IERC721).interfaceId ||... */\n    tag_447:\n        /* \"@openzeppelin/contracts/token/ERC721/ERC721.sol\":1707:1863  interfaceId == type(IERC721).interfaceId ||... */\n      dup1\n      tag_226\n      jumpi\n      pop\n      shl(0xe0, 0x01ffc9a7)\n      not(sub(shl(0xe0, 0x01), 0x01))\n        /* \"@openzeppelin/contracts/utils/introspection/ERC165.sol\":937:977  interfaceId == type(IERC165).interfaceId */\n      dup4\n      and\n      eq\n        /* \"@openzeppelin/contracts/token/ERC721/ERC721.sol\":1827:1863  super.supportsInterface(interfaceId) */\n      tag_226\n        /* \"@openzeppelin/contracts/utils/introspection/ERC165.sol\":829:984  function supportsInterface(bytes4 interfaceId) public view virtual override returns (bool) {... */\n      jump\n        /* \"@openzeppelin/contracts/access/Ownable.sol\":1359:1489  function _checkOwner() internal view virtual {... */\n    tag_230:\n        /* \"@openzeppelin/contracts/access/Ownable.sol\":1273:1279  _owner */\n      and(sub(shl(0xa0, 0x01), 0x01), sload(0x0a))\n        /* \"@openzeppelin/contracts/utils/Context.sol\":719:729  msg.sender */\n      caller\n        /* \"@openzeppelin/contracts/access/Ownable.sol\":1422:1445  owner() == _msgSender() */\n      eq\n        /* \"@openzeppelin/contracts/access/Ownable.sol\":1414:1482  require(owner() == _msgSender(), \"Ownable: caller is not the owner\") */\n      tag_324\n      jumpi\n      mload(0x40)\n      shl(0xe5, 0x461bcd)\n      dup2\n      mstore\n        /* \"#utility.yul\":14896:14898   */\n      0x20\n        /* \"@openzeppelin/contracts/access/Ownable.sol\":1414:1482  require(owner() == _msgSender(), \"Ownable: caller is not the owner\") */\n      0x04\n      dup3\n      add\n        /* \"#utility.yul\":14878:14899   */\n      dup2\n      swap1\n      mstore\n        /* \"#utility.yul\":14915:14933   */\n      0x24\n      dup3\n      add\n        /* \"#utility.yul\":14908:14938   */\n      mstore\n        /* \"#utility.yul\":14974:15008   */\n      0x4f776e61626c653a2063616c6c6572206973206e6f7420746865206f776e6572\n        /* \"#utility.yul\":14954:14972   */\n      0x44\n      dup3\n      add\n        /* \"#utility.yul\":14947:15009   */\n      mstore\n        /* \"#utility.yul\":15026:15044   */\n      0x64\n      add\n        /* \"@openzeppelin/contracts/access/Ownable.sol\":1414:1482  require(owner() == _msgSender(), \"Ownable: caller is not the owner\") */\n      tag_245\n        /* \"#utility.yul\":14868:15050   */\n      jump\n        /* \"@openzeppelin/contracts/token/ERC721/ERC721.sol\":11657:11790  function _requireMinted(uint256 tokenId) internal view virtual {... */\n    tag_241:\n        /* \"@openzeppelin/contracts/token/ERC721/ERC721.sol\":7099:7103  bool */\n      0x00\n        /* \"@openzeppelin/contracts/token/ERC721/ERC721.sol\":7122:7138  _owners[tokenId] */\n      dup2\n      dup2\n      mstore\n        /* \"@openzeppelin/contracts/token/ERC721/ERC721.sol\":7122:7129  _owners */\n      0x02\n        /* \"@openzeppelin/contracts/token/ERC721/ERC721.sol\":7122:7138  _owners[tokenId] */\n      0x20\n      mstore\n      0x40\n      swap1\n      keccak256\n      sload\n      sub(shl(0xa0, 0x01), 0x01)\n      and\n        /* \"@openzeppelin/contracts/token/ERC721/ERC721.sol\":11730:11783  require(_exists(tokenId), \"ERC721: invalid token ID\") */\n      tag_445\n      jumpi\n      mload(0x40)\n      shl(0xe5, 0x461bcd)\n      dup2\n      mstore\n        /* \"#utility.yul\":16085:16087   */\n      0x20\n        /* \"@openzeppelin/contracts/token/ERC721/ERC721.sol\":11730:11783  require(_exists(tokenId), \"ERC721: invalid token ID\") */\n      0x04\n      dup3\n      add\n        /* \"#utility.yul\":16067:16088   */\n      mstore\n        /* \"#utility.yul\":16124:16126   */\n      0x18\n        /* \"#utility.yul\":16104:16122   */\n      0x24\n      dup3\n      add\n        /* \"#utility.yul\":16097:16127   */\n      mstore\n      shl(0x42, 0x115490cdcc8c4e881a5b9d985b1a59081d1bdad95b881251)\n        /* \"#utility.yul\":16143:16161   */\n      0x44\n      dup3\n      add\n        /* \"#utility.yul\":16136:16190   */\n      mstore\n        /* \"#utility.yul\":16207:16225   */\n      0x64\n      add\n        /* \"@openzeppelin/contracts/token/ERC721/ERC721.sol\":11730:11783  require(_exists(tokenId), \"ERC721: invalid token ID\") */\n      tag_245\n        /* \"#utility.yul\":16057:16231   */\n      jump\n        /* \"@openzeppelin/contracts/token/ERC721/ERC721.sol\":10959:11130  function _approve(address to, uint256 tokenId) internal virtual {... */\n    tag_256:\n        /* \"@openzeppelin/contracts/token/ERC721/ERC721.sol\":11033:11057  _tokenApprovals[tokenId] */\n      0x00\n      dup2\n      dup2\n      mstore\n        /* \"@openzeppelin/contracts/token/ERC721/ERC721.sol\":11033:11048  _tokenApprovals */\n      0x04\n        /* \"@openzeppelin/contracts/token/ERC721/ERC721.sol\":11033:11057  _tokenApprovals[tokenId] */\n      0x20\n      mstore\n      0x40\n      swap1\n      keccak256\n        /* \"@openzeppelin/contracts/token/ERC721/ERC721.sol\":11033:11062  _tokenApprovals[tokenId] = to */\n      dup1\n      sload\n      not(sub(shl(0xa0, 0x01), 0x01))\n      and\n      sub(shl(0xa0, 0x01), 0x01)\n      dup5\n      and\n      swap1\n      dup2\n      or\n      swap1\n      swap2\n      sstore\n        /* \"@openzeppelin/contracts/token/ERC721/ERC721.sol\":11033:11057  _tokenApprovals[tokenId] */\n      dup2\n      swap1\n        /* \"@openzeppelin/contracts/token/ERC721/ERC721.sol\":11086:11109  ERC721.ownerOf(tokenId) */\n      tag_463\n        /* \"@openzeppelin/contracts/token/ERC721/ERC721.sol\":11033:11057  _tokenApprovals[tokenId] */\n      dup3\n        /* \"@openzeppelin/contracts/token/ERC721/ERC721.sol\":11086:11100  ERC721.ownerOf */\n      tag_156\n        /* \"@openzeppelin/contracts/token/ERC721/ERC721.sol\":11086:11109  ERC721.ownerOf(tokenId) */\n      jump\t// in\n    tag_463:\n      sub(shl(0xa0, 0x01), 0x01)\n        /* \"@openzeppelin/contracts/token/ERC721/ERC721.sol\":11077:11123  Approval(ERC721.ownerOf(tokenId), to, tokenId) */\n      and\n      0x8c5be1e5ebec7d5bd14f71427d1e84f3dd0314c0f7b2291e5b200ac8c7c3b925\n      mload(0x40)\n      mload(0x40)\n      dup1\n      swap2\n      sub\n      swap1\n      log4\n        /* \"@openzeppelin/contracts/token/ERC721/ERC721.sol\":10959:11130  function _approve(address to, uint256 tokenId) internal virtual {... */\n      pop\n      pop\n      jump\t// out\n        /* \"@openzeppelin/contracts/token/ERC721/ERC721.sol\":7317:7578  function _isApprovedOrOwner(address spender, uint256 tokenId) internal view virtual returns (bool) {... */\n    tag_264:\n        /* \"@openzeppelin/contracts/token/ERC721/ERC721.sol\":7410:7414  bool */\n      0x00\n        /* \"@openzeppelin/contracts/token/ERC721/ERC721.sol\":7426:7439  address owner */\n      dup1\n        /* \"@openzeppelin/contracts/token/ERC721/ERC721.sol\":7442:7465  ERC721.ownerOf(tokenId) */\n      tag_465\n        /* \"@openzeppelin/contracts/token/ERC721/ERC721.sol\":7457:7464  tokenId */\n      dup4\n        /* \"@openzeppelin/contracts/token/ERC721/ERC721.sol\":7442:7456  ERC721.ownerOf */\n      tag_156\n        /* \"@openzeppelin/contracts/token/ERC721/ERC721.sol\":7442:7465  ERC721.ownerOf(tokenId) */\n      jump\t// in\n    tag_465:\n        /* \"@openzeppelin/contracts/token/ERC721/ERC721.sol\":7426:7465  address owner = ERC721.ownerOf(tokenId) */\n      swap1\n      pop\n        /* \"@openzeppelin/contracts/token/ERC721/ERC721.sol\":7494:7499  owner */\n      dup1\n      sub(shl(0xa0, 0x01), 0x01)\n        /* \"@openzeppelin/contracts/token/ERC721/ERC721.sol\":7483:7499  spender == owner */\n      and\n        /* \"@openzeppelin/contracts/token/ERC721/ERC721.sol\":7483:7490  spender */\n      dup5\n      sub(shl(0xa0, 0x01), 0x01)\n        /* \"@openzeppelin/contracts/token/ERC721/ERC721.sol\":7483:7499  spender == owner */\n      and\n      eq\n        /* \"@openzeppelin/contracts/token/ERC721/ERC721.sol\":7483:7535  spender == owner || isApprovedForAll(owner, spender) */\n      dup1\n      tag_467\n      jumpi\n      pop\n      sub(shl(0xa0, 0x01), 0x01)\n        /* \"@openzeppelin/contracts/token/ERC721/ERC721.sol\":4508:4533  _operatorApprovals[owner] */\n      dup1\n      dup3\n      and\n        /* \"@openzeppelin/contracts/token/ERC721/ERC721.sol\":4485:4489  bool */\n      0x00\n        /* \"@openzeppelin/contracts/token/ERC721/ERC721.sol\":4508:4533  _operatorApprovals[owner] */\n      swap1\n      dup2\n      mstore\n        /* \"@openzeppelin/contracts/token/ERC721/ERC721.sol\":4508:4526  _operatorApprovals */\n      0x05\n        /* \"@openzeppelin/contracts/token/ERC721/ERC721.sol\":4508:4533  _operatorApprovals[owner] */\n      0x20\n      swap1\n      dup2\n      mstore\n      0x40\n      dup1\n      dup4\n      keccak256\n        /* \"@openzeppelin/contracts/token/ERC721/ERC721.sol\":4508:4543  _operatorApprovals[owner][operator] */\n      swap4\n      dup9\n      and\n      dup4\n      mstore\n      swap3\n      swap1\n      mstore\n      keccak256\n      sload\n      0xff\n      and\n        /* \"@openzeppelin/contracts/token/ERC721/ERC721.sol\":7503:7535  isApprovedForAll(owner, spender) */\n    tag_467:\n        /* \"@openzeppelin/contracts/token/ERC721/ERC721.sol\":7483:7570  spender == owner || isApprovedForAll(owner, spender) || getApproved(tokenId) == spender */\n      dup1\n      tag_468\n      jumpi\n      pop\n        /* \"@openzeppelin/contracts/token/ERC721/ERC721.sol\":7563:7570  spender */\n      dup4\n      sub(shl(0xa0, 0x01), 0x01)\n        /* \"@openzeppelin/contracts/token/ERC721/ERC721.sol\":7539:7570  getApproved(tokenId) == spender */\n      and\n        /* \"@openzeppelin/contracts/token/ERC721/ERC721.sol\":7539:7559  getApproved(tokenId) */\n      tag_469\n        /* \"@openzeppelin/contracts/token/ERC721/ERC721.sol\":7551:7558  tokenId */\n      dup5\n        /* \"@openzeppelin/contracts/token/ERC721/ERC721.sol\":7539:7550  getApproved */\n      tag_68\n        /* \"@openzeppelin/contracts/token/ERC721/ERC721.sol\":7539:7559  getApproved(tokenId) */\n      jump\t// in\n    tag_469:\n      sub(shl(0xa0, 0x01), 0x01)\n        /* \"@openzeppelin/contracts/token/ERC721/ERC721.sol\":7539:7570  getApproved(tokenId) == spender */\n      and\n      eq\n        /* \"@openzeppelin/contracts/token/ERC721/ERC721.sol\":7483:7570  spender == owner || isApprovedForAll(owner, spender) || getApproved(tokenId) == spender */\n    tag_468:\n        /* \"@openzeppelin/contracts/token/ERC721/ERC721.sol\":7475:7571  return (spender == owner || isApprovedForAll(owner, spender) || getApproved(tokenId) == spender) */\n      swap5\n        /* \"@openzeppelin/contracts/token/ERC721/ERC721.sol\":7317:7578  function _isApprovedOrOwner(address spender, uint256 tokenId) internal view virtual returns (bool) {... */\n      swap4\n      pop\n      pop\n      pop\n      pop\n      jump\t// out\n        /* \"@openzeppelin/contracts/token/ERC721/ERC721.sol\":10242:10847  function _transfer(... */\n    tag_269:\n        /* \"@openzeppelin/contracts/token/ERC721/ERC721.sol\":10396:10400  from */\n      dup3\n      sub(shl(0xa0, 0x01), 0x01)\n        /* \"@openzeppelin/contracts/token/ERC721/ERC721.sol\":10369:10400  ERC721.ownerOf(tokenId) == from */\n      and\n        /* \"@openzeppelin/contracts/token/ERC721/ERC721.sol\":10369:10392  ERC721.ownerOf(tokenId) */\n      tag_471\n        /* \"@openzeppelin/contracts/token/ERC721/ERC721.sol\":10384:10391  tokenId */\n      dup3\n        /* \"@openzeppelin/contracts/token/ERC721/ERC721.sol\":10369:10383  ERC721.ownerOf */\n      tag_156\n        /* \"@openzeppelin/contracts/token/ERC721/ERC721.sol\":10369:10392  ERC721.ownerOf(tokenId) */\n      jump\t// in\n    tag_471:\n      sub(shl(0xa0, 0x01), 0x01)\n        /* \"@openzeppelin/contracts/token/ERC721/ERC721.sol\":10369:10400  ERC721.ownerOf(tokenId) == from */\n      and\n      eq\n        /* \"@openzeppelin/contracts/token/ERC721/ERC721.sol\":10361:10442  require(ERC721.ownerOf(tokenId) == from, \"ERC721: transfer from incorrect owner\") */\n      tag_472\n      jumpi\n      mload(0x40)\n      shl(0xe5, 0x461bcd)\n      dup2\n      mstore\n        /* \"#utility.yul\":12172:12174   */\n      0x20\n        /* \"@openzeppelin/contracts/token/ERC721/ERC721.sol\":10361:10442  require(ERC721.ownerOf(tokenId) == from, \"ERC721: transfer from incorrect owner\") */\n      0x04\n      dup3\n      add\n        /* \"#utility.yul\":12154:12175   */\n      mstore\n        /* \"#utility.yul\":12211:12213   */\n      0x25\n        /* \"#utility.yul\":12191:12209   */\n      0x24\n      dup3\n      add\n        /* \"#utility.yul\":12184:12214   */\n      mstore\n        /* \"#utility.yul\":12250:12284   */\n      0x4552433732313a207472616e736665722066726f6d20696e636f727265637420\n        /* \"#utility.yul\":12230:12248   */\n      0x44\n      dup3\n      add\n        /* \"#utility.yul\":12223:12285   */\n      mstore\n      shl(0xd9, 0x37bbb732b9)\n        /* \"#utility.yul\":12301:12319   */\n      0x64\n      dup3\n      add\n        /* \"#utility.yul\":12294:12329   */\n      mstore\n        /* \"#utility.yul\":12346:12365   */\n      0x84\n      add\n        /* \"@openzeppelin/contracts/token/ERC721/ERC721.sol\":10361:10442  require(ERC721.ownerOf(tokenId) == from, \"ERC721: transfer from incorrect owner\") */\n      tag_245\n        /* \"#utility.yul\":12144:12371   */\n      jump\n        /* \"@openzeppelin/contracts/token/ERC721/ERC721.sol\":10361:10442  require(ERC721.ownerOf(tokenId) == from, \"ERC721: transfer from incorrect owner\") */\n    tag_472:\n      sub(shl(0xa0, 0x01), 0x01)\n        /* \"@openzeppelin/contracts/token/ERC721/ERC721.sol\":10460:10476  to != address(0) */\n      dup3\n      and\n        /* \"@openzeppelin/contracts/token/ERC721/ERC721.sol\":10452:10517  require(to != address(0), \"ERC721: transfer to the zero address\") */\n      tag_475\n      jumpi\n      mload(0x40)\n      shl(0xe5, 0x461bcd)\n      dup2\n      mstore\n        /* \"#utility.yul\":12935:12937   */\n      0x20\n        /* \"@openzeppelin/contracts/token/ERC721/ERC721.sol\":10452:10517  require(to != address(0), \"ERC721: transfer to the zero address\") */\n      0x04\n      dup3\n      add\n        /* \"#utility.yul\":12917:12938   */\n      mstore\n        /* \"#utility.yul\":12974:12976   */\n      0x24\n        /* \"#utility.yul\":12954:12972   */\n      dup1\n      dup3\n      add\n        /* \"#utility.yul\":12947:12977   */\n      mstore\n        /* \"#utility.yul\":13013:13047   */\n      0x4552433732313a207472616e7366657220746f20746865207a65726f20616464\n        /* \"#utility.yul\":12993:13011   */\n      0x44\n      dup3\n      add\n        /* \"#utility.yul\":12986:13048   */\n      mstore\n      shl(0xe0, 0x72657373)\n        /* \"#utility.yul\":13064:13082   */\n      0x64\n      dup3\n      add\n        /* \"#utility.yul\":13057:13091   */\n      mstore\n        /* \"#utility.yul\":13108:13127   */\n      0x84\n      add\n        /* \"@openzeppelin/contracts/token/ERC721/ERC721.sol\":10452:10517  require(to != address(0), \"ERC721: transfer to the zero address\") */\n      tag_245\n        /* \"#utility.yul\":12907:13133   */\n      jump\n        /* \"@openzeppelin/contracts/token/ERC721/ERC721.sol\":10452:10517  require(to != address(0), \"ERC721: transfer to the zero address\") */\n    tag_475:\n        /* \"@openzeppelin/contracts/token/ERC721/ERC721.sol\":10528:10567  _beforeTokenTransfer(from, to, tokenId) */\n      tag_478\n        /* \"@openzeppelin/contracts/token/ERC721/ERC721.sol\":10549:10553  from */\n      dup4\n        /* \"@openzeppelin/contracts/token/ERC721/ERC721.sol\":10555:10557  to */\n      dup4\n        /* \"@openzeppelin/contracts/token/ERC721/ERC721.sol\":10559:10566  tokenId */\n      dup4\n        /* \"@openzeppelin/contracts/token/ERC721/ERC721.sol\":10528:10548  _beforeTokenTransfer */\n      tag_479\n        /* \"@openzeppelin/contracts/token/ERC721/ERC721.sol\":10528:10567  _beforeTokenTransfer(from, to, tokenId) */\n      jump\t// in\n    tag_478:\n        /* \"@openzeppelin/contracts/token/ERC721/ERC721.sol\":10629:10658  _approve(address(0), tokenId) */\n      tag_480\n        /* \"@openzeppelin/contracts/token/ERC721/ERC721.sol\":10646:10647  0 */\n      0x00\n        /* \"@openzeppelin/contracts/token/ERC721/ERC721.sol\":10650:10657  tokenId */\n      dup3\n        /* \"@openzeppelin/contracts/token/ERC721/ERC721.sol\":10629:10637  _approve */\n      tag_256\n        /* \"@openzeppelin/contracts/token/ERC721/ERC721.sol\":10629:10658  _approve(address(0), tokenId) */\n      jump\t// in\n    tag_480:\n      sub(shl(0xa0, 0x01), 0x01)\n        /* \"@openzeppelin/contracts/token/ERC721/ERC721.sol\":10669:10684  _balances[from] */\n      dup4\n      and\n      0x00\n      swap1\n      dup2\n      mstore\n        /* \"@openzeppelin/contracts/token/ERC721/ERC721.sol\":10669:10678  _balances */\n      0x03\n        /* \"@openzeppelin/contracts/token/ERC721/ERC721.sol\":10669:10684  _balances[from] */\n      0x20\n      mstore\n      0x40\n      dup2\n      keccak256\n        /* \"@openzeppelin/contracts/token/ERC721/ERC721.sol\":10669:10689  _balances[from] -= 1 */\n      dup1\n      sload\n        /* \"@openzeppelin/contracts/token/ERC721/ERC721.sol\":10688:10689  1 */\n      0x01\n      swap3\n        /* \"@openzeppelin/contracts/token/ERC721/ERC721.sol\":10669:10684  _balances[from] */\n      swap1\n        /* \"@openzeppelin/contracts/token/ERC721/ERC721.sol\":10669:10689  _balances[from] -= 1 */\n      tag_481\n      swap1\n        /* \"@openzeppelin/contracts/token/ERC721/ERC721.sol\":10688:10689  1 */\n      dup5\n      swap1\n        /* \"@openzeppelin/contracts/token/ERC721/ERC721.sol\":10669:10689  _balances[from] -= 1 */\n      tag_482\n      jump\t// in\n    tag_481:\n      swap1\n      swap2\n      sstore\n      pop\n      pop\n      sub(shl(0xa0, 0x01), 0x01)\n        /* \"@openzeppelin/contracts/token/ERC721/ERC721.sol\":10699:10712  _balances[to] */\n      dup3\n      and\n      0x00\n      swap1\n      dup2\n      mstore\n        /* \"@openzeppelin/contracts/token/ERC721/ERC721.sol\":10699:10708  _balances */\n      0x03\n        /* \"@openzeppelin/contracts/token/ERC721/ERC721.sol\":10699:10712  _balances[to] */\n      0x20\n      mstore\n      0x40\n      dup2\n      keccak256\n        /* \"@openzeppelin/contracts/token/ERC721/ERC721.sol\":10699:10717  _balances[to] += 1 */\n      dup1\n      sload\n        /* \"@openzeppelin/contracts/token/ERC721/ERC721.sol\":10716:10717  1 */\n      0x01\n      swap3\n        /* \"@openzeppelin/contracts/token/ERC721/ERC721.sol\":10699:10712  _balances[to] */\n      swap1\n        /* \"@openzeppelin/contracts/token/ERC721/ERC721.sol\":10699:10717  _balances[to] += 1 */\n      tag_483\n      swap1\n        /* \"@openzeppelin/contracts/token/ERC721/ERC721.sol\":10716:10717  1 */\n      dup5\n      swap1\n        /* \"@openzeppelin/contracts/token/ERC721/ERC721.sol\":10699:10717  _balances[to] += 1 */\n      tag_303\n      jump\t// in\n    tag_483:\n      swap1\n      swap2\n      sstore\n      pop\n      pop\n        /* \"@openzeppelin/contracts/token/ERC721/ERC721.sol\":10727:10743  _owners[tokenId] */\n      0x00\n      dup2\n      dup2\n      mstore\n        /* \"@openzeppelin/contracts/token/ERC721/ERC721.sol\":10727:10734  _owners */\n      0x02\n        /* \"@openzeppelin/contracts/token/ERC721/ERC721.sol\":10727:10743  _owners[tokenId] */\n      0x20\n      mstore\n      0x40\n      dup1\n      dup3\n      keccak256\n        /* \"@openzeppelin/contracts/token/ERC721/ERC721.sol\":10727:10748  _owners[tokenId] = to */\n      dup1\n      sload\n      not(sub(shl(0xa0, 0x01), 0x01))\n      and\n      sub(shl(0xa0, 0x01), 0x01)\n      dup7\n      dup2\n      and\n      swap2\n      dup3\n      or\n      swap1\n      swap3\n      sstore\n        /* \"@openzeppelin/contracts/token/ERC721/ERC721.sol\":10764:10791  Transfer(from, to, tokenId) */\n      swap2\n      mload\n        /* \"@openzeppelin/contracts/token/ERC721/ERC721.sol\":10727:10743  _owners[tokenId] */\n      dup5\n      swap4\n        /* \"@openzeppelin/contracts/token/ERC721/ERC721.sol\":10764:10791  Transfer(from, to, tokenId) */\n      swap2\n      dup8\n      and\n      swap2\n      0xddf252ad1be2c89b69c2b068fc378daa952ba7f163c4a11628f55a4df523b3ef\n      swap2\n      log4\n        /* \"@openzeppelin/contracts/token/ERC721/ERC721.sol\":3467:3874  function approve(address to, uint256 tokenId) public virtual override {... */\n      pop\n      pop\n      pop\n      jump\t// out\n        /* \"@openzeppelin/contracts/token/ERC721/ERC721.sol\":7908:8016  function _safeMint(address to, uint256 tokenId) internal virtual {... */\n    tag_317:\n        /* \"@openzeppelin/contracts/token/ERC721/ERC721.sol\":7983:8009  _safeMint(to, tokenId, \"\") */\n      tag_370\n        /* \"@openzeppelin/contracts/token/ERC721/ERC721.sol\":7993:7995  to */\n      dup3\n        /* \"@openzeppelin/contracts/token/ERC721/ERC721.sol\":7997:8004  tokenId */\n      dup3\n        /* \"@openzeppelin/contracts/token/ERC721/ERC721.sol\":7983:8009  _safeMint(to, tokenId, \"\") */\n      mload(0x40)\n      dup1\n      0x20\n      add\n      0x40\n      mstore\n      dup1\n      0x00\n      dup2\n      mstore\n      pop\n        /* \"@openzeppelin/contracts/token/ERC721/ERC721.sol\":7983:7992  _safeMint */\n      tag_488\n        /* \"@openzeppelin/contracts/token/ERC721/ERC721.sol\":7983:8009  _safeMint(to, tokenId, \"\") */\n      jump\t// in\n        /* \"@openzeppelin/contracts/access/Ownable.sol\":2433:2620  function _transferOwnership(address newOwner) internal virtual {... */\n    tag_393:\n        /* \"@openzeppelin/contracts/access/Ownable.sol\":2525:2531  _owner */\n      0x0a\n      dup1\n      sload\n      sub(shl(0xa0, 0x01), 0x01)\n        /* \"@openzeppelin/contracts/access/Ownable.sol\":2541:2558  _owner = newOwner */\n      dup4\n      dup2\n      and\n      not(sub(shl(0xa0, 0x01), 0x01))\n      dup4\n      and\n      dup2\n      or\n      swap1\n      swap4\n      sstore\n        /* \"@openzeppelin/contracts/access/Ownable.sol\":2573:2613  OwnershipTransferred(oldOwner, newOwner) */\n      mload(0x40)\n        /* \"@openzeppelin/contracts/access/Ownable.sol\":2525:2531  _owner */\n      swap2\n      and\n      swap2\n        /* \"@openzeppelin/contracts/access/Ownable.sol\":2541:2558  _owner = newOwner */\n      swap1\n        /* \"@openzeppelin/contracts/access/Ownable.sol\":2525:2531  _owner */\n      dup3\n      swap1\n        /* \"@openzeppelin/contracts/access/Ownable.sol\":2573:2613  OwnershipTransferred(oldOwner, newOwner) */\n      0x8be0079c531659141344cd1fd0a4f28419497f9722a3daafe3b4186f6b6457e0\n      swap1\n        /* \"@openzeppelin/contracts/access/Ownable.sol\":2506:2522  address oldOwner */\n      0x00\n      swap1\n        /* \"@openzeppelin/contracts/access/Ownable.sol\":2573:2613  OwnershipTransferred(oldOwner, newOwner) */\n      log3\n        /* \"@openzeppelin/contracts/access/Ownable.sol\":2433:2620  function _transferOwnership(address newOwner) internal virtual {... */\n      pop\n      pop\n      jump\t// out\n        /* \"@openzeppelin/contracts/token/ERC721/ERC721.sol\":11266:11573  function _setApprovalForAll(... */\n    tag_407:\n        /* \"@openzeppelin/contracts/token/ERC721/ERC721.sol\":11416:11424  operator */\n      dup2\n      sub(shl(0xa0, 0x01), 0x01)\n        /* \"@openzeppelin/contracts/token/ERC721/ERC721.sol\":11407:11424  owner != operator */\n      and\n        /* \"@openzeppelin/contracts/token/ERC721/ERC721.sol\":11407:11412  owner */\n      dup4\n      sub(shl(0xa0, 0x01), 0x01)\n        /* \"@openzeppelin/contracts/token/ERC721/ERC721.sol\":11407:11424  owner != operator */\n      and\n      eq\n      iszero\n        /* \"@openzeppelin/contracts/token/ERC721/ERC721.sol\":11399:11454  require(owner != operator, \"ERC721: approve to caller\") */\n      tag_491\n      jumpi\n      mload(0x40)\n      shl(0xe5, 0x461bcd)\n      dup2\n      mstore\n        /* \"#utility.yul\":13340:13342   */\n      0x20\n        /* \"@openzeppelin/contracts/token/ERC721/ERC721.sol\":11399:11454  require(owner != operator, \"ERC721: approve to caller\") */\n      0x04\n      dup3\n      add\n        /* \"#utility.yul\":13322:13343   */\n      mstore\n        /* \"#utility.yul\":13379:13381   */\n      0x19\n        /* \"#utility.yul\":13359:13377   */\n      0x24\n      dup3\n      add\n        /* \"#utility.yul\":13352:13382   */\n      mstore\n        /* \"#utility.yul\":13418:13445   */\n      0x4552433732313a20617070726f766520746f2063616c6c657200000000000000\n        /* \"#utility.yul\":13398:13416   */\n      0x44\n      dup3\n      add\n        /* \"#utility.yul\":13391:13446   */\n      mstore\n        /* \"#utility.yul\":13463:13481   */\n      0x64\n      add\n        /* \"@openzeppelin/contracts/token/ERC721/ERC721.sol\":11399:11454  require(owner != operator, \"ERC721: approve to caller\") */\n      tag_245\n        /* \"#utility.yul\":13312:13487   */\n      jump\n        /* \"@openzeppelin/contracts/token/ERC721/ERC721.sol\":11399:11454  require(owner != operator, \"ERC721: approve to caller\") */\n    tag_491:\n      sub(shl(0xa0, 0x01), 0x01)\n        /* \"@openzeppelin/contracts/token/ERC721/ERC721.sol\":11464:11489  _operatorApprovals[owner] */\n      dup4\n      dup2\n      and\n      0x00\n      dup2\n      dup2\n      mstore\n        /* \"@openzeppelin/contracts/token/ERC721/ERC721.sol\":11464:11482  _operatorApprovals */\n      0x05\n        /* \"@openzeppelin/contracts/token/ERC721/ERC721.sol\":11464:11489  _operatorApprovals[owner] */\n      0x20\n      swap1\n      dup2\n      mstore\n      0x40\n      dup1\n      dup4\n      keccak256\n        /* \"@openzeppelin/contracts/token/ERC721/ERC721.sol\":11464:11499  _operatorApprovals[owner][operator] */\n      swap5\n      dup8\n      and\n      dup1\n      dup5\n      mstore\n      swap5\n      dup3\n      mstore\n      swap2\n      dup3\n      swap1\n      keccak256\n        /* \"@openzeppelin/contracts/token/ERC721/ERC721.sol\":11464:11510  _operatorApprovals[owner][operator] = approved */\n      dup1\n      sload\n      not(0xff)\n      and\n      dup7\n      iszero\n      iszero\n      swap1\n      dup2\n      or\n      swap1\n      swap2\n      sstore\n        /* \"@openzeppelin/contracts/token/ERC721/ERC721.sol\":11525:11566  ApprovalForAll(owner, operator, approved) */\n      swap2\n      mload\n        /* \"#utility.yul\":9941:9982   */\n      swap2\n      dup3\n      mstore\n        /* \"@openzeppelin/contracts/token/ERC721/ERC721.sol\":11525:11566  ApprovalForAll(owner, operator, approved) */\n      0x17307eab39ab6107e8899845ad3d59bd9653f200f220920489ca2b5937696c31\n      swap2\n        /* \"#utility.yul\":9914:9932   */\n      add\n        /* \"@openzeppelin/contracts/token/ERC721/ERC721.sol\":11525:11566  ApprovalForAll(owner, operator, approved) */\n      mload(0x40)\n      dup1\n      swap2\n      sub\n      swap1\n      log3\n        /* \"@openzeppelin/contracts/token/ERC721/ERC721.sol\":11266:11573  function _setApprovalForAll(... */\n      pop\n      pop\n      pop\n      jump\t// out\n        /* \"@openzeppelin/contracts/token/ERC721/ERC721.sol\":6426:6731  function _safeTransfer(... */\n    tag_414:\n        /* \"@openzeppelin/contracts/token/ERC721/ERC721.sol\":6576:6604  _transfer(from, to, tokenId) */\n      tag_496\n        /* \"@openzeppelin/contracts/token/ERC721/ERC721.sol\":6586:6590  from */\n      dup5\n        /* \"@openzeppelin/contracts/token/ERC721/ERC721.sol\":6592:6594  to */\n      dup5\n        /* \"@openzeppelin/contracts/token/ERC721/ERC721.sol\":6596:6603  tokenId */\n      dup5\n        /* \"@openzeppelin/contracts/token/ERC721/ERC721.sol\":6576:6585  _transfer */\n      tag_269\n        /* \"@openzeppelin/contracts/token/ERC721/ERC721.sol\":6576:6604  _transfer(from, to, tokenId) */\n      jump\t// in\n    tag_496:\n        /* \"@openzeppelin/contracts/token/ERC721/ERC721.sol\":6622:6669  _checkOnERC721Received(from, to, tokenId, data) */\n      tag_497\n        /* \"@openzeppelin/contracts/token/ERC721/ERC721.sol\":6645:6649  from */\n      dup5\n        /* \"@openzeppelin/contracts/token/ERC721/ERC721.sol\":6651:6653  to */\n      dup5\n        /* \"@openzeppelin/contracts/token/ERC721/ERC721.sol\":6655:6662  tokenId */\n      dup5\n        /* \"@openzeppelin/contracts/token/ERC721/ERC721.sol\":6664:6668  data */\n      dup5\n        /* \"@openzeppelin/contracts/token/ERC721/ERC721.sol\":6622:6644  _checkOnERC721Received */\n      tag_498\n        /* \"@openzeppelin/contracts/token/ERC721/ERC721.sol\":6622:6669  _checkOnERC721Received(from, to, tokenId, data) */\n      jump\t// in\n    tag_497:\n        /* \"@openzeppelin/contracts/token/ERC721/ERC721.sol\":6614:6724  require(_checkOnERC721Received(from, to, tokenId, data), \"ERC721: transfer to non ERC721Receiver implementer\") */\n      tag_293\n      jumpi\n      mload(0x40)\n      shl(0xe5, 0x461bcd)\n      dup2\n      mstore\n      0x04\n      add\n      tag_245\n      swap1\n      tag_501\n      jump\t// in\n        /* \"polygon/Collection.sol\":1001:1206  function _baseURI() internal view virtual override returns (string memory) {\r... */\n    tag_427:\n        /* \"polygon/Collection.sol\":1061:1074  string memory */\n      0x60\n        /* \"polygon/Collection.sol\":1087:1198  return \"https://bafybeibjxyamiclqb7pyte7rshfhbfoy74imfon5do5hc7bphux2eqqdui.ipfs.nftstorage.link/Fantasy%20%23\" */\n      mload(0x40)\n      dup1\n      0xa0\n      add\n      0x40\n      mstore\n      dup1\n      0x66\n      dup2\n      mstore\n      0x20\n      add\n      data_3c65a7833ad2d3bc1e4a84e3d433ab4ea20d1c5766826a47ead22025aa4efb2b\n      0x66\n      swap2\n      codecopy\n      swap1\n      pop\n        /* \"polygon/Collection.sol\":1001:1206  function _baseURI() internal view virtual override returns (string memory) {\r... */\n      swap1\n      jump\t// out\n        /* \"@openzeppelin/contracts/utils/Strings.sol\":392:1095  function toString(uint256 value) internal pure returns (string memory) {... */\n    tag_431:\n        /* \"@openzeppelin/contracts/utils/Strings.sol\":448:461  string memory */\n      0x60\n        /* \"@openzeppelin/contracts/utils/Strings.sol\":665:675  value == 0 */\n      dup2\n        /* \"@openzeppelin/contracts/utils/Strings.sol\":661:712  if (value == 0) {... */\n      tag_505\n      jumpi\n      pop\n      pop\n        /* \"@openzeppelin/contracts/utils/Strings.sol\":691:701  return \"0\" */\n      0x40\n      dup1\n      mload\n      dup1\n      dup3\n      add\n      swap1\n      swap2\n      mstore\n      0x01\n      dup2\n      mstore\n      shl(0xfc, 0x03)\n      0x20\n      dup3\n      add\n      mstore\n      swap1\n        /* \"@openzeppelin/contracts/utils/Strings.sol\":392:1095  function toString(uint256 value) internal pure returns (string memory) {... */\n      jump\t// out\n        /* \"@openzeppelin/contracts/utils/Strings.sol\":661:712  if (value == 0) {... */\n    tag_505:\n        /* \"@openzeppelin/contracts/utils/Strings.sol\":736:741  value */\n      dup2\n        /* \"@openzeppelin/contracts/utils/Strings.sol\":721:733  uint256 temp */\n      0x00\n        /* \"@openzeppelin/contracts/utils/Strings.sol\":775:850  while (temp != 0) {... */\n    tag_506:\n        /* \"@openzeppelin/contracts/utils/Strings.sol\":782:791  temp != 0 */\n      dup2\n      iszero\n        /* \"@openzeppelin/contracts/utils/Strings.sol\":775:850  while (temp != 0) {... */\n      tag_507\n      jumpi\n        /* \"@openzeppelin/contracts/utils/Strings.sol\":807:815  digits++ */\n      dup1\n      tag_508\n      dup2\n      tag_319\n      jump\t// in\n    tag_508:\n      swap2\n      pop\n        /* \"@openzeppelin/contracts/utils/Strings.sol\":829:839  temp /= 10 */\n      tag_509\n      swap1\n      pop\n        /* \"@openzeppelin/contracts/utils/Strings.sol\":837:839  10 */\n      0x0a\n        /* \"@openzeppelin/contracts/utils/Strings.sol\":829:839  temp /= 10 */\n      dup4\n      tag_510\n      jump\t// in\n    tag_509:\n      swap2\n      pop\n        /* \"@openzeppelin/contracts/utils/Strings.sol\":775:850  while (temp != 0) {... */\n      jump(tag_506)\n    tag_507:\n        /* \"@openzeppelin/contracts/utils/Strings.sol\":859:878  bytes memory buffer */\n      0x00\n        /* \"@openzeppelin/contracts/utils/Strings.sol\":891:897  digits */\n      dup2\n        /* \"@openzeppelin/contracts/utils/Strings.sol\":881:898  new bytes(digits) */\n      0xffffffffffffffff\n      dup2\n      gt\n      iszero\n      tag_511\n      jumpi\n      mstore(0x00, shl(0xe0, 0x4e487b71))\n      mstore(0x04, 0x41)\n      revert(0x00, 0x24)\n    tag_511:\n      mload(0x40)\n      swap1\n      dup1\n      dup3\n      mstore\n      dup1\n      0x1f\n      add\n      not(0x1f)\n      and\n      0x20\n      add\n      dup3\n      add\n      0x40\n      mstore\n      dup1\n      iszero\n      tag_512\n      jumpi\n      0x20\n      dup3\n      add\n      dup2\n      dup1\n      calldatasize\n      dup4\n      calldatacopy\n      add\n      swap1\n      pop\n    tag_512:\n      pop\n        /* \"@openzeppelin/contracts/utils/Strings.sol\":859:898  bytes memory buffer = new bytes(digits) */\n      swap1\n      pop\n        /* \"@openzeppelin/contracts/utils/Strings.sol\":908:1058  while (value != 0) {... */\n    tag_513:\n        /* \"@openzeppelin/contracts/utils/Strings.sol\":915:925  value != 0 */\n      dup5\n      iszero\n        /* \"@openzeppelin/contracts/utils/Strings.sol\":908:1058  while (value != 0) {... */\n      tag_468\n      jumpi\n        /* \"@openzeppelin/contracts/utils/Strings.sol\":941:952  digits -= 1 */\n      tag_515\n        /* \"@openzeppelin/contracts/utils/Strings.sol\":951:952  1 */\n      0x01\n        /* \"@openzeppelin/contracts/utils/Strings.sol\":941:952  digits -= 1 */\n      dup4\n      tag_482\n      jump\t// in\n    tag_515:\n      swap2\n      pop\n        /* \"@openzeppelin/contracts/utils/Strings.sol\":1009:1019  value % 10 */\n      tag_516\n        /* \"@openzeppelin/contracts/utils/Strings.sol\":1017:1019  10 */\n      0x0a\n        /* \"@openzeppelin/contracts/utils/Strings.sol\":1009:1014  value */\n      dup7\n        /* \"@openzeppelin/contracts/utils/Strings.sol\":1009:1019  value % 10 */\n      tag_517\n      jump\t// in\n    tag_516:\n        /* \"@openzeppelin/contracts/utils/Strings.sol\":996:1020  48 + uint256(value % 10) */\n      tag_518\n      swap1\n        /* \"@openzeppelin/contracts/utils/Strings.sol\":996:998  48 */\n      0x30\n        /* \"@openzeppelin/contracts/utils/Strings.sol\":996:1020  48 + uint256(value % 10) */\n      tag_303\n      jump\t// in\n    tag_518:\n        /* \"@openzeppelin/contracts/utils/Strings.sol\":983:1022  bytes1(uint8(48 + uint256(value % 10))) */\n      0xf8\n      shl\n        /* \"@openzeppelin/contracts/utils/Strings.sol\":966:972  buffer */\n      dup2\n        /* \"@openzeppelin/contracts/utils/Strings.sol\":973:979  digits */\n      dup4\n        /* \"@openzeppelin/contracts/utils/Strings.sol\":966:980  buffer[digits] */\n      dup2\n      mload\n      dup2\n      lt\n      tag_519\n      jumpi\n      mstore(0x00, shl(0xe0, 0x4e487b71))\n      mstore(0x04, 0x32)\n      revert(0x00, 0x24)\n    tag_519:\n      0x20\n      add\n      add\n        /* \"@openzeppelin/contracts/utils/Strings.sol\":966:1022  buffer[digits] = bytes1(uint8(48 + uint256(value % 10))) */\n      swap1\n      not(sub(shl(0xf8, 0x01), 0x01))\n      and\n      swap1\n      dup2\n      0x00\n      byte\n      swap1\n      mstore8\n      pop\n        /* \"@openzeppelin/contracts/utils/Strings.sol\":1036:1047  value /= 10 */\n      tag_520\n        /* \"@openzeppelin/contracts/utils/Strings.sol\":1045:1047  10 */\n      0x0a\n        /* \"@openzeppelin/contracts/utils/Strings.sol\":1036:1047  value /= 10 */\n      dup7\n      tag_510\n      jump\t// in\n    tag_520:\n      swap5\n      pop\n        /* \"@openzeppelin/contracts/utils/Strings.sol\":908:1058  while (value != 0) {... */\n      jump(tag_513)\n        /* \"@openzeppelin/contracts/token/ERC721/extensions/ERC721Enumerable.sol\":2624:3196  function _beforeTokenTransfer(... */\n    tag_479:\n      sub(shl(0xa0, 0x01), 0x01)\n        /* \"@openzeppelin/contracts/token/ERC721/extensions/ERC721Enumerable.sol\":2823:2841  from == address(0) */\n      dup4\n      and\n        /* \"@openzeppelin/contracts/token/ERC721/extensions/ERC721Enumerable.sol\":2819:3002  if (from == address(0)) {... */\n      tag_525\n      jumpi\n        /* \"@openzeppelin/contracts/token/ERC721/extensions/ERC721Enumerable.sol\":2857:2897  _addTokenToAllTokensEnumeration(tokenId) */\n      tag_526\n        /* \"@openzeppelin/contracts/token/ERC721/extensions/ERC721Enumerable.sol\":2889:2896  tokenId */\n      dup2\n        /* \"@openzeppelin/contracts/token/ERC721/extensions/ERC721Enumerable.sol\":4005:4015  _allTokens */\n      0x08\n        /* \"@openzeppelin/contracts/token/ERC721/extensions/ERC721Enumerable.sol\":4005:4022  _allTokens.length */\n      dup1\n      sload\n        /* \"@openzeppelin/contracts/token/ERC721/extensions/ERC721Enumerable.sol\":3978:4002  _allTokensIndex[tokenId] */\n      0x00\n      dup4\n      dup2\n      mstore\n        /* \"@openzeppelin/contracts/token/ERC721/extensions/ERC721Enumerable.sol\":3978:3993  _allTokensIndex */\n      0x09\n        /* \"@openzeppelin/contracts/token/ERC721/extensions/ERC721Enumerable.sol\":3978:4002  _allTokensIndex[tokenId] */\n      0x20\n      mstore\n      0x40\n      dup2\n      keccak256\n        /* \"@openzeppelin/contracts/token/ERC721/extensions/ERC721Enumerable.sol\":3978:4022  _allTokensIndex[tokenId] = _allTokens.length */\n      dup3\n      swap1\n      sstore\n        /* \"@openzeppelin/contracts/token/ERC721/extensions/ERC721Enumerable.sol\":4032:4056  _allTokens.push(tokenId) */\n      0x01\n      dup3\n      add\n      dup4\n      sstore\n      swap2\n      swap1\n      swap2\n      mstore\n      0xf3f7a9fe364faab93b216da50a3214154f22a0a2b415b23a84c8169e8b636ee3\n      add\n      sstore\n        /* \"@openzeppelin/contracts/token/ERC721/extensions/ERC721Enumerable.sol\":3902:4063  function _addTokenToAllTokensEnumeration(uint256 tokenId) private {... */\n      jump\n        /* \"@openzeppelin/contracts/token/ERC721/extensions/ERC721Enumerable.sol\":2857:2897  _addTokenToAllTokensEnumeration(tokenId) */\n    tag_526:\n        /* \"@openzeppelin/contracts/token/ERC721/extensions/ERC721Enumerable.sol\":2819:3002  if (from == address(0)) {... */\n      jump(tag_530)\n    tag_525:\n        /* \"@openzeppelin/contracts/token/ERC721/extensions/ERC721Enumerable.sol\":2926:2928  to */\n      dup2\n      sub(shl(0xa0, 0x01), 0x01)\n        /* \"@openzeppelin/contracts/token/ERC721/extensions/ERC721Enumerable.sol\":2918:2928  from != to */\n      and\n        /* \"@openzeppelin/contracts/token/ERC721/extensions/ERC721Enumerable.sol\":2918:2922  from */\n      dup4\n      sub(shl(0xa0, 0x01), 0x01)\n        /* \"@openzeppelin/contracts/token/ERC721/extensions/ERC721Enumerable.sol\":2918:2928  from != to */\n      and\n      eq\n        /* \"@openzeppelin/contracts/token/ERC721/extensions/ERC721Enumerable.sol\":2914:3002  if (from != to) {... */\n      tag_530\n      jumpi\n        /* \"@openzeppelin/contracts/token/ERC721/extensions/ERC721Enumerable.sol\":2944:2991  _removeTokenFromOwnerEnumeration(from, tokenId) */\n      tag_530\n        /* \"@openzeppelin/contracts/token/ERC721/extensions/ERC721Enumerable.sol\":2977:2981  from */\n      dup4\n        /* \"@openzeppelin/contracts/token/ERC721/extensions/ERC721Enumerable.sol\":2983:2990  tokenId */\n      dup3\n        /* \"@openzeppelin/contracts/token/ERC721/extensions/ERC721Enumerable.sol\":2944:2976  _removeTokenFromOwnerEnumeration */\n      tag_531\n        /* \"@openzeppelin/contracts/token/ERC721/extensions/ERC721Enumerable.sol\":2944:2991  _removeTokenFromOwnerEnumeration(from, tokenId) */\n      jump\t// in\n    tag_530:\n      sub(shl(0xa0, 0x01), 0x01)\n        /* \"@openzeppelin/contracts/token/ERC721/extensions/ERC721Enumerable.sol\":3015:3031  to == address(0) */\n      dup3\n      and\n        /* \"@openzeppelin/contracts/token/ERC721/extensions/ERC721Enumerable.sol\":3011:3190  if (to == address(0)) {... */\n      tag_532\n      jumpi\n        /* \"@openzeppelin/contracts/token/ERC721/extensions/ERC721Enumerable.sol\":3047:3092  _removeTokenFromAllTokensEnumeration(tokenId) */\n      tag_255\n        /* \"@openzeppelin/contracts/token/ERC721/extensions/ERC721Enumerable.sol\":3084:3091  tokenId */\n      dup2\n        /* \"@openzeppelin/contracts/token/ERC721/extensions/ERC721Enumerable.sol\":3047:3083  _removeTokenFromAllTokensEnumeration */\n      tag_534\n        /* \"@openzeppelin/contracts/token/ERC721/extensions/ERC721Enumerable.sol\":3047:3092  _removeTokenFromAllTokensEnumeration(tokenId) */\n      jump\t// in\n        /* \"@openzeppelin/contracts/token/ERC721/extensions/ERC721Enumerable.sol\":3011:3190  if (to == address(0)) {... */\n    tag_532:\n        /* \"@openzeppelin/contracts/token/ERC721/extensions/ERC721Enumerable.sol\":3119:3123  from */\n      dup3\n      sub(shl(0xa0, 0x01), 0x01)\n        /* \"@openzeppelin/contracts/token/ERC721/extensions/ERC721Enumerable.sol\":3113:3123  to != from */\n      and\n        /* \"@openzeppelin/contracts/token/ERC721/extensions/ERC721Enumerable.sol\":3113:3115  to */\n      dup3\n      sub(shl(0xa0, 0x01), 0x01)\n        /* \"@openzeppelin/contracts/token/ERC721/extensions/ERC721Enumerable.sol\":3113:3123  to != from */\n      and\n      eq\n        /* \"@openzeppelin/contracts/token/ERC721/extensions/ERC721Enumerable.sol\":3109:3190  if (to != from) {... */\n      tag_255\n      jumpi\n        /* \"@openzeppelin/contracts/token/ERC721/extensions/ERC721Enumerable.sol\":3139:3179  _addTokenToOwnerEnumeration(to, tokenId) */\n      tag_255\n        /* \"@openzeppelin/contracts/token/ERC721/extensions/ERC721Enumerable.sol\":3167:3169  to */\n      dup3\n        /* \"@openzeppelin/contracts/token/ERC721/extensions/ERC721Enumerable.sol\":3171:3178  tokenId */\n      dup3\n        /* \"@openzeppelin/contracts/token/ERC721/extensions/ERC721Enumerable.sol\":3139:3166  _addTokenToOwnerEnumeration */\n      tag_538\n        /* \"@openzeppelin/contracts/token/ERC721/extensions/ERC721Enumerable.sol\":3139:3179  _addTokenToOwnerEnumeration(to, tokenId) */\n      jump\t// in\n        /* \"@openzeppelin/contracts/token/ERC721/ERC721.sol\":8237:8546  function _safeMint(... */\n    tag_488:\n        /* \"@openzeppelin/contracts/token/ERC721/ERC721.sol\":8361:8379  _mint(to, tokenId) */\n      tag_541\n        /* \"@openzeppelin/contracts/token/ERC721/ERC721.sol\":8367:8369  to */\n      dup4\n        /* \"@openzeppelin/contracts/token/ERC721/ERC721.sol\":8371:8378  tokenId */\n      dup4\n        /* \"@openzeppelin/contracts/token/ERC721/ERC721.sol\":8361:8366  _mint */\n      tag_542\n        /* \"@openzeppelin/contracts/token/ERC721/ERC721.sol\":8361:8379  _mint(to, tokenId) */\n      jump\t// in\n    tag_541:\n        /* \"@openzeppelin/contracts/token/ERC721/ERC721.sol\":8410:8463  _checkOnERC721Received(address(0), to, tokenId, data) */\n      tag_543\n        /* \"@openzeppelin/contracts/token/ERC721/ERC721.sol\":8441:8442  0 */\n      0x00\n        /* \"@openzeppelin/contracts/token/ERC721/ERC721.sol\":8445:8447  to */\n      dup5\n        /* \"@openzeppelin/contracts/token/ERC721/ERC721.sol\":8449:8456  tokenId */\n      dup5\n        /* \"@openzeppelin/contracts/token/ERC721/ERC721.sol\":8458:8462  data */\n      dup5\n        /* \"@openzeppelin/contracts/token/ERC721/ERC721.sol\":8410:8432  _checkOnERC721Received */\n      tag_498\n        /* \"@openzeppelin/contracts/token/ERC721/ERC721.sol\":8410:8463  _checkOnERC721Received(address(0), to, tokenId, data) */\n      jump\t// in\n    tag_543:\n        /* \"@openzeppelin/contracts/token/ERC721/ERC721.sol\":8389:8539  require(... */\n      tag_255\n      jumpi\n      mload(0x40)\n      shl(0xe5, 0x461bcd)\n      dup2\n      mstore\n      0x04\n      add\n      tag_245\n      swap1\n      tag_501\n      jump\t// in\n        /* \"@openzeppelin/contracts/token/ERC721/ERC721.sol\":12342:13173  function _checkOnERC721Received(... */\n    tag_498:\n        /* \"@openzeppelin/contracts/token/ERC721/ERC721.sol\":12491:12495  bool */\n      0x00\n      sub(shl(0xa0, 0x01), 0x01)\n        /* \"@openzeppelin/contracts/token/ERC721/ERC721.sol\":12511:12524  to.isContract */\n      dup5\n      and\n        /* \"@openzeppelin/contracts/utils/Address.sol\":1465:1484  account.code.length */\n      extcodesize\n        /* \"@openzeppelin/contracts/utils/Address.sol\":1465:1488  account.code.length > 0 */\n      iszero\n        /* \"@openzeppelin/contracts/token/ERC721/ERC721.sol\":12507:13167  if (to.isContract()) {... */\n      tag_549\n      jumpi\n        /* \"@openzeppelin/contracts/token/ERC721/ERC721.sol\":12546:12617  IERC721Receiver(to).onERC721Received(_msgSender(), from, tokenId, data) */\n      mload(0x40)\n      shl(0xe1, 0x0a85bd01)\n      dup2\n      mstore\n      sub(shl(0xa0, 0x01), 0x01)\n        /* \"@openzeppelin/contracts/token/ERC721/ERC721.sol\":12546:12582  IERC721Receiver(to).onERC721Received */\n      dup6\n      and\n      swap1\n      0x150b7a02\n      swap1\n        /* \"@openzeppelin/contracts/token/ERC721/ERC721.sol\":12546:12617  IERC721Receiver(to).onERC721Received(_msgSender(), from, tokenId, data) */\n      tag_551\n      swap1\n        /* \"@openzeppelin/contracts/utils/Context.sol\":719:729  msg.sender */\n      caller\n      swap1\n        /* \"@openzeppelin/contracts/token/ERC721/ERC721.sol\":12597:12601  from */\n      dup10\n      swap1\n        /* \"@openzeppelin/contracts/token/ERC721/ERC721.sol\":12603:12610  tokenId */\n      dup9\n      swap1\n        /* \"@openzeppelin/contracts/token/ERC721/ERC721.sol\":12612:12616  data */\n      dup9\n      swap1\n        /* \"@openzeppelin/contracts/token/ERC721/ERC721.sol\":12546:12617  IERC721Receiver(to).onERC721Received(_msgSender(), from, tokenId, data) */\n      0x04\n      add\n      tag_552\n      jump\t// in\n    tag_551:\n      0x20\n      mload(0x40)\n      dup1\n      dup4\n      sub\n      dup2\n      0x00\n      dup8\n      dup1\n      extcodesize\n      iszero\n      dup1\n      iszero\n      tag_553\n      jumpi\n      0x00\n      dup1\n      revert\n    tag_553:\n      pop\n      gas\n      call\n      swap3\n      pop\n      pop\n      pop\n      dup1\n      iszero\n      tag_554\n      jumpi\n      pop\n      0x40\n      dup1\n      mload\n      0x1f\n      returndatasize\n      swap1\n      dup2\n      add\n      not(0x1f)\n      and\n      dup3\n      add\n      swap1\n      swap3\n      mstore\n      tag_555\n      swap2\n      dup2\n      add\n      swap1\n      tag_556\n      jump\t// in\n    tag_555:\n      0x01\n    tag_554:\n        /* \"@openzeppelin/contracts/token/ERC721/ERC721.sol\":12542:13115  try IERC721Receiver(to).onERC721Received(_msgSender(), from, tokenId, data) returns (bytes4 retval) {... */\n      tag_557\n      jumpi\n      returndatasize\n      dup1\n      dup1\n      iszero\n      tag_562\n      jumpi\n      mload(0x40)\n      swap2\n      pop\n      and(add(returndatasize, 0x3f), not(0x1f))\n      dup3\n      add\n      0x40\n      mstore\n      returndatasize\n      dup3\n      mstore\n      returndatasize\n      0x00\n      0x20\n      dup5\n      add\n      returndatacopy\n      jump(tag_561)\n    tag_562:\n      0x60\n      swap2\n      pop\n    tag_561:\n      pop\n        /* \"@openzeppelin/contracts/token/ERC721/ERC721.sol\":12784:12797  reason.length */\n      dup1\n      mload\n        /* \"@openzeppelin/contracts/token/ERC721/ERC721.sol\":12780:13101  if (reason.length == 0) {... */\n      tag_563\n      jumpi\n        /* \"@openzeppelin/contracts/token/ERC721/ERC721.sol\":12826:12886  revert(\"ERC721: transfer to non ERC721Receiver implementer\") */\n      mload(0x40)\n      shl(0xe5, 0x461bcd)\n      dup2\n      mstore\n      0x04\n      add\n      tag_245\n      swap1\n      tag_501\n      jump\t// in\n        /* \"@openzeppelin/contracts/token/ERC721/ERC721.sol\":12780:13101  if (reason.length == 0) {... */\n    tag_563:\n        /* \"@openzeppelin/contracts/token/ERC721/ERC721.sol\":13053:13059  reason */\n      dup1\n        /* \"@openzeppelin/contracts/token/ERC721/ERC721.sol\":13047:13060  mload(reason) */\n      mload\n        /* \"@openzeppelin/contracts/token/ERC721/ERC721.sol\":13038:13044  reason */\n      dup2\n        /* \"@openzeppelin/contracts/token/ERC721/ERC721.sol\":13034:13036  32 */\n      0x20\n        /* \"@openzeppelin/contracts/token/ERC721/ERC721.sol\":13030:13045  add(32, reason) */\n      add\n        /* \"@openzeppelin/contracts/token/ERC721/ERC721.sol\":13023:13061  revert(add(32, reason), mload(reason)) */\n      revert\n        /* \"@openzeppelin/contracts/token/ERC721/ERC721.sol\":12542:13115  try IERC721Receiver(to).onERC721Received(_msgSender(), from, tokenId, data) returns (bytes4 retval) {... */\n    tag_557:\n      not(sub(shl(0xe0, 0x01), 0x01))\n        /* \"@openzeppelin/contracts/token/ERC721/ERC721.sol\":12667:12718  retval == IERC721Receiver.onERC721Received.selector */\n      and\n      shl(0xe1, 0x0a85bd01)\n      eq\n      swap1\n      pop\n        /* \"@openzeppelin/contracts/token/ERC721/ERC721.sol\":12660:12718  return retval == IERC721Receiver.onERC721Received.selector */\n      jump(tag_468)\n        /* \"@openzeppelin/contracts/token/ERC721/ERC721.sol\":12507:13167  if (to.isContract()) {... */\n    tag_549:\n      pop\n        /* \"@openzeppelin/contracts/token/ERC721/ERC721.sol\":13152:13156  true */\n      0x01\n        /* \"@openzeppelin/contracts/token/ERC721/ERC721.sol\":12342:13173  function _checkOnERC721Received(... */\n      swap5\n      swap4\n      pop\n      pop\n      pop\n      pop\n      jump\t// out\n        /* \"@openzeppelin/contracts/token/ERC721/extensions/ERC721Enumerable.sol\":4680:5650  function _removeTokenFromOwnerEnumeration(address from, uint256 tokenId) private {... */\n    tag_531:\n        /* \"@openzeppelin/contracts/token/ERC721/extensions/ERC721Enumerable.sol\":4942:4964  uint256 lastTokenIndex */\n      0x00\n        /* \"@openzeppelin/contracts/token/ERC721/extensions/ERC721Enumerable.sol\":4992:4993  1 */\n      0x01\n        /* \"@openzeppelin/contracts/token/ERC721/extensions/ERC721Enumerable.sol\":4967:4989  ERC721.balanceOf(from) */\n      tag_572\n        /* \"@openzeppelin/contracts/token/ERC721/extensions/ERC721Enumerable.sol\":4984:4988  from */\n      dup5\n        /* \"@openzeppelin/contracts/token/ERC721/extensions/ERC721Enumerable.sol\":4967:4983  ERC721.balanceOf */\n      tag_170\n        /* \"@openzeppelin/contracts/token/ERC721/extensions/ERC721Enumerable.sol\":4967:4989  ERC721.balanceOf(from) */\n      jump\t// in\n    tag_572:\n        /* \"@openzeppelin/contracts/token/ERC721/extensions/ERC721Enumerable.sol\":4967:4993  ERC721.balanceOf(from) - 1 */\n      tag_573\n      swap2\n      swap1\n      tag_482\n      jump\t// in\n    tag_573:\n        /* \"@openzeppelin/contracts/token/ERC721/extensions/ERC721Enumerable.sol\":5003:5021  uint256 tokenIndex */\n      0x00\n        /* \"@openzeppelin/contracts/token/ERC721/extensions/ERC721Enumerable.sol\":5024:5050  _ownedTokensIndex[tokenId] */\n      dup4\n      dup2\n      mstore\n        /* \"@openzeppelin/contracts/token/ERC721/extensions/ERC721Enumerable.sol\":5024:5041  _ownedTokensIndex */\n      0x07\n        /* \"@openzeppelin/contracts/token/ERC721/extensions/ERC721Enumerable.sol\":5024:5050  _ownedTokensIndex[tokenId] */\n      0x20\n      mstore\n      0x40\n      swap1\n      keccak256\n      sload\n        /* \"@openzeppelin/contracts/token/ERC721/extensions/ERC721Enumerable.sol\":4942:4993  uint256 lastTokenIndex = ERC721.balanceOf(from) - 1 */\n      swap1\n      swap2\n      pop\n        /* \"@openzeppelin/contracts/token/ERC721/extensions/ERC721Enumerable.sol\":5154:5182  tokenIndex != lastTokenIndex */\n      dup1\n      dup3\n      eq\n        /* \"@openzeppelin/contracts/token/ERC721/extensions/ERC721Enumerable.sol\":5150:5473  if (tokenIndex != lastTokenIndex) {... */\n      tag_574\n      jumpi\n      sub(shl(0xa0, 0x01), 0x01)\n        /* \"@openzeppelin/contracts/token/ERC721/extensions/ERC721Enumerable.sol\":5220:5238  _ownedTokens[from] */\n      dup5\n      and\n        /* \"@openzeppelin/contracts/token/ERC721/extensions/ERC721Enumerable.sol\":5198:5217  uint256 lastTokenId */\n      0x00\n        /* \"@openzeppelin/contracts/token/ERC721/extensions/ERC721Enumerable.sol\":5220:5238  _ownedTokens[from] */\n      swap1\n      dup2\n      mstore\n        /* \"@openzeppelin/contracts/token/ERC721/extensions/ERC721Enumerable.sol\":5220:5232  _ownedTokens */\n      0x06\n        /* \"@openzeppelin/contracts/token/ERC721/extensions/ERC721Enumerable.sol\":5220:5238  _ownedTokens[from] */\n      0x20\n      swap1\n      dup2\n      mstore\n      0x40\n      dup1\n      dup4\n      keccak256\n        /* \"@openzeppelin/contracts/token/ERC721/extensions/ERC721Enumerable.sol\":5220:5254  _ownedTokens[from][lastTokenIndex] */\n      dup6\n      dup5\n      mstore\n      dup3\n      mstore\n      dup1\n      dup4\n      keccak256\n      sload\n        /* \"@openzeppelin/contracts/token/ERC721/extensions/ERC721Enumerable.sol\":5269:5299  _ownedTokens[from][tokenIndex] */\n      dup5\n      dup5\n      mstore\n      dup2\n      dup5\n      keccak256\n        /* \"@openzeppelin/contracts/token/ERC721/extensions/ERC721Enumerable.sol\":5269:5313  _ownedTokens[from][tokenIndex] = lastTokenId */\n      dup2\n      swap1\n      sstore\n        /* \"@openzeppelin/contracts/token/ERC721/extensions/ERC721Enumerable.sol\":5385:5415  _ownedTokensIndex[lastTokenId] */\n      dup4\n      mstore\n        /* \"@openzeppelin/contracts/token/ERC721/extensions/ERC721Enumerable.sol\":5385:5402  _ownedTokensIndex */\n      0x07\n        /* \"@openzeppelin/contracts/token/ERC721/extensions/ERC721Enumerable.sol\":5385:5415  _ownedTokensIndex[lastTokenId] */\n      swap1\n      swap2\n      mstore\n      swap1\n      keccak256\n        /* \"@openzeppelin/contracts/token/ERC721/extensions/ERC721Enumerable.sol\":5385:5428  _ownedTokensIndex[lastTokenId] = tokenIndex */\n      dup2\n      swap1\n      sstore\n        /* \"@openzeppelin/contracts/token/ERC721/extensions/ERC721Enumerable.sol\":5150:5473  if (tokenIndex != lastTokenIndex) {... */\n    tag_574:\n      pop\n        /* \"@openzeppelin/contracts/token/ERC721/extensions/ERC721Enumerable.sol\":5566:5592  _ownedTokensIndex[tokenId] */\n      0x00\n      swap2\n      dup3\n      mstore\n        /* \"@openzeppelin/contracts/token/ERC721/extensions/ERC721Enumerable.sol\":5566:5583  _ownedTokensIndex */\n      0x07\n        /* \"@openzeppelin/contracts/token/ERC721/extensions/ERC721Enumerable.sol\":5566:5592  _ownedTokensIndex[tokenId] */\n      0x20\n      swap1\n      dup2\n      mstore\n      0x40\n      dup1\n      dup5\n      keccak256\n        /* \"@openzeppelin/contracts/token/ERC721/extensions/ERC721Enumerable.sol\":5559:5592  delete _ownedTokensIndex[tokenId] */\n      dup5\n      swap1\n      sstore\n      sub(shl(0xa0, 0x01), 0x01)\n        /* \"@openzeppelin/contracts/token/ERC721/extensions/ERC721Enumerable.sol\":5609:5627  _ownedTokens[from] */\n      swap1\n      swap5\n      and\n      dup4\n      mstore\n        /* \"@openzeppelin/contracts/token/ERC721/extensions/ERC721Enumerable.sol\":5609:5621  _ownedTokens */\n      0x06\n        /* \"@openzeppelin/contracts/token/ERC721/extensions/ERC721Enumerable.sol\":5609:5627  _ownedTokens[from] */\n      dup2\n      mstore\n      dup4\n      dup4\n      keccak256\n        /* \"@openzeppelin/contracts/token/ERC721/extensions/ERC721Enumerable.sol\":5609:5643  _ownedTokens[from][lastTokenIndex] */\n      swap2\n      dup4\n      mstore\n      mstore\n      swap1\n      dup2\n      keccak256\n        /* \"@openzeppelin/contracts/token/ERC721/extensions/ERC721Enumerable.sol\":5602:5643  delete _ownedTokens[from][lastTokenIndex] */\n      sstore\n        /* \"@openzeppelin/contracts/token/ERC721/extensions/ERC721Enumerable.sol\":4680:5650  function _removeTokenFromOwnerEnumeration(address from, uint256 tokenId) private {... */\n      jump\t// out\n        /* \"@openzeppelin/contracts/token/ERC721/extensions/ERC721Enumerable.sol\":5938:6999  function _removeTokenFromAllTokensEnumeration(uint256 tokenId) private {... */\n    tag_534:\n        /* \"@openzeppelin/contracts/token/ERC721/extensions/ERC721Enumerable.sol\":6212:6222  _allTokens */\n      0x08\n        /* \"@openzeppelin/contracts/token/ERC721/extensions/ERC721Enumerable.sol\":6212:6229  _allTokens.length */\n      sload\n        /* \"@openzeppelin/contracts/token/ERC721/extensions/ERC721Enumerable.sol\":6187:6209  uint256 lastTokenIndex */\n      0x00\n      swap1\n        /* \"@openzeppelin/contracts/token/ERC721/extensions/ERC721Enumerable.sol\":6212:6233  _allTokens.length - 1 */\n      tag_576\n      swap1\n        /* \"@openzeppelin/contracts/token/ERC721/extensions/ERC721Enumerable.sol\":6232:6233  1 */\n      0x01\n      swap1\n        /* \"@openzeppelin/contracts/token/ERC721/extensions/ERC721Enumerable.sol\":6212:6233  _allTokens.length - 1 */\n      tag_482\n      jump\t// in\n    tag_576:\n        /* \"@openzeppelin/contracts/token/ERC721/extensions/ERC721Enumerable.sol\":6243:6261  uint256 tokenIndex */\n      0x00\n        /* \"@openzeppelin/contracts/token/ERC721/extensions/ERC721Enumerable.sol\":6264:6288  _allTokensIndex[tokenId] */\n      dup4\n      dup2\n      mstore\n        /* \"@openzeppelin/contracts/token/ERC721/extensions/ERC721Enumerable.sol\":6264:6279  _allTokensIndex */\n      0x09\n        /* \"@openzeppelin/contracts/token/ERC721/extensions/ERC721Enumerable.sol\":6264:6288  _allTokensIndex[tokenId] */\n      0x20\n      mstore\n      0x40\n      dup2\n      keccak256\n      sload\n        /* \"@openzeppelin/contracts/token/ERC721/extensions/ERC721Enumerable.sol\":6632:6642  _allTokens */\n      0x08\n        /* \"@openzeppelin/contracts/token/ERC721/extensions/ERC721Enumerable.sol\":6632:6658  _allTokens[lastTokenIndex] */\n      dup1\n      sload\n        /* \"@openzeppelin/contracts/token/ERC721/extensions/ERC721Enumerable.sol\":6187:6233  uint256 lastTokenIndex = _allTokens.length - 1 */\n      swap4\n      swap5\n      pop\n        /* \"@openzeppelin/contracts/token/ERC721/extensions/ERC721Enumerable.sol\":6264:6288  _allTokensIndex[tokenId] */\n      swap1\n      swap3\n        /* \"@openzeppelin/contracts/token/ERC721/extensions/ERC721Enumerable.sol\":6187:6233  uint256 lastTokenIndex = _allTokens.length - 1 */\n      dup5\n      swap1\n        /* \"@openzeppelin/contracts/token/ERC721/extensions/ERC721Enumerable.sol\":6632:6658  _allTokens[lastTokenIndex] */\n      dup2\n      lt\n      tag_577\n      jumpi\n      mstore(0x00, shl(0xe0, 0x4e487b71))\n      mstore(0x04, 0x32)\n      revert(0x00, 0x24)\n    tag_577:\n      swap1\n      0x00\n      mstore\n      keccak256(0x00, 0x20)\n      add\n      sload\n        /* \"@openzeppelin/contracts/token/ERC721/extensions/ERC721Enumerable.sol\":6610:6658  uint256 lastTokenId = _allTokens[lastTokenIndex] */\n      swap1\n      pop\n        /* \"@openzeppelin/contracts/token/ERC721/extensions/ERC721Enumerable.sol\":6694:6705  lastTokenId */\n      dup1\n        /* \"@openzeppelin/contracts/token/ERC721/extensions/ERC721Enumerable.sol\":6669:6679  _allTokens */\n      0x08\n        /* \"@openzeppelin/contracts/token/ERC721/extensions/ERC721Enumerable.sol\":6680:6690  tokenIndex */\n      dup4\n        /* \"@openzeppelin/contracts/token/ERC721/extensions/ERC721Enumerable.sol\":6669:6691  _allTokens[tokenIndex] */\n      dup2\n      sload\n      dup2\n      lt\n      tag_579\n      jumpi\n      mstore(0x00, shl(0xe0, 0x4e487b71))\n      mstore(0x04, 0x32)\n      revert(0x00, 0x24)\n    tag_579:\n      0x00\n      swap2\n      dup3\n      mstore\n      0x20\n      dup1\n      dup4\n      keccak256\n      swap1\n      swap2\n      add\n        /* \"@openzeppelin/contracts/token/ERC721/extensions/ERC721Enumerable.sol\":6669:6705  _allTokens[tokenIndex] = lastTokenId */\n      swap3\n      swap1\n      swap3\n      sstore\n        /* \"@openzeppelin/contracts/token/ERC721/extensions/ERC721Enumerable.sol\":6773:6801  _allTokensIndex[lastTokenId] */\n      dup3\n      dup2\n      mstore\n        /* \"@openzeppelin/contracts/token/ERC721/extensions/ERC721Enumerable.sol\":6773:6788  _allTokensIndex */\n      0x09\n        /* \"@openzeppelin/contracts/token/ERC721/extensions/ERC721Enumerable.sol\":6773:6801  _allTokensIndex[lastTokenId] */\n      swap1\n      swap2\n      mstore\n      0x40\n      dup1\n      dup3\n      keccak256\n        /* \"@openzeppelin/contracts/token/ERC721/extensions/ERC721Enumerable.sol\":6773:6814  _allTokensIndex[lastTokenId] = tokenIndex */\n      dup5\n      swap1\n      sstore\n        /* \"@openzeppelin/contracts/token/ERC721/extensions/ERC721Enumerable.sol\":6942:6966  _allTokensIndex[tokenId] */\n      dup6\n      dup3\n      mstore\n      dup2\n      keccak256\n        /* \"@openzeppelin/contracts/token/ERC721/extensions/ERC721Enumerable.sol\":6935:6966  delete _allTokensIndex[tokenId] */\n      sstore\n        /* \"@openzeppelin/contracts/token/ERC721/extensions/ERC721Enumerable.sol\":6976:6986  _allTokens */\n      0x08\n        /* \"@openzeppelin/contracts/token/ERC721/extensions/ERC721Enumerable.sol\":6976:6992  _allTokens.pop() */\n      dup1\n      sload\n      dup1\n      tag_581\n      jumpi\n      mstore(0x00, shl(0xe0, 0x4e487b71))\n      mstore(0x04, 0x31)\n      revert(0x00, 0x24)\n    tag_581:\n      0x01\n      swap1\n      sub\n      dup2\n      dup2\n      swap1\n      0x00\n      mstore\n      keccak256(0x00, 0x20)\n      add\n      0x00\n      swap1\n      sstore\n      swap1\n      sstore\n        /* \"@openzeppelin/contracts/token/ERC721/extensions/ERC721Enumerable.sol\":5938:6999  function _removeTokenFromAllTokensEnumeration(uint256 tokenId) private {... */\n      pop\n      pop\n      pop\n      pop\n      jump\t// out\n        /* \"@openzeppelin/contracts/token/ERC721/extensions/ERC721Enumerable.sol\":3490:3707  function _addTokenToOwnerEnumeration(address to, uint256 tokenId) private {... */\n    tag_538:\n        /* \"@openzeppelin/contracts/token/ERC721/extensions/ERC721Enumerable.sol\":3574:3588  uint256 length */\n      0x00\n        /* \"@openzeppelin/contracts/token/ERC721/extensions/ERC721Enumerable.sol\":3591:3611  ERC721.balanceOf(to) */\n      tag_584\n        /* \"@openzeppelin/contracts/token/ERC721/extensions/ERC721Enumerable.sol\":3608:3610  to */\n      dup4\n        /* \"@openzeppelin/contracts/token/ERC721/extensions/ERC721Enumerable.sol\":3591:3607  ERC721.balanceOf */\n      tag_170\n        /* \"@openzeppelin/contracts/token/ERC721/extensions/ERC721Enumerable.sol\":3591:3611  ERC721.balanceOf(to) */\n      jump\t// in\n    tag_584:\n      sub(shl(0xa0, 0x01), 0x01)\n        /* \"@openzeppelin/contracts/token/ERC721/extensions/ERC721Enumerable.sol\":3621:3637  _ownedTokens[to] */\n      swap1\n      swap4\n      and\n      0x00\n      swap1\n      dup2\n      mstore\n        /* \"@openzeppelin/contracts/token/ERC721/extensions/ERC721Enumerable.sol\":3621:3633  _ownedTokens */\n      0x06\n        /* \"@openzeppelin/contracts/token/ERC721/extensions/ERC721Enumerable.sol\":3621:3637  _ownedTokens[to] */\n      0x20\n      swap1\n      dup2\n      mstore\n      0x40\n      dup1\n      dup4\n      keccak256\n        /* \"@openzeppelin/contracts/token/ERC721/extensions/ERC721Enumerable.sol\":3621:3645  _ownedTokens[to][length] */\n      dup7\n      dup5\n      mstore\n      dup3\n      mstore\n      dup1\n      dup4\n      keccak256\n        /* \"@openzeppelin/contracts/token/ERC721/extensions/ERC721Enumerable.sol\":3621:3655  _ownedTokens[to][length] = tokenId */\n      dup6\n      swap1\n      sstore\n        /* \"@openzeppelin/contracts/token/ERC721/extensions/ERC721Enumerable.sol\":3665:3691  _ownedTokensIndex[tokenId] */\n      swap4\n      dup3\n      mstore\n        /* \"@openzeppelin/contracts/token/ERC721/extensions/ERC721Enumerable.sol\":3665:3682  _ownedTokensIndex */\n      0x07\n        /* \"@openzeppelin/contracts/token/ERC721/extensions/ERC721Enumerable.sol\":3665:3691  _ownedTokensIndex[tokenId] */\n      swap1\n      mstore\n      swap2\n      swap1\n      swap2\n      keccak256\n        /* \"@openzeppelin/contracts/token/ERC721/extensions/ERC721Enumerable.sol\":3665:3700  _ownedTokensIndex[tokenId] = length */\n      swap2\n      swap1\n      swap2\n      sstore\n      pop\n        /* \"@openzeppelin/contracts/token/ERC721/extensions/ERC721Enumerable.sol\":3490:3707  function _addTokenToOwnerEnumeration(address to, uint256 tokenId) private {... */\n      jump\t// out\n        /* \"@openzeppelin/contracts/token/ERC721/ERC721.sol\":8868:9295  function _mint(address to, uint256 tokenId) internal virtual {... */\n    tag_542:\n      sub(shl(0xa0, 0x01), 0x01)\n        /* \"@openzeppelin/contracts/token/ERC721/ERC721.sol\":8947:8963  to != address(0) */\n      dup3\n      and\n        /* \"@openzeppelin/contracts/token/ERC721/ERC721.sol\":8939:9000  require(to != address(0), \"ERC721: mint to the zero address\") */\n      tag_586\n      jumpi\n      mload(0x40)\n      shl(0xe5, 0x461bcd)\n      dup2\n      mstore\n        /* \"#utility.yul\":14535:14537   */\n      0x20\n        /* \"@openzeppelin/contracts/token/ERC721/ERC721.sol\":8939:9000  require(to != address(0), \"ERC721: mint to the zero address\") */\n      0x04\n      dup3\n      add\n        /* \"#utility.yul\":14517:14538   */\n      dup2\n      swap1\n      mstore\n        /* \"#utility.yul\":14554:14572   */\n      0x24\n      dup3\n      add\n        /* \"#utility.yul\":14547:14577   */\n      mstore\n        /* \"#utility.yul\":14613:14647   */\n      0x4552433732313a206d696e7420746f20746865207a65726f2061646472657373\n        /* \"#utility.yul\":14593:14611   */\n      0x44\n      dup3\n      add\n        /* \"#utility.yul\":14586:14648   */\n      mstore\n        /* \"#utility.yul\":14665:14683   */\n      0x64\n      add\n        /* \"@openzeppelin/contracts/token/ERC721/ERC721.sol\":8939:9000  require(to != address(0), \"ERC721: mint to the zero address\") */\n      tag_245\n        /* \"#utility.yul\":14507:14689   */\n      jump\n        /* \"@openzeppelin/contracts/token/ERC721/ERC721.sol\":8939:9000  require(to != address(0), \"ERC721: mint to the zero address\") */\n    tag_586:\n        /* \"@openzeppelin/contracts/token/ERC721/ERC721.sol\":7099:7103  bool */\n      0x00\n        /* \"@openzeppelin/contracts/token/ERC721/ERC721.sol\":7122:7138  _owners[tokenId] */\n      dup2\n      dup2\n      mstore\n        /* \"@openzeppelin/contracts/token/ERC721/ERC721.sol\":7122:7129  _owners */\n      0x02\n        /* \"@openzeppelin/contracts/token/ERC721/ERC721.sol\":7122:7138  _owners[tokenId] */\n      0x20\n      mstore\n      0x40\n      swap1\n      keccak256\n      sload\n      sub(shl(0xa0, 0x01), 0x01)\n      and\n        /* \"@openzeppelin/contracts/token/ERC721/ERC721.sol\":7122:7152  _owners[tokenId] != address(0) */\n      iszero\n        /* \"@openzeppelin/contracts/token/ERC721/ERC721.sol\":9010:9068  require(!_exists(tokenId), \"ERC721: token already minted\") */\n      tag_590\n      jumpi\n      mload(0x40)\n      shl(0xe5, 0x461bcd)\n      dup2\n      mstore\n        /* \"#utility.yul\":12578:12580   */\n      0x20\n        /* \"@openzeppelin/contracts/token/ERC721/ERC721.sol\":9010:9068  require(!_exists(tokenId), \"ERC721: token already minted\") */\n      0x04\n      dup3\n      add\n        /* \"#utility.yul\":12560:12581   */\n      mstore\n        /* \"#utility.yul\":12617:12619   */\n      0x1c\n        /* \"#utility.yul\":12597:12615   */\n      0x24\n      dup3\n      add\n        /* \"#utility.yul\":12590:12620   */\n      mstore\n        /* \"#utility.yul\":12656:12686   */\n      0x4552433732313a20746f6b656e20616c7265616479206d696e74656400000000\n        /* \"#utility.yul\":12636:12654   */\n      0x44\n      dup3\n      add\n        /* \"#utility.yul\":12629:12687   */\n      mstore\n        /* \"#utility.yul\":12704:12722   */\n      0x64\n      add\n        /* \"@openzeppelin/contracts/token/ERC721/ERC721.sol\":9010:9068  require(!_exists(tokenId), \"ERC721: token already minted\") */\n      tag_245\n        /* \"#utility.yul\":12550:12728   */\n      jump\n        /* \"@openzeppelin/contracts/token/ERC721/ERC721.sol\":9010:9068  require(!_exists(tokenId), \"ERC721: token already minted\") */\n    tag_590:\n        /* \"@openzeppelin/contracts/token/ERC721/ERC721.sol\":9079:9124  _beforeTokenTransfer(address(0), to, tokenId) */\n      tag_593\n        /* \"@openzeppelin/contracts/token/ERC721/ERC721.sol\":9108:9109  0 */\n      0x00\n        /* \"@openzeppelin/contracts/token/ERC721/ERC721.sol\":9112:9114  to */\n      dup4\n        /* \"@openzeppelin/contracts/token/ERC721/ERC721.sol\":9116:9123  tokenId */\n      dup4\n        /* \"@openzeppelin/contracts/token/ERC721/ERC721.sol\":9079:9099  _beforeTokenTransfer */\n      tag_479\n        /* \"@openzeppelin/contracts/token/ERC721/ERC721.sol\":9079:9124  _beforeTokenTransfer(address(0), to, tokenId) */\n      jump\t// in\n    tag_593:\n      sub(shl(0xa0, 0x01), 0x01)\n        /* \"@openzeppelin/contracts/token/ERC721/ERC721.sol\":9135:9148  _balances[to] */\n      dup3\n      and\n      0x00\n      swap1\n      dup2\n      mstore\n        /* \"@openzeppelin/contracts/token/ERC721/ERC721.sol\":9135:9144  _balances */\n      0x03\n        /* \"@openzeppelin/contracts/token/ERC721/ERC721.sol\":9135:9148  _balances[to] */\n      0x20\n      mstore\n      0x40\n      dup2\n      keccak256\n        /* \"@openzeppelin/contracts/token/ERC721/ERC721.sol\":9135:9153  _balances[to] += 1 */\n      dup1\n      sload\n        /* \"@openzeppelin/contracts/token/ERC721/ERC721.sol\":9152:9153  1 */\n      0x01\n      swap3\n        /* \"@openzeppelin/contracts/token/ERC721/ERC721.sol\":9135:9148  _balances[to] */\n      swap1\n        /* \"@openzeppelin/contracts/token/ERC721/ERC721.sol\":9135:9153  _balances[to] += 1 */\n      tag_594\n      swap1\n        /* \"@openzeppelin/contracts/token/ERC721/ERC721.sol\":9152:9153  1 */\n      dup5\n      swap1\n        /* \"@openzeppelin/contracts/token/ERC721/ERC721.sol\":9135:9153  _balances[to] += 1 */\n      tag_303\n      jump\t// in\n    tag_594:\n      swap1\n      swap2\n      sstore\n      pop\n      pop\n        /* \"@openzeppelin/contracts/token/ERC721/ERC721.sol\":9163:9179  _owners[tokenId] */\n      0x00\n      dup2\n      dup2\n      mstore\n        /* \"@openzeppelin/contracts/token/ERC721/ERC721.sol\":9163:9170  _owners */\n      0x02\n        /* \"@openzeppelin/contracts/token/ERC721/ERC721.sol\":9163:9179  _owners[tokenId] */\n      0x20\n      mstore\n      0x40\n      dup1\n      dup3\n      keccak256\n        /* \"@openzeppelin/contracts/token/ERC721/ERC721.sol\":9163:9184  _owners[tokenId] = to */\n      dup1\n      sload\n      not(sub(shl(0xa0, 0x01), 0x01))\n      and\n      sub(shl(0xa0, 0x01), 0x01)\n      dup7\n      and\n      swap1\n      dup2\n      or\n      swap1\n      swap2\n      sstore\n        /* \"@openzeppelin/contracts/token/ERC721/ERC721.sol\":9200:9233  Transfer(address(0), to, tokenId) */\n      swap1\n      mload\n        /* \"@openzeppelin/contracts/token/ERC721/ERC721.sol\":9163:9179  _owners[tokenId] */\n      dup4\n      swap3\n      swap1\n        /* \"@openzeppelin/contracts/token/ERC721/ERC721.sol\":9200:9233  Transfer(address(0), to, tokenId) */\n      0xddf252ad1be2c89b69c2b068fc378daa952ba7f163c4a11628f55a4df523b3ef\n      swap1\n        /* \"@openzeppelin/contracts/token/ERC721/ERC721.sol\":9163:9179  _owners[tokenId] */\n      dup3\n      swap1\n        /* \"@openzeppelin/contracts/token/ERC721/ERC721.sol\":9200:9233  Transfer(address(0), to, tokenId) */\n      log4\n        /* \"polygon/Collection.sol\":3742:3763  baseURI = _newBaseURI */\n      pop\n        /* \"polygon/Collection.sol\":3667:3771  function setBaseURI(string memory _newBaseURI) public onlyOwner {\r... */\n      pop\n      jump\t// out\n    tag_371:\n      dup3\n      dup1\n      sload\n      tag_597\n      swap1\n      tag_234\n      jump\t// in\n    tag_597:\n      swap1\n      0x00\n      mstore\n      keccak256(0x00, 0x20)\n      swap1\n      0x1f\n      add\n      0x20\n      swap1\n      div\n      dup2\n      add\n      swap3\n      dup3\n      tag_599\n      jumpi\n      0x00\n      dup6\n      sstore\n      jump(tag_602)\n    tag_599:\n      dup3\n      0x1f\n      lt\n      tag_600\n      jumpi\n      dup1\n      mload\n      not(0xff)\n      and\n      dup4\n      dup1\n      add\n      or\n      dup6\n      sstore\n      jump(tag_602)\n    tag_600:\n      dup3\n      dup1\n      add\n      0x01\n      add\n      dup6\n      sstore\n      dup3\n      iszero\n      tag_602\n      jumpi\n      swap2\n      dup3\n      add\n    tag_601:\n      dup3\n      dup2\n      gt\n      iszero\n      tag_602\n      jumpi\n      dup3\n      mload\n      dup3\n      sstore\n      swap2\n      0x20\n      add\n      swap2\n      swap1\n      0x01\n      add\n      swap1\n      jump(tag_601)\n    tag_602:\n      pop\n      tag_603\n      swap3\n      swap2\n      pop\n      tag_604\n      jump\t// in\n    tag_603:\n      pop\n      swap1\n      jump\t// out\n    tag_604:\n    tag_605:\n      dup1\n      dup3\n      gt\n      iszero\n      tag_603\n      jumpi\n      0x00\n      dup2\n      sstore\n      0x01\n      add\n      jump(tag_605)\n        /* \"#utility.yul\":14:645   */\n    tag_608:\n        /* \"#utility.yul\":78:83   */\n      0x00\n        /* \"#utility.yul\":108:126   */\n      0xffffffffffffffff\n        /* \"#utility.yul\":149:151   */\n      dup1\n        /* \"#utility.yul\":141:147   */\n      dup5\n        /* \"#utility.yul\":138:152   */\n      gt\n        /* \"#utility.yul\":135:137   */\n      iszero\n      tag_611\n      jumpi\n        /* \"#utility.yul\":155:173   */\n      tag_611\n      tag_612\n      jump\t// in\n    tag_611:\n        /* \"#utility.yul\":230:232   */\n      0x40\n        /* \"#utility.yul\":224:233   */\n      mload\n        /* \"#utility.yul\":198:200   */\n      0x1f\n        /* \"#utility.yul\":284:299   */\n      dup6\n      add\n      not(0x1f)\n        /* \"#utility.yul\":280:304   */\n      swap1\n      dup2\n      and\n        /* \"#utility.yul\":306:308   */\n      0x3f\n        /* \"#utility.yul\":276:309   */\n      add\n        /* \"#utility.yul\":272:314   */\n      and\n        /* \"#utility.yul\":260:315   */\n      dup2\n      add\n      swap1\n        /* \"#utility.yul\":330:348   */\n      dup3\n      dup3\n      gt\n        /* \"#utility.yul\":350:372   */\n      dup2\n      dup4\n      lt\n        /* \"#utility.yul\":327:373   */\n      or\n        /* \"#utility.yul\":324:326   */\n      iszero\n      tag_614\n      jumpi\n        /* \"#utility.yul\":376:394   */\n      tag_614\n      tag_612\n      jump\t// in\n    tag_614:\n        /* \"#utility.yul\":416:426   */\n      dup2\n        /* \"#utility.yul\":412:414   */\n      0x40\n        /* \"#utility.yul\":405:427   */\n      mstore\n        /* \"#utility.yul\":445:451   */\n      dup1\n        /* \"#utility.yul\":436:451   */\n      swap4\n      pop\n        /* \"#utility.yul\":475:481   */\n      dup6\n        /* \"#utility.yul\":467:473   */\n      dup2\n        /* \"#utility.yul\":460:482   */\n      mstore\n        /* \"#utility.yul\":515:518   */\n      dup7\n        /* \"#utility.yul\":506:512   */\n      dup7\n        /* \"#utility.yul\":501:504   */\n      dup7\n        /* \"#utility.yul\":497:513   */\n      add\n        /* \"#utility.yul\":494:519   */\n      gt\n        /* \"#utility.yul\":491:493   */\n      iszero\n      tag_615\n      jumpi\n        /* \"#utility.yul\":532:533   */\n      0x00\n        /* \"#utility.yul\":529:530   */\n      dup1\n        /* \"#utility.yul\":522:534   */\n      revert\n        /* \"#utility.yul\":491:493   */\n    tag_615:\n        /* \"#utility.yul\":582:588   */\n      dup6\n        /* \"#utility.yul\":577:580   */\n      dup6\n        /* \"#utility.yul\":570:574   */\n      0x20\n        /* \"#utility.yul\":562:568   */\n      dup4\n        /* \"#utility.yul\":558:575   */\n      add\n        /* \"#utility.yul\":545:589   */\n      calldatacopy\n        /* \"#utility.yul\":637:638   */\n      0x00\n        /* \"#utility.yul\":630:634   */\n      0x20\n        /* \"#utility.yul\":621:627   */\n      dup8\n        /* \"#utility.yul\":613:619   */\n      dup4\n        /* \"#utility.yul\":609:628   */\n      add\n        /* \"#utility.yul\":605:635   */\n      add\n        /* \"#utility.yul\":598:639   */\n      mstore\n      pop\n      pop\n      pop\n        /* \"#utility.yul\":88:645   */\n      swap4\n      swap3\n      pop\n      pop\n      pop\n      jump\t// out\n        /* \"#utility.yul\":650:907   */\n    tag_135:\n        /* \"#utility.yul\":709:715   */\n      0x00\n        /* \"#utility.yul\":762:764   */\n      0x20\n        /* \"#utility.yul\":750:759   */\n      dup3\n        /* \"#utility.yul\":741:748   */\n      dup5\n        /* \"#utility.yul\":737:760   */\n      sub\n        /* \"#utility.yul\":733:765   */\n      slt\n        /* \"#utility.yul\":730:732   */\n      iszero\n      tag_617\n      jumpi\n        /* \"#utility.yul\":783:789   */\n      dup1\n        /* \"#utility.yul\":775:781   */\n      dup2\n        /* \"#utility.yul\":768:790   */\n      revert\n        /* \"#utility.yul\":730:732   */\n    tag_617:\n        /* \"#utility.yul\":827:836   */\n      dup2\n        /* \"#utility.yul\":814:837   */\n      calldataload\n        /* \"#utility.yul\":846:877   */\n      tag_429\n        /* \"#utility.yul\":871:876   */\n      dup2\n        /* \"#utility.yul\":846:877   */\n      tag_619\n      jump\t// in\n        /* \"#utility.yul\":912:1310   */\n    tag_217:\n        /* \"#utility.yul\":980:986   */\n      0x00\n        /* \"#utility.yul\":988:994   */\n      dup1\n        /* \"#utility.yul\":1041:1043   */\n      0x40\n        /* \"#utility.yul\":1029:1038   */\n      dup4\n        /* \"#utility.yul\":1020:1027   */\n      dup6\n        /* \"#utility.yul\":1016:1039   */\n      sub\n        /* \"#utility.yul\":1012:1044   */\n      slt\n        /* \"#utility.yul\":1009:1011   */\n      iszero\n      tag_621\n      jumpi\n        /* \"#utility.yul\":1062:1068   */\n      dup1\n        /* \"#utility.yul\":1054:1060   */\n      dup2\n        /* \"#utility.yul\":1047:1069   */\n      revert\n        /* \"#utility.yul\":1009:1011   */\n    tag_621:\n        /* \"#utility.yul\":1106:1115   */\n      dup3\n        /* \"#utility.yul\":1093:1116   */\n      calldataload\n        /* \"#utility.yul\":1125:1156   */\n      tag_622\n        /* \"#utility.yul\":1150:1155   */\n      dup2\n        /* \"#utility.yul\":1125:1156   */\n      tag_619\n      jump\t// in\n    tag_622:\n        /* \"#utility.yul\":1175:1180   */\n      swap2\n      pop\n        /* \"#utility.yul\":1232:1234   */\n      0x20\n        /* \"#utility.yul\":1217:1235   */\n      dup4\n      add\n        /* \"#utility.yul\":1204:1236   */\n      calldataload\n        /* \"#utility.yul\":1245:1278   */\n      tag_623\n        /* \"#utility.yul\":1204:1236   */\n      dup2\n        /* \"#utility.yul\":1245:1278   */\n      tag_619\n      jump\t// in\n    tag_623:\n        /* \"#utility.yul\":1297:1304   */\n      dup1\n        /* \"#utility.yul\":1287:1304   */\n      swap2\n      pop\n      pop\n        /* \"#utility.yul\":999:1310   */\n      swap3\n      pop\n      swap3\n      swap1\n      pop\n      jump\t// out\n        /* \"#utility.yul\":1315:1781   */\n    tag_98:\n        /* \"#utility.yul\":1392:1398   */\n      0x00\n        /* \"#utility.yul\":1400:1406   */\n      dup1\n        /* \"#utility.yul\":1408:1414   */\n      0x00\n        /* \"#utility.yul\":1461:1463   */\n      0x60\n        /* \"#utility.yul\":1449:1458   */\n      dup5\n        /* \"#utility.yul\":1440:1447   */\n      dup7\n        /* \"#utility.yul\":1436:1459   */\n      sub\n        /* \"#utility.yul\":1432:1464   */\n      slt\n        /* \"#utility.yul\":1429:1431   */\n      iszero\n      tag_625\n      jumpi\n        /* \"#utility.yul\":1482:1488   */\n      dup1\n        /* \"#utility.yul\":1474:1480   */\n      dup2\n        /* \"#utility.yul\":1467:1489   */\n      revert\n        /* \"#utility.yul\":1429:1431   */\n    tag_625:\n        /* \"#utility.yul\":1526:1535   */\n      dup4\n        /* \"#utility.yul\":1513:1536   */\n      calldataload\n        /* \"#utility.yul\":1545:1576   */\n      tag_626\n        /* \"#utility.yul\":1570:1575   */\n      dup2\n        /* \"#utility.yul\":1545:1576   */\n      tag_619\n      jump\t// in\n    tag_626:\n        /* \"#utility.yul\":1595:1600   */\n      swap3\n      pop\n        /* \"#utility.yul\":1652:1654   */\n      0x20\n        /* \"#utility.yul\":1637:1655   */\n      dup5\n      add\n        /* \"#utility.yul\":1624:1656   */\n      calldataload\n        /* \"#utility.yul\":1665:1698   */\n      tag_627\n        /* \"#utility.yul\":1624:1656   */\n      dup2\n        /* \"#utility.yul\":1665:1698   */\n      tag_619\n      jump\t// in\n    tag_627:\n        /* \"#utility.yul\":1419:1781   */\n      swap3\n      swap6\n        /* \"#utility.yul\":1717:1724   */\n      swap3\n      swap5\n      pop\n      pop\n      pop\n        /* \"#utility.yul\":1771:1773   */\n      0x40\n        /* \"#utility.yul\":1756:1774   */\n      swap2\n      swap1\n      swap2\n      add\n        /* \"#utility.yul\":1743:1775   */\n      calldataload\n      swap1\n        /* \"#utility.yul\":1419:1781   */\n      jump\t// out\n        /* \"#utility.yul\":1786:2610   */\n    tag_195:\n        /* \"#utility.yul\":1881:1887   */\n      0x00\n        /* \"#utility.yul\":1889:1895   */\n      dup1\n        /* \"#utility.yul\":1897:1903   */\n      0x00\n        /* \"#utility.yul\":1905:1911   */\n      dup1\n        /* \"#utility.yul\":1958:1961   */\n      0x80\n        /* \"#utility.yul\":1946:1955   */\n      dup6\n        /* \"#utility.yul\":1937:1944   */\n      dup8\n        /* \"#utility.yul\":1933:1956   */\n      sub\n        /* \"#utility.yul\":1929:1962   */\n      slt\n        /* \"#utility.yul\":1926:1928   */\n      iszero\n      tag_629\n      jumpi\n        /* \"#utility.yul\":1980:1986   */\n      dup1\n        /* \"#utility.yul\":1972:1978   */\n      dup2\n        /* \"#utility.yul\":1965:1987   */\n      revert\n        /* \"#utility.yul\":1926:1928   */\n    tag_629:\n        /* \"#utility.yul\":2024:2033   */\n      dup5\n        /* \"#utility.yul\":2011:2034   */\n      calldataload\n        /* \"#utility.yul\":2043:2074   */\n      tag_630\n        /* \"#utility.yul\":2068:2073   */\n      dup2\n        /* \"#utility.yul\":2043:2074   */\n      tag_619\n      jump\t// in\n    tag_630:\n        /* \"#utility.yul\":2093:2098   */\n      swap4\n      pop\n        /* \"#utility.yul\":2150:2152   */\n      0x20\n        /* \"#utility.yul\":2135:2153   */\n      dup6\n      add\n        /* \"#utility.yul\":2122:2154   */\n      calldataload\n        /* \"#utility.yul\":2163:2196   */\n      tag_631\n        /* \"#utility.yul\":2122:2154   */\n      dup2\n        /* \"#utility.yul\":2163:2196   */\n      tag_619\n      jump\t// in\n    tag_631:\n        /* \"#utility.yul\":2215:2222   */\n      swap3\n      pop\n        /* \"#utility.yul\":2269:2271   */\n      0x40\n        /* \"#utility.yul\":2254:2272   */\n      dup6\n      add\n        /* \"#utility.yul\":2241:2273   */\n      calldataload\n      swap2\n      pop\n        /* \"#utility.yul\":2324:2326   */\n      0x60\n        /* \"#utility.yul\":2309:2327   */\n      dup6\n      add\n        /* \"#utility.yul\":2296:2328   */\n      calldataload\n        /* \"#utility.yul\":2351:2369   */\n      0xffffffffffffffff\n        /* \"#utility.yul\":2340:2370   */\n      dup2\n      gt\n        /* \"#utility.yul\":2337:2339   */\n      iszero\n      tag_632\n      jumpi\n        /* \"#utility.yul\":2388:2394   */\n      dup2\n        /* \"#utility.yul\":2380:2386   */\n      dup3\n        /* \"#utility.yul\":2373:2395   */\n      revert\n        /* \"#utility.yul\":2337:2339   */\n    tag_632:\n        /* \"#utility.yul\":2416:2438   */\n      dup6\n      add\n        /* \"#utility.yul\":2469:2473   */\n      0x1f\n        /* \"#utility.yul\":2461:2474   */\n      dup2\n      add\n        /* \"#utility.yul\":2457:2484   */\n      dup8\n      sgt\n        /* \"#utility.yul\":2447:2449   */\n      tag_633\n      jumpi\n        /* \"#utility.yul\":2503:2509   */\n      dup2\n        /* \"#utility.yul\":2495:2501   */\n      dup3\n        /* \"#utility.yul\":2488:2510   */\n      revert\n        /* \"#utility.yul\":2447:2449   */\n    tag_633:\n        /* \"#utility.yul\":2531:2604   */\n      tag_634\n        /* \"#utility.yul\":2596:2603   */\n      dup8\n        /* \"#utility.yul\":2591:2593   */\n      dup3\n        /* \"#utility.yul\":2578:2594   */\n      calldataload\n        /* \"#utility.yul\":2573:2575   */\n      0x20\n        /* \"#utility.yul\":2569:2571   */\n      dup5\n        /* \"#utility.yul\":2565:2576   */\n      add\n        /* \"#utility.yul\":2531:2604   */\n      tag_608\n      jump\t// in\n    tag_634:\n        /* \"#utility.yul\":2521:2604   */\n      swap2\n      pop\n      pop\n        /* \"#utility.yul\":1916:2610   */\n      swap3\n      swap6\n      swap2\n      swap5\n      pop\n      swap3\n      pop\n      jump\t// out\n        /* \"#utility.yul\":2615:3007   */\n    tag_190:\n        /* \"#utility.yul\":2680:2686   */\n      0x00\n        /* \"#utility.yul\":2688:2694   */\n      dup1\n        /* \"#utility.yul\":2741:2743   */\n      0x40\n        /* \"#utility.yul\":2729:2738   */\n      dup4\n        /* \"#utility.yul\":2720:2727   */\n      dup6\n        /* \"#utility.yul\":2716:2739   */\n      sub\n        /* \"#utility.yul\":2712:2744   */\n      slt\n        /* \"#utility.yul\":2709:2711   */\n      iszero\n      tag_636\n      jumpi\n        /* \"#utility.yul\":2762:2768   */\n      dup2\n        /* \"#utility.yul\":2754:2760   */\n      dup3\n        /* \"#utility.yul\":2747:2769   */\n      revert\n        /* \"#utility.yul\":2709:2711   */\n    tag_636:\n        /* \"#utility.yul\":2806:2815   */\n      dup3\n        /* \"#utility.yul\":2793:2816   */\n      calldataload\n        /* \"#utility.yul\":2825:2856   */\n      tag_637\n        /* \"#utility.yul\":2850:2855   */\n      dup2\n        /* \"#utility.yul\":2825:2856   */\n      tag_619\n      jump\t// in\n    tag_637:\n        /* \"#utility.yul\":2875:2880   */\n      swap2\n      pop\n        /* \"#utility.yul\":2932:2934   */\n      0x20\n        /* \"#utility.yul\":2917:2935   */\n      dup4\n      add\n        /* \"#utility.yul\":2904:2936   */\n      calldataload\n        /* \"#utility.yul\":2945:2975   */\n      tag_623\n        /* \"#utility.yul\":2904:2936   */\n      dup2\n        /* \"#utility.yul\":2945:2975   */\n      tag_639\n      jump\t// in\n        /* \"#utility.yul\":3012:3337   */\n    tag_74:\n        /* \"#utility.yul\":3080:3086   */\n      0x00\n        /* \"#utility.yul\":3088:3094   */\n      dup1\n        /* \"#utility.yul\":3141:3143   */\n      0x40\n        /* \"#utility.yul\":3129:3138   */\n      dup4\n        /* \"#utility.yul\":3120:3127   */\n      dup6\n        /* \"#utility.yul\":3116:3139   */\n      sub\n        /* \"#utility.yul\":3112:3144   */\n      slt\n        /* \"#utility.yul\":3109:3111   */\n      iszero\n      tag_641\n      jumpi\n        /* \"#utility.yul\":3162:3168   */\n      dup2\n        /* \"#utility.yul\":3154:3160   */\n      dup3\n        /* \"#utility.yul\":3147:3169   */\n      revert\n        /* \"#utility.yul\":3109:3111   */\n    tag_641:\n        /* \"#utility.yul\":3206:3215   */\n      dup3\n        /* \"#utility.yul\":3193:3216   */\n      calldataload\n        /* \"#utility.yul\":3225:3256   */\n      tag_642\n        /* \"#utility.yul\":3250:3255   */\n      dup2\n        /* \"#utility.yul\":3225:3256   */\n      tag_619\n      jump\t// in\n    tag_642:\n        /* \"#utility.yul\":3275:3280   */\n      swap5\n        /* \"#utility.yul\":3327:3329   */\n      0x20\n        /* \"#utility.yul\":3312:3330   */\n      swap4\n      swap1\n      swap4\n      add\n        /* \"#utility.yul\":3299:3331   */\n      calldataload\n      swap4\n      pop\n      pop\n      pop\n        /* \"#utility.yul\":3099:3337   */\n      jump\t// out\n        /* \"#utility.yul\":3342:3735   */\n    tag_116:\n        /* \"#utility.yul\":3419:3425   */\n      0x00\n        /* \"#utility.yul\":3427:3433   */\n      dup1\n        /* \"#utility.yul\":3435:3441   */\n      0x00\n        /* \"#utility.yul\":3488:3490   */\n      0x60\n        /* \"#utility.yul\":3476:3485   */\n      dup5\n        /* \"#utility.yul\":3467:3474   */\n      dup7\n        /* \"#utility.yul\":3463:3486   */\n      sub\n        /* \"#utility.yul\":3459:3491   */\n      slt\n        /* \"#utility.yul\":3456:3458   */\n      iszero\n      tag_644\n      jumpi\n        /* \"#utility.yul\":3509:3515   */\n      dup3\n        /* \"#utility.yul\":3501:3507   */\n      dup4\n        /* \"#utility.yul\":3494:3516   */\n      revert\n        /* \"#utility.yul\":3456:3458   */\n    tag_644:\n        /* \"#utility.yul\":3553:3562   */\n      dup4\n        /* \"#utility.yul\":3540:3563   */\n      calldataload\n        /* \"#utility.yul\":3572:3603   */\n      tag_645\n        /* \"#utility.yul\":3597:3602   */\n      dup2\n        /* \"#utility.yul\":3572:3603   */\n      tag_619\n      jump\t// in\n    tag_645:\n        /* \"#utility.yul\":3622:3627   */\n      swap6\n        /* \"#utility.yul\":3674:3676   */\n      0x20\n        /* \"#utility.yul\":3659:3677   */\n      dup6\n      add\n        /* \"#utility.yul\":3646:3678   */\n      calldataload\n      swap6\n      pop\n        /* \"#utility.yul\":3725:3727   */\n      0x40\n        /* \"#utility.yul\":3710:3728   */\n      swap1\n      swap5\n      add\n        /* \"#utility.yul\":3697:3729   */\n      calldataload\n      swap4\n        /* \"#utility.yul\":3446:3735   */\n      swap3\n      pop\n      pop\n      pop\n      jump\t// out\n        /* \"#utility.yul\":3740:3991   */\n    tag_57:\n        /* \"#utility.yul\":3796:3802   */\n      0x00\n        /* \"#utility.yul\":3849:3851   */\n      0x20\n        /* \"#utility.yul\":3837:3846   */\n      dup3\n        /* \"#utility.yul\":3828:3835   */\n      dup5\n        /* \"#utility.yul\":3824:3847   */\n      sub\n        /* \"#utility.yul\":3820:3852   */\n      slt\n        /* \"#utility.yul\":3817:3819   */\n      iszero\n      tag_647\n      jumpi\n        /* \"#utility.yul\":3870:3876   */\n      dup1\n        /* \"#utility.yul\":3862:3868   */\n      dup2\n        /* \"#utility.yul\":3855:3877   */\n      revert\n        /* \"#utility.yul\":3817:3819   */\n    tag_647:\n        /* \"#utility.yul\":3914:3923   */\n      dup2\n        /* \"#utility.yul\":3901:3924   */\n      calldataload\n        /* \"#utility.yul\":3933:3961   */\n      tag_429\n        /* \"#utility.yul\":3955:3960   */\n      dup2\n        /* \"#utility.yul\":3933:3961   */\n      tag_639\n      jump\t// in\n        /* \"#utility.yul\":3996:4251   */\n    tag_294:\n        /* \"#utility.yul\":4063:4069   */\n      0x00\n        /* \"#utility.yul\":4116:4118   */\n      0x20\n        /* \"#utility.yul\":4104:4113   */\n      dup3\n        /* \"#utility.yul\":4095:4102   */\n      dup5\n        /* \"#utility.yul\":4091:4114   */\n      sub\n        /* \"#utility.yul\":4087:4119   */\n      slt\n        /* \"#utility.yul\":4084:4086   */\n      iszero\n      tag_650\n      jumpi\n        /* \"#utility.yul\":4137:4143   */\n      dup1\n        /* \"#utility.yul\":4129:4135   */\n      dup2\n        /* \"#utility.yul\":4122:4144   */\n      revert\n        /* \"#utility.yul\":4084:4086   */\n    tag_650:\n        /* \"#utility.yul\":4174:4183   */\n      dup2\n        /* \"#utility.yul\":4168:4184   */\n      mload\n        /* \"#utility.yul\":4193:4221   */\n      tag_429\n        /* \"#utility.yul\":4215:4220   */\n      dup2\n        /* \"#utility.yul\":4193:4221   */\n      tag_639\n      jump\t// in\n        /* \"#utility.yul\":4256:4511   */\n    tag_50:\n        /* \"#utility.yul\":4314:4320   */\n      0x00\n        /* \"#utility.yul\":4367:4369   */\n      0x20\n        /* \"#utility.yul\":4355:4364   */\n      dup3\n        /* \"#utility.yul\":4346:4353   */\n      dup5\n        /* \"#utility.yul\":4342:4365   */\n      sub\n        /* \"#utility.yul\":4338:4370   */\n      slt\n        /* \"#utility.yul\":4335:4337   */\n      iszero\n      tag_653\n      jumpi\n        /* \"#utility.yul\":4388:4394   */\n      dup1\n        /* \"#utility.yul\":4380:4386   */\n      dup2\n        /* \"#utility.yul\":4373:4395   */\n      revert\n        /* \"#utility.yul\":4335:4337   */\n    tag_653:\n        /* \"#utility.yul\":4432:4441   */\n      dup2\n        /* \"#utility.yul\":4419:4442   */\n      calldataload\n        /* \"#utility.yul\":4451:4481   */\n      tag_429\n        /* \"#utility.yul\":4475:4480   */\n      dup2\n        /* \"#utility.yul\":4451:4481   */\n      tag_655\n      jump\t// in\n        /* \"#utility.yul\":4516:4775   */\n    tag_556:\n        /* \"#utility.yul\":4585:4591   */\n      0x00\n        /* \"#utility.yul\":4638:4640   */\n      0x20\n        /* \"#utility.yul\":4626:4635   */\n      dup3\n        /* \"#utility.yul\":4617:4624   */\n      dup5\n        /* \"#utility.yul\":4613:4636   */\n      sub\n        /* \"#utility.yul\":4609:4641   */\n      slt\n        /* \"#utility.yul\":4606:4608   */\n      iszero\n      tag_657\n      jumpi\n        /* \"#utility.yul\":4659:4665   */\n      dup1\n        /* \"#utility.yul\":4651:4657   */\n      dup2\n        /* \"#utility.yul\":4644:4666   */\n      revert\n        /* \"#utility.yul\":4606:4608   */\n    tag_657:\n        /* \"#utility.yul\":4696:4705   */\n      dup2\n        /* \"#utility.yul\":4690:4706   */\n      mload\n        /* \"#utility.yul\":4715:4745   */\n      tag_429\n        /* \"#utility.yul\":4739:4744   */\n      dup2\n        /* \"#utility.yul\":4715:4745   */\n      tag_655\n      jump\t// in\n        /* \"#utility.yul\":5124:5604   */\n    tag_147:\n        /* \"#utility.yul\":5193:5199   */\n      0x00\n        /* \"#utility.yul\":5246:5248   */\n      0x20\n        /* \"#utility.yul\":5234:5243   */\n      dup3\n        /* \"#utility.yul\":5225:5232   */\n      dup5\n        /* \"#utility.yul\":5221:5244   */\n      sub\n        /* \"#utility.yul\":5217:5249   */\n      slt\n        /* \"#utility.yul\":5214:5216   */\n      iszero\n      tag_663\n      jumpi\n        /* \"#utility.yul\":5267:5273   */\n      dup1\n        /* \"#utility.yul\":5259:5265   */\n      dup2\n        /* \"#utility.yul\":5252:5274   */\n      revert\n        /* \"#utility.yul\":5214:5216   */\n    tag_663:\n        /* \"#utility.yul\":5312:5321   */\n      dup2\n        /* \"#utility.yul\":5299:5322   */\n      calldataload\n        /* \"#utility.yul\":5345:5363   */\n      0xffffffffffffffff\n        /* \"#utility.yul\":5337:5343   */\n      dup2\n        /* \"#utility.yul\":5334:5364   */\n      gt\n        /* \"#utility.yul\":5331:5333   */\n      iszero\n      tag_664\n      jumpi\n        /* \"#utility.yul\":5382:5388   */\n      dup2\n        /* \"#utility.yul\":5374:5380   */\n      dup3\n        /* \"#utility.yul\":5367:5389   */\n      revert\n        /* \"#utility.yul\":5331:5333   */\n    tag_664:\n        /* \"#utility.yul\":5410:5432   */\n      dup3\n      add\n        /* \"#utility.yul\":5463:5467   */\n      0x1f\n        /* \"#utility.yul\":5455:5468   */\n      dup2\n      add\n        /* \"#utility.yul\":5451:5478   */\n      dup5\n      sgt\n        /* \"#utility.yul\":5441:5443   */\n      tag_665\n      jumpi\n        /* \"#utility.yul\":5497:5503   */\n      dup2\n        /* \"#utility.yul\":5489:5495   */\n      dup3\n        /* \"#utility.yul\":5482:5504   */\n      revert\n        /* \"#utility.yul\":5441:5443   */\n    tag_665:\n        /* \"#utility.yul\":5525:5598   */\n      tag_468\n        /* \"#utility.yul\":5590:5597   */\n      dup5\n        /* \"#utility.yul\":5585:5587   */\n      dup3\n        /* \"#utility.yul\":5572:5588   */\n      calldataload\n        /* \"#utility.yul\":5567:5569   */\n      0x20\n        /* \"#utility.yul\":5563:5565   */\n      dup5\n        /* \"#utility.yul\":5559:5570   */\n      add\n        /* \"#utility.yul\":5525:5598   */\n      tag_608\n      jump\t// in\n        /* \"#utility.yul\":5609:5799   */\n    tag_67:\n        /* \"#utility.yul\":5668:5674   */\n      0x00\n        /* \"#utility.yul\":5721:5723   */\n      0x20\n        /* \"#utility.yul\":5709:5718   */\n      dup3\n        /* \"#utility.yul\":5700:5707   */\n      dup5\n        /* \"#utility.yul\":5696:5719   */\n      sub\n        /* \"#utility.yul\":5692:5724   */\n      slt\n        /* \"#utility.yul\":5689:5691   */\n      iszero\n      tag_668\n      jumpi\n        /* \"#utility.yul\":5742:5748   */\n      dup1\n        /* \"#utility.yul\":5734:5740   */\n      dup2\n        /* \"#utility.yul\":5727:5749   */\n      revert\n        /* \"#utility.yul\":5689:5691   */\n    tag_668:\n      pop\n        /* \"#utility.yul\":5770:5793   */\n      calldataload\n      swap2\n        /* \"#utility.yul\":5679:5799   */\n      swap1\n      pop\n      jump\t// out\n        /* \"#utility.yul\":5804:5998   */\n    tag_287:\n        /* \"#utility.yul\":5874:5880   */\n      0x00\n        /* \"#utility.yul\":5927:5929   */\n      0x20\n        /* \"#utility.yul\":5915:5924   */\n      dup3\n        /* \"#utility.yul\":5906:5913   */\n      dup5\n        /* \"#utility.yul\":5902:5925   */\n      sub\n        /* \"#utility.yul\":5898:5930   */\n      slt\n        /* \"#utility.yul\":5895:5897   */\n      iszero\n      tag_670\n      jumpi\n        /* \"#utility.yul\":5948:5954   */\n      dup1\n        /* \"#utility.yul\":5940:5946   */\n      dup2\n        /* \"#utility.yul\":5933:5955   */\n      revert\n        /* \"#utility.yul\":5895:5897   */\n    tag_670:\n      pop\n        /* \"#utility.yul\":5976:5992   */\n      mload\n      swap2\n        /* \"#utility.yul\":5885:5998   */\n      swap1\n      pop\n      jump\t// out\n        /* \"#utility.yul\":6003:6260   */\n    tag_671:\n        /* \"#utility.yul\":6044:6047   */\n      0x00\n        /* \"#utility.yul\":6082:6087   */\n      dup2\n        /* \"#utility.yul\":6076:6088   */\n      mload\n        /* \"#utility.yul\":6109:6115   */\n      dup1\n        /* \"#utility.yul\":6104:6107   */\n      dup5\n        /* \"#utility.yul\":6097:6116   */\n      mstore\n        /* \"#utility.yul\":6125:6188   */\n      tag_673\n        /* \"#utility.yul\":6181:6187   */\n      dup2\n        /* \"#utility.yul\":6174:6178   */\n      0x20\n        /* \"#utility.yul\":6169:6172   */\n      dup7\n        /* \"#utility.yul\":6165:6179   */\n      add\n        /* \"#utility.yul\":6158:6162   */\n      0x20\n        /* \"#utility.yul\":6151:6156   */\n      dup7\n        /* \"#utility.yul\":6147:6163   */\n      add\n        /* \"#utility.yul\":6125:6188   */\n      tag_674\n      jump\t// in\n    tag_673:\n        /* \"#utility.yul\":6242:6244   */\n      0x1f\n        /* \"#utility.yul\":6221:6236   */\n      add\n      not(0x1f)\n        /* \"#utility.yul\":6217:6246   */\n      and\n        /* \"#utility.yul\":6208:6247   */\n      swap3\n      swap1\n      swap3\n      add\n        /* \"#utility.yul\":6249:6253   */\n      0x20\n        /* \"#utility.yul\":6204:6254   */\n      add\n      swap3\n        /* \"#utility.yul\":6052:6260   */\n      swap2\n      pop\n      pop\n      jump\t// out\n        /* \"#utility.yul\":6265:7796   */\n    tag_433:\n        /* \"#utility.yul\":6489:6492   */\n      0x00\n        /* \"#utility.yul\":6527:6533   */\n      dup5\n        /* \"#utility.yul\":6521:6534   */\n      mload\n        /* \"#utility.yul\":6553:6557   */\n      0x20\n        /* \"#utility.yul\":6566:6617   */\n      tag_676\n        /* \"#utility.yul\":6610:6616   */\n      dup3\n        /* \"#utility.yul\":6605:6608   */\n      dup6\n        /* \"#utility.yul\":6600:6602   */\n      dup4\n        /* \"#utility.yul\":6592:6598   */\n      dup11\n        /* \"#utility.yul\":6588:6603   */\n      add\n        /* \"#utility.yul\":6566:6617   */\n      tag_674\n      jump\t// in\n    tag_676:\n        /* \"#utility.yul\":6680:6693   */\n      dup6\n      mload\n        /* \"#utility.yul\":6639:6655   */\n      swap2\n      dup5\n      add\n      swap2\n        /* \"#utility.yul\":6702:6757   */\n      tag_677\n        /* \"#utility.yul\":6680:6693   */\n      dup2\n        /* \"#utility.yul\":6639:6655   */\n      dup5\n        /* \"#utility.yul\":6724:6739   */\n      dup5\n      dup11\n      add\n        /* \"#utility.yul\":6702:6757   */\n      tag_674\n      jump\t// in\n    tag_677:\n        /* \"#utility.yul\":6848:6861   */\n      dup6\n      sload\n        /* \"#utility.yul\":6779:6799   */\n      swap3\n      add\n      swap2\n        /* \"#utility.yul\":6819:6822   */\n      dup4\n      swap1\n        /* \"#utility.yul\":6908:6909   */\n      0x01\n        /* \"#utility.yul\":6930:6948   */\n      dup2\n      dup2\n      shr\n      swap1\n        /* \"#utility.yul\":6983:7001   */\n      dup1\n      dup4\n      and\n      dup1\n        /* \"#utility.yul\":7010:7012   */\n      tag_678\n      jumpi\n        /* \"#utility.yul\":7088:7092   */\n      0x7f\n        /* \"#utility.yul\":7078:7086   */\n      dup4\n        /* \"#utility.yul\":7074:7093   */\n      and\n        /* \"#utility.yul\":7062:7093   */\n      swap3\n      pop\n        /* \"#utility.yul\":7010:7012   */\n    tag_678:\n        /* \"#utility.yul\":7151:7153   */\n      dup6\n        /* \"#utility.yul\":7141:7149   */\n      dup4\n        /* \"#utility.yul\":7138:7154   */\n      lt\n        /* \"#utility.yul\":7118:7136   */\n      dup2\n        /* \"#utility.yul\":7115:7155   */\n      eq\n        /* \"#utility.yul\":7112:7114   */\n      iszero\n      tag_679\n      jumpi\n      shl(0xe0, 0x4e487b71)\n        /* \"#utility.yul\":7178:7211   */\n      dup9\n      mstore\n        /* \"#utility.yul\":7234:7238   */\n      0x22\n        /* \"#utility.yul\":7231:7232   */\n      0x04\n        /* \"#utility.yul\":7224:7239   */\n      mstore\n        /* \"#utility.yul\":7264:7268   */\n      0x24\n        /* \"#utility.yul\":7185:7188   */\n      dup9\n        /* \"#utility.yul\":7252:7269   */\n      revert\n        /* \"#utility.yul\":7112:7114   */\n    tag_679:\n        /* \"#utility.yul\":7295:7313   */\n      dup1\n        /* \"#utility.yul\":7322:7432   */\n      dup1\n      iszero\n      tag_681\n      jumpi\n        /* \"#utility.yul\":7446:7447   */\n      0x01\n        /* \"#utility.yul\":7441:7771   */\n      dup2\n      eq\n      tag_682\n      jumpi\n        /* \"#utility.yul\":7288:7771   */\n      jump(tag_680)\n        /* \"#utility.yul\":7322:7432   */\n    tag_681:\n      not(0xff)\n        /* \"#utility.yul\":7357:7381   */\n      dup6\n      and\n        /* \"#utility.yul\":7343:7382   */\n      dup9\n      mstore\n        /* \"#utility.yul\":7402:7422   */\n      dup4\n      dup9\n      add\n      swap6\n      pop\n        /* \"#utility.yul\":7322:7432   */\n      jump(tag_680)\n        /* \"#utility.yul\":7441:7771   */\n    tag_682:\n        /* \"#utility.yul\":17695:17699   */\n      0x00\n        /* \"#utility.yul\":17714:17731   */\n      dup12\n      dup2\n      mstore\n        /* \"#utility.yul\":17764:17768   */\n      0x20\n        /* \"#utility.yul\":17748:17769   */\n      swap1\n      keccak256\n        /* \"#utility.yul\":7536:7539   */\n      dup10\n        /* \"#utility.yul\":7552:7721   */\n    tag_685:\n        /* \"#utility.yul\":7566:7574   */\n      dup6\n        /* \"#utility.yul\":7563:7564   */\n      dup2\n        /* \"#utility.yul\":7560:7575   */\n      lt\n        /* \"#utility.yul\":7552:7721   */\n      iszero\n      tag_687\n      jumpi\n        /* \"#utility.yul\":7648:7662   */\n      dup2\n      sload\n        /* \"#utility.yul\":7633:7646   */\n      dup11\n      dup3\n      add\n        /* \"#utility.yul\":7626:7663   */\n      mstore\n        /* \"#utility.yul\":7691:7707   */\n      swap1\n      dup5\n      add\n      swap1\n        /* \"#utility.yul\":7583:7593   */\n      dup9\n      add\n        /* \"#utility.yul\":7552:7721   */\n      jump(tag_685)\n    tag_687:\n        /* \"#utility.yul\":7556:7559   */\n      pop\n      pop\n        /* \"#utility.yul\":7752:7760   */\n      dup4\n        /* \"#utility.yul\":7745:7750   */\n      dup9\n        /* \"#utility.yul\":7741:7761   */\n      add\n        /* \"#utility.yul\":7734:7761   */\n      swap6\n      pop\n        /* \"#utility.yul\":7288:7771   */\n    tag_680:\n      pop\n        /* \"#utility.yul\":7787:7790   */\n      swap4\n      swap12\n        /* \"#utility.yul\":6497:7796   */\n      swap11\n      pop\n      pop\n      pop\n      pop\n      pop\n      pop\n      pop\n      pop\n      pop\n      pop\n      pop\n      jump\t// out\n        /* \"#utility.yul\":8389:8877   */\n    tag_552:\n      sub(shl(0xa0, 0x01), 0x01)\n        /* \"#utility.yul\":8658:8673   */\n      dup6\n      dup2\n      and\n        /* \"#utility.yul\":8640:8674   */\n      dup3\n      mstore\n        /* \"#utility.yul\":8710:8725   */\n      dup5\n      and\n        /* \"#utility.yul\":8705:8707   */\n      0x20\n        /* \"#utility.yul\":8690:8708   */\n      dup3\n      add\n        /* \"#utility.yul\":8683:8726   */\n      mstore\n        /* \"#utility.yul\":8757:8759   */\n      0x40\n        /* \"#utility.yul\":8742:8760   */\n      dup2\n      add\n        /* \"#utility.yul\":8735:8769   */\n      dup4\n      swap1\n      mstore\n        /* \"#utility.yul\":8805:8808   */\n      0x80\n        /* \"#utility.yul\":8800:8802   */\n      0x60\n        /* \"#utility.yul\":8785:8803   */\n      dup3\n      add\n        /* \"#utility.yul\":8778:8809   */\n      dup2\n      swap1\n      mstore\n        /* \"#utility.yul\":8583:8587   */\n      0x00\n      swap1\n        /* \"#utility.yul\":8826:8871   */\n      tag_691\n      swap1\n        /* \"#utility.yul\":8851:8870   */\n      dup4\n      add\n        /* \"#utility.yul\":8843:8849   */\n      dup5\n        /* \"#utility.yul\":8826:8871   */\n      tag_671\n      jump\t// in\n    tag_691:\n        /* \"#utility.yul\":8818:8871   */\n      swap7\n        /* \"#utility.yul\":8592:8877   */\n      swap6\n      pop\n      pop\n      pop\n      pop\n      pop\n      pop\n      jump\t// out\n        /* \"#utility.yul\":9161:9796   */\n    tag_138:\n        /* \"#utility.yul\":9332:9334   */\n      0x20\n        /* \"#utility.yul\":9384:9405   */\n      dup1\n      dup3\n      mstore\n        /* \"#utility.yul\":9454:9467   */\n      dup3\n      mload\n        /* \"#utility.yul\":9357:9375   */\n      dup3\n      dup3\n      add\n        /* \"#utility.yul\":9476:9498   */\n      dup2\n      swap1\n      mstore\n        /* \"#utility.yul\":9303:9307   */\n      0x00\n      swap2\n        /* \"#utility.yul\":9332:9334   */\n      swap1\n        /* \"#utility.yul\":9555:9570   */\n      dup5\n      dup3\n      add\n      swap1\n        /* \"#utility.yul\":9529:9531   */\n      0x40\n        /* \"#utility.yul\":9514:9532   */\n      dup6\n      add\n      swap1\n        /* \"#utility.yul\":9303:9307   */\n      dup5\n        /* \"#utility.yul\":9601:9770   */\n    tag_694:\n        /* \"#utility.yul\":9615:9621   */\n      dup2\n        /* \"#utility.yul\":9612:9613   */\n      dup2\n        /* \"#utility.yul\":9609:9622   */\n      lt\n        /* \"#utility.yul\":9601:9770   */\n      iszero\n      tag_696\n      jumpi\n        /* \"#utility.yul\":9676:9689   */\n      dup4\n      mload\n        /* \"#utility.yul\":9664:9690   */\n      dup4\n      mstore\n        /* \"#utility.yul\":9745:9760   */\n      swap3\n      dup5\n      add\n      swap3\n        /* \"#utility.yul\":9710:9722   */\n      swap2\n      dup5\n      add\n      swap2\n        /* \"#utility.yul\":9637:9638   */\n      0x01\n        /* \"#utility.yul\":9630:9639   */\n      add\n        /* \"#utility.yul\":9601:9770   */\n      jump(tag_694)\n    tag_696:\n      pop\n        /* \"#utility.yul\":9787:9790   */\n      swap1\n      swap7\n        /* \"#utility.yul\":9312:9796   */\n      swap6\n      pop\n      pop\n      pop\n      pop\n      pop\n      pop\n      jump\t// out\n        /* \"#utility.yul\":10508:10727   */\n    tag_63:\n        /* \"#utility.yul\":10657:10659   */\n      0x20\n        /* \"#utility.yul\":10646:10655   */\n      dup2\n        /* \"#utility.yul\":10639:10660   */\n      mstore\n        /* \"#utility.yul\":10620:10624   */\n      0x00\n        /* \"#utility.yul\":10677:10721   */\n      tag_429\n        /* \"#utility.yul\":10717:10719   */\n      0x20\n        /* \"#utility.yul\":10706:10715   */\n      dup4\n        /* \"#utility.yul\":10702:10720   */\n      add\n        /* \"#utility.yul\":10694:10700   */\n      dup5\n        /* \"#utility.yul\":10677:10721   */\n      tag_671\n      jump\t// in\n        /* \"#utility.yul\":11144:11558   */\n    tag_501:\n        /* \"#utility.yul\":11346:11348   */\n      0x20\n        /* \"#utility.yul\":11328:11349   */\n      dup1\n      dup3\n      mstore\n        /* \"#utility.yul\":11385:11387   */\n      0x32\n        /* \"#utility.yul\":11365:11383   */\n      swap1\n      dup3\n      add\n        /* \"#utility.yul\":11358:11388   */\n      mstore\n        /* \"#utility.yul\":11424:11458   */\n      0x4552433732313a207472616e7366657220746f206e6f6e204552433732315265\n        /* \"#utility.yul\":11419:11421   */\n      0x40\n        /* \"#utility.yul\":11404:11422   */\n      dup3\n      add\n        /* \"#utility.yul\":11397:11459   */\n      mstore\n      shl(0x71, 0x31b2b4bb32b91034b6b83632b6b2b73a32b9)\n        /* \"#utility.yul\":11490:11492   */\n      0x60\n        /* \"#utility.yul\":11475:11493   */\n      dup3\n      add\n        /* \"#utility.yul\":11468:11516   */\n      mstore\n        /* \"#utility.yul\":11548:11551   */\n      0x80\n        /* \"#utility.yul\":11533:11552   */\n      add\n      swap1\n        /* \"#utility.yul\":11318:11558   */\n      jump\t// out\n        /* \"#utility.yul\":17051:17461   */\n    tag_267:\n        /* \"#utility.yul\":17253:17255   */\n      0x20\n        /* \"#utility.yul\":17235:17256   */\n      dup1\n      dup3\n      mstore\n        /* \"#utility.yul\":17292:17294   */\n      0x2e\n        /* \"#utility.yul\":17272:17290   */\n      swap1\n      dup3\n      add\n        /* \"#utility.yul\":17265:17295   */\n      mstore\n        /* \"#utility.yul\":17331:17365   */\n      0x4552433732313a2063616c6c6572206973206e6f7420746f6b656e206f776e65\n        /* \"#utility.yul\":17326:17328   */\n      0x40\n        /* \"#utility.yul\":17311:17329   */\n      dup3\n      add\n        /* \"#utility.yul\":17304:17366   */\n      mstore\n      shl(0x92, 0x1c881b9bdc88185c1c1c9bdd9959)\n        /* \"#utility.yul\":17397:17399   */\n      0x60\n        /* \"#utility.yul\":17382:17400   */\n      dup3\n      add\n        /* \"#utility.yul\":17375:17419   */\n      mstore\n        /* \"#utility.yul\":17451:17454   */\n      0x80\n        /* \"#utility.yul\":17436:17455   */\n      add\n      swap1\n        /* \"#utility.yul\":17225:17461   */\n      jump\t// out\n        /* \"#utility.yul\":17780:17908   */\n    tag_303:\n        /* \"#utility.yul\":17820:17823   */\n      0x00\n        /* \"#utility.yul\":17851:17852   */\n      dup3\n        /* \"#utility.yul\":17847:17853   */\n      not\n        /* \"#utility.yul\":17844:17845   */\n      dup3\n        /* \"#utility.yul\":17841:17854   */\n      gt\n        /* \"#utility.yul\":17838:17840   */\n      iszero\n      tag_723\n      jumpi\n        /* \"#utility.yul\":17857:17875   */\n      tag_723\n      tag_724\n      jump\t// in\n    tag_723:\n      pop\n        /* \"#utility.yul\":17893:17902   */\n      add\n      swap1\n        /* \"#utility.yul\":17828:17908   */\n      jump\t// out\n        /* \"#utility.yul\":17913:18033   */\n    tag_510:\n        /* \"#utility.yul\":17953:17954   */\n      0x00\n        /* \"#utility.yul\":17979:17980   */\n      dup3\n        /* \"#utility.yul\":17969:17971   */\n      tag_727\n      jumpi\n        /* \"#utility.yul\":17984:18002   */\n      tag_727\n      tag_728\n      jump\t// in\n    tag_727:\n      pop\n        /* \"#utility.yul\":18018:18027   */\n      div\n      swap1\n        /* \"#utility.yul\":17959:18033   */\n      jump\t// out\n        /* \"#utility.yul\":18038:18206   */\n    tag_338:\n        /* \"#utility.yul\":18078:18085   */\n      0x00\n        /* \"#utility.yul\":18144:18145   */\n      dup2\n        /* \"#utility.yul\":18140:18141   */\n      0x00\n        /* \"#utility.yul\":18136:18142   */\n      not\n        /* \"#utility.yul\":18132:18146   */\n      div\n        /* \"#utility.yul\":18129:18130   */\n      dup4\n        /* \"#utility.yul\":18126:18147   */\n      gt\n        /* \"#utility.yul\":18121:18122   */\n      dup3\n        /* \"#utility.yul\":18114:18123   */\n      iszero\n        /* \"#utility.yul\":18107:18124   */\n      iszero\n        /* \"#utility.yul\":18103:18148   */\n      and\n        /* \"#utility.yul\":18100:18102   */\n      iszero\n      tag_731\n      jumpi\n        /* \"#utility.yul\":18151:18169   */\n      tag_731\n      tag_724\n      jump\t// in\n    tag_731:\n      pop\n        /* \"#utility.yul\":18191:18200   */\n      mul\n      swap1\n        /* \"#utility.yul\":18090:18206   */\n      jump\t// out\n        /* \"#utility.yul\":18211:18336   */\n    tag_482:\n        /* \"#utility.yul\":18251:18255   */\n      0x00\n        /* \"#utility.yul\":18279:18280   */\n      dup3\n        /* \"#utility.yul\":18276:18277   */\n      dup3\n        /* \"#utility.yul\":18273:18281   */\n      lt\n        /* \"#utility.yul\":18270:18272   */\n      iszero\n      tag_734\n      jumpi\n        /* \"#utility.yul\":18284:18302   */\n      tag_734\n      tag_724\n      jump\t// in\n    tag_734:\n      pop\n        /* \"#utility.yul\":18321:18330   */\n      sub\n      swap1\n        /* \"#utility.yul\":18260:18336   */\n      jump\t// out\n        /* \"#utility.yul\":18341:18599   */\n    tag_674:\n        /* \"#utility.yul\":18413:18414   */\n      0x00\n        /* \"#utility.yul\":18423:18536   */\n    tag_736:\n        /* \"#utility.yul\":18437:18443   */\n      dup4\n        /* \"#utility.yul\":18434:18435   */\n      dup2\n        /* \"#utility.yul\":18431:18444   */\n      lt\n        /* \"#utility.yul\":18423:18536   */\n      iszero\n      tag_738\n      jumpi\n        /* \"#utility.yul\":18513:18524   */\n      dup2\n      dup2\n      add\n        /* \"#utility.yul\":18507:18525   */\n      mload\n        /* \"#utility.yul\":18494:18505   */\n      dup4\n      dup3\n      add\n        /* \"#utility.yul\":18487:18526   */\n      mstore\n        /* \"#utility.yul\":18459:18461   */\n      0x20\n        /* \"#utility.yul\":18452:18462   */\n      add\n        /* \"#utility.yul\":18423:18536   */\n      jump(tag_736)\n    tag_738:\n        /* \"#utility.yul\":18554:18560   */\n      dup4\n        /* \"#utility.yul\":18551:18552   */\n      dup2\n        /* \"#utility.yul\":18548:18561   */\n      gt\n        /* \"#utility.yul\":18545:18547   */\n      iszero\n      tag_293\n      jumpi\n      pop\n      pop\n        /* \"#utility.yul\":18589:18590   */\n      0x00\n        /* \"#utility.yul\":18571:18587   */\n      swap2\n      add\n        /* \"#utility.yul\":18564:18591   */\n      mstore\n        /* \"#utility.yul\":18394:18599   */\n      jump\t// out\n        /* \"#utility.yul\":18604:18984   */\n    tag_234:\n        /* \"#utility.yul\":18683:18684   */\n      0x01\n        /* \"#utility.yul\":18679:18691   */\n      dup2\n      dup2\n      shr\n      swap1\n        /* \"#utility.yul\":18726:18738   */\n      dup3\n      and\n      dup1\n        /* \"#utility.yul\":18747:18749   */\n      tag_741\n      jumpi\n        /* \"#utility.yul\":18801:18805   */\n      0x7f\n        /* \"#utility.yul\":18793:18799   */\n      dup3\n        /* \"#utility.yul\":18789:18806   */\n      and\n        /* \"#utility.yul\":18779:18806   */\n      swap2\n      pop\n        /* \"#utility.yul\":18747:18749   */\n    tag_741:\n        /* \"#utility.yul\":18854:18856   */\n      0x20\n        /* \"#utility.yul\":18846:18852   */\n      dup3\n        /* \"#utility.yul\":18843:18857   */\n      lt\n        /* \"#utility.yul\":18823:18841   */\n      dup2\n        /* \"#utility.yul\":18820:18858   */\n      eq\n        /* \"#utility.yul\":18817:18819   */\n      iszero\n      tag_742\n      jumpi\n        /* \"#utility.yul\":18900:18910   */\n      0x4e487b71\n        /* \"#utility.yul\":18895:18898   */\n      0xe0\n        /* \"#utility.yul\":18891:18911   */\n      shl\n        /* \"#utility.yul\":18888:18889   */\n      0x00\n        /* \"#utility.yul\":18881:18912   */\n      mstore\n        /* \"#utility.yul\":18935:18939   */\n      0x22\n        /* \"#utility.yul\":18932:18933   */\n      0x04\n        /* \"#utility.yul\":18925:18940   */\n      mstore\n        /* \"#utility.yul\":18963:18967   */\n      0x24\n        /* \"#utility.yul\":18960:18961   */\n      0x00\n        /* \"#utility.yul\":18953:18968   */\n      revert\n        /* \"#utility.yul\":18817:18819   */\n    tag_742:\n      pop\n        /* \"#utility.yul\":18659:18984   */\n      swap2\n      swap1\n      pop\n      jump\t// out\n        /* \"#utility.yul\":18989:19124   */\n    tag_319:\n        /* \"#utility.yul\":19028:19031   */\n      0x00\n      not(0x00)\n        /* \"#utility.yul\":19049:19066   */\n      dup3\n      eq\n        /* \"#utility.yul\":19046:19048   */\n      iszero\n      tag_745\n      jumpi\n        /* \"#utility.yul\":19069:19087   */\n      tag_745\n      tag_724\n      jump\t// in\n    tag_745:\n      pop\n        /* \"#utility.yul\":19116:19117   */\n      0x01\n        /* \"#utility.yul\":19105:19118   */\n      add\n      swap1\n        /* \"#utility.yul\":19036:19124   */\n      jump\t// out\n        /* \"#utility.yul\":19129:19241   */\n    tag_517:\n        /* \"#utility.yul\":19161:19162   */\n      0x00\n        /* \"#utility.yul\":19187:19188   */\n      dup3\n        /* \"#utility.yul\":19177:19179   */\n      tag_748\n      jumpi\n        /* \"#utility.yul\":19192:19210   */\n      tag_748\n      tag_728\n      jump\t// in\n    tag_748:\n      pop\n        /* \"#utility.yul\":19226:19235   */\n      mod\n      swap1\n        /* \"#utility.yul\":19167:19241   */\n      jump\t// out\n        /* \"#utility.yul\":19246:19373   */\n    tag_724:\n        /* \"#utility.yul\":19307:19317   */\n      0x4e487b71\n        /* \"#utility.yul\":19302:19305   */\n      0xe0\n        /* \"#utility.yul\":19298:19318   */\n      shl\n        /* \"#utility.yul\":19295:19296   */\n      0x00\n        /* \"#utility.yul\":19288:19319   */\n      mstore\n        /* \"#utility.yul\":19338:19342   */\n      0x11\n        /* \"#utility.yul\":19335:19336   */\n      0x04\n        /* \"#utility.yul\":19328:19343   */\n      mstore\n        /* \"#utility.yul\":19362:19366   */\n      0x24\n        /* \"#utility.yul\":19359:19360   */\n      0x00\n        /* \"#utility.yul\":19352:19367   */\n      revert\n        /* \"#utility.yul\":19378:19505   */\n    tag_728:\n        /* \"#utility.yul\":19439:19449   */\n      0x4e487b71\n        /* \"#utility.yul\":19434:19437   */\n      0xe0\n        /* \"#utility.yul\":19430:19450   */\n      shl\n        /* \"#utility.yul\":19427:19428   */\n      0x00\n        /* \"#utility.yul\":19420:19451   */\n      mstore\n        /* \"#utility.yul\":19470:19474   */\n      0x12\n        /* \"#utility.yul\":19467:19468   */\n      0x04\n        /* \"#utility.yul\":19460:19475   */\n      mstore\n        /* \"#utility.yul\":19494:19498   */\n      0x24\n        /* \"#utility.yul\":19491:19492   */\n      0x00\n        /* \"#utility.yul\":19484:19499   */\n      revert\n        /* \"#utility.yul\":19510:19637   */\n    tag_612:\n        /* \"#utility.yul\":19571:19581   */\n      0x4e487b71\n        /* \"#utility.yul\":19566:19569   */\n      0xe0\n        /* \"#utility.yul\":19562:19582   */\n      shl\n        /* \"#utility.yul\":19559:19560   */\n      0x00\n        /* \"#utility.yul\":19552:19583   */\n      mstore\n        /* \"#utility.yul\":19602:19606   */\n      0x41\n        /* \"#utility.yul\":19599:19600   */\n      0x04\n        /* \"#utility.yul\":19592:19607   */\n      mstore\n        /* \"#utility.yul\":19626:19630   */\n      0x24\n        /* \"#utility.yul\":19623:19624   */\n      0x00\n        /* \"#utility.yul\":19616:19631   */\n      revert\n        /* \"#utility.yul\":19642:19773   */\n    tag_619:\n      sub(shl(0xa0, 0x01), 0x01)\n        /* \"#utility.yul\":19717:19748   */\n      dup2\n      and\n        /* \"#utility.yul\":19707:19749   */\n      dup2\n      eq\n        /* \"#utility.yul\":19697:19699   */\n      tag_445\n      jumpi\n        /* \"#utility.yul\":19763:19764   */\n      0x00\n        /* \"#utility.yul\":19760:19761   */\n      dup1\n        /* \"#utility.yul\":19753:19765   */\n      revert\n        /* \"#utility.yul\":19778:19896   */\n    tag_639:\n        /* \"#utility.yul\":19864:19869   */\n      dup1\n        /* \"#utility.yul\":19857:19870   */\n      iszero\n        /* \"#utility.yul\":19850:19871   */\n      iszero\n        /* \"#utility.yul\":19843:19848   */\n      dup2\n        /* \"#utility.yul\":19840:19872   */\n      eq\n        /* \"#utility.yul\":19830:19832   */\n      tag_445\n      jumpi\n        /* \"#utility.yul\":19886:19887   */\n      0x00\n        /* \"#utility.yul\":19883:19884   */\n      dup1\n        /* \"#utility.yul\":19876:19888   */\n      revert\n        /* \"#utility.yul\":19901:20032   */\n    tag_655:\n      not(sub(shl(0xe0, 0x01), 0x01))\n        /* \"#utility.yul\":19975:20007   */\n      dup2\n      and\n        /* \"#utility.yul\":19965:20008   */\n      dup2\n      eq\n        /* \"#utility.yul\":19955:19957   */\n      tag_445\n      jumpi\n        /* \"#utility.yul\":20022:20023   */\n      0x00\n        /* \"#utility.yul\":20019:20020   */\n      dup1\n        /* \"#utility.yul\":20012:20024   */\n      revert\n    stop\n    data_3c65a7833ad2d3bc1e4a84e3d433ab4ea20d1c5766826a47ead22025aa4efb2b 68747470733a2f2f62616679626569626a7879616d69636c7162377079746537727368666862666f793734696d666f6e35646f356863376270687578326571716475692e697066732e6e667473746f726167652e6c696e6b2f46616e74617379253230253233\n\n    auxdata: 0xa26469706673582212207a8afc5aafc47721d9bd7a374c52c0015881c4db567f7fa40f2b3c369d5f340764736f6c63430008040033\n}\n",
				"bytecode": {
					"linkReferences": {},
					"object": "60c06040526005608081905264173539b7b760d91b60a09081526200002891600d91906200014b565b5068056bc75e2d63100000600e55612710600f556101f46010556011805460ff191690553480156200005957600080fd5b50604080518082018252601381527f46616e746173795f436f6c6c656374696f6e7300000000000000000000000000602080830191825283518085019094526005845264198b5b999d60da1b908401528151919291620000bc916000916200014b565b508051620000d29060019060208401906200014b565b505050620000ef620000e9620000f560201b60201c565b620000f9565b6200022e565b3390565b600a80546001600160a01b038381166001600160a01b0319831681179093556040519116919082907f8be0079c531659141344cd1fd0a4f28419497f9722a3daafe3b4186f6b6457e090600090a35050565b8280546200015990620001f1565b90600052602060002090601f0160209004810192826200017d5760008555620001c8565b82601f106200019857805160ff1916838001178555620001c8565b82800160010185558215620001c8579182015b82811115620001c8578251825591602001919060010190620001ab565b50620001d6929150620001da565b5090565b5b80821115620001d65760008155600101620001db565b600181811c908216806200020657607f821691505b602082108114156200022857634e487b7160e01b600052602260045260246000fd5b50919050565b6126eb806200023e6000396000f3fe6080604052600436106102255760003560e01c80634f6ccce7116101235780638da5cb5b116100ab578063c87b56dd1161006f578063c87b56dd14610623578063d5abeb0114610643578063da3ef23f14610659578063e985e9c514610679578063f2fde38b146106c257600080fd5b80638da5cb5b1461059b57806395d89b41146105b9578063a22cb465146105ce578063b88d4fde146105ee578063c66828621461060e57600080fd5b8063690e4fc3116100f2578063690e4fc3146105115780636c0360eb1461053157806370a0823114610546578063715018a6146105665780637f00c7a61461057b57600080fd5b80634f6ccce71461049757806355f804b3146104b75780635c975abb146104d75780636352211e146104f157600080fd5b806323b872dd116101b15780633ccfd60b116101755780633ccfd60b1461040f5780633d3d55081461041757806340c10f191461043757806342842e0e1461044a578063438b63001461046a57600080fd5b806323b872dd1461036a57806326c91cad1461038a5780632f745c59146103c957806334cc5dca146103e9578063356911b4146103fc57600080fd5b8063095ea7b3116101f8578063095ea7b3146102db5780630c75afab146102fb57806313faede61461031b57806318160ddd1461033f578063239c70ae1461035457600080fd5b806301ffc9a71461022a57806302329a291461025f57806306fdde0314610281578063081812fc146102a3575b600080fd5b34801561023657600080fd5b5061024a61024536600461220c565b6106e2565b60405190151581526020015b60405180910390f35b34801561026b57600080fd5b5061027f61027a3660046121d4565b61070d565b005b34801561028d57600080fd5b50610296610728565b6040516102569190612429565b3480156102af57600080fd5b506102c36102be36600461228a565b6107ba565b6040516001600160a01b039091168152602001610256565b3480156102e757600080fd5b5061027f6102f6366004612175565b6107e1565b34801561030757600080fd5b506102c361031636600461228a565b6108fc565b34801561032757600080fd5b50610331600e5481565b604051908152602001610256565b34801561034b57600080fd5b50600854610331565b34801561036057600080fd5b5061033160105481565b34801561037657600080fd5b5061027f61038536600461208b565b610941565b34801561039657600080fd5b506103aa6103a536600461228a565b610972565b604080516001600160a01b039093168352602083019190915201610256565b3480156103d557600080fd5b506103316103e4366004612175565b6109aa565b61027f6103f736600461228a565b610a40565b61027f61040a3660046121a0565b610b86565b61027f610ce4565b34801561042357600080fd5b5061033161043236600461228a565b610d12565b61027f610445366004612175565b610d51565b34801561045657600080fd5b5061027f61046536600461208b565b610e4f565b34801561047657600080fd5b5061048a610485366004612037565b610e6a565b60405161025691906123e5565b3480156104a357600080fd5b506103316104b236600461228a565b610f28565b3480156104c357600080fd5b5061027f6104d2366004612244565b610fc9565b3480156104e357600080fd5b5060115461024a9060ff1681565b3480156104fd57600080fd5b506102c361050c36600461228a565b610fe8565b34801561051d57600080fd5b5061027f61052c366004612175565b611048565b34801561053d57600080fd5b506102966110e5565b34801561055257600080fd5b50610331610561366004612037565b611173565b34801561057257600080fd5b5061027f6111f9565b34801561058757600080fd5b5061027f61059636600461228a565b61120b565b3480156105a757600080fd5b50600a546001600160a01b03166102c3565b3480156105c557600080fd5b50610296611218565b3480156105da57600080fd5b5061027f6105e9366004612148565b611227565b3480156105fa57600080fd5b5061027f6106093660046120cb565b611232565b34801561061a57600080fd5b50610296611264565b34801561062f57600080fd5b5061029661063e36600461228a565b611271565b34801561064f57600080fd5b50610331600f5481565b34801561066557600080fd5b5061027f610674366004612244565b61134f565b34801561068557600080fd5b5061024a610694366004612053565b6001600160a01b03918216600090815260056020908152604080832093909416825291909152205460ff1690565b3480156106ce57600080fd5b5061027f6106dd366004612037565b61136a565b60006001600160e01b0319821663780e9d6360e01b14806107075750610707826113e3565b92915050565b610715611433565b6011805460ff1916911515919091179055565b6060600080546107379061256a565b80601f01602080910402602001604051908101604052809291908181526020018280546107639061256a565b80156107b05780601f10610785576101008083540402835291602001916107b0565b820191906000526020600020905b81548152906001019060200180831161079357829003601f168201915b5050505050905090565b60006107c58261148d565b506000908152600460205260409020546001600160a01b031690565b60006107ec82610fe8565b9050806001600160a01b0316836001600160a01b0316141561085f5760405162461bcd60e51b815260206004820152602160248201527f4552433732313a20617070726f76616c20746f2063757272656e74206f776e656044820152603960f91b60648201526084015b60405180910390fd5b336001600160a01b038216148061087b575061087b8133610694565b6108ed5760405162461bcd60e51b815260206004820152603e60248201527f4552433732313a20617070726f76652063616c6c6572206973206e6f7420746f60448201527f6b656e206f776e6572206e6f7220617070726f76656420666f7220616c6c00006064820152608401610856565b6108f783836114ec565b505050565b600080600b838154811061092057634e487b7160e01b600052603260045260246000fd5b60009182526020909120600290910201546001600160a01b03169392505050565b61094b338261155a565b6109675760405162461bcd60e51b81526004016108569061248e565b6108f78383836115d9565b600b818154811061098257600080fd5b6000918252602090912060029091020180546001909101546001600160a01b03909116915082565b60006109b583611173565b8210610a175760405162461bcd60e51b815260206004820152602b60248201527f455243373231456e756d657261626c653a206f776e657220696e646578206f7560448201526a74206f6620626f756e647360a81b6064820152608401610856565b506001600160a01b03919091166000908152600660209081526040808320938352929052205490565b610a48611433565b6000600b8281548110610a6b57634e487b7160e01b600052603260045260246000fd5b6000918252602090912060029091020180546040516370a0823160e01b81523060048201529192506001600160a01b031690819063a9059cbb90339083906370a082319060240160206040518083038186803b158015610aca57600080fd5b505afa158015610ade573d6000803e3d6000fd5b505050506040513d601f19601f82011682018060405250810190610b0291906122a2565b6040516001600160e01b031960e085901b1681526001600160a01b0390921660048301526024820152604401602060405180830381600087803b158015610b4857600080fd5b505af1158015610b5c573d6000803e3d6000fd5b505050506040513d601f19601f82011682018060405250810190610b8091906121f0565b50505050565b6000600b8281548110610ba957634e487b7160e01b600052603260045260246000fd5b600091825260208220600290910201805460018201549193506001600160a01b031691610bd560085490565b60115490915060ff1615610be857600080fd5b60008611610bf557600080fd5b601054861115610c0457600080fd5b600f54610c1187836124dc565b1115610c1c57600080fd5b60015b868111610cda576040516323b872dd60e01b8152336004820152306024820152604481018490526001600160a01b038516906323b872dd90606401602060405180830381600087803b158015610c7457600080fd5b505af1158015610c88573d6000803e3d6000fd5b505050506040513d601f19601f82011682018060405250810190610cac91906121f0565b610cb557600080fd5b610cc888610cc383856124dc565b611780565b80610cd2816125a5565b915050610c1f565b5050505050505050565b610cec611433565b60405133904780156108fc02916000818181858888f19350505050610d1057600080fd5b565b600080600b8381548110610d3657634e487b7160e01b600052603260045260246000fd5b60009182526020909120600160029092020101549392505050565b6000610d5c60085490565b60115490915060ff1615610d6f57600080fd5b60008211610d7c57600080fd5b601054821115610d8b57600080fd5b600f54610d9883836124dc565b1115610da357600080fd5b600a546001600160a01b03163314610e255781600e54610dc39190612508565b3414610e255760405162461bcd60e51b815260206004820152602b60248201527f4e6f7420656e6f7567682062616c616e636520746f20636f6d706c657465207460448201526a3930b739b0b1ba34b7b71760a91b6064820152608401610856565b60015b828111610b8057610e3d84610cc383856124dc565b80610e47816125a5565b915050610e28565b6108f783838360405180602001604052806000815250611232565b60606000610e7783611173565b905060008167ffffffffffffffff811115610ea257634e487b7160e01b600052604160045260246000fd5b604051908082528060200260200182016040528015610ecb578160200160208202803683370190505b50905060005b82811015610f2057610ee385826109aa565b828281518110610f0357634e487b7160e01b600052603260045260246000fd5b602090810291909101015280610f18816125a5565b915050610ed1565b509392505050565b6000610f3360085490565b8210610f965760405162461bcd60e51b815260206004820152602c60248201527f455243373231456e756d657261626c653a20676c6f62616c20696e646578206f60448201526b7574206f6620626f756e647360a01b6064820152608401610856565b60088281548110610fb757634e487b7160e01b600052603260045260246000fd5b90600052602060002001549050919050565b610fd1611433565b8051610fe490600c906020840190611f28565b5050565b6000818152600260205260408120546001600160a01b0316806107075760405162461bcd60e51b8152602060048201526018602482015277115490cdcc8c4e881a5b9d985b1a59081d1bdad95b88125160421b6044820152606401610856565b611050611433565b604080518082019091526001600160a01b03928316815260208101918252600b805460018101825560009190915290517f0175b7a638427703f0dbe7bb9bbf987a2551717b34e79f33b5b1008d1fa01db9600290920291820180546001600160a01b0319169190941617909255517f0175b7a638427703f0dbe7bb9bbf987a2551717b34e79f33b5b1008d1fa01dba90910155565b600c80546110f29061256a565b80601f016020809104026020016040519081016040528092919081815260200182805461111e9061256a565b801561116b5780601f106111405761010080835404028352916020019161116b565b820191906000526020600020905b81548152906001019060200180831161114e57829003601f168201915b505050505081565b60006001600160a01b0382166111dd5760405162461bcd60e51b815260206004820152602960248201527f4552433732313a2061646472657373207a65726f206973206e6f7420612076616044820152683634b21037bbb732b960b91b6064820152608401610856565b506001600160a01b031660009081526003602052604090205490565b611201611433565b610d10600061179a565b611213611433565b601055565b6060600180546107379061256a565b610fe43383836117ec565b61123c338361155a565b6112585760405162461bcd60e51b81526004016108569061248e565b610b80848484846118bb565b600d80546110f29061256a565b6000818152600260205260409020546060906001600160a01b03166112f05760405162461bcd60e51b815260206004820152602f60248201527f4552433732314d657461646174613a2055524920717565727920666f72206e6f60448201526e3732bc34b9ba32b73a103a37b5b2b760891b6064820152608401610856565b60006112fa6118ee565b9050600081511161131a5760405180602001604052806000815250611348565b806113248461190e565b600d604051602001611338939291906122e6565b6040516020818303038152906040525b9392505050565b611357611433565b8051610fe490600d906020840190611f28565b611372611433565b6001600160a01b0381166113d75760405162461bcd60e51b815260206004820152602660248201527f4f776e61626c653a206e6577206f776e657220697320746865207a65726f206160448201526564647265737360d01b6064820152608401610856565b6113e08161179a565b50565b60006001600160e01b031982166380ac58cd60e01b148061141457506001600160e01b03198216635b5e139f60e01b145b8061070757506301ffc9a760e01b6001600160e01b0319831614610707565b600a546001600160a01b03163314610d105760405162461bcd60e51b815260206004820181905260248201527f4f776e61626c653a2063616c6c6572206973206e6f7420746865206f776e65726044820152606401610856565b6000818152600260205260409020546001600160a01b03166113e05760405162461bcd60e51b8152602060048201526018602482015277115490cdcc8c4e881a5b9d985b1a59081d1bdad95b88125160421b6044820152606401610856565b600081815260046020526040902080546001600160a01b0319166001600160a01b038416908117909155819061152182610fe8565b6001600160a01b03167f8c5be1e5ebec7d5bd14f71427d1e84f3dd0314c0f7b2291e5b200ac8c7c3b92560405160405180910390a45050565b60008061156683610fe8565b9050806001600160a01b0316846001600160a01b031614806115ad57506001600160a01b0380821660009081526005602090815260408083209388168352929052205460ff165b806115d15750836001600160a01b03166115c6846107ba565b6001600160a01b0316145b949350505050565b826001600160a01b03166115ec82610fe8565b6001600160a01b0316146116505760405162461bcd60e51b815260206004820152602560248201527f4552433732313a207472616e736665722066726f6d20696e636f72726563742060448201526437bbb732b960d91b6064820152608401610856565b6001600160a01b0382166116b25760405162461bcd60e51b8152602060048201526024808201527f4552433732313a207472616e7366657220746f20746865207a65726f206164646044820152637265737360e01b6064820152608401610856565b6116bd838383611a28565b6116c86000826114ec565b6001600160a01b03831660009081526003602052604081208054600192906116f1908490612527565b90915550506001600160a01b038216600090815260036020526040812080546001929061171f9084906124dc565b909155505060008181526002602052604080822080546001600160a01b0319166001600160a01b0386811691821790925591518493918716917fddf252ad1be2c89b69c2b068fc378daa952ba7f163c4a11628f55a4df523b3ef91a4505050565b610fe4828260405180602001604052806000815250611ae0565b600a80546001600160a01b038381166001600160a01b0319831681179093556040519116919082907f8be0079c531659141344cd1fd0a4f28419497f9722a3daafe3b4186f6b6457e090600090a35050565b816001600160a01b0316836001600160a01b0316141561184e5760405162461bcd60e51b815260206004820152601960248201527f4552433732313a20617070726f766520746f2063616c6c6572000000000000006044820152606401610856565b6001600160a01b03838116600081815260056020908152604080832094871680845294825291829020805460ff191686151590811790915591519182527f17307eab39ab6107e8899845ad3d59bd9653f200f220920489ca2b5937696c31910160405180910390a3505050565b6118c68484846115d9565b6118d284848484611b13565b610b805760405162461bcd60e51b81526004016108569061243c565b60606040518060a001604052806066815260200161265060669139905090565b6060816119325750506040805180820190915260018152600360fc1b602082015290565b8160005b811561195c5780611946816125a5565b91506119559050600a836124f4565b9150611936565b60008167ffffffffffffffff81111561198557634e487b7160e01b600052604160045260246000fd5b6040519080825280601f01601f1916602001820160405280156119af576020820181803683370190505b5090505b84156115d1576119c4600183612527565b91506119d1600a866125c0565b6119dc9060306124dc565b60f81b8183815181106119ff57634e487b7160e01b600052603260045260246000fd5b60200101906001600160f81b031916908160001a905350611a21600a866124f4565b94506119b3565b6001600160a01b038316611a8357611a7e81600880546000838152600960205260408120829055600182018355919091527ff3f7a9fe364faab93b216da50a3214154f22a0a2b415b23a84c8169e8b636ee30155565b611aa6565b816001600160a01b0316836001600160a01b031614611aa657611aa68382611c20565b6001600160a01b038216611abd576108f781611cbd565b826001600160a01b0316826001600160a01b0316146108f7576108f78282611d96565b611aea8383611dda565b611af76000848484611b13565b6108f75760405162461bcd60e51b81526004016108569061243c565b60006001600160a01b0384163b15611c1557604051630a85bd0160e11b81526001600160a01b0385169063150b7a0290611b579033908990889088906004016123a8565b602060405180830381600087803b158015611b7157600080fd5b505af1925050508015611ba1575060408051601f3d908101601f19168201909252611b9e91810190612228565b60015b611bfb573d808015611bcf576040519150601f19603f3d011682016040523d82523d6000602084013e611bd4565b606091505b508051611bf35760405162461bcd60e51b81526004016108569061243c565b805181602001fd5b6001600160e01b031916630a85bd0160e11b1490506115d1565b506001949350505050565b60006001611c2d84611173565b611c379190612527565b600083815260076020526040902054909150808214611c8a576001600160a01b03841660009081526006602090815260408083208584528252808320548484528184208190558352600790915290208190555b5060009182526007602090815260408084208490556001600160a01b039094168352600681528383209183525290812055565b600854600090611ccf90600190612527565b60008381526009602052604081205460088054939450909284908110611d0557634e487b7160e01b600052603260045260246000fd5b906000526020600020015490508060088381548110611d3457634e487b7160e01b600052603260045260246000fd5b6000918252602080832090910192909255828152600990915260408082208490558582528120556008805480611d7a57634e487b7160e01b600052603160045260246000fd5b6001900381819060005260206000200160009055905550505050565b6000611da183611173565b6001600160a01b039093166000908152600660209081526040808320868452825280832085905593825260079052919091209190915550565b6001600160a01b038216611e305760405162461bcd60e51b815260206004820181905260248201527f4552433732313a206d696e7420746f20746865207a65726f20616464726573736044820152606401610856565b6000818152600260205260409020546001600160a01b031615611e955760405162461bcd60e51b815260206004820152601c60248201527f4552433732313a20746f6b656e20616c7265616479206d696e746564000000006044820152606401610856565b611ea160008383611a28565b6001600160a01b0382166000908152600360205260408120805460019290611eca9084906124dc565b909155505060008181526002602052604080822080546001600160a01b0319166001600160a01b03861690811790915590518392907fddf252ad1be2c89b69c2b068fc378daa952ba7f163c4a11628f55a4df523b3ef908290a45050565b828054611f349061256a565b90600052602060002090601f016020900481019282611f565760008555611f9c565b82601f10611f6f57805160ff1916838001178555611f9c565b82800160010185558215611f9c579182015b82811115611f9c578251825591602001919060010190611f81565b50611fa8929150611fac565b5090565b5b80821115611fa85760008155600101611fad565b600067ffffffffffffffff80841115611fdc57611fdc612600565b604051601f8501601f19908116603f0116810190828211818310171561200457612004612600565b8160405280935085815286868601111561201d57600080fd5b858560208301376000602087830101525050509392505050565b600060208284031215612048578081fd5b813561134881612616565b60008060408385031215612065578081fd5b823561207081612616565b9150602083013561208081612616565b809150509250929050565b60008060006060848603121561209f578081fd5b83356120aa81612616565b925060208401356120ba81612616565b929592945050506040919091013590565b600080600080608085870312156120e0578081fd5b84356120eb81612616565b935060208501356120fb81612616565b925060408501359150606085013567ffffffffffffffff81111561211d578182fd5b8501601f8101871361212d578182fd5b61213c87823560208401611fc1565b91505092959194509250565b6000806040838503121561215a578182fd5b823561216581612616565b915060208301356120808161262b565b60008060408385031215612187578182fd5b823561219281612616565b946020939093013593505050565b6000806000606084860312156121b4578283fd5b83356121bf81612616565b95602085013595506040909401359392505050565b6000602082840312156121e5578081fd5b81356113488161262b565b600060208284031215612201578081fd5b81516113488161262b565b60006020828403121561221d578081fd5b813561134881612639565b600060208284031215612239578081fd5b815161134881612639565b600060208284031215612255578081fd5b813567ffffffffffffffff81111561226b578182fd5b8201601f8101841361227b578182fd5b6115d184823560208401611fc1565b60006020828403121561229b578081fd5b5035919050565b6000602082840312156122b3578081fd5b5051919050565b600081518084526122d281602086016020860161253e565b601f01601f19169290920160200192915050565b6000845160206122f98285838a0161253e565b85519184019161230c8184848a0161253e565b85549201918390600181811c908083168061232857607f831692505b85831081141561234657634e487b7160e01b88526022600452602488fd5b80801561235a576001811461236b57612397565b60ff19851688528388019550612397565b60008b815260209020895b8581101561238f5781548a820152908401908801612376565b505083880195505b50939b9a5050505050505050505050565b6001600160a01b03858116825284166020820152604081018390526080606082018190526000906123db908301846122ba565b9695505050505050565b6020808252825182820181905260009190848201906040850190845b8181101561241d57835183529284019291840191600101612401565b50909695505050505050565b60208152600061134860208301846122ba565b60208082526032908201527f4552433732313a207472616e7366657220746f206e6f6e20455243373231526560408201527131b2b4bb32b91034b6b83632b6b2b73a32b960711b606082015260800190565b6020808252602e908201527f4552433732313a2063616c6c6572206973206e6f7420746f6b656e206f776e6560408201526d1c881b9bdc88185c1c1c9bdd995960921b606082015260800190565b600082198211156124ef576124ef6125d4565b500190565b600082612503576125036125ea565b500490565b6000816000190483118215151615612522576125226125d4565b500290565b600082821015612539576125396125d4565b500390565b60005b83811015612559578181015183820152602001612541565b83811115610b805750506000910152565b600181811c9082168061257e57607f821691505b6020821081141561259f57634e487b7160e01b600052602260045260246000fd5b50919050565b60006000198214156125b9576125b96125d4565b5060010190565b6000826125cf576125cf6125ea565b500690565b634e487b7160e01b600052601160045260246000fd5b634e487b7160e01b600052601260045260246000fd5b634e487b7160e01b600052604160045260246000fd5b6001600160a01b03811681146113e057600080fd5b80151581146113e057600080fd5b6001600160e01b0319811681146113e057600080fdfe68747470733a2f2f62616679626569626a7879616d69636c7162377079746537727368666862666f793734696d666f6e35646f356863376270687578326571716475692e697066732e6e667473746f726167652e6c696e6b2f46616e74617379253230253233a26469706673582212207a8afc5aafc47721d9bd7a374c52c0015881c4db567f7fa40f2b3c369d5f340764736f6c63430008040033",
					"opcodes": "PUSH1 0xC0 PUSH1 0x40 MSTORE PUSH1 0x5 PUSH1 0x80 DUP2 SWAP1 MSTORE PUSH5 0x173539B7B7 PUSH1 0xD9 SHL PUSH1 0xA0 SWAP1 DUP2 MSTORE PUSH3 0x28 SWAP2 PUSH1 0xD SWAP2 SWAP1 PUSH3 0x14B JUMP JUMPDEST POP PUSH9 0x56BC75E2D63100000 PUSH1 0xE SSTORE PUSH2 0x2710 PUSH1 0xF SSTORE PUSH2 0x1F4 PUSH1 0x10 SSTORE PUSH1 0x11 DUP1 SLOAD PUSH1 0xFF NOT AND SWAP1 SSTORE CALLVALUE DUP1 ISZERO PUSH3 0x59 JUMPI PUSH1 0x0 DUP1 REVERT JUMPDEST POP PUSH1 0x40 DUP1 MLOAD DUP1 DUP3 ADD DUP3 MSTORE PUSH1 0x13 DUP2 MSTORE PUSH32 0x46616E746173795F436F6C6C656374696F6E7300000000000000000000000000 PUSH1 0x20 DUP1 DUP4 ADD SWAP2 DUP3 MSTORE DUP4 MLOAD DUP1 DUP6 ADD SWAP1 SWAP5 MSTORE PUSH1 0x5 DUP5 MSTORE PUSH5 0x198B5B999D PUSH1 0xDA SHL SWAP1 DUP5 ADD MSTORE DUP2 MLOAD SWAP2 SWAP3 SWAP2 PUSH3 0xBC SWAP2 PUSH1 0x0 SWAP2 PUSH3 0x14B JUMP JUMPDEST POP DUP1 MLOAD PUSH3 0xD2 SWAP1 PUSH1 0x1 SWAP1 PUSH1 0x20 DUP5 ADD SWAP1 PUSH3 0x14B JUMP JUMPDEST POP POP POP PUSH3 0xEF PUSH3 0xE9 PUSH3 0xF5 PUSH1 0x20 SHL PUSH1 0x20 SHR JUMP JUMPDEST PUSH3 0xF9 JUMP JUMPDEST PUSH3 0x22E JUMP JUMPDEST CALLER SWAP1 JUMP JUMPDEST PUSH1 0xA DUP1 SLOAD PUSH1 0x1 PUSH1 0x1 PUSH1 0xA0 SHL SUB DUP4 DUP2 AND PUSH1 0x1 PUSH1 0x1 PUSH1 0xA0 SHL SUB NOT DUP4 AND DUP2 OR SWAP1 SWAP4 SSTORE PUSH1 0x40 MLOAD SWAP2 AND SWAP2 SWAP1 DUP3 SWAP1 PUSH32 0x8BE0079C531659141344CD1FD0A4F28419497F9722A3DAAFE3B4186F6B6457E0 SWAP1 PUSH1 0x0 SWAP1 LOG3 POP POP JUMP JUMPDEST DUP3 DUP1 SLOAD PUSH3 0x159 SWAP1 PUSH3 0x1F1 JUMP JUMPDEST SWAP1 PUSH1 0x0 MSTORE PUSH1 0x20 PUSH1 0x0 KECCAK256 SWAP1 PUSH1 0x1F ADD PUSH1 0x20 SWAP1 DIV DUP2 ADD SWAP3 DUP3 PUSH3 0x17D JUMPI PUSH1 0x0 DUP6 SSTORE PUSH3 0x1C8 JUMP JUMPDEST DUP3 PUSH1 0x1F LT PUSH3 0x198 JUMPI DUP1 MLOAD PUSH1 0xFF NOT AND DUP4 DUP1 ADD OR DUP6 SSTORE PUSH3 0x1C8 JUMP JUMPDEST DUP3 DUP1 ADD PUSH1 0x1 ADD DUP6 SSTORE DUP3 ISZERO PUSH3 0x1C8 JUMPI SWAP2 DUP3 ADD JUMPDEST DUP3 DUP2 GT ISZERO PUSH3 0x1C8 JUMPI DUP3 MLOAD DUP3 SSTORE SWAP2 PUSH1 0x20 ADD SWAP2 SWAP1 PUSH1 0x1 ADD SWAP1 PUSH3 0x1AB JUMP JUMPDEST POP PUSH3 0x1D6 SWAP3 SWAP2 POP PUSH3 0x1DA JUMP JUMPDEST POP SWAP1 JUMP JUMPDEST JUMPDEST DUP1 DUP3 GT ISZERO PUSH3 0x1D6 JUMPI PUSH1 0x0 DUP2 SSTORE PUSH1 0x1 ADD PUSH3 0x1DB JUMP JUMPDEST PUSH1 0x1 DUP2 DUP2 SHR SWAP1 DUP3 AND DUP1 PUSH3 0x206 JUMPI PUSH1 0x7F DUP3 AND SWAP2 POP JUMPDEST PUSH1 0x20 DUP3 LT DUP2 EQ ISZERO PUSH3 0x228 JUMPI PUSH4 0x4E487B71 PUSH1 0xE0 SHL PUSH1 0x0 MSTORE PUSH1 0x22 PUSH1 0x4 MSTORE PUSH1 0x24 PUSH1 0x0 REVERT JUMPDEST POP SWAP2 SWAP1 POP JUMP JUMPDEST PUSH2 0x26EB DUP1 PUSH3 0x23E PUSH1 0x0 CODECOPY PUSH1 0x0 RETURN INVALID PUSH1 0x80 PUSH1 0x40 MSTORE PUSH1 0x4 CALLDATASIZE LT PUSH2 0x225 JUMPI PUSH1 0x0 CALLDATALOAD PUSH1 0xE0 SHR DUP1 PUSH4 0x4F6CCCE7 GT PUSH2 0x123 JUMPI DUP1 PUSH4 0x8DA5CB5B GT PUSH2 0xAB JUMPI DUP1 PUSH4 0xC87B56DD GT PUSH2 0x6F JUMPI DUP1 PUSH4 0xC87B56DD EQ PUSH2 0x623 JUMPI DUP1 PUSH4 0xD5ABEB01 EQ PUSH2 0x643 JUMPI DUP1 PUSH4 0xDA3EF23F EQ PUSH2 0x659 JUMPI DUP1 PUSH4 0xE985E9C5 EQ PUSH2 0x679 JUMPI DUP1 PUSH4 0xF2FDE38B EQ PUSH2 0x6C2 JUMPI PUSH1 0x0 DUP1 REVERT JUMPDEST DUP1 PUSH4 0x8DA5CB5B EQ PUSH2 0x59B JUMPI DUP1 PUSH4 0x95D89B41 EQ PUSH2 0x5B9 JUMPI DUP1 PUSH4 0xA22CB465 EQ PUSH2 0x5CE JUMPI DUP1 PUSH4 0xB88D4FDE EQ PUSH2 0x5EE JUMPI DUP1 PUSH4 0xC6682862 EQ PUSH2 0x60E JUMPI PUSH1 0x0 DUP1 REVERT JUMPDEST DUP1 PUSH4 0x690E4FC3 GT PUSH2 0xF2 JUMPI DUP1 PUSH4 0x690E4FC3 EQ PUSH2 0x511 JUMPI DUP1 PUSH4 0x6C0360EB EQ PUSH2 0x531 JUMPI DUP1 PUSH4 0x70A08231 EQ PUSH2 0x546 JUMPI DUP1 PUSH4 0x715018A6 EQ PUSH2 0x566 JUMPI DUP1 PUSH4 0x7F00C7A6 EQ PUSH2 0x57B JUMPI PUSH1 0x0 DUP1 REVERT JUMPDEST DUP1 PUSH4 0x4F6CCCE7 EQ PUSH2 0x497 JUMPI DUP1 PUSH4 0x55F804B3 EQ PUSH2 0x4B7 JUMPI DUP1 PUSH4 0x5C975ABB EQ PUSH2 0x4D7 JUMPI DUP1 PUSH4 0x6352211E EQ PUSH2 0x4F1 JUMPI PUSH1 0x0 DUP1 REVERT JUMPDEST DUP1 PUSH4 0x23B872DD GT PUSH2 0x1B1 JUMPI DUP1 PUSH4 0x3CCFD60B GT PUSH2 0x175 JUMPI DUP1 PUSH4 0x3CCFD60B EQ PUSH2 0x40F JUMPI DUP1 PUSH4 0x3D3D5508 EQ PUSH2 0x417 JUMPI DUP1 PUSH4 0x40C10F19 EQ PUSH2 0x437 JUMPI DUP1 PUSH4 0x42842E0E EQ PUSH2 0x44A JUMPI DUP1 PUSH4 0x438B6300 EQ PUSH2 0x46A JUMPI PUSH1 0x0 DUP1 REVERT JUMPDEST DUP1 PUSH4 0x23B872DD EQ PUSH2 0x36A JUMPI DUP1 PUSH4 0x26C91CAD EQ PUSH2 0x38A JUMPI DUP1 PUSH4 0x2F745C59 EQ PUSH2 0x3C9 JUMPI DUP1 PUSH4 0x34CC5DCA EQ PUSH2 0x3E9 JUMPI DUP1 PUSH4 0x356911B4 EQ PUSH2 0x3FC JUMPI PUSH1 0x0 DUP1 REVERT JUMPDEST DUP1 PUSH4 0x95EA7B3 GT PUSH2 0x1F8 JUMPI DUP1 PUSH4 0x95EA7B3 EQ PUSH2 0x2DB JUMPI DUP1 PUSH4 0xC75AFAB EQ PUSH2 0x2FB JUMPI DUP1 PUSH4 0x13FAEDE6 EQ PUSH2 0x31B JUMPI DUP1 PUSH4 0x18160DDD EQ PUSH2 0x33F JUMPI DUP1 PUSH4 0x239C70AE EQ PUSH2 0x354 JUMPI PUSH1 0x0 DUP1 REVERT JUMPDEST DUP1 PUSH4 0x1FFC9A7 EQ PUSH2 0x22A JUMPI DUP1 PUSH4 0x2329A29 EQ PUSH2 0x25F JUMPI DUP1 PUSH4 0x6FDDE03 EQ PUSH2 0x281 JUMPI DUP1 PUSH4 0x81812FC EQ PUSH2 0x2A3 JUMPI JUMPDEST PUSH1 0x0 DUP1 REVERT JUMPDEST CALLVALUE DUP1 ISZERO PUSH2 0x236 JUMPI PUSH1 0x0 DUP1 REVERT JUMPDEST POP PUSH2 0x24A PUSH2 0x245 CALLDATASIZE PUSH1 0x4 PUSH2 0x220C JUMP JUMPDEST PUSH2 0x6E2 JUMP JUMPDEST PUSH1 0x40 MLOAD SWAP1 ISZERO ISZERO DUP2 MSTORE PUSH1 0x20 ADD JUMPDEST PUSH1 0x40 MLOAD DUP1 SWAP2 SUB SWAP1 RETURN JUMPDEST CALLVALUE DUP1 ISZERO PUSH2 0x26B JUMPI PUSH1 0x0 DUP1 REVERT JUMPDEST POP PUSH2 0x27F PUSH2 0x27A CALLDATASIZE PUSH1 0x4 PUSH2 0x21D4 JUMP JUMPDEST PUSH2 0x70D JUMP JUMPDEST STOP JUMPDEST CALLVALUE DUP1 ISZERO PUSH2 0x28D JUMPI PUSH1 0x0 DUP1 REVERT JUMPDEST POP PUSH2 0x296 PUSH2 0x728 JUMP JUMPDEST PUSH1 0x40 MLOAD PUSH2 0x256 SWAP2 SWAP1 PUSH2 0x2429 JUMP JUMPDEST CALLVALUE DUP1 ISZERO PUSH2 0x2AF JUMPI PUSH1 0x0 DUP1 REVERT JUMPDEST POP PUSH2 0x2C3 PUSH2 0x2BE CALLDATASIZE PUSH1 0x4 PUSH2 0x228A JUMP JUMPDEST PUSH2 0x7BA JUMP JUMPDEST PUSH1 0x40 MLOAD PUSH1 0x1 PUSH1 0x1 PUSH1 0xA0 SHL SUB SWAP1 SWAP2 AND DUP2 MSTORE PUSH1 0x20 ADD PUSH2 0x256 JUMP JUMPDEST CALLVALUE DUP1 ISZERO PUSH2 0x2E7 JUMPI PUSH1 0x0 DUP1 REVERT JUMPDEST POP PUSH2 0x27F PUSH2 0x2F6 CALLDATASIZE PUSH1 0x4 PUSH2 0x2175 JUMP JUMPDEST PUSH2 0x7E1 JUMP JUMPDEST CALLVALUE DUP1 ISZERO PUSH2 0x307 JUMPI PUSH1 0x0 DUP1 REVERT JUMPDEST POP PUSH2 0x2C3 PUSH2 0x316 CALLDATASIZE PUSH1 0x4 PUSH2 0x228A JUMP JUMPDEST PUSH2 0x8FC JUMP JUMPDEST CALLVALUE DUP1 ISZERO PUSH2 0x327 JUMPI PUSH1 0x0 DUP1 REVERT JUMPDEST POP PUSH2 0x331 PUSH1 0xE SLOAD DUP2 JUMP JUMPDEST PUSH1 0x40 MLOAD SWAP1 DUP2 MSTORE PUSH1 0x20 ADD PUSH2 0x256 JUMP JUMPDEST CALLVALUE DUP1 ISZERO PUSH2 0x34B JUMPI PUSH1 0x0 DUP1 REVERT JUMPDEST POP PUSH1 0x8 SLOAD PUSH2 0x331 JUMP JUMPDEST CALLVALUE DUP1 ISZERO PUSH2 0x360 JUMPI PUSH1 0x0 DUP1 REVERT JUMPDEST POP PUSH2 0x331 PUSH1 0x10 SLOAD DUP2 JUMP JUMPDEST CALLVALUE DUP1 ISZERO PUSH2 0x376 JUMPI PUSH1 0x0 DUP1 REVERT JUMPDEST POP PUSH2 0x27F PUSH2 0x385 CALLDATASIZE PUSH1 0x4 PUSH2 0x208B JUMP JUMPDEST PUSH2 0x941 JUMP JUMPDEST CALLVALUE DUP1 ISZERO PUSH2 0x396 JUMPI PUSH1 0x0 DUP1 REVERT JUMPDEST POP PUSH2 0x3AA PUSH2 0x3A5 CALLDATASIZE PUSH1 0x4 PUSH2 0x228A JUMP JUMPDEST PUSH2 0x972 JUMP JUMPDEST PUSH1 0x40 DUP1 MLOAD PUSH1 0x1 PUSH1 0x1 PUSH1 0xA0 SHL SUB SWAP1 SWAP4 AND DUP4 MSTORE PUSH1 0x20 DUP4 ADD SWAP2 SWAP1 SWAP2 MSTORE ADD PUSH2 0x256 JUMP JUMPDEST CALLVALUE DUP1 ISZERO PUSH2 0x3D5 JUMPI PUSH1 0x0 DUP1 REVERT JUMPDEST POP PUSH2 0x331 PUSH2 0x3E4 CALLDATASIZE PUSH1 0x4 PUSH2 0x2175 JUMP JUMPDEST PUSH2 0x9AA JUMP JUMPDEST PUSH2 0x27F PUSH2 0x3F7 CALLDATASIZE PUSH1 0x4 PUSH2 0x228A JUMP JUMPDEST PUSH2 0xA40 JUMP JUMPDEST PUSH2 0x27F PUSH2 0x40A CALLDATASIZE PUSH1 0x4 PUSH2 0x21A0 JUMP JUMPDEST PUSH2 0xB86 JUMP JUMPDEST PUSH2 0x27F PUSH2 0xCE4 JUMP JUMPDEST CALLVALUE DUP1 ISZERO PUSH2 0x423 JUMPI PUSH1 0x0 DUP1 REVERT JUMPDEST POP PUSH2 0x331 PUSH2 0x432 CALLDATASIZE PUSH1 0x4 PUSH2 0x228A JUMP JUMPDEST PUSH2 0xD12 JUMP JUMPDEST PUSH2 0x27F PUSH2 0x445 CALLDATASIZE PUSH1 0x4 PUSH2 0x2175 JUMP JUMPDEST PUSH2 0xD51 JUMP JUMPDEST CALLVALUE DUP1 ISZERO PUSH2 0x456 JUMPI PUSH1 0x0 DUP1 REVERT JUMPDEST POP PUSH2 0x27F PUSH2 0x465 CALLDATASIZE PUSH1 0x4 PUSH2 0x208B JUMP JUMPDEST PUSH2 0xE4F JUMP JUMPDEST CALLVALUE DUP1 ISZERO PUSH2 0x476 JUMPI PUSH1 0x0 DUP1 REVERT JUMPDEST POP PUSH2 0x48A PUSH2 0x485 CALLDATASIZE PUSH1 0x4 PUSH2 0x2037 JUMP JUMPDEST PUSH2 0xE6A JUMP JUMPDEST PUSH1 0x40 MLOAD PUSH2 0x256 SWAP2 SWAP1 PUSH2 0x23E5 JUMP JUMPDEST CALLVALUE DUP1 ISZERO PUSH2 0x4A3 JUMPI PUSH1 0x0 DUP1 REVERT JUMPDEST POP PUSH2 0x331 PUSH2 0x4B2 CALLDATASIZE PUSH1 0x4 PUSH2 0x228A JUMP JUMPDEST PUSH2 0xF28 JUMP JUMPDEST CALLVALUE DUP1 ISZERO PUSH2 0x4C3 JUMPI PUSH1 0x0 DUP1 REVERT JUMPDEST POP PUSH2 0x27F PUSH2 0x4D2 CALLDATASIZE PUSH1 0x4 PUSH2 0x2244 JUMP JUMPDEST PUSH2 0xFC9 JUMP JUMPDEST CALLVALUE DUP1 ISZERO PUSH2 0x4E3 JUMPI PUSH1 0x0 DUP1 REVERT JUMPDEST POP PUSH1 0x11 SLOAD PUSH2 0x24A SWAP1 PUSH1 0xFF AND DUP2 JUMP JUMPDEST CALLVALUE DUP1 ISZERO PUSH2 0x4FD JUMPI PUSH1 0x0 DUP1 REVERT JUMPDEST POP PUSH2 0x2C3 PUSH2 0x50C CALLDATASIZE PUSH1 0x4 PUSH2 0x228A JUMP JUMPDEST PUSH2 0xFE8 JUMP JUMPDEST CALLVALUE DUP1 ISZERO PUSH2 0x51D JUMPI PUSH1 0x0 DUP1 REVERT JUMPDEST POP PUSH2 0x27F PUSH2 0x52C CALLDATASIZE PUSH1 0x4 PUSH2 0x2175 JUMP JUMPDEST PUSH2 0x1048 JUMP JUMPDEST CALLVALUE DUP1 ISZERO PUSH2 0x53D JUMPI PUSH1 0x0 DUP1 REVERT JUMPDEST POP PUSH2 0x296 PUSH2 0x10E5 JUMP JUMPDEST CALLVALUE DUP1 ISZERO PUSH2 0x552 JUMPI PUSH1 0x0 DUP1 REVERT JUMPDEST POP PUSH2 0x331 PUSH2 0x561 CALLDATASIZE PUSH1 0x4 PUSH2 0x2037 JUMP JUMPDEST PUSH2 0x1173 JUMP JUMPDEST CALLVALUE DUP1 ISZERO PUSH2 0x572 JUMPI PUSH1 0x0 DUP1 REVERT JUMPDEST POP PUSH2 0x27F PUSH2 0x11F9 JUMP JUMPDEST CALLVALUE DUP1 ISZERO PUSH2 0x587 JUMPI PUSH1 0x0 DUP1 REVERT JUMPDEST POP PUSH2 0x27F PUSH2 0x596 CALLDATASIZE PUSH1 0x4 PUSH2 0x228A JUMP JUMPDEST PUSH2 0x120B JUMP JUMPDEST CALLVALUE DUP1 ISZERO PUSH2 0x5A7 JUMPI PUSH1 0x0 DUP1 REVERT JUMPDEST POP PUSH1 0xA SLOAD PUSH1 0x1 PUSH1 0x1 PUSH1 0xA0 SHL SUB AND PUSH2 0x2C3 JUMP JUMPDEST CALLVALUE DUP1 ISZERO PUSH2 0x5C5 JUMPI PUSH1 0x0 DUP1 REVERT JUMPDEST POP PUSH2 0x296 PUSH2 0x1218 JUMP JUMPDEST CALLVALUE DUP1 ISZERO PUSH2 0x5DA JUMPI PUSH1 0x0 DUP1 REVERT JUMPDEST POP PUSH2 0x27F PUSH2 0x5E9 CALLDATASIZE PUSH1 0x4 PUSH2 0x2148 JUMP JUMPDEST PUSH2 0x1227 JUMP JUMPDEST CALLVALUE DUP1 ISZERO PUSH2 0x5FA JUMPI PUSH1 0x0 DUP1 REVERT JUMPDEST POP PUSH2 0x27F PUSH2 0x609 CALLDATASIZE PUSH1 0x4 PUSH2 0x20CB JUMP JUMPDEST PUSH2 0x1232 JUMP JUMPDEST CALLVALUE DUP1 ISZERO PUSH2 0x61A JUMPI PUSH1 0x0 DUP1 REVERT JUMPDEST POP PUSH2 0x296 PUSH2 0x1264 JUMP JUMPDEST CALLVALUE DUP1 ISZERO PUSH2 0x62F JUMPI PUSH1 0x0 DUP1 REVERT JUMPDEST POP PUSH2 0x296 PUSH2 0x63E CALLDATASIZE PUSH1 0x4 PUSH2 0x228A JUMP JUMPDEST PUSH2 0x1271 JUMP JUMPDEST CALLVALUE DUP1 ISZERO PUSH2 0x64F JUMPI PUSH1 0x0 DUP1 REVERT JUMPDEST POP PUSH2 0x331 PUSH1 0xF SLOAD DUP2 JUMP JUMPDEST CALLVALUE DUP1 ISZERO PUSH2 0x665 JUMPI PUSH1 0x0 DUP1 REVERT JUMPDEST POP PUSH2 0x27F PUSH2 0x674 CALLDATASIZE PUSH1 0x4 PUSH2 0x2244 JUMP JUMPDEST PUSH2 0x134F JUMP JUMPDEST CALLVALUE DUP1 ISZERO PUSH2 0x685 JUMPI PUSH1 0x0 DUP1 REVERT JUMPDEST POP PUSH2 0x24A PUSH2 0x694 CALLDATASIZE PUSH1 0x4 PUSH2 0x2053 JUMP JUMPDEST PUSH1 0x1 PUSH1 0x1 PUSH1 0xA0 SHL SUB SWAP2 DUP3 AND PUSH1 0x0 SWAP1 DUP2 MSTORE PUSH1 0x5 PUSH1 0x20 SWAP1 DUP2 MSTORE PUSH1 0x40 DUP1 DUP4 KECCAK256 SWAP4 SWAP1 SWAP5 AND DUP3 MSTORE SWAP2 SWAP1 SWAP2 MSTORE KECCAK256 SLOAD PUSH1 0xFF AND SWAP1 JUMP JUMPDEST CALLVALUE DUP1 ISZERO PUSH2 0x6CE JUMPI PUSH1 0x0 DUP1 REVERT JUMPDEST POP PUSH2 0x27F PUSH2 0x6DD CALLDATASIZE PUSH1 0x4 PUSH2 0x2037 JUMP JUMPDEST PUSH2 0x136A JUMP JUMPDEST PUSH1 0x0 PUSH1 0x1 PUSH1 0x1 PUSH1 0xE0 SHL SUB NOT DUP3 AND PUSH4 0x780E9D63 PUSH1 0xE0 SHL EQ DUP1 PUSH2 0x707 JUMPI POP PUSH2 0x707 DUP3 PUSH2 0x13E3 JUMP JUMPDEST SWAP3 SWAP2 POP POP JUMP JUMPDEST PUSH2 0x715 PUSH2 0x1433 JUMP JUMPDEST PUSH1 0x11 DUP1 SLOAD PUSH1 0xFF NOT AND SWAP2 ISZERO ISZERO SWAP2 SWAP1 SWAP2 OR SWAP1 SSTORE JUMP JUMPDEST PUSH1 0x60 PUSH1 0x0 DUP1 SLOAD PUSH2 0x737 SWAP1 PUSH2 0x256A JUMP JUMPDEST DUP1 PUSH1 0x1F ADD PUSH1 0x20 DUP1 SWAP2 DIV MUL PUSH1 0x20 ADD PUSH1 0x40 MLOAD SWAP1 DUP2 ADD PUSH1 0x40 MSTORE DUP1 SWAP3 SWAP2 SWAP1 DUP2 DUP2 MSTORE PUSH1 0x20 ADD DUP3 DUP1 SLOAD PUSH2 0x763 SWAP1 PUSH2 0x256A JUMP JUMPDEST DUP1 ISZERO PUSH2 0x7B0 JUMPI DUP1 PUSH1 0x1F LT PUSH2 0x785 JUMPI PUSH2 0x100 DUP1 DUP4 SLOAD DIV MUL DUP4 MSTORE SWAP2 PUSH1 0x20 ADD SWAP2 PUSH2 0x7B0 JUMP JUMPDEST DUP3 ADD SWAP2 SWAP1 PUSH1 0x0 MSTORE PUSH1 0x20 PUSH1 0x0 KECCAK256 SWAP1 JUMPDEST DUP2 SLOAD DUP2 MSTORE SWAP1 PUSH1 0x1 ADD SWAP1 PUSH1 0x20 ADD DUP1 DUP4 GT PUSH2 0x793 JUMPI DUP3 SWAP1 SUB PUSH1 0x1F AND DUP3 ADD SWAP2 JUMPDEST POP POP POP POP POP SWAP1 POP SWAP1 JUMP JUMPDEST PUSH1 0x0 PUSH2 0x7C5 DUP3 PUSH2 0x148D JUMP JUMPDEST POP PUSH1 0x0 SWAP1 DUP2 MSTORE PUSH1 0x4 PUSH1 0x20 MSTORE PUSH1 0x40 SWAP1 KECCAK256 SLOAD PUSH1 0x1 PUSH1 0x1 PUSH1 0xA0 SHL SUB AND SWAP1 JUMP JUMPDEST PUSH1 0x0 PUSH2 0x7EC DUP3 PUSH2 0xFE8 JUMP JUMPDEST SWAP1 POP DUP1 PUSH1 0x1 PUSH1 0x1 PUSH1 0xA0 SHL SUB AND DUP4 PUSH1 0x1 PUSH1 0x1 PUSH1 0xA0 SHL SUB AND EQ ISZERO PUSH2 0x85F JUMPI PUSH1 0x40 MLOAD PUSH3 0x461BCD PUSH1 0xE5 SHL DUP2 MSTORE PUSH1 0x20 PUSH1 0x4 DUP3 ADD MSTORE PUSH1 0x21 PUSH1 0x24 DUP3 ADD MSTORE PUSH32 0x4552433732313A20617070726F76616C20746F2063757272656E74206F776E65 PUSH1 0x44 DUP3 ADD MSTORE PUSH1 0x39 PUSH1 0xF9 SHL PUSH1 0x64 DUP3 ADD MSTORE PUSH1 0x84 ADD JUMPDEST PUSH1 0x40 MLOAD DUP1 SWAP2 SUB SWAP1 REVERT JUMPDEST CALLER PUSH1 0x1 PUSH1 0x1 PUSH1 0xA0 SHL SUB DUP3 AND EQ DUP1 PUSH2 0x87B JUMPI POP PUSH2 0x87B DUP2 CALLER PUSH2 0x694 JUMP JUMPDEST PUSH2 0x8ED JUMPI PUSH1 0x40 MLOAD PUSH3 0x461BCD PUSH1 0xE5 SHL DUP2 MSTORE PUSH1 0x20 PUSH1 0x4 DUP3 ADD MSTORE PUSH1 0x3E PUSH1 0x24 DUP3 ADD MSTORE PUSH32 0x4552433732313A20617070726F76652063616C6C6572206973206E6F7420746F PUSH1 0x44 DUP3 ADD MSTORE PUSH32 0x6B656E206F776E6572206E6F7220617070726F76656420666F7220616C6C0000 PUSH1 0x64 DUP3 ADD MSTORE PUSH1 0x84 ADD PUSH2 0x856 JUMP JUMPDEST PUSH2 0x8F7 DUP4 DUP4 PUSH2 0x14EC JUMP JUMPDEST POP POP POP JUMP JUMPDEST PUSH1 0x0 DUP1 PUSH1 0xB DUP4 DUP2 SLOAD DUP2 LT PUSH2 0x920 JUMPI PUSH4 0x4E487B71 PUSH1 0xE0 SHL PUSH1 0x0 MSTORE PUSH1 0x32 PUSH1 0x4 MSTORE PUSH1 0x24 PUSH1 0x0 REVERT JUMPDEST PUSH1 0x0 SWAP2 DUP3 MSTORE PUSH1 0x20 SWAP1 SWAP2 KECCAK256 PUSH1 0x2 SWAP1 SWAP2 MUL ADD SLOAD PUSH1 0x1 PUSH1 0x1 PUSH1 0xA0 SHL SUB AND SWAP4 SWAP3 POP POP POP JUMP JUMPDEST PUSH2 0x94B CALLER DUP3 PUSH2 0x155A JUMP JUMPDEST PUSH2 0x967 JUMPI PUSH1 0x40 MLOAD PUSH3 0x461BCD PUSH1 0xE5 SHL DUP2 MSTORE PUSH1 0x4 ADD PUSH2 0x856 SWAP1 PUSH2 0x248E JUMP JUMPDEST PUSH2 0x8F7 DUP4 DUP4 DUP4 PUSH2 0x15D9 JUMP JUMPDEST PUSH1 0xB DUP2 DUP2 SLOAD DUP2 LT PUSH2 0x982 JUMPI PUSH1 0x0 DUP1 REVERT JUMPDEST PUSH1 0x0 SWAP2 DUP3 MSTORE PUSH1 0x20 SWAP1 SWAP2 KECCAK256 PUSH1 0x2 SWAP1 SWAP2 MUL ADD DUP1 SLOAD PUSH1 0x1 SWAP1 SWAP2 ADD SLOAD PUSH1 0x1 PUSH1 0x1 PUSH1 0xA0 SHL SUB SWAP1 SWAP2 AND SWAP2 POP DUP3 JUMP JUMPDEST PUSH1 0x0 PUSH2 0x9B5 DUP4 PUSH2 0x1173 JUMP JUMPDEST DUP3 LT PUSH2 0xA17 JUMPI PUSH1 0x40 MLOAD PUSH3 0x461BCD PUSH1 0xE5 SHL DUP2 MSTORE PUSH1 0x20 PUSH1 0x4 DUP3 ADD MSTORE PUSH1 0x2B PUSH1 0x24 DUP3 ADD MSTORE PUSH32 0x455243373231456E756D657261626C653A206F776E657220696E646578206F75 PUSH1 0x44 DUP3 ADD MSTORE PUSH11 0x74206F6620626F756E6473 PUSH1 0xA8 SHL PUSH1 0x64 DUP3 ADD MSTORE PUSH1 0x84 ADD PUSH2 0x856 JUMP JUMPDEST POP PUSH1 0x1 PUSH1 0x1 PUSH1 0xA0 SHL SUB SWAP2 SWAP1 SWAP2 AND PUSH1 0x0 SWAP1 DUP2 MSTORE PUSH1 0x6 PUSH1 0x20 SWAP1 DUP2 MSTORE PUSH1 0x40 DUP1 DUP4 KECCAK256 SWAP4 DUP4 MSTORE SWAP3 SWAP1 MSTORE KECCAK256 SLOAD SWAP1 JUMP JUMPDEST PUSH2 0xA48 PUSH2 0x1433 JUMP JUMPDEST PUSH1 0x0 PUSH1 0xB DUP3 DUP2 SLOAD DUP2 LT PUSH2 0xA6B JUMPI PUSH4 0x4E487B71 PUSH1 0xE0 SHL PUSH1 0x0 MSTORE PUSH1 0x32 PUSH1 0x4 MSTORE PUSH1 0x24 PUSH1 0x0 REVERT JUMPDEST PUSH1 0x0 SWAP2 DUP3 MSTORE PUSH1 0x20 SWAP1 SWAP2 KECCAK256 PUSH1 0x2 SWAP1 SWAP2 MUL ADD DUP1 SLOAD PUSH1 0x40 MLOAD PUSH4 0x70A08231 PUSH1 0xE0 SHL DUP2 MSTORE ADDRESS PUSH1 0x4 DUP3 ADD MSTORE SWAP2 SWAP3 POP PUSH1 0x1 PUSH1 0x1 PUSH1 0xA0 SHL SUB AND SWAP1 DUP2 SWAP1 PUSH4 0xA9059CBB SWAP1 CALLER SWAP1 DUP4 SWAP1 PUSH4 0x70A08231 SWAP1 PUSH1 0x24 ADD PUSH1 0x20 PUSH1 0x40 MLOAD DUP1 DUP4 SUB DUP2 DUP7 DUP1 EXTCODESIZE ISZERO DUP1 ISZERO PUSH2 0xACA JUMPI PUSH1 0x0 DUP1 REVERT JUMPDEST POP GAS STATICCALL ISZERO DUP1 ISZERO PUSH2 0xADE JUMPI RETURNDATASIZE PUSH1 0x0 DUP1 RETURNDATACOPY RETURNDATASIZE PUSH1 0x0 REVERT JUMPDEST POP POP POP POP PUSH1 0x40 MLOAD RETURNDATASIZE PUSH1 0x1F NOT PUSH1 0x1F DUP3 ADD AND DUP3 ADD DUP1 PUSH1 0x40 MSTORE POP DUP2 ADD SWAP1 PUSH2 0xB02 SWAP2 SWAP1 PUSH2 0x22A2 JUMP JUMPDEST PUSH1 0x40 MLOAD PUSH1 0x1 PUSH1 0x1 PUSH1 0xE0 SHL SUB NOT PUSH1 0xE0 DUP6 SWAP1 SHL AND DUP2 MSTORE PUSH1 0x1 PUSH1 0x1 PUSH1 0xA0 SHL SUB SWAP1 SWAP3 AND PUSH1 0x4 DUP4 ADD MSTORE PUSH1 0x24 DUP3 ADD MSTORE PUSH1 0x44 ADD PUSH1 0x20 PUSH1 0x40 MLOAD DUP1 DUP4 SUB DUP2 PUSH1 0x0 DUP8 DUP1 EXTCODESIZE ISZERO DUP1 ISZERO PUSH2 0xB48 JUMPI PUSH1 0x0 DUP1 REVERT JUMPDEST POP GAS CALL ISZERO DUP1 ISZERO PUSH2 0xB5C JUMPI RETURNDATASIZE PUSH1 0x0 DUP1 RETURNDATACOPY RETURNDATASIZE PUSH1 0x0 REVERT JUMPDEST POP POP POP POP PUSH1 0x40 MLOAD RETURNDATASIZE PUSH1 0x1F NOT PUSH1 0x1F DUP3 ADD AND DUP3 ADD DUP1 PUSH1 0x40 MSTORE POP DUP2 ADD SWAP1 PUSH2 0xB80 SWAP2 SWAP1 PUSH2 0x21F0 JUMP JUMPDEST POP POP POP POP JUMP JUMPDEST PUSH1 0x0 PUSH1 0xB DUP3 DUP2 SLOAD DUP2 LT PUSH2 0xBA9 JUMPI PUSH4 0x4E487B71 PUSH1 0xE0 SHL PUSH1 0x0 MSTORE PUSH1 0x32 PUSH1 0x4 MSTORE PUSH1 0x24 PUSH1 0x0 REVERT JUMPDEST PUSH1 0x0 SWAP2 DUP3 MSTORE PUSH1 0x20 DUP3 KECCAK256 PUSH1 0x2 SWAP1 SWAP2 MUL ADD DUP1 SLOAD PUSH1 0x1 DUP3 ADD SLOAD SWAP2 SWAP4 POP PUSH1 0x1 PUSH1 0x1 PUSH1 0xA0 SHL SUB AND SWAP2 PUSH2 0xBD5 PUSH1 0x8 SLOAD SWAP1 JUMP JUMPDEST PUSH1 0x11 SLOAD SWAP1 SWAP2 POP PUSH1 0xFF AND ISZERO PUSH2 0xBE8 JUMPI PUSH1 0x0 DUP1 REVERT JUMPDEST PUSH1 0x0 DUP7 GT PUSH2 0xBF5 JUMPI PUSH1 0x0 DUP1 REVERT JUMPDEST PUSH1 0x10 SLOAD DUP7 GT ISZERO PUSH2 0xC04 JUMPI PUSH1 0x0 DUP1 REVERT JUMPDEST PUSH1 0xF SLOAD PUSH2 0xC11 DUP8 DUP4 PUSH2 0x24DC JUMP JUMPDEST GT ISZERO PUSH2 0xC1C JUMPI PUSH1 0x0 DUP1 REVERT JUMPDEST PUSH1 0x1 JUMPDEST DUP7 DUP2 GT PUSH2 0xCDA JUMPI PUSH1 0x40 MLOAD PUSH4 0x23B872DD PUSH1 0xE0 SHL DUP2 MSTORE CALLER PUSH1 0x4 DUP3 ADD MSTORE ADDRESS PUSH1 0x24 DUP3 ADD MSTORE PUSH1 0x44 DUP2 ADD DUP5 SWAP1 MSTORE PUSH1 0x1 PUSH1 0x1 PUSH1 0xA0 SHL SUB DUP6 AND SWAP1 PUSH4 0x23B872DD SWAP1 PUSH1 0x64 ADD PUSH1 0x20 PUSH1 0x40 MLOAD DUP1 DUP4 SUB DUP2 PUSH1 0x0 DUP8 DUP1 EXTCODESIZE ISZERO DUP1 ISZERO PUSH2 0xC74 JUMPI PUSH1 0x0 DUP1 REVERT JUMPDEST POP GAS CALL ISZERO DUP1 ISZERO PUSH2 0xC88 JUMPI RETURNDATASIZE PUSH1 0x0 DUP1 RETURNDATACOPY RETURNDATASIZE PUSH1 0x0 REVERT JUMPDEST POP POP POP POP PUSH1 0x40 MLOAD RETURNDATASIZE PUSH1 0x1F NOT PUSH1 0x1F DUP3 ADD AND DUP3 ADD DUP1 PUSH1 0x40 MSTORE POP DUP2 ADD SWAP1 PUSH2 0xCAC SWAP2 SWAP1 PUSH2 0x21F0 JUMP JUMPDEST PUSH2 0xCB5 JUMPI PUSH1 0x0 DUP1 REVERT JUMPDEST PUSH2 0xCC8 DUP9 PUSH2 0xCC3 DUP4 DUP6 PUSH2 0x24DC JUMP JUMPDEST PUSH2 0x1780 JUMP JUMPDEST DUP1 PUSH2 0xCD2 DUP2 PUSH2 0x25A5 JUMP JUMPDEST SWAP2 POP POP PUSH2 0xC1F JUMP JUMPDEST POP POP POP POP POP POP POP POP JUMP JUMPDEST PUSH2 0xCEC PUSH2 0x1433 JUMP JUMPDEST PUSH1 0x40 MLOAD CALLER SWAP1 SELFBALANCE DUP1 ISZERO PUSH2 0x8FC MUL SWAP2 PUSH1 0x0 DUP2 DUP2 DUP2 DUP6 DUP9 DUP9 CALL SWAP4 POP POP POP POP PUSH2 0xD10 JUMPI PUSH1 0x0 DUP1 REVERT JUMPDEST JUMP JUMPDEST PUSH1 0x0 DUP1 PUSH1 0xB DUP4 DUP2 SLOAD DUP2 LT PUSH2 0xD36 JUMPI PUSH4 0x4E487B71 PUSH1 0xE0 SHL PUSH1 0x0 MSTORE PUSH1 0x32 PUSH1 0x4 MSTORE PUSH1 0x24 PUSH1 0x0 REVERT JUMPDEST PUSH1 0x0 SWAP2 DUP3 MSTORE PUSH1 0x20 SWAP1 SWAP2 KECCAK256 PUSH1 0x1 PUSH1 0x2 SWAP1 SWAP3 MUL ADD ADD SLOAD SWAP4 SWAP3 POP POP POP JUMP JUMPDEST PUSH1 0x0 PUSH2 0xD5C PUSH1 0x8 SLOAD SWAP1 JUMP JUMPDEST PUSH1 0x11 SLOAD SWAP1 SWAP2 POP PUSH1 0xFF AND ISZERO PUSH2 0xD6F JUMPI PUSH1 0x0 DUP1 REVERT JUMPDEST PUSH1 0x0 DUP3 GT PUSH2 0xD7C JUMPI PUSH1 0x0 DUP1 REVERT JUMPDEST PUSH1 0x10 SLOAD DUP3 GT ISZERO PUSH2 0xD8B JUMPI PUSH1 0x0 DUP1 REVERT JUMPDEST PUSH1 0xF SLOAD PUSH2 0xD98 DUP4 DUP4 PUSH2 0x24DC JUMP JUMPDEST GT ISZERO PUSH2 0xDA3 JUMPI PUSH1 0x0 DUP1 REVERT JUMPDEST PUSH1 0xA SLOAD PUSH1 0x1 PUSH1 0x1 PUSH1 0xA0 SHL SUB AND CALLER EQ PUSH2 0xE25 JUMPI DUP2 PUSH1 0xE SLOAD PUSH2 0xDC3 SWAP2 SWAP1 PUSH2 0x2508 JUMP JUMPDEST CALLVALUE EQ PUSH2 0xE25 JUMPI PUSH1 0x40 MLOAD PUSH3 0x461BCD PUSH1 0xE5 SHL DUP2 MSTORE PUSH1 0x20 PUSH1 0x4 DUP3 ADD MSTORE PUSH1 0x2B PUSH1 0x24 DUP3 ADD MSTORE PUSH32 0x4E6F7420656E6F7567682062616C616E636520746F20636F6D706C6574652074 PUSH1 0x44 DUP3 ADD MSTORE PUSH11 0x3930B739B0B1BA34B7B717 PUSH1 0xA9 SHL PUSH1 0x64 DUP3 ADD MSTORE PUSH1 0x84 ADD PUSH2 0x856 JUMP JUMPDEST PUSH1 0x1 JUMPDEST DUP3 DUP2 GT PUSH2 0xB80 JUMPI PUSH2 0xE3D DUP5 PUSH2 0xCC3 DUP4 DUP6 PUSH2 0x24DC JUMP JUMPDEST DUP1 PUSH2 0xE47 DUP2 PUSH2 0x25A5 JUMP JUMPDEST SWAP2 POP POP PUSH2 0xE28 JUMP JUMPDEST PUSH2 0x8F7 DUP4 DUP4 DUP4 PUSH1 0x40 MLOAD DUP1 PUSH1 0x20 ADD PUSH1 0x40 MSTORE DUP1 PUSH1 0x0 DUP2 MSTORE POP PUSH2 0x1232 JUMP JUMPDEST PUSH1 0x60 PUSH1 0x0 PUSH2 0xE77 DUP4 PUSH2 0x1173 JUMP JUMPDEST SWAP1 POP PUSH1 0x0 DUP2 PUSH8 0xFFFFFFFFFFFFFFFF DUP2 GT ISZERO PUSH2 0xEA2 JUMPI PUSH4 0x4E487B71 PUSH1 0xE0 SHL PUSH1 0x0 MSTORE PUSH1 0x41 PUSH1 0x4 MSTORE PUSH1 0x24 PUSH1 0x0 REVERT JUMPDEST PUSH1 0x40 MLOAD SWAP1 DUP1 DUP3 MSTORE DUP1 PUSH1 0x20 MUL PUSH1 0x20 ADD DUP3 ADD PUSH1 0x40 MSTORE DUP1 ISZERO PUSH2 0xECB JUMPI DUP2 PUSH1 0x20 ADD PUSH1 0x20 DUP3 MUL DUP1 CALLDATASIZE DUP4 CALLDATACOPY ADD SWAP1 POP JUMPDEST POP SWAP1 POP PUSH1 0x0 JUMPDEST DUP3 DUP2 LT ISZERO PUSH2 0xF20 JUMPI PUSH2 0xEE3 DUP6 DUP3 PUSH2 0x9AA JUMP JUMPDEST DUP3 DUP3 DUP2 MLOAD DUP2 LT PUSH2 0xF03 JUMPI PUSH4 0x4E487B71 PUSH1 0xE0 SHL PUSH1 0x0 MSTORE PUSH1 0x32 PUSH1 0x4 MSTORE PUSH1 0x24 PUSH1 0x0 REVERT JUMPDEST PUSH1 0x20 SWAP1 DUP2 MUL SWAP2 SWAP1 SWAP2 ADD ADD MSTORE DUP1 PUSH2 0xF18 DUP2 PUSH2 0x25A5 JUMP JUMPDEST SWAP2 POP POP PUSH2 0xED1 JUMP JUMPDEST POP SWAP4 SWAP3 POP POP POP JUMP JUMPDEST PUSH1 0x0 PUSH2 0xF33 PUSH1 0x8 SLOAD SWAP1 JUMP JUMPDEST DUP3 LT PUSH2 0xF96 JUMPI PUSH1 0x40 MLOAD PUSH3 0x461BCD PUSH1 0xE5 SHL DUP2 MSTORE PUSH1 0x20 PUSH1 0x4 DUP3 ADD MSTORE PUSH1 0x2C PUSH1 0x24 DUP3 ADD MSTORE PUSH32 0x455243373231456E756D657261626C653A20676C6F62616C20696E646578206F PUSH1 0x44 DUP3 ADD MSTORE PUSH12 0x7574206F6620626F756E6473 PUSH1 0xA0 SHL PUSH1 0x64 DUP3 ADD MSTORE PUSH1 0x84 ADD PUSH2 0x856 JUMP JUMPDEST PUSH1 0x8 DUP3 DUP2 SLOAD DUP2 LT PUSH2 0xFB7 JUMPI PUSH4 0x4E487B71 PUSH1 0xE0 SHL PUSH1 0x0 MSTORE PUSH1 0x32 PUSH1 0x4 MSTORE PUSH1 0x24 PUSH1 0x0 REVERT JUMPDEST SWAP1 PUSH1 0x0 MSTORE PUSH1 0x20 PUSH1 0x0 KECCAK256 ADD SLOAD SWAP1 POP SWAP2 SWAP1 POP JUMP JUMPDEST PUSH2 0xFD1 PUSH2 0x1433 JUMP JUMPDEST DUP1 MLOAD PUSH2 0xFE4 SWAP1 PUSH1 0xC SWAP1 PUSH1 0x20 DUP5 ADD SWAP1 PUSH2 0x1F28 JUMP JUMPDEST POP POP JUMP JUMPDEST PUSH1 0x0 DUP2 DUP2 MSTORE PUSH1 0x2 PUSH1 0x20 MSTORE PUSH1 0x40 DUP2 KECCAK256 SLOAD PUSH1 0x1 PUSH1 0x1 PUSH1 0xA0 SHL SUB AND DUP1 PUSH2 0x707 JUMPI PUSH1 0x40 MLOAD PUSH3 0x461BCD PUSH1 0xE5 SHL DUP2 MSTORE PUSH1 0x20 PUSH1 0x4 DUP3 ADD MSTORE PUSH1 0x18 PUSH1 0x24 DUP3 ADD MSTORE PUSH24 0x115490CDCC8C4E881A5B9D985B1A59081D1BDAD95B881251 PUSH1 0x42 SHL PUSH1 0x44 DUP3 ADD MSTORE PUSH1 0x64 ADD PUSH2 0x856 JUMP JUMPDEST PUSH2 0x1050 PUSH2 0x1433 JUMP JUMPDEST PUSH1 0x40 DUP1 MLOAD DUP1 DUP3 ADD SWAP1 SWAP2 MSTORE PUSH1 0x1 PUSH1 0x1 PUSH1 0xA0 SHL SUB SWAP3 DUP4 AND DUP2 MSTORE PUSH1 0x20 DUP2 ADD SWAP2 DUP3 MSTORE PUSH1 0xB DUP1 SLOAD PUSH1 0x1 DUP2 ADD DUP3 SSTORE PUSH1 0x0 SWAP2 SWAP1 SWAP2 MSTORE SWAP1 MLOAD PUSH32 0x175B7A638427703F0DBE7BB9BBF987A2551717B34E79F33B5B1008D1FA01DB9 PUSH1 0x2 SWAP1 SWAP3 MUL SWAP2 DUP3 ADD DUP1 SLOAD PUSH1 0x1 PUSH1 0x1 PUSH1 0xA0 SHL SUB NOT AND SWAP2 SWAP1 SWAP5 AND OR SWAP1 SWAP3 SSTORE MLOAD PUSH32 0x175B7A638427703F0DBE7BB9BBF987A2551717B34E79F33B5B1008D1FA01DBA SWAP1 SWAP2 ADD SSTORE JUMP JUMPDEST PUSH1 0xC DUP1 SLOAD PUSH2 0x10F2 SWAP1 PUSH2 0x256A JUMP JUMPDEST DUP1 PUSH1 0x1F ADD PUSH1 0x20 DUP1 SWAP2 DIV MUL PUSH1 0x20 ADD PUSH1 0x40 MLOAD SWAP1 DUP2 ADD PUSH1 0x40 MSTORE DUP1 SWAP3 SWAP2 SWAP1 DUP2 DUP2 MSTORE PUSH1 0x20 ADD DUP3 DUP1 SLOAD PUSH2 0x111E SWAP1 PUSH2 0x256A JUMP JUMPDEST DUP1 ISZERO PUSH2 0x116B JUMPI DUP1 PUSH1 0x1F LT PUSH2 0x1140 JUMPI PUSH2 0x100 DUP1 DUP4 SLOAD DIV MUL DUP4 MSTORE SWAP2 PUSH1 0x20 ADD SWAP2 PUSH2 0x116B JUMP JUMPDEST DUP3 ADD SWAP2 SWAP1 PUSH1 0x0 MSTORE PUSH1 0x20 PUSH1 0x0 KECCAK256 SWAP1 JUMPDEST DUP2 SLOAD DUP2 MSTORE SWAP1 PUSH1 0x1 ADD SWAP1 PUSH1 0x20 ADD DUP1 DUP4 GT PUSH2 0x114E JUMPI DUP3 SWAP1 SUB PUSH1 0x1F AND DUP3 ADD SWAP2 JUMPDEST POP POP POP POP POP DUP2 JUMP JUMPDEST PUSH1 0x0 PUSH1 0x1 PUSH1 0x1 PUSH1 0xA0 SHL SUB DUP3 AND PUSH2 0x11DD JUMPI PUSH1 0x40 MLOAD PUSH3 0x461BCD PUSH1 0xE5 SHL DUP2 MSTORE PUSH1 0x20 PUSH1 0x4 DUP3 ADD MSTORE PUSH1 0x29 PUSH1 0x24 DUP3 ADD MSTORE PUSH32 0x4552433732313A2061646472657373207A65726F206973206E6F742061207661 PUSH1 0x44 DUP3 ADD MSTORE PUSH9 0x3634B21037BBB732B9 PUSH1 0xB9 SHL PUSH1 0x64 DUP3 ADD MSTORE PUSH1 0x84 ADD PUSH2 0x856 JUMP JUMPDEST POP PUSH1 0x1 PUSH1 0x1 PUSH1 0xA0 SHL SUB AND PUSH1 0x0 SWAP1 DUP2 MSTORE PUSH1 0x3 PUSH1 0x20 MSTORE PUSH1 0x40 SWAP1 KECCAK256 SLOAD SWAP1 JUMP JUMPDEST PUSH2 0x1201 PUSH2 0x1433 JUMP JUMPDEST PUSH2 0xD10 PUSH1 0x0 PUSH2 0x179A JUMP JUMPDEST PUSH2 0x1213 PUSH2 0x1433 JUMP JUMPDEST PUSH1 0x10 SSTORE JUMP JUMPDEST PUSH1 0x60 PUSH1 0x1 DUP1 SLOAD PUSH2 0x737 SWAP1 PUSH2 0x256A JUMP JUMPDEST PUSH2 0xFE4 CALLER DUP4 DUP4 PUSH2 0x17EC JUMP JUMPDEST PUSH2 0x123C CALLER DUP4 PUSH2 0x155A JUMP JUMPDEST PUSH2 0x1258 JUMPI PUSH1 0x40 MLOAD PUSH3 0x461BCD PUSH1 0xE5 SHL DUP2 MSTORE PUSH1 0x4 ADD PUSH2 0x856 SWAP1 PUSH2 0x248E JUMP JUMPDEST PUSH2 0xB80 DUP5 DUP5 DUP5 DUP5 PUSH2 0x18BB JUMP JUMPDEST PUSH1 0xD DUP1 SLOAD PUSH2 0x10F2 SWAP1 PUSH2 0x256A JUMP JUMPDEST PUSH1 0x0 DUP2 DUP2 MSTORE PUSH1 0x2 PUSH1 0x20 MSTORE PUSH1 0x40 SWAP1 KECCAK256 SLOAD PUSH1 0x60 SWAP1 PUSH1 0x1 PUSH1 0x1 PUSH1 0xA0 SHL SUB AND PUSH2 0x12F0 JUMPI PUSH1 0x40 MLOAD PUSH3 0x461BCD PUSH1 0xE5 SHL DUP2 MSTORE PUSH1 0x20 PUSH1 0x4 DUP3 ADD MSTORE PUSH1 0x2F PUSH1 0x24 DUP3 ADD MSTORE PUSH32 0x4552433732314D657461646174613A2055524920717565727920666F72206E6F PUSH1 0x44 DUP3 ADD MSTORE PUSH15 0x3732BC34B9BA32B73A103A37B5B2B7 PUSH1 0x89 SHL PUSH1 0x64 DUP3 ADD MSTORE PUSH1 0x84 ADD PUSH2 0x856 JUMP JUMPDEST PUSH1 0x0 PUSH2 0x12FA PUSH2 0x18EE JUMP JUMPDEST SWAP1 POP PUSH1 0x0 DUP2 MLOAD GT PUSH2 0x131A JUMPI PUSH1 0x40 MLOAD DUP1 PUSH1 0x20 ADD PUSH1 0x40 MSTORE DUP1 PUSH1 0x0 DUP2 MSTORE POP PUSH2 0x1348 JUMP JUMPDEST DUP1 PUSH2 0x1324 DUP5 PUSH2 0x190E JUMP JUMPDEST PUSH1 0xD PUSH1 0x40 MLOAD PUSH1 0x20 ADD PUSH2 0x1338 SWAP4 SWAP3 SWAP2 SWAP1 PUSH2 0x22E6 JUMP JUMPDEST PUSH1 0x40 MLOAD PUSH1 0x20 DUP2 DUP4 SUB SUB DUP2 MSTORE SWAP1 PUSH1 0x40 MSTORE JUMPDEST SWAP4 SWAP3 POP POP POP JUMP JUMPDEST PUSH2 0x1357 PUSH2 0x1433 JUMP JUMPDEST DUP1 MLOAD PUSH2 0xFE4 SWAP1 PUSH1 0xD SWAP1 PUSH1 0x20 DUP5 ADD SWAP1 PUSH2 0x1F28 JUMP JUMPDEST PUSH2 0x1372 PUSH2 0x1433 JUMP JUMPDEST PUSH1 0x1 PUSH1 0x1 PUSH1 0xA0 SHL SUB DUP2 AND PUSH2 0x13D7 JUMPI PUSH1 0x40 MLOAD PUSH3 0x461BCD PUSH1 0xE5 SHL DUP2 MSTORE PUSH1 0x20 PUSH1 0x4 DUP3 ADD MSTORE PUSH1 0x26 PUSH1 0x24 DUP3 ADD MSTORE PUSH32 0x4F776E61626C653A206E6577206F776E657220697320746865207A65726F2061 PUSH1 0x44 DUP3 ADD MSTORE PUSH6 0x646472657373 PUSH1 0xD0 SHL PUSH1 0x64 DUP3 ADD MSTORE PUSH1 0x84 ADD PUSH2 0x856 JUMP JUMPDEST PUSH2 0x13E0 DUP2 PUSH2 0x179A JUMP JUMPDEST POP JUMP JUMPDEST PUSH1 0x0 PUSH1 0x1 PUSH1 0x1 PUSH1 0xE0 SHL SUB NOT DUP3 AND PUSH4 0x80AC58CD PUSH1 0xE0 SHL EQ DUP1 PUSH2 0x1414 JUMPI POP PUSH1 0x1 PUSH1 0x1 PUSH1 0xE0 SHL SUB NOT DUP3 AND PUSH4 0x5B5E139F PUSH1 0xE0 SHL EQ JUMPDEST DUP1 PUSH2 0x707 JUMPI POP PUSH4 0x1FFC9A7 PUSH1 0xE0 SHL PUSH1 0x1 PUSH1 0x1 PUSH1 0xE0 SHL SUB NOT DUP4 AND EQ PUSH2 0x707 JUMP JUMPDEST PUSH1 0xA SLOAD PUSH1 0x1 PUSH1 0x1 PUSH1 0xA0 SHL SUB AND CALLER EQ PUSH2 0xD10 JUMPI PUSH1 0x40 MLOAD PUSH3 0x461BCD PUSH1 0xE5 SHL DUP2 MSTORE PUSH1 0x20 PUSH1 0x4 DUP3 ADD DUP2 SWAP1 MSTORE PUSH1 0x24 DUP3 ADD MSTORE PUSH32 0x4F776E61626C653A2063616C6C6572206973206E6F7420746865206F776E6572 PUSH1 0x44 DUP3 ADD MSTORE PUSH1 0x64 ADD PUSH2 0x856 JUMP JUMPDEST PUSH1 0x0 DUP2 DUP2 MSTORE PUSH1 0x2 PUSH1 0x20 MSTORE PUSH1 0x40 SWAP1 KECCAK256 SLOAD PUSH1 0x1 PUSH1 0x1 PUSH1 0xA0 SHL SUB AND PUSH2 0x13E0 JUMPI PUSH1 0x40 MLOAD PUSH3 0x461BCD PUSH1 0xE5 SHL DUP2 MSTORE PUSH1 0x20 PUSH1 0x4 DUP3 ADD MSTORE PUSH1 0x18 PUSH1 0x24 DUP3 ADD MSTORE PUSH24 0x115490CDCC8C4E881A5B9D985B1A59081D1BDAD95B881251 PUSH1 0x42 SHL PUSH1 0x44 DUP3 ADD MSTORE PUSH1 0x64 ADD PUSH2 0x856 JUMP JUMPDEST PUSH1 0x0 DUP2 DUP2 MSTORE PUSH1 0x4 PUSH1 0x20 MSTORE PUSH1 0x40 SWAP1 KECCAK256 DUP1 SLOAD PUSH1 0x1 PUSH1 0x1 PUSH1 0xA0 SHL SUB NOT AND PUSH1 0x1 PUSH1 0x1 PUSH1 0xA0 SHL SUB DUP5 AND SWAP1 DUP2 OR SWAP1 SWAP2 SSTORE DUP2 SWAP1 PUSH2 0x1521 DUP3 PUSH2 0xFE8 JUMP JUMPDEST PUSH1 0x1 PUSH1 0x1 PUSH1 0xA0 SHL SUB AND PUSH32 0x8C5BE1E5EBEC7D5BD14F71427D1E84F3DD0314C0F7B2291E5B200AC8C7C3B925 PUSH1 0x40 MLOAD PUSH1 0x40 MLOAD DUP1 SWAP2 SUB SWAP1 LOG4 POP POP JUMP JUMPDEST PUSH1 0x0 DUP1 PUSH2 0x1566 DUP4 PUSH2 0xFE8 JUMP JUMPDEST SWAP1 POP DUP1 PUSH1 0x1 PUSH1 0x1 PUSH1 0xA0 SHL SUB AND DUP5 PUSH1 0x1 PUSH1 0x1 PUSH1 0xA0 SHL SUB AND EQ DUP1 PUSH2 0x15AD JUMPI POP PUSH1 0x1 PUSH1 0x1 PUSH1 0xA0 SHL SUB DUP1 DUP3 AND PUSH1 0x0 SWAP1 DUP2 MSTORE PUSH1 0x5 PUSH1 0x20 SWAP1 DUP2 MSTORE PUSH1 0x40 DUP1 DUP4 KECCAK256 SWAP4 DUP9 AND DUP4 MSTORE SWAP3 SWAP1 MSTORE KECCAK256 SLOAD PUSH1 0xFF AND JUMPDEST DUP1 PUSH2 0x15D1 JUMPI POP DUP4 PUSH1 0x1 PUSH1 0x1 PUSH1 0xA0 SHL SUB AND PUSH2 0x15C6 DUP5 PUSH2 0x7BA JUMP JUMPDEST PUSH1 0x1 PUSH1 0x1 PUSH1 0xA0 SHL SUB AND EQ JUMPDEST SWAP5 SWAP4 POP POP POP POP JUMP JUMPDEST DUP3 PUSH1 0x1 PUSH1 0x1 PUSH1 0xA0 SHL SUB AND PUSH2 0x15EC DUP3 PUSH2 0xFE8 JUMP JUMPDEST PUSH1 0x1 PUSH1 0x1 PUSH1 0xA0 SHL SUB AND EQ PUSH2 0x1650 JUMPI PUSH1 0x40 MLOAD PUSH3 0x461BCD PUSH1 0xE5 SHL DUP2 MSTORE PUSH1 0x20 PUSH1 0x4 DUP3 ADD MSTORE PUSH1 0x25 PUSH1 0x24 DUP3 ADD MSTORE PUSH32 0x4552433732313A207472616E736665722066726F6D20696E636F727265637420 PUSH1 0x44 DUP3 ADD MSTORE PUSH5 0x37BBB732B9 PUSH1 0xD9 SHL PUSH1 0x64 DUP3 ADD MSTORE PUSH1 0x84 ADD PUSH2 0x856 JUMP JUMPDEST PUSH1 0x1 PUSH1 0x1 PUSH1 0xA0 SHL SUB DUP3 AND PUSH2 0x16B2 JUMPI PUSH1 0x40 MLOAD PUSH3 0x461BCD PUSH1 0xE5 SHL DUP2 MSTORE PUSH1 0x20 PUSH1 0x4 DUP3 ADD MSTORE PUSH1 0x24 DUP1 DUP3 ADD MSTORE PUSH32 0x4552433732313A207472616E7366657220746F20746865207A65726F20616464 PUSH1 0x44 DUP3 ADD MSTORE PUSH4 0x72657373 PUSH1 0xE0 SHL PUSH1 0x64 DUP3 ADD MSTORE PUSH1 0x84 ADD PUSH2 0x856 JUMP JUMPDEST PUSH2 0x16BD DUP4 DUP4 DUP4 PUSH2 0x1A28 JUMP JUMPDEST PUSH2 0x16C8 PUSH1 0x0 DUP3 PUSH2 0x14EC JUMP JUMPDEST PUSH1 0x1 PUSH1 0x1 PUSH1 0xA0 SHL SUB DUP4 AND PUSH1 0x0 SWAP1 DUP2 MSTORE PUSH1 0x3 PUSH1 0x20 MSTORE PUSH1 0x40 DUP2 KECCAK256 DUP1 SLOAD PUSH1 0x1 SWAP3 SWAP1 PUSH2 0x16F1 SWAP1 DUP5 SWAP1 PUSH2 0x2527 JUMP JUMPDEST SWAP1 SWAP2 SSTORE POP POP PUSH1 0x1 PUSH1 0x1 PUSH1 0xA0 SHL SUB DUP3 AND PUSH1 0x0 SWAP1 DUP2 MSTORE PUSH1 0x3 PUSH1 0x20 MSTORE PUSH1 0x40 DUP2 KECCAK256 DUP1 SLOAD PUSH1 0x1 SWAP3 SWAP1 PUSH2 0x171F SWAP1 DUP5 SWAP1 PUSH2 0x24DC JUMP JUMPDEST SWAP1 SWAP2 SSTORE POP POP PUSH1 0x0 DUP2 DUP2 MSTORE PUSH1 0x2 PUSH1 0x20 MSTORE PUSH1 0x40 DUP1 DUP3 KECCAK256 DUP1 SLOAD PUSH1 0x1 PUSH1 0x1 PUSH1 0xA0 SHL SUB NOT AND PUSH1 0x1 PUSH1 0x1 PUSH1 0xA0 SHL SUB DUP7 DUP2 AND SWAP2 DUP3 OR SWAP1 SWAP3 SSTORE SWAP2 MLOAD DUP5 SWAP4 SWAP2 DUP8 AND SWAP2 PUSH32 0xDDF252AD1BE2C89B69C2B068FC378DAA952BA7F163C4A11628F55A4DF523B3EF SWAP2 LOG4 POP POP POP JUMP JUMPDEST PUSH2 0xFE4 DUP3 DUP3 PUSH1 0x40 MLOAD DUP1 PUSH1 0x20 ADD PUSH1 0x40 MSTORE DUP1 PUSH1 0x0 DUP2 MSTORE POP PUSH2 0x1AE0 JUMP JUMPDEST PUSH1 0xA DUP1 SLOAD PUSH1 0x1 PUSH1 0x1 PUSH1 0xA0 SHL SUB DUP4 DUP2 AND PUSH1 0x1 PUSH1 0x1 PUSH1 0xA0 SHL SUB NOT DUP4 AND DUP2 OR SWAP1 SWAP4 SSTORE PUSH1 0x40 MLOAD SWAP2 AND SWAP2 SWAP1 DUP3 SWAP1 PUSH32 0x8BE0079C531659141344CD1FD0A4F28419497F9722A3DAAFE3B4186F6B6457E0 SWAP1 PUSH1 0x0 SWAP1 LOG3 POP POP JUMP JUMPDEST DUP2 PUSH1 0x1 PUSH1 0x1 PUSH1 0xA0 SHL SUB AND DUP4 PUSH1 0x1 PUSH1 0x1 PUSH1 0xA0 SHL SUB AND EQ ISZERO PUSH2 0x184E JUMPI PUSH1 0x40 MLOAD PUSH3 0x461BCD PUSH1 0xE5 SHL DUP2 MSTORE PUSH1 0x20 PUSH1 0x4 DUP3 ADD MSTORE PUSH1 0x19 PUSH1 0x24 DUP3 ADD MSTORE PUSH32 0x4552433732313A20617070726F766520746F2063616C6C657200000000000000 PUSH1 0x44 DUP3 ADD MSTORE PUSH1 0x64 ADD PUSH2 0x856 JUMP JUMPDEST PUSH1 0x1 PUSH1 0x1 PUSH1 0xA0 SHL SUB DUP4 DUP2 AND PUSH1 0x0 DUP2 DUP2 MSTORE PUSH1 0x5 PUSH1 0x20 SWAP1 DUP2 MSTORE PUSH1 0x40 DUP1 DUP4 KECCAK256 SWAP5 DUP8 AND DUP1 DUP5 MSTORE SWAP5 DUP3 MSTORE SWAP2 DUP3 SWAP1 KECCAK256 DUP1 SLOAD PUSH1 0xFF NOT AND DUP7 ISZERO ISZERO SWAP1 DUP2 OR SWAP1 SWAP2 SSTORE SWAP2 MLOAD SWAP2 DUP3 MSTORE PUSH32 0x17307EAB39AB6107E8899845AD3D59BD9653F200F220920489CA2B5937696C31 SWAP2 ADD PUSH1 0x40 MLOAD DUP1 SWAP2 SUB SWAP1 LOG3 POP POP POP JUMP JUMPDEST PUSH2 0x18C6 DUP5 DUP5 DUP5 PUSH2 0x15D9 JUMP JUMPDEST PUSH2 0x18D2 DUP5 DUP5 DUP5 DUP5 PUSH2 0x1B13 JUMP JUMPDEST PUSH2 0xB80 JUMPI PUSH1 0x40 MLOAD PUSH3 0x461BCD PUSH1 0xE5 SHL DUP2 MSTORE PUSH1 0x4 ADD PUSH2 0x856 SWAP1 PUSH2 0x243C JUMP JUMPDEST PUSH1 0x60 PUSH1 0x40 MLOAD DUP1 PUSH1 0xA0 ADD PUSH1 0x40 MSTORE DUP1 PUSH1 0x66 DUP2 MSTORE PUSH1 0x20 ADD PUSH2 0x2650 PUSH1 0x66 SWAP2 CODECOPY SWAP1 POP SWAP1 JUMP JUMPDEST PUSH1 0x60 DUP2 PUSH2 0x1932 JUMPI POP POP PUSH1 0x40 DUP1 MLOAD DUP1 DUP3 ADD SWAP1 SWAP2 MSTORE PUSH1 0x1 DUP2 MSTORE PUSH1 0x3 PUSH1 0xFC SHL PUSH1 0x20 DUP3 ADD MSTORE SWAP1 JUMP JUMPDEST DUP2 PUSH1 0x0 JUMPDEST DUP2 ISZERO PUSH2 0x195C JUMPI DUP1 PUSH2 0x1946 DUP2 PUSH2 0x25A5 JUMP JUMPDEST SWAP2 POP PUSH2 0x1955 SWAP1 POP PUSH1 0xA DUP4 PUSH2 0x24F4 JUMP JUMPDEST SWAP2 POP PUSH2 0x1936 JUMP JUMPDEST PUSH1 0x0 DUP2 PUSH8 0xFFFFFFFFFFFFFFFF DUP2 GT ISZERO PUSH2 0x1985 JUMPI PUSH4 0x4E487B71 PUSH1 0xE0 SHL PUSH1 0x0 MSTORE PUSH1 0x41 PUSH1 0x4 MSTORE PUSH1 0x24 PUSH1 0x0 REVERT JUMPDEST PUSH1 0x40 MLOAD SWAP1 DUP1 DUP3 MSTORE DUP1 PUSH1 0x1F ADD PUSH1 0x1F NOT AND PUSH1 0x20 ADD DUP3 ADD PUSH1 0x40 MSTORE DUP1 ISZERO PUSH2 0x19AF JUMPI PUSH1 0x20 DUP3 ADD DUP2 DUP1 CALLDATASIZE DUP4 CALLDATACOPY ADD SWAP1 POP JUMPDEST POP SWAP1 POP JUMPDEST DUP5 ISZERO PUSH2 0x15D1 JUMPI PUSH2 0x19C4 PUSH1 0x1 DUP4 PUSH2 0x2527 JUMP JUMPDEST SWAP2 POP PUSH2 0x19D1 PUSH1 0xA DUP7 PUSH2 0x25C0 JUMP JUMPDEST PUSH2 0x19DC SWAP1 PUSH1 0x30 PUSH2 0x24DC JUMP JUMPDEST PUSH1 0xF8 SHL DUP2 DUP4 DUP2 MLOAD DUP2 LT PUSH2 0x19FF JUMPI PUSH4 0x4E487B71 PUSH1 0xE0 SHL PUSH1 0x0 MSTORE PUSH1 0x32 PUSH1 0x4 MSTORE PUSH1 0x24 PUSH1 0x0 REVERT JUMPDEST PUSH1 0x20 ADD ADD SWAP1 PUSH1 0x1 PUSH1 0x1 PUSH1 0xF8 SHL SUB NOT AND SWAP1 DUP2 PUSH1 0x0 BYTE SWAP1 MSTORE8 POP PUSH2 0x1A21 PUSH1 0xA DUP7 PUSH2 0x24F4 JUMP JUMPDEST SWAP5 POP PUSH2 0x19B3 JUMP JUMPDEST PUSH1 0x1 PUSH1 0x1 PUSH1 0xA0 SHL SUB DUP4 AND PUSH2 0x1A83 JUMPI PUSH2 0x1A7E DUP2 PUSH1 0x8 DUP1 SLOAD PUSH1 0x0 DUP4 DUP2 MSTORE PUSH1 0x9 PUSH1 0x20 MSTORE PUSH1 0x40 DUP2 KECCAK256 DUP3 SWAP1 SSTORE PUSH1 0x1 DUP3 ADD DUP4 SSTORE SWAP2 SWAP1 SWAP2 MSTORE PUSH32 0xF3F7A9FE364FAAB93B216DA50A3214154F22A0A2B415B23A84C8169E8B636EE3 ADD SSTORE JUMP JUMPDEST PUSH2 0x1AA6 JUMP JUMPDEST DUP2 PUSH1 0x1 PUSH1 0x1 PUSH1 0xA0 SHL SUB AND DUP4 PUSH1 0x1 PUSH1 0x1 PUSH1 0xA0 SHL SUB AND EQ PUSH2 0x1AA6 JUMPI PUSH2 0x1AA6 DUP4 DUP3 PUSH2 0x1C20 JUMP JUMPDEST PUSH1 0x1 PUSH1 0x1 PUSH1 0xA0 SHL SUB DUP3 AND PUSH2 0x1ABD JUMPI PUSH2 0x8F7 DUP2 PUSH2 0x1CBD JUMP JUMPDEST DUP3 PUSH1 0x1 PUSH1 0x1 PUSH1 0xA0 SHL SUB AND DUP3 PUSH1 0x1 PUSH1 0x1 PUSH1 0xA0 SHL SUB AND EQ PUSH2 0x8F7 JUMPI PUSH2 0x8F7 DUP3 DUP3 PUSH2 0x1D96 JUMP JUMPDEST PUSH2 0x1AEA DUP4 DUP4 PUSH2 0x1DDA JUMP JUMPDEST PUSH2 0x1AF7 PUSH1 0x0 DUP5 DUP5 DUP5 PUSH2 0x1B13 JUMP JUMPDEST PUSH2 0x8F7 JUMPI PUSH1 0x40 MLOAD PUSH3 0x461BCD PUSH1 0xE5 SHL DUP2 MSTORE PUSH1 0x4 ADD PUSH2 0x856 SWAP1 PUSH2 0x243C JUMP JUMPDEST PUSH1 0x0 PUSH1 0x1 PUSH1 0x1 PUSH1 0xA0 SHL SUB DUP5 AND EXTCODESIZE ISZERO PUSH2 0x1C15 JUMPI PUSH1 0x40 MLOAD PUSH4 0xA85BD01 PUSH1 0xE1 SHL DUP2 MSTORE PUSH1 0x1 PUSH1 0x1 PUSH1 0xA0 SHL SUB DUP6 AND SWAP1 PUSH4 0x150B7A02 SWAP1 PUSH2 0x1B57 SWAP1 CALLER SWAP1 DUP10 SWAP1 DUP9 SWAP1 DUP9 SWAP1 PUSH1 0x4 ADD PUSH2 0x23A8 JUMP JUMPDEST PUSH1 0x20 PUSH1 0x40 MLOAD DUP1 DUP4 SUB DUP2 PUSH1 0x0 DUP8 DUP1 EXTCODESIZE ISZERO DUP1 ISZERO PUSH2 0x1B71 JUMPI PUSH1 0x0 DUP1 REVERT JUMPDEST POP GAS CALL SWAP3 POP POP POP DUP1 ISZERO PUSH2 0x1BA1 JUMPI POP PUSH1 0x40 DUP1 MLOAD PUSH1 0x1F RETURNDATASIZE SWAP1 DUP2 ADD PUSH1 0x1F NOT AND DUP3 ADD SWAP1 SWAP3 MSTORE PUSH2 0x1B9E SWAP2 DUP2 ADD SWAP1 PUSH2 0x2228 JUMP JUMPDEST PUSH1 0x1 JUMPDEST PUSH2 0x1BFB JUMPI RETURNDATASIZE DUP1 DUP1 ISZERO PUSH2 0x1BCF JUMPI PUSH1 0x40 MLOAD SWAP2 POP PUSH1 0x1F NOT PUSH1 0x3F RETURNDATASIZE ADD AND DUP3 ADD PUSH1 0x40 MSTORE RETURNDATASIZE DUP3 MSTORE RETURNDATASIZE PUSH1 0x0 PUSH1 0x20 DUP5 ADD RETURNDATACOPY PUSH2 0x1BD4 JUMP JUMPDEST PUSH1 0x60 SWAP2 POP JUMPDEST POP DUP1 MLOAD PUSH2 0x1BF3 JUMPI PUSH1 0x40 MLOAD PUSH3 0x461BCD PUSH1 0xE5 SHL DUP2 MSTORE PUSH1 0x4 ADD PUSH2 0x856 SWAP1 PUSH2 0x243C JUMP JUMPDEST DUP1 MLOAD DUP2 PUSH1 0x20 ADD REVERT JUMPDEST PUSH1 0x1 PUSH1 0x1 PUSH1 0xE0 SHL SUB NOT AND PUSH4 0xA85BD01 PUSH1 0xE1 SHL EQ SWAP1 POP PUSH2 0x15D1 JUMP JUMPDEST POP PUSH1 0x1 SWAP5 SWAP4 POP POP POP POP JUMP JUMPDEST PUSH1 0x0 PUSH1 0x1 PUSH2 0x1C2D DUP5 PUSH2 0x1173 JUMP JUMPDEST PUSH2 0x1C37 SWAP2 SWAP1 PUSH2 0x2527 JUMP JUMPDEST PUSH1 0x0 DUP4 DUP2 MSTORE PUSH1 0x7 PUSH1 0x20 MSTORE PUSH1 0x40 SWAP1 KECCAK256 SLOAD SWAP1 SWAP2 POP DUP1 DUP3 EQ PUSH2 0x1C8A JUMPI PUSH1 0x1 PUSH1 0x1 PUSH1 0xA0 SHL SUB DUP5 AND PUSH1 0x0 SWAP1 DUP2 MSTORE PUSH1 0x6 PUSH1 0x20 SWAP1 DUP2 MSTORE PUSH1 0x40 DUP1 DUP4 KECCAK256 DUP6 DUP5 MSTORE DUP3 MSTORE DUP1 DUP4 KECCAK256 SLOAD DUP5 DUP5 MSTORE DUP2 DUP5 KECCAK256 DUP2 SWAP1 SSTORE DUP4 MSTORE PUSH1 0x7 SWAP1 SWAP2 MSTORE SWAP1 KECCAK256 DUP2 SWAP1 SSTORE JUMPDEST POP PUSH1 0x0 SWAP2 DUP3 MSTORE PUSH1 0x7 PUSH1 0x20 SWAP1 DUP2 MSTORE PUSH1 0x40 DUP1 DUP5 KECCAK256 DUP5 SWAP1 SSTORE PUSH1 0x1 PUSH1 0x1 PUSH1 0xA0 SHL SUB SWAP1 SWAP5 AND DUP4 MSTORE PUSH1 0x6 DUP2 MSTORE DUP4 DUP4 KECCAK256 SWAP2 DUP4 MSTORE MSTORE SWAP1 DUP2 KECCAK256 SSTORE JUMP JUMPDEST PUSH1 0x8 SLOAD PUSH1 0x0 SWAP1 PUSH2 0x1CCF SWAP1 PUSH1 0x1 SWAP1 PUSH2 0x2527 JUMP JUMPDEST PUSH1 0x0 DUP4 DUP2 MSTORE PUSH1 0x9 PUSH1 0x20 MSTORE PUSH1 0x40 DUP2 KECCAK256 SLOAD PUSH1 0x8 DUP1 SLOAD SWAP4 SWAP5 POP SWAP1 SWAP3 DUP5 SWAP1 DUP2 LT PUSH2 0x1D05 JUMPI PUSH4 0x4E487B71 PUSH1 0xE0 SHL PUSH1 0x0 MSTORE PUSH1 0x32 PUSH1 0x4 MSTORE PUSH1 0x24 PUSH1 0x0 REVERT JUMPDEST SWAP1 PUSH1 0x0 MSTORE PUSH1 0x20 PUSH1 0x0 KECCAK256 ADD SLOAD SWAP1 POP DUP1 PUSH1 0x8 DUP4 DUP2 SLOAD DUP2 LT PUSH2 0x1D34 JUMPI PUSH4 0x4E487B71 PUSH1 0xE0 SHL PUSH1 0x0 MSTORE PUSH1 0x32 PUSH1 0x4 MSTORE PUSH1 0x24 PUSH1 0x0 REVERT JUMPDEST PUSH1 0x0 SWAP2 DUP3 MSTORE PUSH1 0x20 DUP1 DUP4 KECCAK256 SWAP1 SWAP2 ADD SWAP3 SWAP1 SWAP3 SSTORE DUP3 DUP2 MSTORE PUSH1 0x9 SWAP1 SWAP2 MSTORE PUSH1 0x40 DUP1 DUP3 KECCAK256 DUP5 SWAP1 SSTORE DUP6 DUP3 MSTORE DUP2 KECCAK256 SSTORE PUSH1 0x8 DUP1 SLOAD DUP1 PUSH2 0x1D7A JUMPI PUSH4 0x4E487B71 PUSH1 0xE0 SHL PUSH1 0x0 MSTORE PUSH1 0x31 PUSH1 0x4 MSTORE PUSH1 0x24 PUSH1 0x0 REVERT JUMPDEST PUSH1 0x1 SWAP1 SUB DUP2 DUP2 SWAP1 PUSH1 0x0 MSTORE PUSH1 0x20 PUSH1 0x0 KECCAK256 ADD PUSH1 0x0 SWAP1 SSTORE SWAP1 SSTORE POP POP POP POP JUMP JUMPDEST PUSH1 0x0 PUSH2 0x1DA1 DUP4 PUSH2 0x1173 JUMP JUMPDEST PUSH1 0x1 PUSH1 0x1 PUSH1 0xA0 SHL SUB SWAP1 SWAP4 AND PUSH1 0x0 SWAP1 DUP2 MSTORE PUSH1 0x6 PUSH1 0x20 SWAP1 DUP2 MSTORE PUSH1 0x40 DUP1 DUP4 KECCAK256 DUP7 DUP5 MSTORE DUP3 MSTORE DUP1 DUP4 KECCAK256 DUP6 SWAP1 SSTORE SWAP4 DUP3 MSTORE PUSH1 0x7 SWAP1 MSTORE SWAP2 SWAP1 SWAP2 KECCAK256 SWAP2 SWAP1 SWAP2 SSTORE POP JUMP JUMPDEST PUSH1 0x1 PUSH1 0x1 PUSH1 0xA0 SHL SUB DUP3 AND PUSH2 0x1E30 JUMPI PUSH1 0x40 MLOAD PUSH3 0x461BCD PUSH1 0xE5 SHL DUP2 MSTORE PUSH1 0x20 PUSH1 0x4 DUP3 ADD DUP2 SWAP1 MSTORE PUSH1 0x24 DUP3 ADD MSTORE PUSH32 0x4552433732313A206D696E7420746F20746865207A65726F2061646472657373 PUSH1 0x44 DUP3 ADD MSTORE PUSH1 0x64 ADD PUSH2 0x856 JUMP JUMPDEST PUSH1 0x0 DUP2 DUP2 MSTORE PUSH1 0x2 PUSH1 0x20 MSTORE PUSH1 0x40 SWAP1 KECCAK256 SLOAD PUSH1 0x1 PUSH1 0x1 PUSH1 0xA0 SHL SUB AND ISZERO PUSH2 0x1E95 JUMPI PUSH1 0x40 MLOAD PUSH3 0x461BCD PUSH1 0xE5 SHL DUP2 MSTORE PUSH1 0x20 PUSH1 0x4 DUP3 ADD MSTORE PUSH1 0x1C PUSH1 0x24 DUP3 ADD MSTORE PUSH32 0x4552433732313A20746F6B656E20616C7265616479206D696E74656400000000 PUSH1 0x44 DUP3 ADD MSTORE PUSH1 0x64 ADD PUSH2 0x856 JUMP JUMPDEST PUSH2 0x1EA1 PUSH1 0x0 DUP4 DUP4 PUSH2 0x1A28 JUMP JUMPDEST PUSH1 0x1 PUSH1 0x1 PUSH1 0xA0 SHL SUB DUP3 AND PUSH1 0x0 SWAP1 DUP2 MSTORE PUSH1 0x3 PUSH1 0x20 MSTORE PUSH1 0x40 DUP2 KECCAK256 DUP1 SLOAD PUSH1 0x1 SWAP3 SWAP1 PUSH2 0x1ECA SWAP1 DUP5 SWAP1 PUSH2 0x24DC JUMP JUMPDEST SWAP1 SWAP2 SSTORE POP POP PUSH1 0x0 DUP2 DUP2 MSTORE PUSH1 0x2 PUSH1 0x20 MSTORE PUSH1 0x40 DUP1 DUP3 KECCAK256 DUP1 SLOAD PUSH1 0x1 PUSH1 0x1 PUSH1 0xA0 SHL SUB NOT AND PUSH1 0x1 PUSH1 0x1 PUSH1 0xA0 SHL SUB DUP7 AND SWAP1 DUP2 OR SWAP1 SWAP2 SSTORE SWAP1 MLOAD DUP4 SWAP3 SWAP1 PUSH32 0xDDF252AD1BE2C89B69C2B068FC378DAA952BA7F163C4A11628F55A4DF523B3EF SWAP1 DUP3 SWAP1 LOG4 POP POP JUMP JUMPDEST DUP3 DUP1 SLOAD PUSH2 0x1F34 SWAP1 PUSH2 0x256A JUMP JUMPDEST SWAP1 PUSH1 0x0 MSTORE PUSH1 0x20 PUSH1 0x0 KECCAK256 SWAP1 PUSH1 0x1F ADD PUSH1 0x20 SWAP1 DIV DUP2 ADD SWAP3 DUP3 PUSH2 0x1F56 JUMPI PUSH1 0x0 DUP6 SSTORE PUSH2 0x1F9C JUMP JUMPDEST DUP3 PUSH1 0x1F LT PUSH2 0x1F6F JUMPI DUP1 MLOAD PUSH1 0xFF NOT AND DUP4 DUP1 ADD OR DUP6 SSTORE PUSH2 0x1F9C JUMP JUMPDEST DUP3 DUP1 ADD PUSH1 0x1 ADD DUP6 SSTORE DUP3 ISZERO PUSH2 0x1F9C JUMPI SWAP2 DUP3 ADD JUMPDEST DUP3 DUP2 GT ISZERO PUSH2 0x1F9C JUMPI DUP3 MLOAD DUP3 SSTORE SWAP2 PUSH1 0x20 ADD SWAP2 SWAP1 PUSH1 0x1 ADD SWAP1 PUSH2 0x1F81 JUMP JUMPDEST POP PUSH2 0x1FA8 SWAP3 SWAP2 POP PUSH2 0x1FAC JUMP JUMPDEST POP SWAP1 JUMP JUMPDEST JUMPDEST DUP1 DUP3 GT ISZERO PUSH2 0x1FA8 JUMPI PUSH1 0x0 DUP2 SSTORE PUSH1 0x1 ADD PUSH2 0x1FAD JUMP JUMPDEST PUSH1 0x0 PUSH8 0xFFFFFFFFFFFFFFFF DUP1 DUP5 GT ISZERO PUSH2 0x1FDC JUMPI PUSH2 0x1FDC PUSH2 0x2600 JUMP JUMPDEST PUSH1 0x40 MLOAD PUSH1 0x1F DUP6 ADD PUSH1 0x1F NOT SWAP1 DUP2 AND PUSH1 0x3F ADD AND DUP2 ADD SWAP1 DUP3 DUP3 GT DUP2 DUP4 LT OR ISZERO PUSH2 0x2004 JUMPI PUSH2 0x2004 PUSH2 0x2600 JUMP JUMPDEST DUP2 PUSH1 0x40 MSTORE DUP1 SWAP4 POP DUP6 DUP2 MSTORE DUP7 DUP7 DUP7 ADD GT ISZERO PUSH2 0x201D JUMPI PUSH1 0x0 DUP1 REVERT JUMPDEST DUP6 DUP6 PUSH1 0x20 DUP4 ADD CALLDATACOPY PUSH1 0x0 PUSH1 0x20 DUP8 DUP4 ADD ADD MSTORE POP POP POP SWAP4 SWAP3 POP POP POP JUMP JUMPDEST PUSH1 0x0 PUSH1 0x20 DUP3 DUP5 SUB SLT ISZERO PUSH2 0x2048 JUMPI DUP1 DUP2 REVERT JUMPDEST DUP2 CALLDATALOAD PUSH2 0x1348 DUP2 PUSH2 0x2616 JUMP JUMPDEST PUSH1 0x0 DUP1 PUSH1 0x40 DUP4 DUP6 SUB SLT ISZERO PUSH2 0x2065 JUMPI DUP1 DUP2 REVERT JUMPDEST DUP3 CALLDATALOAD PUSH2 0x2070 DUP2 PUSH2 0x2616 JUMP JUMPDEST SWAP2 POP PUSH1 0x20 DUP4 ADD CALLDATALOAD PUSH2 0x2080 DUP2 PUSH2 0x2616 JUMP JUMPDEST DUP1 SWAP2 POP POP SWAP3 POP SWAP3 SWAP1 POP JUMP JUMPDEST PUSH1 0x0 DUP1 PUSH1 0x0 PUSH1 0x60 DUP5 DUP7 SUB SLT ISZERO PUSH2 0x209F JUMPI DUP1 DUP2 REVERT JUMPDEST DUP4 CALLDATALOAD PUSH2 0x20AA DUP2 PUSH2 0x2616 JUMP JUMPDEST SWAP3 POP PUSH1 0x20 DUP5 ADD CALLDATALOAD PUSH2 0x20BA DUP2 PUSH2 0x2616 JUMP JUMPDEST SWAP3 SWAP6 SWAP3 SWAP5 POP POP POP PUSH1 0x40 SWAP2 SWAP1 SWAP2 ADD CALLDATALOAD SWAP1 JUMP JUMPDEST PUSH1 0x0 DUP1 PUSH1 0x0 DUP1 PUSH1 0x80 DUP6 DUP8 SUB SLT ISZERO PUSH2 0x20E0 JUMPI DUP1 DUP2 REVERT JUMPDEST DUP5 CALLDATALOAD PUSH2 0x20EB DUP2 PUSH2 0x2616 JUMP JUMPDEST SWAP4 POP PUSH1 0x20 DUP6 ADD CALLDATALOAD PUSH2 0x20FB DUP2 PUSH2 0x2616 JUMP JUMPDEST SWAP3 POP PUSH1 0x40 DUP6 ADD CALLDATALOAD SWAP2 POP PUSH1 0x60 DUP6 ADD CALLDATALOAD PUSH8 0xFFFFFFFFFFFFFFFF DUP2 GT ISZERO PUSH2 0x211D JUMPI DUP2 DUP3 REVERT JUMPDEST DUP6 ADD PUSH1 0x1F DUP2 ADD DUP8 SGT PUSH2 0x212D JUMPI DUP2 DUP3 REVERT JUMPDEST PUSH2 0x213C DUP8 DUP3 CALLDATALOAD PUSH1 0x20 DUP5 ADD PUSH2 0x1FC1 JUMP JUMPDEST SWAP2 POP POP SWAP3 SWAP6 SWAP2 SWAP5 POP SWAP3 POP JUMP JUMPDEST PUSH1 0x0 DUP1 PUSH1 0x40 DUP4 DUP6 SUB SLT ISZERO PUSH2 0x215A JUMPI DUP2 DUP3 REVERT JUMPDEST DUP3 CALLDATALOAD PUSH2 0x2165 DUP2 PUSH2 0x2616 JUMP JUMPDEST SWAP2 POP PUSH1 0x20 DUP4 ADD CALLDATALOAD PUSH2 0x2080 DUP2 PUSH2 0x262B JUMP JUMPDEST PUSH1 0x0 DUP1 PUSH1 0x40 DUP4 DUP6 SUB SLT ISZERO PUSH2 0x2187 JUMPI DUP2 DUP3 REVERT JUMPDEST DUP3 CALLDATALOAD PUSH2 0x2192 DUP2 PUSH2 0x2616 JUMP JUMPDEST SWAP5 PUSH1 0x20 SWAP4 SWAP1 SWAP4 ADD CALLDATALOAD SWAP4 POP POP POP JUMP JUMPDEST PUSH1 0x0 DUP1 PUSH1 0x0 PUSH1 0x60 DUP5 DUP7 SUB SLT ISZERO PUSH2 0x21B4 JUMPI DUP3 DUP4 REVERT JUMPDEST DUP4 CALLDATALOAD PUSH2 0x21BF DUP2 PUSH2 0x2616 JUMP JUMPDEST SWAP6 PUSH1 0x20 DUP6 ADD CALLDATALOAD SWAP6 POP PUSH1 0x40 SWAP1 SWAP5 ADD CALLDATALOAD SWAP4 SWAP3 POP POP POP JUMP JUMPDEST PUSH1 0x0 PUSH1 0x20 DUP3 DUP5 SUB SLT ISZERO PUSH2 0x21E5 JUMPI DUP1 DUP2 REVERT JUMPDEST DUP2 CALLDATALOAD PUSH2 0x1348 DUP2 PUSH2 0x262B JUMP JUMPDEST PUSH1 0x0 PUSH1 0x20 DUP3 DUP5 SUB SLT ISZERO PUSH2 0x2201 JUMPI DUP1 DUP2 REVERT JUMPDEST DUP2 MLOAD PUSH2 0x1348 DUP2 PUSH2 0x262B JUMP JUMPDEST PUSH1 0x0 PUSH1 0x20 DUP3 DUP5 SUB SLT ISZERO PUSH2 0x221D JUMPI DUP1 DUP2 REVERT JUMPDEST DUP2 CALLDATALOAD PUSH2 0x1348 DUP2 PUSH2 0x2639 JUMP JUMPDEST PUSH1 0x0 PUSH1 0x20 DUP3 DUP5 SUB SLT ISZERO PUSH2 0x2239 JUMPI DUP1 DUP2 REVERT JUMPDEST DUP2 MLOAD PUSH2 0x1348 DUP2 PUSH2 0x2639 JUMP JUMPDEST PUSH1 0x0 PUSH1 0x20 DUP3 DUP5 SUB SLT ISZERO PUSH2 0x2255 JUMPI DUP1 DUP2 REVERT JUMPDEST DUP2 CALLDATALOAD PUSH8 0xFFFFFFFFFFFFFFFF DUP2 GT ISZERO PUSH2 0x226B JUMPI DUP2 DUP3 REVERT JUMPDEST DUP3 ADD PUSH1 0x1F DUP2 ADD DUP5 SGT PUSH2 0x227B JUMPI DUP2 DUP3 REVERT JUMPDEST PUSH2 0x15D1 DUP5 DUP3 CALLDATALOAD PUSH1 0x20 DUP5 ADD PUSH2 0x1FC1 JUMP JUMPDEST PUSH1 0x0 PUSH1 0x20 DUP3 DUP5 SUB SLT ISZERO PUSH2 0x229B JUMPI DUP1 DUP2 REVERT JUMPDEST POP CALLDATALOAD SWAP2 SWAP1 POP JUMP JUMPDEST PUSH1 0x0 PUSH1 0x20 DUP3 DUP5 SUB SLT ISZERO PUSH2 0x22B3 JUMPI DUP1 DUP2 REVERT JUMPDEST POP MLOAD SWAP2 SWAP1 POP JUMP JUMPDEST PUSH1 0x0 DUP2 MLOAD DUP1 DUP5 MSTORE PUSH2 0x22D2 DUP2 PUSH1 0x20 DUP7 ADD PUSH1 0x20 DUP7 ADD PUSH2 0x253E JUMP JUMPDEST PUSH1 0x1F ADD PUSH1 0x1F NOT AND SWAP3 SWAP1 SWAP3 ADD PUSH1 0x20 ADD SWAP3 SWAP2 POP POP JUMP JUMPDEST PUSH1 0x0 DUP5 MLOAD PUSH1 0x20 PUSH2 0x22F9 DUP3 DUP6 DUP4 DUP11 ADD PUSH2 0x253E JUMP JUMPDEST DUP6 MLOAD SWAP2 DUP5 ADD SWAP2 PUSH2 0x230C DUP2 DUP5 DUP5 DUP11 ADD PUSH2 0x253E JUMP JUMPDEST DUP6 SLOAD SWAP3 ADD SWAP2 DUP4 SWAP1 PUSH1 0x1 DUP2 DUP2 SHR SWAP1 DUP1 DUP4 AND DUP1 PUSH2 0x2328 JUMPI PUSH1 0x7F DUP4 AND SWAP3 POP JUMPDEST DUP6 DUP4 LT DUP2 EQ ISZERO PUSH2 0x2346 JUMPI PUSH4 0x4E487B71 PUSH1 0xE0 SHL DUP9 MSTORE PUSH1 0x22 PUSH1 0x4 MSTORE PUSH1 0x24 DUP9 REVERT JUMPDEST DUP1 DUP1 ISZERO PUSH2 0x235A JUMPI PUSH1 0x1 DUP2 EQ PUSH2 0x236B JUMPI PUSH2 0x2397 JUMP JUMPDEST PUSH1 0xFF NOT DUP6 AND DUP9 MSTORE DUP4 DUP9 ADD SWAP6 POP PUSH2 0x2397 JUMP JUMPDEST PUSH1 0x0 DUP12 DUP2 MSTORE PUSH1 0x20 SWAP1 KECCAK256 DUP10 JUMPDEST DUP6 DUP2 LT ISZERO PUSH2 0x238F JUMPI DUP2 SLOAD DUP11 DUP3 ADD MSTORE SWAP1 DUP5 ADD SWAP1 DUP9 ADD PUSH2 0x2376 JUMP JUMPDEST POP POP DUP4 DUP9 ADD SWAP6 POP JUMPDEST POP SWAP4 SWAP12 SWAP11 POP POP POP POP POP POP POP POP POP POP POP JUMP JUMPDEST PUSH1 0x1 PUSH1 0x1 PUSH1 0xA0 SHL SUB DUP6 DUP2 AND DUP3 MSTORE DUP5 AND PUSH1 0x20 DUP3 ADD MSTORE PUSH1 0x40 DUP2 ADD DUP4 SWAP1 MSTORE PUSH1 0x80 PUSH1 0x60 DUP3 ADD DUP2 SWAP1 MSTORE PUSH1 0x0 SWAP1 PUSH2 0x23DB SWAP1 DUP4 ADD DUP5 PUSH2 0x22BA JUMP JUMPDEST SWAP7 SWAP6 POP POP POP POP POP POP JUMP JUMPDEST PUSH1 0x20 DUP1 DUP3 MSTORE DUP3 MLOAD DUP3 DUP3 ADD DUP2 SWAP1 MSTORE PUSH1 0x0 SWAP2 SWAP1 DUP5 DUP3 ADD SWAP1 PUSH1 0x40 DUP6 ADD SWAP1 DUP5 JUMPDEST DUP2 DUP2 LT ISZERO PUSH2 0x241D JUMPI DUP4 MLOAD DUP4 MSTORE SWAP3 DUP5 ADD SWAP3 SWAP2 DUP5 ADD SWAP2 PUSH1 0x1 ADD PUSH2 0x2401 JUMP JUMPDEST POP SWAP1 SWAP7 SWAP6 POP POP POP POP POP POP JUMP JUMPDEST PUSH1 0x20 DUP2 MSTORE PUSH1 0x0 PUSH2 0x1348 PUSH1 0x20 DUP4 ADD DUP5 PUSH2 0x22BA JUMP JUMPDEST PUSH1 0x20 DUP1 DUP3 MSTORE PUSH1 0x32 SWAP1 DUP3 ADD MSTORE PUSH32 0x4552433732313A207472616E7366657220746F206E6F6E204552433732315265 PUSH1 0x40 DUP3 ADD MSTORE PUSH18 0x31B2B4BB32B91034B6B83632B6B2B73A32B9 PUSH1 0x71 SHL PUSH1 0x60 DUP3 ADD MSTORE PUSH1 0x80 ADD SWAP1 JUMP JUMPDEST PUSH1 0x20 DUP1 DUP3 MSTORE PUSH1 0x2E SWAP1 DUP3 ADD MSTORE PUSH32 0x4552433732313A2063616C6C6572206973206E6F7420746F6B656E206F776E65 PUSH1 0x40 DUP3 ADD MSTORE PUSH14 0x1C881B9BDC88185C1C1C9BDD9959 PUSH1 0x92 SHL PUSH1 0x60 DUP3 ADD MSTORE PUSH1 0x80 ADD SWAP1 JUMP JUMPDEST PUSH1 0x0 DUP3 NOT DUP3 GT ISZERO PUSH2 0x24EF JUMPI PUSH2 0x24EF PUSH2 0x25D4 JUMP JUMPDEST POP ADD SWAP1 JUMP JUMPDEST PUSH1 0x0 DUP3 PUSH2 0x2503 JUMPI PUSH2 0x2503 PUSH2 0x25EA JUMP JUMPDEST POP DIV SWAP1 JUMP JUMPDEST PUSH1 0x0 DUP2 PUSH1 0x0 NOT DIV DUP4 GT DUP3 ISZERO ISZERO AND ISZERO PUSH2 0x2522 JUMPI PUSH2 0x2522 PUSH2 0x25D4 JUMP JUMPDEST POP MUL SWAP1 JUMP JUMPDEST PUSH1 0x0 DUP3 DUP3 LT ISZERO PUSH2 0x2539 JUMPI PUSH2 0x2539 PUSH2 0x25D4 JUMP JUMPDEST POP SUB SWAP1 JUMP JUMPDEST PUSH1 0x0 JUMPDEST DUP4 DUP2 LT ISZERO PUSH2 0x2559 JUMPI DUP2 DUP2 ADD MLOAD DUP4 DUP3 ADD MSTORE PUSH1 0x20 ADD PUSH2 0x2541 JUMP JUMPDEST DUP4 DUP2 GT ISZERO PUSH2 0xB80 JUMPI POP POP PUSH1 0x0 SWAP2 ADD MSTORE JUMP JUMPDEST PUSH1 0x1 DUP2 DUP2 SHR SWAP1 DUP3 AND DUP1 PUSH2 0x257E JUMPI PUSH1 0x7F DUP3 AND SWAP2 POP JUMPDEST PUSH1 0x20 DUP3 LT DUP2 EQ ISZERO PUSH2 0x259F JUMPI PUSH4 0x4E487B71 PUSH1 0xE0 SHL PUSH1 0x0 MSTORE PUSH1 0x22 PUSH1 0x4 MSTORE PUSH1 0x24 PUSH1 0x0 REVERT JUMPDEST POP SWAP2 SWAP1 POP JUMP JUMPDEST PUSH1 0x0 PUSH1 0x0 NOT DUP3 EQ ISZERO PUSH2 0x25B9 JUMPI PUSH2 0x25B9 PUSH2 0x25D4 JUMP JUMPDEST POP PUSH1 0x1 ADD SWAP1 JUMP JUMPDEST PUSH1 0x0 DUP3 PUSH2 0x25CF JUMPI PUSH2 0x25CF PUSH2 0x25EA JUMP JUMPDEST POP MOD SWAP1 JUMP JUMPDEST PUSH4 0x4E487B71 PUSH1 0xE0 SHL PUSH1 0x0 MSTORE PUSH1 0x11 PUSH1 0x4 MSTORE PUSH1 0x24 PUSH1 0x0 REVERT JUMPDEST PUSH4 0x4E487B71 PUSH1 0xE0 SHL PUSH1 0x0 MSTORE PUSH1 0x12 PUSH1 0x4 MSTORE PUSH1 0x24 PUSH1 0x0 REVERT JUMPDEST PUSH4 0x4E487B71 PUSH1 0xE0 SHL PUSH1 0x0 MSTORE PUSH1 0x41 PUSH1 0x4 MSTORE PUSH1 0x24 PUSH1 0x0 REVERT JUMPDEST PUSH1 0x1 PUSH1 0x1 PUSH1 0xA0 SHL SUB DUP2 AND DUP2 EQ PUSH2 0x13E0 JUMPI PUSH1 0x0 DUP1 REVERT JUMPDEST DUP1 ISZERO ISZERO DUP2 EQ PUSH2 0x13E0 JUMPI PUSH1 0x0 DUP1 REVERT JUMPDEST PUSH1 0x1 PUSH1 0x1 PUSH1 0xE0 SHL SUB NOT DUP2 AND DUP2 EQ PUSH2 0x13E0 JUMPI PUSH1 0x0 DUP1 REVERT INVALID PUSH9 0x747470733A2F2F6261 PUSH7 0x79626569626A78 PUSH26 0x616D69636C7162377079746537727368666862666F793734696D PUSH7 0x6F6E35646F3568 PUSH4 0x37627068 PUSH22 0x78326571716475692E697066732E6E667473746F7261 PUSH8 0x652E6C696E6B2F46 PUSH2 0x6E74 PUSH2 0x7379 0x25 ORIGIN ADDRESS 0x25 ORIGIN CALLER LOG2 PUSH5 0x6970667358 0x22 SLT KECCAK256 PUSH27 0x8AFC5AAFC47721D9BD7A374C52C0015881C4DB567F7FA40F2B3C36 SWAP14 0x5F CALLVALUE SMOD PUSH5 0x736F6C6343 STOP ADDMOD DIV STOP CALLER "
				},
				"gasEstimates": {
					"creation": {
						"codeDepositCost": "1992600",
						"executionCost": "infinite",
						"totalCost": "infinite"
					},
					"external": {
						"AllowedCrypto(uint256)": "2941",
						"addCurrency(address,uint256)": "63035",
						"approve(address,uint256)": "infinite",
						"balanceOf(address)": "1372",
						"baseExtension()": "infinite",
						"baseURI()": "infinite",
						"cost()": "1085",
						"getApproved(uint256)": "2237",
						"getCryptotoken(uint256)": "2106",
						"getNFTCost(uint256)": "2072",
						"isApprovedForAll(address,address)": "infinite",
						"maxMintAmount()": "1129",
						"maxSupply()": "1061",
						"mint(address,uint256)": "infinite",
						"mintpid(address,uint256,uint256)": "infinite",
						"name()": "infinite",
						"owner()": "1076",
						"ownerOf(uint256)": "1350",
						"pause(bool)": "22056",
						"paused()": "1089",
						"renounceOwnership()": "infinite",
						"safeTransferFrom(address,address,uint256)": "infinite",
						"safeTransferFrom(address,address,uint256,bytes)": "infinite",
						"setApprovalForAll(address,bool)": "infinite",
						"setBaseExtension(string)": "infinite",
						"setBaseURI(string)": "infinite",
						"setmaxMintAmount(uint256)": "21221",
						"supportsInterface(bytes4)": "infinite",
						"symbol()": "infinite",
						"tokenByIndex(uint256)": "2861",
						"tokenOfOwnerByIndex(address,uint256)": "2414",
						"tokenURI(uint256)": "infinite",
						"totalSupply()": "1104",
						"transferFrom(address,address,uint256)": "infinite",
						"transferOwnership(address)": "infinite",
						"walletOfOwner(address)": "infinite",
						"withdraw()": "infinite",
						"withdrawcustom(uint256)": "infinite"
					},
					"internal": {
						"_baseURI()": "infinite"
					}
				},
				"methodIdentifiers": {
					"AllowedCrypto(uint256)": "26c91cad",
					"addCurrency(address,uint256)": "690e4fc3",
					"approve(address,uint256)": "095ea7b3",
					"balanceOf(address)": "70a08231",
					"baseExtension()": "c6682862",
					"baseURI()": "6c0360eb",
					"cost()": "13faede6",
					"getApproved(uint256)": "081812fc",
					"getCryptotoken(uint256)": "0c75afab",
					"getNFTCost(uint256)": "3d3d5508",
					"isApprovedForAll(address,address)": "e985e9c5",
					"maxMintAmount()": "239c70ae",
					"maxSupply()": "d5abeb01",
					"mint(address,uint256)": "40c10f19",
					"mintpid(address,uint256,uint256)": "356911b4",
					"name()": "06fdde03",
					"owner()": "8da5cb5b",
					"ownerOf(uint256)": "6352211e",
					"pause(bool)": "02329a29",
					"paused()": "5c975abb",
					"renounceOwnership()": "715018a6",
					"safeTransferFrom(address,address,uint256)": "42842e0e",
					"safeTransferFrom(address,address,uint256,bytes)": "b88d4fde",
					"setApprovalForAll(address,bool)": "a22cb465",
					"setBaseExtension(string)": "da3ef23f",
					"setBaseURI(string)": "55f804b3",
					"setmaxMintAmount(uint256)": "7f00c7a6",
					"supportsInterface(bytes4)": "01ffc9a7",
					"symbol()": "95d89b41",
					"tokenByIndex(uint256)": "4f6ccce7",
					"tokenOfOwnerByIndex(address,uint256)": "2f745c59",
					"tokenURI(uint256)": "c87b56dd",
					"totalSupply()": "18160ddd",
					"transferFrom(address,address,uint256)": "23b872dd",
					"transferOwnership(address)": "f2fde38b",
					"walletOfOwner(address)": "438b6300",
					"withdraw()": "3ccfd60b",
					"withdrawcustom(uint256)": "34cc5dca"
				}
			},
			"storageLayout": {
				"storage": [
					{
						"astId": 216,
						"contract": "polygon/Collection.sol:Collection",
						"label": "_name",
						"offset": 0,
						"slot": "0",
						"type": "t_string_storage"
					},
					{
						"astId": 218,
						"contract": "polygon/Collection.sol:Collection",
						"label": "_symbol",
						"offset": 0,
						"slot": "1",
						"type": "t_string_storage"
					},
					{
						"astId": 222,
						"contract": "polygon/Collection.sol:Collection",
						"label": "_owners",
						"offset": 0,
						"slot": "2",
						"type": "t_mapping(t_uint256,t_address)"
					},
					{
						"astId": 226,
						"contract": "polygon/Collection.sol:Collection",
						"label": "_balances",
						"offset": 0,
						"slot": "3",
						"type": "t_mapping(t_address,t_uint256)"
					},
					{
						"astId": 230,
						"contract": "polygon/Collection.sol:Collection",
						"label": "_tokenApprovals",
						"offset": 0,
						"slot": "4",
						"type": "t_mapping(t_uint256,t_address)"
					},
					{
						"astId": 236,
						"contract": "polygon/Collection.sol:Collection",
						"label": "_operatorApprovals",
						"offset": 0,
						"slot": "5",
						"type": "t_mapping(t_address,t_mapping(t_address,t_bool))"
					},
					{
						"astId": 1206,
						"contract": "polygon/Collection.sol:Collection",
						"label": "_ownedTokens",
						"offset": 0,
						"slot": "6",
						"type": "t_mapping(t_address,t_mapping(t_uint256,t_uint256))"
					},
					{
						"astId": 1210,
						"contract": "polygon/Collection.sol:Collection",
						"label": "_ownedTokensIndex",
						"offset": 0,
						"slot": "7",
						"type": "t_mapping(t_uint256,t_uint256)"
					},
					{
						"astId": 1213,
						"contract": "polygon/Collection.sol:Collection",
						"label": "_allTokens",
						"offset": 0,
						"slot": "8",
						"type": "t_array(t_uint256)dyn_storage"
					},
					{
						"astId": 1217,
						"contract": "polygon/Collection.sol:Collection",
						"label": "_allTokensIndex",
						"offset": 0,
						"slot": "9",
						"type": "t_mapping(t_uint256,t_uint256)"
					},
					{
						"astId": 7,
						"contract": "polygon/Collection.sol:Collection",
						"label": "_owner",
						"offset": 0,
						"slot": "10",
						"type": "t_address"
					},
					{
						"astId": 2185,
						"contract": "polygon/Collection.sol:Collection",
						"label": "AllowedCrypto",
						"offset": 0,
						"slot": "11",
						"type": "t_array(t_struct(TokenInfo)2181_storage)dyn_storage"
					},
					{
						"astId": 2190,
						"contract": "polygon/Collection.sol:Collection",
						"label": "baseURI",
						"offset": 0,
						"slot": "12",
						"type": "t_string_storage"
					},
					{
						"astId": 2193,
						"contract": "polygon/Collection.sol:Collection",
						"label": "baseExtension",
						"offset": 0,
						"slot": "13",
						"type": "t_string_storage"
					},
					{
						"astId": 2196,
						"contract": "polygon/Collection.sol:Collection",
						"label": "cost",
						"offset": 0,
						"slot": "14",
						"type": "t_uint256"
					},
					{
						"astId": 2199,
						"contract": "polygon/Collection.sol:Collection",
						"label": "maxSupply",
						"offset": 0,
						"slot": "15",
						"type": "t_uint256"
					},
					{
						"astId": 2202,
						"contract": "polygon/Collection.sol:Collection",
						"label": "maxMintAmount",
						"offset": 0,
						"slot": "16",
						"type": "t_uint256"
					},
					{
						"astId": 2205,
						"contract": "polygon/Collection.sol:Collection",
						"label": "paused",
						"offset": 0,
						"slot": "17",
						"type": "t_bool"
					}
				],
				"types": {
					"t_address": {
						"encoding": "inplace",
						"label": "address",
						"numberOfBytes": "20"
					},
					"t_array(t_struct(TokenInfo)2181_storage)dyn_storage": {
						"base": "t_struct(TokenInfo)2181_storage",
						"encoding": "dynamic_array",
						"label": "struct Collection.TokenInfo[]",
						"numberOfBytes": "32"
					},
					"t_array(t_uint256)dyn_storage": {
						"base": "t_uint256",
						"encoding": "dynamic_array",
						"label": "uint256[]",
						"numberOfBytes": "32"
					},
					"t_bool": {
						"encoding": "inplace",
						"label": "bool",
						"numberOfBytes": "1"
					},
					"t_contract(IERC20)190": {
						"encoding": "inplace",
						"label": "contract IERC20",
						"numberOfBytes": "20"
					},
					"t_mapping(t_address,t_bool)": {
						"encoding": "mapping",
						"key": "t_address",
						"label": "mapping(address => bool)",
						"numberOfBytes": "32",
						"value": "t_bool"
					},
					"t_mapping(t_address,t_mapping(t_address,t_bool))": {
						"encoding": "mapping",
						"key": "t_address",
						"label": "mapping(address => mapping(address => bool))",
						"numberOfBytes": "32",
						"value": "t_mapping(t_address,t_bool)"
					},
					"t_mapping(t_address,t_mapping(t_uint256,t_uint256))": {
						"encoding": "mapping",
						"key": "t_address",
						"label": "mapping(address => mapping(uint256 => uint256))",
						"numberOfBytes": "32",
						"value": "t_mapping(t_uint256,t_uint256)"
					},
					"t_mapping(t_address,t_uint256)": {
						"encoding": "mapping",
						"key": "t_address",
						"label": "mapping(address => uint256)",
						"numberOfBytes": "32",
						"value": "t_uint256"
					},
					"t_mapping(t_uint256,t_address)": {
						"encoding": "mapping",
						"key": "t_uint256",
						"label": "mapping(uint256 => address)",
						"numberOfBytes": "32",
						"value": "t_address"
					},
					"t_mapping(t_uint256,t_uint256)": {
						"encoding": "mapping",
						"key": "t_uint256",
						"label": "mapping(uint256 => uint256)",
						"numberOfBytes": "32",
						"value": "t_uint256"
					},
					"t_string_storage": {
						"encoding": "bytes",
						"label": "string",
						"numberOfBytes": "32"
					},
					"t_struct(TokenInfo)2181_storage": {
						"encoding": "inplace",
						"label": "struct Collection.TokenInfo",
						"members": [
							{
								"astId": 2178,
								"contract": "polygon/Collection.sol:Collection",
								"label": "paytoken",
								"offset": 0,
								"slot": "0",
								"type": "t_contract(IERC20)190"
							},
							{
								"astId": 2180,
								"contract": "polygon/Collection.sol:Collection",
								"label": "costvalue",
								"offset": 0,
								"slot": "1",
								"type": "t_uint256"
							}
						],
						"numberOfBytes": "64"
					},
					"t_uint256": {
						"encoding": "inplace",
						"label": "uint256",
						"numberOfBytes": "32"
					}
				}
			},
			"userdoc": {
				"kind": "user",
				"methods": {},
				"version": 1
			}
		}
	}
}